{
	"Reserva.sol": {
		"Reserva": {
			"abi": [
				{
					"inputs": [],
					"stateMutability": "nonpayable",
					"type": "constructor"
				},
				{
					"anonymous": false,
					"inputs": [
						{
							"indexed": false,
							"internalType": "string",
							"name": "_message",
							"type": "string"
						}
					],
					"name": "AforoDisponible",
					"type": "event"
				},
				{
					"anonymous": false,
					"inputs": [
						{
							"indexed": false,
							"internalType": "string",
							"name": "_message",
							"type": "string"
						}
					],
					"name": "Status",
					"type": "event"
				},
				{
					"inputs": [],
					"name": "cancelar",
					"outputs": [],
					"stateMutability": "nonpayable",
					"type": "function"
				},
				{
					"inputs": [],
					"name": "compra",
					"outputs": [],
					"stateMutability": "payable",
					"type": "function"
				},
				{
					"inputs": [],
					"name": "comprador",
					"outputs": [
						{
							"internalType": "address payable",
							"name": "",
							"type": "address"
						}
					],
					"stateMutability": "view",
					"type": "function"
				},
				{
					"inputs": [],
					"name": "contractaddress",
					"outputs": [
						{
							"internalType": "address payable",
							"name": "",
							"type": "address"
						}
					],
					"stateMutability": "view",
					"type": "function"
				},
				{
					"inputs": [],
					"name": "description",
					"outputs": [
						{
							"internalType": "string",
							"name": "",
							"type": "string"
						}
					],
					"stateMutability": "view",
					"type": "function"
				},
				{
					"inputs": [],
					"name": "entradasdisponibles",
					"outputs": [
						{
							"internalType": "uint8",
							"name": "",
							"type": "uint8"
						}
					],
					"stateMutability": "view",
					"type": "function"
				},
				{
					"inputs": [],
					"name": "getentradasdisponibles",
					"outputs": [
						{
							"internalType": "uint8",
							"name": "",
							"type": "uint8"
						}
					],
					"stateMutability": "view",
					"type": "function"
				},
				{
					"inputs": [],
					"name": "owner",
					"outputs": [
						{
							"internalType": "address payable",
							"name": "",
							"type": "address"
						}
					],
					"stateMutability": "view",
					"type": "function"
				},
				{
					"inputs": [],
					"name": "price",
					"outputs": [
						{
							"internalType": "uint256",
							"name": "",
							"type": "uint256"
						}
					],
					"stateMutability": "view",
					"type": "function"
				},
				{
					"inputs": [],
					"name": "totalentradas",
					"outputs": [
						{
							"internalType": "uint8",
							"name": "",
							"type": "uint8"
						}
					],
					"stateMutability": "view",
					"type": "function"
				},
				{
					"inputs": [],
					"name": "withdraw",
					"outputs": [],
					"stateMutability": "payable",
					"type": "function"
				}
			],
			"devdoc": {
				"kind": "dev",
				"methods": {},
				"version": 1
			},
			"evm": {
				"assembly": "    /* \"Reserva.sol\":286:4861  contract Reserva {... */\n  mstore(0x40, 0x80)\n    /* \"Reserva.sol\":546:567  address(this).balance */\n  selfbalance\n    /* \"Reserva.sol\":525:567  uint fondostotales = address(this).balance */\n  0x03\n  sstore\n    /* \"Reserva.sol\":1183:1657  constructor() {... */\n  callvalue\n  dup1\n  iszero\n  tag_1\n  jumpi\n  0x00\n  dup1\n  revert\ntag_1:\n  pop\n    /* \"Reserva.sol\":1274:1338  description = \"Concierto de miliki en la sala Sol el 25/03/2023\" */\n  mload(0x40)\n  dup1\n  0x60\n  add\n  0x40\n  mstore\n  dup1\n  0x30\n  dup2\n  mstore\n  0x20\n  add\n  data_e8e305b566920699f4a88ce92034cae18128062aba872e56ce8aba497d519e27\n  0x30\n  swap2\n  codecopy\n    /* \"Reserva.sol\":1274:1285  description */\n  0x00\n    /* \"Reserva.sol\":1274:1338  description = \"Concierto de miliki en la sala Sol el 25/03/2023\" */\n  swap1\n  dup2\n  tag_4\n  swap2\n  swap1\n  tag_5\n  jump\t// in\ntag_4:\n  pop\n    /* \"Reserva.sol\":1357:1368  0.001 ether */\n  0x038d7ea4c68000\n    /* \"Reserva.sol\":1349:1354  price */\n  0x01\n    /* \"Reserva.sol\":1349:1368  price = 0.001 ether */\n  dup2\n  swap1\n  sstore\n  pop\n    /* \"Reserva.sol\":1395:1398  100 */\n  0x64\n    /* \"Reserva.sol\":1379:1392  totalentradas */\n  0x02\n  0x00\n    /* \"Reserva.sol\":1379:1398  totalentradas = 100 */\n  0x0100\n  exp\n  dup2\n  sload\n  dup2\n  0xff\n  mul\n  not\n  and\n  swap1\n  dup4\n  0xff\n  and\n  mul\n  or\n  swap1\n  sstore\n  pop\n    /* \"Reserva.sol\":1431:1444  totalentradas */\n  0x02\n  0x00\n  swap1\n  sload\n  swap1\n  0x0100\n  exp\n  swap1\n  div\n  0xff\n  and\n    /* \"Reserva.sol\":1409:1428  entradasdisponibles */\n  0x02\n  0x01\n    /* \"Reserva.sol\":1409:1444  entradasdisponibles = totalentradas */\n  0x0100\n  exp\n  dup2\n  sload\n  dup2\n  0xff\n  mul\n  not\n  and\n  swap1\n  dup4\n  0xff\n  and\n  mul\n  or\n  swap1\n  sstore\n  pop\n    /* \"Reserva.sol\":1466:1471  false */\n  0x00\n    /* \"Reserva.sol\":1455:1463  completo */\n  0x06\n  0x14\n    /* \"Reserva.sol\":1455:1471  completo = false */\n  0x0100\n  exp\n  dup2\n  sload\n  dup2\n  0xff\n  mul\n  not\n  and\n  swap1\n  dup4\n  iszero\n  iszero\n  mul\n  or\n  swap1\n  sstore\n  pop\n    /* \"Reserva.sol\":1498:1508  msg.sender */\n  caller\n    /* \"Reserva.sol\":1482:1487  owner */\n  0x05\n  0x00\n    /* \"Reserva.sol\":1482:1509  owner = payable(msg.sender) */\n  0x0100\n  exp\n  dup2\n  sload\n  dup2\n  0xffffffffffffffffffffffffffffffffffffffff\n  mul\n  not\n  and\n  swap1\n  dup4\n  0xffffffffffffffffffffffffffffffffffffffff\n  and\n  mul\n  or\n  swap1\n  sstore\n  pop\n    /* \"Reserva.sol\":1554:1558  this */\n  address\n    /* \"Reserva.sol\":1520:1535  contractaddress */\n  0x06\n  0x00\n    /* \"Reserva.sol\":1520:1560  contractaddress = payable(address(this)) */\n  0x0100\n  exp\n  dup2\n  sload\n  dup2\n  0xffffffffffffffffffffffffffffffffffffffff\n  mul\n  not\n  and\n  swap1\n  dup4\n  0xffffffffffffffffffffffffffffffffffffffff\n  and\n  mul\n  or\n  swap1\n  sstore\n  pop\n    /* \"Reserva.sol\":1619:1649  Status(\"Concierto disponible\") */\n  0x2844c95bf1b4598da931d527f903501abc60fe0199c65da52d5ce818c6c5e961\n  mload(0x40)\n  tag_6\n  swap1\n  tag_7\n  jump\t// in\ntag_6:\n  mload(0x40)\n  dup1\n  swap2\n  sub\n  swap1\n  log1\n    /* \"Reserva.sol\":286:4861  contract Reserva {... */\n  jump(tag_8)\n    /* \"#utility.yul\":7:106   */\ntag_9:\n    /* \"#utility.yul\":59:65   */\n  0x00\n    /* \"#utility.yul\":93:98   */\n  dup2\n    /* \"#utility.yul\":87:99   */\n  mload\n    /* \"#utility.yul\":77:99   */\n  swap1\n  pop\n    /* \"#utility.yul\":7:106   */\n  swap2\n  swap1\n  pop\n  jump\t// out\n    /* \"#utility.yul\":112:292   */\ntag_10:\n    /* \"#utility.yul\":160:237   */\n  0x4e487b7100000000000000000000000000000000000000000000000000000000\n    /* \"#utility.yul\":157:158   */\n  0x00\n    /* \"#utility.yul\":150:238   */\n  mstore\n    /* \"#utility.yul\":257:261   */\n  0x41\n    /* \"#utility.yul\":254:255   */\n  0x04\n    /* \"#utility.yul\":247:262   */\n  mstore\n    /* \"#utility.yul\":281:285   */\n  0x24\n    /* \"#utility.yul\":278:279   */\n  0x00\n    /* \"#utility.yul\":271:286   */\n  revert\n    /* \"#utility.yul\":298:478   */\ntag_11:\n    /* \"#utility.yul\":346:423   */\n  0x4e487b7100000000000000000000000000000000000000000000000000000000\n    /* \"#utility.yul\":343:344   */\n  0x00\n    /* \"#utility.yul\":336:424   */\n  mstore\n    /* \"#utility.yul\":443:447   */\n  0x22\n    /* \"#utility.yul\":440:441   */\n  0x04\n    /* \"#utility.yul\":433:448   */\n  mstore\n    /* \"#utility.yul\":467:471   */\n  0x24\n    /* \"#utility.yul\":464:465   */\n  0x00\n    /* \"#utility.yul\":457:472   */\n  revert\n    /* \"#utility.yul\":484:804   */\ntag_12:\n    /* \"#utility.yul\":528:534   */\n  0x00\n    /* \"#utility.yul\":565:566   */\n  0x02\n    /* \"#utility.yul\":559:563   */\n  dup3\n    /* \"#utility.yul\":555:567   */\n  div\n    /* \"#utility.yul\":545:567   */\n  swap1\n  pop\n    /* \"#utility.yul\":612:613   */\n  0x01\n    /* \"#utility.yul\":606:610   */\n  dup3\n    /* \"#utility.yul\":602:614   */\n  and\n    /* \"#utility.yul\":633:651   */\n  dup1\n    /* \"#utility.yul\":623:704   */\n  tag_37\n  jumpi\n    /* \"#utility.yul\":689:693   */\n  0x7f\n    /* \"#utility.yul\":681:687   */\n  dup3\n    /* \"#utility.yul\":677:694   */\n  and\n    /* \"#utility.yul\":667:694   */\n  swap2\n  pop\n    /* \"#utility.yul\":623:704   */\ntag_37:\n    /* \"#utility.yul\":751:753   */\n  0x20\n    /* \"#utility.yul\":743:749   */\n  dup3\n    /* \"#utility.yul\":740:754   */\n  lt\n    /* \"#utility.yul\":720:738   */\n  dup2\n    /* \"#utility.yul\":717:755   */\n  sub\n    /* \"#utility.yul\":714:798   */\n  tag_38\n  jumpi\n    /* \"#utility.yul\":770:788   */\n  tag_39\n  tag_11\n  jump\t// in\ntag_39:\n    /* \"#utility.yul\":714:798   */\ntag_38:\n    /* \"#utility.yul\":535:804   */\n  pop\n    /* \"#utility.yul\":484:804   */\n  swap2\n  swap1\n  pop\n  jump\t// out\n    /* \"#utility.yul\":810:951   */\ntag_13:\n    /* \"#utility.yul\":859:863   */\n  0x00\n    /* \"#utility.yul\":882:885   */\n  dup2\n    /* \"#utility.yul\":874:885   */\n  swap1\n  pop\n    /* \"#utility.yul\":905:908   */\n  dup2\n    /* \"#utility.yul\":902:903   */\n  0x00\n    /* \"#utility.yul\":895:909   */\n  mstore\n    /* \"#utility.yul\":939:943   */\n  0x20\n    /* \"#utility.yul\":936:937   */\n  0x00\n    /* \"#utility.yul\":926:944   */\n  keccak256\n    /* \"#utility.yul\":918:944   */\n  swap1\n  pop\n    /* \"#utility.yul\":810:951   */\n  swap2\n  swap1\n  pop\n  jump\t// out\n    /* \"#utility.yul\":957:1050   */\ntag_14:\n    /* \"#utility.yul\":994:1000   */\n  0x00\n    /* \"#utility.yul\":1041:1043   */\n  0x20\n    /* \"#utility.yul\":1036:1038   */\n  0x1f\n    /* \"#utility.yul\":1029:1034   */\n  dup4\n    /* \"#utility.yul\":1025:1039   */\n  add\n    /* \"#utility.yul\":1021:1044   */\n  div\n    /* \"#utility.yul\":1011:1044   */\n  swap1\n  pop\n    /* \"#utility.yul\":957:1050   */\n  swap2\n  swap1\n  pop\n  jump\t// out\n    /* \"#utility.yul\":1056:1163   */\ntag_15:\n    /* \"#utility.yul\":1100:1108   */\n  0x00\n    /* \"#utility.yul\":1150:1155   */\n  dup3\n    /* \"#utility.yul\":1144:1148   */\n  dup3\n    /* \"#utility.yul\":1140:1156   */\n  shl\n    /* \"#utility.yul\":1119:1156   */\n  swap1\n  pop\n    /* \"#utility.yul\":1056:1163   */\n  swap3\n  swap2\n  pop\n  pop\n  jump\t// out\n    /* \"#utility.yul\":1169:1562   */\ntag_16:\n    /* \"#utility.yul\":1238:1244   */\n  0x00\n    /* \"#utility.yul\":1288:1289   */\n  0x08\n    /* \"#utility.yul\":1276:1286   */\n  dup4\n    /* \"#utility.yul\":1272:1290   */\n  mul\n    /* \"#utility.yul\":1311:1408   */\n  tag_44\n    /* \"#utility.yul\":1341:1407   */\n  0xffffffffffffffffffffffffffffffffffffffffffffffffffffffffffffffff\n    /* \"#utility.yul\":1330:1339   */\n  dup3\n    /* \"#utility.yul\":1311:1408   */\n  tag_15\n  jump\t// in\ntag_44:\n    /* \"#utility.yul\":1429:1468   */\n  tag_45\n    /* \"#utility.yul\":1459:1467   */\n  dup7\n    /* \"#utility.yul\":1448:1457   */\n  dup4\n    /* \"#utility.yul\":1429:1468   */\n  tag_15\n  jump\t// in\ntag_45:\n    /* \"#utility.yul\":1417:1468   */\n  swap6\n  pop\n    /* \"#utility.yul\":1501:1505   */\n  dup1\n    /* \"#utility.yul\":1497:1506   */\n  not\n    /* \"#utility.yul\":1490:1495   */\n  dup5\n    /* \"#utility.yul\":1486:1507   */\n  and\n    /* \"#utility.yul\":1477:1507   */\n  swap4\n  pop\n    /* \"#utility.yul\":1550:1554   */\n  dup1\n    /* \"#utility.yul\":1540:1548   */\n  dup7\n    /* \"#utility.yul\":1536:1555   */\n  and\n    /* \"#utility.yul\":1529:1534   */\n  dup5\n    /* \"#utility.yul\":1526:1556   */\n  or\n    /* \"#utility.yul\":1516:1556   */\n  swap3\n  pop\n    /* \"#utility.yul\":1245:1562   */\n  pop\n  pop\n    /* \"#utility.yul\":1169:1562   */\n  swap4\n  swap3\n  pop\n  pop\n  pop\n  jump\t// out\n    /* \"#utility.yul\":1568:1645   */\ntag_17:\n    /* \"#utility.yul\":1605:1612   */\n  0x00\n    /* \"#utility.yul\":1634:1639   */\n  dup2\n    /* \"#utility.yul\":1623:1639   */\n  swap1\n  pop\n    /* \"#utility.yul\":1568:1645   */\n  swap2\n  swap1\n  pop\n  jump\t// out\n    /* \"#utility.yul\":1651:1711   */\ntag_18:\n    /* \"#utility.yul\":1679:1682   */\n  0x00\n    /* \"#utility.yul\":1700:1705   */\n  dup2\n    /* \"#utility.yul\":1693:1705   */\n  swap1\n  pop\n    /* \"#utility.yul\":1651:1711   */\n  swap2\n  swap1\n  pop\n  jump\t// out\n    /* \"#utility.yul\":1717:1859   */\ntag_19:\n    /* \"#utility.yul\":1767:1776   */\n  0x00\n    /* \"#utility.yul\":1800:1853   */\n  tag_49\n    /* \"#utility.yul\":1818:1852   */\n  tag_50\n    /* \"#utility.yul\":1827:1851   */\n  tag_51\n    /* \"#utility.yul\":1845:1850   */\n  dup5\n    /* \"#utility.yul\":1827:1851   */\n  tag_17\n  jump\t// in\ntag_51:\n    /* \"#utility.yul\":1818:1852   */\n  tag_18\n  jump\t// in\ntag_50:\n    /* \"#utility.yul\":1800:1853   */\n  tag_17\n  jump\t// in\ntag_49:\n    /* \"#utility.yul\":1787:1853   */\n  swap1\n  pop\n    /* \"#utility.yul\":1717:1859   */\n  swap2\n  swap1\n  pop\n  jump\t// out\n    /* \"#utility.yul\":1865:1940   */\ntag_20:\n    /* \"#utility.yul\":1908:1911   */\n  0x00\n    /* \"#utility.yul\":1929:1934   */\n  dup2\n    /* \"#utility.yul\":1922:1934   */\n  swap1\n  pop\n    /* \"#utility.yul\":1865:1940   */\n  swap2\n  swap1\n  pop\n  jump\t// out\n    /* \"#utility.yul\":1946:2215   */\ntag_21:\n    /* \"#utility.yul\":2056:2095   */\n  tag_54\n    /* \"#utility.yul\":2087:2094   */\n  dup4\n    /* \"#utility.yul\":2056:2095   */\n  tag_19\n  jump\t// in\ntag_54:\n    /* \"#utility.yul\":2117:2208   */\n  tag_55\n    /* \"#utility.yul\":2166:2207   */\n  tag_56\n    /* \"#utility.yul\":2190:2206   */\n  dup3\n    /* \"#utility.yul\":2166:2207   */\n  tag_20\n  jump\t// in\ntag_56:\n    /* \"#utility.yul\":2158:2164   */\n  dup5\n    /* \"#utility.yul\":2151:2155   */\n  dup5\n    /* \"#utility.yul\":2145:2156   */\n  sload\n    /* \"#utility.yul\":2117:2208   */\n  tag_16\n  jump\t// in\ntag_55:\n    /* \"#utility.yul\":2111:2115   */\n  dup3\n    /* \"#utility.yul\":2104:2209   */\n  sstore\n    /* \"#utility.yul\":2022:2215   */\n  pop\n    /* \"#utility.yul\":1946:2215   */\n  pop\n  pop\n  pop\n  jump\t// out\n    /* \"#utility.yul\":2221:2294   */\ntag_22:\n    /* \"#utility.yul\":2266:2269   */\n  0x00\n    /* \"#utility.yul\":2221:2294   */\n  swap1\n  jump\t// out\n    /* \"#utility.yul\":2300:2489   */\ntag_23:\n    /* \"#utility.yul\":2377:2409   */\n  tag_59\n  tag_22\n  jump\t// in\ntag_59:\n    /* \"#utility.yul\":2418:2483   */\n  tag_60\n    /* \"#utility.yul\":2476:2482   */\n  dup2\n    /* \"#utility.yul\":2468:2474   */\n  dup5\n    /* \"#utility.yul\":2462:2466   */\n  dup5\n    /* \"#utility.yul\":2418:2483   */\n  tag_21\n  jump\t// in\ntag_60:\n    /* \"#utility.yul\":2353:2489   */\n  pop\n    /* \"#utility.yul\":2300:2489   */\n  pop\n  pop\n  jump\t// out\n    /* \"#utility.yul\":2495:2681   */\ntag_24:\n    /* \"#utility.yul\":2555:2675   */\ntag_62:\n    /* \"#utility.yul\":2572:2575   */\n  dup2\n    /* \"#utility.yul\":2565:2570   */\n  dup2\n    /* \"#utility.yul\":2562:2576   */\n  lt\n    /* \"#utility.yul\":2555:2675   */\n  iszero\n  tag_64\n  jumpi\n    /* \"#utility.yul\":2626:2665   */\n  tag_65\n    /* \"#utility.yul\":2663:2664   */\n  0x00\n    /* \"#utility.yul\":2656:2661   */\n  dup3\n    /* \"#utility.yul\":2626:2665   */\n  tag_23\n  jump\t// in\ntag_65:\n    /* \"#utility.yul\":2599:2600   */\n  0x01\n    /* \"#utility.yul\":2592:2597   */\n  dup2\n    /* \"#utility.yul\":2588:2601   */\n  add\n    /* \"#utility.yul\":2579:2601   */\n  swap1\n  pop\n    /* \"#utility.yul\":2555:2675   */\n  jump(tag_62)\ntag_64:\n    /* \"#utility.yul\":2495:2681   */\n  pop\n  pop\n  jump\t// out\n    /* \"#utility.yul\":2687:3230   */\ntag_25:\n    /* \"#utility.yul\":2788:2790   */\n  0x1f\n    /* \"#utility.yul\":2783:2786   */\n  dup3\n    /* \"#utility.yul\":2780:2791   */\n  gt\n    /* \"#utility.yul\":2777:3223   */\n  iszero\n  tag_67\n  jumpi\n    /* \"#utility.yul\":2822:2860   */\n  tag_68\n    /* \"#utility.yul\":2854:2859   */\n  dup2\n    /* \"#utility.yul\":2822:2860   */\n  tag_13\n  jump\t// in\ntag_68:\n    /* \"#utility.yul\":2906:2935   */\n  tag_69\n    /* \"#utility.yul\":2924:2934   */\n  dup5\n    /* \"#utility.yul\":2906:2935   */\n  tag_14\n  jump\t// in\ntag_69:\n    /* \"#utility.yul\":2896:2904   */\n  dup2\n    /* \"#utility.yul\":2892:2936   */\n  add\n    /* \"#utility.yul\":3089:3091   */\n  0x20\n    /* \"#utility.yul\":3077:3087   */\n  dup6\n    /* \"#utility.yul\":3074:3092   */\n  lt\n    /* \"#utility.yul\":3071:3120   */\n  iszero\n  tag_70\n  jumpi\n    /* \"#utility.yul\":3110:3118   */\n  dup2\n    /* \"#utility.yul\":3095:3118   */\n  swap1\n  pop\n    /* \"#utility.yul\":3071:3120   */\ntag_70:\n    /* \"#utility.yul\":3133:3213   */\n  tag_71\n    /* \"#utility.yul\":3189:3211   */\n  tag_72\n    /* \"#utility.yul\":3207:3210   */\n  dup6\n    /* \"#utility.yul\":3189:3211   */\n  tag_14\n  jump\t// in\ntag_72:\n    /* \"#utility.yul\":3179:3187   */\n  dup4\n    /* \"#utility.yul\":3175:3212   */\n  add\n    /* \"#utility.yul\":3162:3173   */\n  dup3\n    /* \"#utility.yul\":3133:3213   */\n  tag_24\n  jump\t// in\ntag_71:\n    /* \"#utility.yul\":2792:3223   */\n  pop\n  pop\n    /* \"#utility.yul\":2777:3223   */\ntag_67:\n    /* \"#utility.yul\":2687:3230   */\n  pop\n  pop\n  pop\n  jump\t// out\n    /* \"#utility.yul\":3236:3353   */\ntag_26:\n    /* \"#utility.yul\":3290:3298   */\n  0x00\n    /* \"#utility.yul\":3340:3345   */\n  dup3\n    /* \"#utility.yul\":3334:3338   */\n  dup3\n    /* \"#utility.yul\":3330:3346   */\n  shr\n    /* \"#utility.yul\":3309:3346   */\n  swap1\n  pop\n    /* \"#utility.yul\":3236:3353   */\n  swap3\n  swap2\n  pop\n  pop\n  jump\t// out\n    /* \"#utility.yul\":3359:3528   */\ntag_27:\n    /* \"#utility.yul\":3403:3409   */\n  0x00\n    /* \"#utility.yul\":3436:3487   */\n  tag_75\n    /* \"#utility.yul\":3484:3485   */\n  0x00\n    /* \"#utility.yul\":3480:3486   */\n  not\n    /* \"#utility.yul\":3472:3477   */\n  dup5\n    /* \"#utility.yul\":3469:3470   */\n  0x08\n    /* \"#utility.yul\":3465:3478   */\n  mul\n    /* \"#utility.yul\":3436:3487   */\n  tag_26\n  jump\t// in\ntag_75:\n    /* \"#utility.yul\":3432:3488   */\n  not\n    /* \"#utility.yul\":3517:3521   */\n  dup1\n    /* \"#utility.yul\":3511:3515   */\n  dup4\n    /* \"#utility.yul\":3507:3522   */\n  and\n    /* \"#utility.yul\":3497:3522   */\n  swap2\n  pop\n    /* \"#utility.yul\":3410:3528   */\n  pop\n    /* \"#utility.yul\":3359:3528   */\n  swap3\n  swap2\n  pop\n  pop\n  jump\t// out\n    /* \"#utility.yul\":3533:3828   */\ntag_28:\n    /* \"#utility.yul\":3609:3613   */\n  0x00\n    /* \"#utility.yul\":3755:3784   */\n  tag_77\n    /* \"#utility.yul\":3780:3783   */\n  dup4\n    /* \"#utility.yul\":3774:3778   */\n  dup4\n    /* \"#utility.yul\":3755:3784   */\n  tag_27\n  jump\t// in\ntag_77:\n    /* \"#utility.yul\":3747:3784   */\n  swap2\n  pop\n    /* \"#utility.yul\":3817:3820   */\n  dup3\n    /* \"#utility.yul\":3814:3815   */\n  0x02\n    /* \"#utility.yul\":3810:3821   */\n  mul\n    /* \"#utility.yul\":3804:3808   */\n  dup3\n    /* \"#utility.yul\":3801:3822   */\n  or\n    /* \"#utility.yul\":3793:3822   */\n  swap1\n  pop\n    /* \"#utility.yul\":3533:3828   */\n  swap3\n  swap2\n  pop\n  pop\n  jump\t// out\n    /* \"#utility.yul\":3833:5228   */\ntag_5:\n    /* \"#utility.yul\":3950:3987   */\n  tag_79\n    /* \"#utility.yul\":3983:3986   */\n  dup3\n    /* \"#utility.yul\":3950:3987   */\n  tag_9\n  jump\t// in\ntag_79:\n    /* \"#utility.yul\":4052:4070   */\n  0xffffffffffffffff\n    /* \"#utility.yul\":4044:4050   */\n  dup2\n    /* \"#utility.yul\":4041:4071   */\n  gt\n    /* \"#utility.yul\":4038:4094   */\n  iszero\n  tag_80\n  jumpi\n    /* \"#utility.yul\":4074:4092   */\n  tag_81\n  tag_10\n  jump\t// in\ntag_81:\n    /* \"#utility.yul\":4038:4094   */\ntag_80:\n    /* \"#utility.yul\":4118:4156   */\n  tag_82\n    /* \"#utility.yul\":4150:4154   */\n  dup3\n    /* \"#utility.yul\":4144:4155   */\n  sload\n    /* \"#utility.yul\":4118:4156   */\n  tag_12\n  jump\t// in\ntag_82:\n    /* \"#utility.yul\":4203:4270   */\n  tag_83\n    /* \"#utility.yul\":4263:4269   */\n  dup3\n    /* \"#utility.yul\":4255:4261   */\n  dup3\n    /* \"#utility.yul\":4249:4253   */\n  dup6\n    /* \"#utility.yul\":4203:4270   */\n  tag_25\n  jump\t// in\ntag_83:\n    /* \"#utility.yul\":4297:4298   */\n  0x00\n    /* \"#utility.yul\":4321:4325   */\n  0x20\n    /* \"#utility.yul\":4308:4325   */\n  swap1\n  pop\n    /* \"#utility.yul\":4353:4355   */\n  0x1f\n    /* \"#utility.yul\":4345:4351   */\n  dup4\n    /* \"#utility.yul\":4342:4356   */\n  gt\n    /* \"#utility.yul\":4370:4371   */\n  0x01\n    /* \"#utility.yul\":4365:4983   */\n  dup2\n  eq\n  tag_85\n  jumpi\n    /* \"#utility.yul\":5027:5028   */\n  0x00\n    /* \"#utility.yul\":5044:5050   */\n  dup5\n    /* \"#utility.yul\":5041:5118   */\n  iszero\n  tag_86\n  jumpi\n    /* \"#utility.yul\":5093:5102   */\n  dup3\n    /* \"#utility.yul\":5088:5091   */\n  dup8\n    /* \"#utility.yul\":5084:5103   */\n  add\n    /* \"#utility.yul\":5078:5104   */\n  mload\n    /* \"#utility.yul\":5069:5104   */\n  swap1\n  pop\n    /* \"#utility.yul\":5041:5118   */\ntag_86:\n    /* \"#utility.yul\":5144:5211   */\n  tag_87\n    /* \"#utility.yul\":5204:5210   */\n  dup6\n    /* \"#utility.yul\":5197:5202   */\n  dup3\n    /* \"#utility.yul\":5144:5211   */\n  tag_28\n  jump\t// in\ntag_87:\n    /* \"#utility.yul\":5138:5142   */\n  dup7\n    /* \"#utility.yul\":5131:5212   */\n  sstore\n    /* \"#utility.yul\":5000:5222   */\n  pop\n    /* \"#utility.yul\":4335:5222   */\n  jump(tag_84)\n    /* \"#utility.yul\":4365:4983   */\ntag_85:\n    /* \"#utility.yul\":4417:4421   */\n  0x1f\n    /* \"#utility.yul\":4413:4422   */\n  not\n    /* \"#utility.yul\":4405:4411   */\n  dup5\n    /* \"#utility.yul\":4401:4423   */\n  and\n    /* \"#utility.yul\":4451:4488   */\n  tag_88\n    /* \"#utility.yul\":4483:4487   */\n  dup7\n    /* \"#utility.yul\":4451:4488   */\n  tag_13\n  jump\t// in\ntag_88:\n    /* \"#utility.yul\":4510:4511   */\n  0x00\n    /* \"#utility.yul\":4524:4732   */\ntag_89:\n    /* \"#utility.yul\":4538:4545   */\n  dup3\n    /* \"#utility.yul\":4535:4536   */\n  dup2\n    /* \"#utility.yul\":4532:4546   */\n  lt\n    /* \"#utility.yul\":4524:4732   */\n  iszero\n  tag_91\n  jumpi\n    /* \"#utility.yul\":4617:4626   */\n  dup5\n    /* \"#utility.yul\":4612:4615   */\n  dup10\n    /* \"#utility.yul\":4608:4627   */\n  add\n    /* \"#utility.yul\":4602:4628   */\n  mload\n    /* \"#utility.yul\":4594:4600   */\n  dup3\n    /* \"#utility.yul\":4587:4629   */\n  sstore\n    /* \"#utility.yul\":4668:4669   */\n  0x01\n    /* \"#utility.yul\":4660:4666   */\n  dup3\n    /* \"#utility.yul\":4656:4670   */\n  add\n    /* \"#utility.yul\":4646:4670   */\n  swap2\n  pop\n    /* \"#utility.yul\":4715:4717   */\n  0x20\n    /* \"#utility.yul\":4704:4713   */\n  dup6\n    /* \"#utility.yul\":4700:4718   */\n  add\n    /* \"#utility.yul\":4687:4718   */\n  swap5\n  pop\n    /* \"#utility.yul\":4561:4565   */\n  0x20\n    /* \"#utility.yul\":4558:4559   */\n  dup2\n    /* \"#utility.yul\":4554:4566   */\n  add\n    /* \"#utility.yul\":4549:4566   */\n  swap1\n  pop\n    /* \"#utility.yul\":4524:4732   */\n  jump(tag_89)\ntag_91:\n    /* \"#utility.yul\":4760:4766   */\n  dup7\n    /* \"#utility.yul\":4751:4758   */\n  dup4\n    /* \"#utility.yul\":4748:4767   */\n  lt\n    /* \"#utility.yul\":4745:4924   */\n  iszero\n  tag_92\n  jumpi\n    /* \"#utility.yul\":4818:4827   */\n  dup5\n    /* \"#utility.yul\":4813:4816   */\n  dup10\n    /* \"#utility.yul\":4809:4828   */\n  add\n    /* \"#utility.yul\":4803:4829   */\n  mload\n    /* \"#utility.yul\":4861:4909   */\n  tag_93\n    /* \"#utility.yul\":4903:4907   */\n  0x1f\n    /* \"#utility.yul\":4895:4901   */\n  dup10\n    /* \"#utility.yul\":4891:4908   */\n  and\n    /* \"#utility.yul\":4880:4889   */\n  dup3\n    /* \"#utility.yul\":4861:4909   */\n  tag_27\n  jump\t// in\ntag_93:\n    /* \"#utility.yul\":4853:4859   */\n  dup4\n    /* \"#utility.yul\":4846:4910   */\n  sstore\n    /* \"#utility.yul\":4768:4924   */\n  pop\n    /* \"#utility.yul\":4745:4924   */\ntag_92:\n    /* \"#utility.yul\":4970:4971   */\n  0x01\n    /* \"#utility.yul\":4966:4967   */\n  0x02\n    /* \"#utility.yul\":4958:4964   */\n  dup9\n    /* \"#utility.yul\":4954:4968   */\n  mul\n    /* \"#utility.yul\":4950:4972   */\n  add\n    /* \"#utility.yul\":4944:4948   */\n  dup9\n    /* \"#utility.yul\":4937:4973   */\n  sstore\n    /* \"#utility.yul\":4372:4983   */\n  pop\n  pop\n  pop\n    /* \"#utility.yul\":4335:5222   */\ntag_84:\n  pop\n    /* \"#utility.yul\":3925:5228   */\n  pop\n  pop\n  pop\n    /* \"#utility.yul\":3833:5228   */\n  pop\n  pop\n  jump\t// out\n    /* \"#utility.yul\":5234:5403   */\ntag_29:\n    /* \"#utility.yul\":5318:5329   */\n  0x00\n    /* \"#utility.yul\":5352:5358   */\n  dup3\n    /* \"#utility.yul\":5347:5350   */\n  dup3\n    /* \"#utility.yul\":5340:5359   */\n  mstore\n    /* \"#utility.yul\":5392:5396   */\n  0x20\n    /* \"#utility.yul\":5387:5390   */\n  dup3\n    /* \"#utility.yul\":5383:5397   */\n  add\n    /* \"#utility.yul\":5368:5397   */\n  swap1\n  pop\n    /* \"#utility.yul\":5234:5403   */\n  swap3\n  swap2\n  pop\n  pop\n  jump\t// out\n    /* \"#utility.yul\":5409:5579   */\ntag_30:\n    /* \"#utility.yul\":5549:5571   */\n  0x436f6e63696572746f20646973706f6e69626c65000000000000000000000000\n    /* \"#utility.yul\":5545:5546   */\n  0x00\n    /* \"#utility.yul\":5537:5543   */\n  dup3\n    /* \"#utility.yul\":5533:5547   */\n  add\n    /* \"#utility.yul\":5526:5572   */\n  mstore\n    /* \"#utility.yul\":5409:5579   */\n  pop\n  jump\t// out\n    /* \"#utility.yul\":5585:5951   */\ntag_31:\n    /* \"#utility.yul\":5727:5730   */\n  0x00\n    /* \"#utility.yul\":5748:5815   */\n  tag_97\n    /* \"#utility.yul\":5812:5814   */\n  0x14\n    /* \"#utility.yul\":5807:5810   */\n  dup4\n    /* \"#utility.yul\":5748:5815   */\n  tag_29\n  jump\t// in\ntag_97:\n    /* \"#utility.yul\":5741:5815   */\n  swap2\n  pop\n    /* \"#utility.yul\":5824:5917   */\n  tag_98\n    /* \"#utility.yul\":5913:5916   */\n  dup3\n    /* \"#utility.yul\":5824:5917   */\n  tag_30\n  jump\t// in\ntag_98:\n    /* \"#utility.yul\":5942:5944   */\n  0x20\n    /* \"#utility.yul\":5937:5940   */\n  dup3\n    /* \"#utility.yul\":5933:5945   */\n  add\n    /* \"#utility.yul\":5926:5945   */\n  swap1\n  pop\n    /* \"#utility.yul\":5585:5951   */\n  swap2\n  swap1\n  pop\n  jump\t// out\n    /* \"#utility.yul\":5957:6376   */\ntag_7:\n    /* \"#utility.yul\":6123:6127   */\n  0x00\n    /* \"#utility.yul\":6161:6163   */\n  0x20\n    /* \"#utility.yul\":6150:6159   */\n  dup3\n    /* \"#utility.yul\":6146:6164   */\n  add\n    /* \"#utility.yul\":6138:6164   */\n  swap1\n  pop\n    /* \"#utility.yul\":6210:6219   */\n  dup2\n    /* \"#utility.yul\":6204:6208   */\n  dup2\n    /* \"#utility.yul\":6200:6220   */\n  sub\n    /* \"#utility.yul\":6196:6197   */\n  0x00\n    /* \"#utility.yul\":6185:6194   */\n  dup4\n    /* \"#utility.yul\":6181:6198   */\n  add\n    /* \"#utility.yul\":6174:6221   */\n  mstore\n    /* \"#utility.yul\":6238:6369   */\n  tag_100\n    /* \"#utility.yul\":6364:6368   */\n  dup2\n    /* \"#utility.yul\":6238:6369   */\n  tag_31\n  jump\t// in\ntag_100:\n    /* \"#utility.yul\":6230:6369   */\n  swap1\n  pop\n    /* \"#utility.yul\":5957:6376   */\n  swap2\n  swap1\n  pop\n  jump\t// out\n    /* \"Reserva.sol\":286:4861  contract Reserva {... */\ntag_8:\n  dataSize(sub_0)\n  dup1\n  dataOffset(sub_0)\n  0x00\n  codecopy\n  0x00\n  return\nstop\ndata_e8e305b566920699f4a88ce92034cae18128062aba872e56ce8aba497d519e27 436f6e63696572746f206465206d696c696b6920656e206c612073616c6120536f6c20656c2032352f30332f32303233\n\nsub_0: assembly {\n        /* \"Reserva.sol\":286:4861  contract Reserva {... */\n      mstore(0x40, 0x80)\n      jumpi(tag_1, lt(calldatasize, 0x04))\n      shr(0xe0, calldataload(0x00))\n      dup1\n      0x72e61c52\n      gt\n      tag_13\n      jumpi\n      dup1\n      0x72e61c52\n      eq\n      tag_7\n      jumpi\n      dup1\n      0x8da5cb5b\n      eq\n      tag_8\n      jumpi\n      dup1\n      0x8ffb1ccf\n      eq\n      tag_9\n      jumpi\n      dup1\n      0xa035b1fe\n      eq\n      tag_10\n      jumpi\n      dup1\n      0xcb196d0f\n      eq\n      tag_11\n      jumpi\n      dup1\n      0xdb7fbc86\n      eq\n      tag_12\n      jumpi\n      jump(tag_1)\n    tag_13:\n      dup1\n      0x0f50b6e7\n      eq\n      tag_2\n      jumpi\n      dup1\n      0x2651e778\n      eq\n      tag_3\n      jumpi\n      dup1\n      0x2e71a1b4\n      eq\n      tag_4\n      jumpi\n      dup1\n      0x3ccfd60b\n      eq\n      tag_5\n      jumpi\n      dup1\n      0x7284e416\n      eq\n      tag_6\n      jumpi\n    tag_1:\n      0x00\n      dup1\n      revert\n        /* \"Reserva.sol\":608:640  address payable public comprador */\n    tag_2:\n      callvalue\n      dup1\n      iszero\n      tag_14\n      jumpi\n      0x00\n      dup1\n      revert\n    tag_14:\n      pop\n      tag_15\n      tag_16\n      jump\t// in\n    tag_15:\n      mload(0x40)\n      tag_17\n      swap2\n      swap1\n      tag_18\n      jump\t// in\n    tag_17:\n      mload(0x40)\n      dup1\n      swap2\n      sub\n      swap1\n      return\n        /* \"Reserva.sol\":486:518  uint8 public entradasdisponibles */\n    tag_3:\n      callvalue\n      dup1\n      iszero\n      tag_19\n      jumpi\n      0x00\n      dup1\n      revert\n    tag_19:\n      pop\n      tag_20\n      tag_21\n      jump\t// in\n    tag_20:\n      mload(0x40)\n      tag_22\n      swap2\n      swap1\n      tag_23\n      jump\t// in\n    tag_22:\n      mload(0x40)\n      dup1\n      swap2\n      sub\n      swap1\n      return\n        /* \"Reserva.sol\":1871:2575  function compra() public payable {... */\n    tag_4:\n      tag_24\n      tag_25\n      jump\t// in\n    tag_24:\n      stop\n        /* \"Reserva.sol\":3194:3510  function withdraw() public payable {... */\n    tag_5:\n      tag_26\n      tag_27\n      jump\t// in\n    tag_26:\n      stop\n        /* \"Reserva.sol\":397:422  string public description */\n    tag_6:\n      callvalue\n      dup1\n      iszero\n      tag_28\n      jumpi\n      0x00\n      dup1\n      revert\n    tag_28:\n      pop\n      tag_29\n      tag_30\n      jump\t// in\n    tag_29:\n      mload(0x40)\n      tag_31\n      swap2\n      swap1\n      tag_32\n      jump\t// in\n    tag_31:\n      mload(0x40)\n      dup1\n      swap2\n      sub\n      swap1\n      return\n        /* \"Reserva.sol\":453:479  uint8 public totalentradas */\n    tag_7:\n      callvalue\n      dup1\n      iszero\n      tag_33\n      jumpi\n      0x00\n      dup1\n      revert\n    tag_33:\n      pop\n      tag_34\n      tag_35\n      jump\t// in\n    tag_34:\n      mload(0x40)\n      tag_36\n      swap2\n      swap1\n      tag_23\n      jump\t// in\n    tag_36:\n      mload(0x40)\n      dup1\n      swap2\n      sub\n      swap1\n      return\n        /* \"Reserva.sol\":647:675  address payable public owner */\n    tag_8:\n      callvalue\n      dup1\n      iszero\n      tag_37\n      jumpi\n      0x00\n      dup1\n      revert\n    tag_37:\n      pop\n      tag_38\n      tag_39\n      jump\t// in\n    tag_38:\n      mload(0x40)\n      tag_40\n      swap2\n      swap1\n      tag_18\n      jump\t// in\n    tag_40:\n      mload(0x40)\n      dup1\n      swap2\n      sub\n      swap1\n      return\n        /* \"Reserva.sol\":2816:2943  function cancelar() public {... */\n    tag_9:\n      callvalue\n      dup1\n      iszero\n      tag_41\n      jumpi\n      0x00\n      dup1\n      revert\n    tag_41:\n      pop\n      tag_42\n      tag_43\n      jump\t// in\n    tag_42:\n      stop\n        /* \"Reserva.sol\":429:446  uint public price */\n    tag_10:\n      callvalue\n      dup1\n      iszero\n      tag_44\n      jumpi\n      0x00\n      dup1\n      revert\n    tag_44:\n      pop\n      tag_45\n      tag_46\n      jump\t// in\n    tag_45:\n      mload(0x40)\n      tag_47\n      swap2\n      swap1\n      tag_48\n      jump\t// in\n    tag_47:\n      mload(0x40)\n      dup1\n      swap2\n      sub\n      swap1\n      return\n        /* \"Reserva.sol\":3635:3743  function getentradasdisponibles() public view returns (uint8){... */\n    tag_11:\n      callvalue\n      dup1\n      iszero\n      tag_49\n      jumpi\n      0x00\n      dup1\n      revert\n    tag_49:\n      pop\n      tag_50\n      tag_51\n      jump\t// in\n    tag_50:\n      mload(0x40)\n      tag_52\n      swap2\n      swap1\n      tag_23\n      jump\t// in\n    tag_52:\n      mload(0x40)\n      dup1\n      swap2\n      sub\n      swap1\n      return\n        /* \"Reserva.sol\":682:720  address payable public contractaddress */\n    tag_12:\n      callvalue\n      dup1\n      iszero\n      tag_53\n      jumpi\n      0x00\n      dup1\n      revert\n    tag_53:\n      pop\n      tag_54\n      tag_55\n      jump\t// in\n    tag_54:\n      mload(0x40)\n      tag_56\n      swap2\n      swap1\n      tag_18\n      jump\t// in\n    tag_56:\n      mload(0x40)\n      dup1\n      swap2\n      sub\n      swap1\n      return\n        /* \"Reserva.sol\":608:640  address payable public comprador */\n    tag_16:\n      0x04\n      0x00\n      swap1\n      sload\n      swap1\n      0x0100\n      exp\n      swap1\n      div\n      0xffffffffffffffffffffffffffffffffffffffff\n      and\n      dup2\n      jump\t// out\n        /* \"Reserva.sol\":486:518  uint8 public entradasdisponibles */\n    tag_21:\n      0x02\n      0x01\n      swap1\n      sload\n      swap1\n      0x0100\n      exp\n      swap1\n      div\n      0xff\n      and\n      dup2\n      jump\t// out\n        /* \"Reserva.sol\":1871:2575  function compra() public payable {... */\n    tag_25:\n        /* \"Reserva.sol\":1940:1941  0 */\n      0x00\n        /* \"Reserva.sol\":1918:1937  entradasdisponibles */\n      0x02\n      0x01\n      swap1\n      sload\n      swap1\n      0x0100\n      exp\n      swap1\n      div\n      0xff\n      and\n        /* \"Reserva.sol\":1918:1941  entradasdisponibles > 0 */\n      0xff\n      and\n      gt\n        /* \"Reserva.sol\":1918:1963  entradasdisponibles > 0 && msg.value == price */\n      dup1\n      iszero\n      tag_58\n      jumpi\n      pop\n        /* \"Reserva.sol\":1958:1963  price */\n      sload(0x01)\n        /* \"Reserva.sol\":1945:1954  msg.value */\n      callvalue\n        /* \"Reserva.sol\":1945:1963  msg.value == price */\n      eq\n        /* \"Reserva.sol\":1918:1963  entradasdisponibles > 0 && msg.value == price */\n    tag_58:\n        /* \"Reserva.sol\":1918:1977  entradasdisponibles > 0 && msg.value == price && !cancelado */\n      dup1\n      iszero\n      tag_59\n      jumpi\n      pop\n        /* \"Reserva.sol\":1968:1977  cancelado */\n      0x06\n      0x15\n      swap1\n      sload\n      swap1\n      0x0100\n      exp\n      swap1\n      div\n      0xff\n      and\n        /* \"Reserva.sol\":1967:1977  !cancelado */\n      iszero\n        /* \"Reserva.sol\":1918:1977  entradasdisponibles > 0 && msg.value == price && !cancelado */\n    tag_59:\n        /* \"Reserva.sol\":1915:2568  if(entradasdisponibles > 0 && msg.value == price && !cancelado){... */\n      iszero\n      tag_60\n      jumpi\n        /* \"Reserva.sol\":2013:2023  msg.sender */\n      caller\n        /* \"Reserva.sol\":1993:2002  comprador */\n      0x04\n      0x00\n        /* \"Reserva.sol\":1993:2024  comprador = payable(msg.sender) */\n      0x0100\n      exp\n      dup2\n      sload\n      dup2\n      0xffffffffffffffffffffffffffffffffffffffff\n      mul\n      not\n      and\n      swap1\n      dup4\n      0xffffffffffffffffffffffffffffffffffffffff\n      and\n      mul\n      or\n      swap1\n      sstore\n      pop\n        /* \"Reserva.sol\":2039:2058  entradasdisponibles */\n      0x02\n      0x01\n        /* \"Reserva.sol\":2039:2061  entradasdisponibles -- */\n      dup2\n      dup2\n      swap1\n      sload\n      swap1\n      0x0100\n      exp\n      swap1\n      div\n      0xff\n      and\n      dup1\n      swap3\n      swap2\n      swap1\n      tag_61\n      swap1\n      tag_62\n      jump\t// in\n    tag_61:\n      swap2\n      swap1\n      0x0100\n      exp\n      dup2\n      sload\n      dup2\n      0xff\n      mul\n      not\n      and\n      swap1\n      dup4\n      0xff\n      and\n      mul\n      or\n      swap1\n      sstore\n      pop\n      pop\n        /* \"Reserva.sol\":2106:2107  0 */\n      0x00\n        /* \"Reserva.sol\":2083:2102  entradasdisponibles */\n      0x02\n      0x01\n      swap1\n      sload\n      swap1\n      0x0100\n      exp\n      swap1\n      div\n      0xff\n      and\n        /* \"Reserva.sol\":2083:2107  entradasdisponibles == 0 */\n      0xff\n      and\n      sub\n        /* \"Reserva.sol\":2080:2167  if(entradasdisponibles == 0){... */\n      tag_63\n      jumpi\n        /* \"Reserva.sol\":2143:2147  true */\n      0x01\n        /* \"Reserva.sol\":2131:2147  completo == true */\n      iszero\n      iszero\n        /* \"Reserva.sol\":2131:2139  completo */\n      0x06\n      0x14\n      swap1\n      sload\n      swap1\n      0x0100\n      exp\n      swap1\n      pop\n      pop\n        /* \"Reserva.sol\":2131:2147  completo == true */\n      pop\n        /* \"Reserva.sol\":2080:2167  if(entradasdisponibles == 0){... */\n    tag_63:\n        /* \"Reserva.sol\":2215:2216  0 */\n      0x00\n        /* \"Reserva.sol\":2184:2202  pendingWithdrawals */\n      0x07\n        /* \"Reserva.sol\":2184:2214  pendingWithdrawals[msg.sender] */\n      0x00\n        /* \"Reserva.sol\":2203:2213  msg.sender */\n      caller\n        /* \"Reserva.sol\":2184:2214  pendingWithdrawals[msg.sender] */\n      0xffffffffffffffffffffffffffffffffffffffff\n      and\n      0xffffffffffffffffffffffffffffffffffffffff\n      and\n      dup2\n      mstore\n      0x20\n      add\n      swap1\n      dup2\n      mstore\n      0x20\n      add\n      0x00\n      keccak256\n      sload\n        /* \"Reserva.sol\":2184:2216  pendingWithdrawals[msg.sender]>0 */\n      gt\n        /* \"Reserva.sol\":2181:2358  if(pendingWithdrawals[msg.sender]>0){... */\n      iszero\n      tag_64\n      jumpi\n        /* \"Reserva.sol\":2236:2254  pendingWithdrawals */\n      0x07\n        /* \"Reserva.sol\":2236:2266  pendingWithdrawals[msg.sender] */\n      0x00\n        /* \"Reserva.sol\":2255:2265  msg.sender */\n      caller\n        /* \"Reserva.sol\":2236:2266  pendingWithdrawals[msg.sender] */\n      0xffffffffffffffffffffffffffffffffffffffff\n      and\n      0xffffffffffffffffffffffffffffffffffffffff\n      and\n      dup2\n      mstore\n      0x20\n      add\n      swap1\n      dup2\n      mstore\n      0x20\n      add\n      0x00\n      keccak256\n      0x00\n        /* \"Reserva.sol\":2236:2268  pendingWithdrawals[msg.sender]++ */\n      dup2\n      sload\n      dup1\n      swap3\n      swap2\n      swap1\n      tag_65\n      swap1\n      tag_66\n      jump\t// in\n    tag_65:\n      swap2\n      swap1\n      pop\n      sstore\n      pop\n        /* \"Reserva.sol\":2181:2358  if(pendingWithdrawals[msg.sender]>0){... */\n      jump(tag_67)\n    tag_64:\n        /* \"Reserva.sol\":2341:2342  1 */\n      0x01\n        /* \"Reserva.sol\":2308:2326  pendingWithdrawals */\n      0x07\n        /* \"Reserva.sol\":2308:2338  pendingWithdrawals[msg.sender] */\n      0x00\n        /* \"Reserva.sol\":2327:2337  msg.sender */\n      caller\n        /* \"Reserva.sol\":2308:2338  pendingWithdrawals[msg.sender] */\n      0xffffffffffffffffffffffffffffffffffffffff\n      and\n      0xffffffffffffffffffffffffffffffffffffffff\n      and\n      dup2\n      mstore\n      0x20\n      add\n      swap1\n      dup2\n      mstore\n      0x20\n      add\n      0x00\n      keccak256\n        /* \"Reserva.sol\":2308:2342  pendingWithdrawals[msg.sender] = 1 */\n      dup2\n      swap1\n      sstore\n      pop\n        /* \"Reserva.sol\":2181:2358  if(pendingWithdrawals[msg.sender]>0){... */\n    tag_67:\n        /* \"Reserva.sol\":2377:2413  Status(\"Compra realizada con exito\") */\n      0x2844c95bf1b4598da931d527f903501abc60fe0199c65da52d5ce818c6c5e961\n      mload(0x40)\n      tag_68\n      swap1\n      tag_69\n      jump\t// in\n    tag_68:\n      mload(0x40)\n      dup1\n      swap2\n      sub\n      swap1\n      log1\n        /* \"Reserva.sol\":1915:2568  if(entradasdisponibles > 0 && msg.value == price && !cancelado){... */\n      jump(tag_70)\n    tag_60:\n        /* \"Reserva.sol\":2451:2556  Status(\"Ya no hay entradas, no has introducido el precio adecuado, se ha cancelado o ya se ha realizado\") */\n      0x2844c95bf1b4598da931d527f903501abc60fe0199c65da52d5ce818c6c5e961\n      mload(0x40)\n      tag_71\n      swap1\n      tag_72\n      jump\t// in\n    tag_71:\n      mload(0x40)\n      dup1\n      swap2\n      sub\n      swap1\n      log1\n        /* \"Reserva.sol\":1915:2568  if(entradasdisponibles > 0 && msg.value == price && !cancelado){... */\n    tag_70:\n        /* \"Reserva.sol\":1871:2575  function compra() public payable {... */\n      jump\t// out\n        /* \"Reserva.sol\":3194:3510  function withdraw() public payable {... */\n    tag_27:\n        /* \"Reserva.sol\":3248:3257  cancelado */\n      0x06\n      0x15\n      swap1\n      sload\n      swap1\n      0x0100\n      exp\n      swap1\n      div\n      0xff\n      and\n        /* \"Reserva.sol\":3240:3287  require(cancelado, \"El concierto sigue en pie\") */\n      tag_74\n      jumpi\n      mload(0x40)\n      0x08c379a000000000000000000000000000000000000000000000000000000000\n      dup2\n      mstore\n      0x04\n      add\n      tag_75\n      swap1\n      tag_76\n      jump\t// in\n    tag_75:\n      mload(0x40)\n      dup1\n      swap2\n      sub\n      swap1\n      revert\n    tag_74:\n        /* \"Reserva.sol\":3337:3338  0 */\n      0x00\n        /* \"Reserva.sol\":3306:3324  pendingWithdrawals */\n      0x07\n        /* \"Reserva.sol\":3306:3336  pendingWithdrawals[msg.sender] */\n      0x00\n        /* \"Reserva.sol\":3325:3335  msg.sender */\n      caller\n        /* \"Reserva.sol\":3306:3336  pendingWithdrawals[msg.sender] */\n      0xffffffffffffffffffffffffffffffffffffffff\n      and\n      0xffffffffffffffffffffffffffffffffffffffff\n      and\n      dup2\n      mstore\n      0x20\n      add\n      swap1\n      dup2\n      mstore\n      0x20\n      add\n      0x00\n      keccak256\n      sload\n        /* \"Reserva.sol\":3306:3338  pendingWithdrawals[msg.sender]>0 */\n      gt\n        /* \"Reserva.sol\":3298:3378  require(pendingWithdrawals[msg.sender]>0, \"No tienes entrada para el concierto\") */\n      tag_77\n      jumpi\n      mload(0x40)\n      0x08c379a000000000000000000000000000000000000000000000000000000000\n      dup2\n      mstore\n      0x04\n      add\n      tag_78\n      swap1\n      tag_79\n      jump\t// in\n    tag_78:\n      mload(0x40)\n      dup1\n      swap2\n      sub\n      swap1\n      revert\n    tag_77:\n        /* \"Reserva.sol\":3389:3407  uint totaldevolver */\n      0x00\n        /* \"Reserva.sol\":3418:3436  pendingWithdrawals */\n      0x07\n        /* \"Reserva.sol\":3418:3448  pendingWithdrawals[msg.sender] */\n      0x00\n        /* \"Reserva.sol\":3437:3447  msg.sender */\n      caller\n        /* \"Reserva.sol\":3418:3448  pendingWithdrawals[msg.sender] */\n      0xffffffffffffffffffffffffffffffffffffffff\n      and\n      0xffffffffffffffffffffffffffffffffffffffff\n      and\n      dup2\n      mstore\n      0x20\n      add\n      swap1\n      dup2\n      mstore\n      0x20\n      add\n      0x00\n      keccak256\n      sload\n        /* \"Reserva.sol\":3410:3415  price */\n      sload(0x01)\n        /* \"Reserva.sol\":3410:3448  price * pendingWithdrawals[msg.sender] */\n      tag_80\n      swap2\n      swap1\n      tag_81\n      jump\t// in\n    tag_80:\n        /* \"Reserva.sol\":3389:3448  uint totaldevolver = price * pendingWithdrawals[msg.sender] */\n      swap1\n      pop\n        /* \"Reserva.sol\":3467:3477  msg.sender */\n      caller\n        /* \"Reserva.sol\":3459:3487  payable(msg.sender).transfer */\n      0xffffffffffffffffffffffffffffffffffffffff\n      and\n        /* \"Reserva.sol\":3459:3502  payable(msg.sender).transfer(totaldevolver) */\n      0x08fc\n        /* \"Reserva.sol\":3488:3501  totaldevolver */\n      dup3\n        /* \"Reserva.sol\":3459:3502  payable(msg.sender).transfer(totaldevolver) */\n      swap1\n      dup2\n      iszero\n      mul\n      swap1\n      mload(0x40)\n      0x00\n      mload(0x40)\n      dup1\n      dup4\n      sub\n      dup2\n      dup6\n      dup9\n      dup9\n      call\n      swap4\n      pop\n      pop\n      pop\n      pop\n      iszero\n      dup1\n      iszero\n      tag_83\n      jumpi\n      returndatasize\n      0x00\n      dup1\n      returndatacopy\n      revert(0x00, returndatasize)\n    tag_83:\n      pop\n        /* \"Reserva.sol\":3229:3510  {... */\n      pop\n        /* \"Reserva.sol\":3194:3510  function withdraw() public payable {... */\n      jump\t// out\n        /* \"Reserva.sol\":397:422  string public description */\n    tag_30:\n      0x00\n      dup1\n      sload\n      tag_84\n      swap1\n      tag_85\n      jump\t// in\n    tag_84:\n      dup1\n      0x1f\n      add\n      0x20\n      dup1\n      swap2\n      div\n      mul\n      0x20\n      add\n      mload(0x40)\n      swap1\n      dup2\n      add\n      0x40\n      mstore\n      dup1\n      swap3\n      swap2\n      swap1\n      dup2\n      dup2\n      mstore\n      0x20\n      add\n      dup3\n      dup1\n      sload\n      tag_86\n      swap1\n      tag_85\n      jump\t// in\n    tag_86:\n      dup1\n      iszero\n      tag_87\n      jumpi\n      dup1\n      0x1f\n      lt\n      tag_88\n      jumpi\n      0x0100\n      dup1\n      dup4\n      sload\n      div\n      mul\n      dup4\n      mstore\n      swap2\n      0x20\n      add\n      swap2\n      jump(tag_87)\n    tag_88:\n      dup3\n      add\n      swap2\n      swap1\n      0x00\n      mstore\n      keccak256(0x00, 0x20)\n      swap1\n    tag_89:\n      dup2\n      sload\n      dup2\n      mstore\n      swap1\n      0x01\n      add\n      swap1\n      0x20\n      add\n      dup1\n      dup4\n      gt\n      tag_89\n      jumpi\n      dup3\n      swap1\n      sub\n      0x1f\n      and\n      dup3\n      add\n      swap2\n    tag_87:\n      pop\n      pop\n      pop\n      pop\n      pop\n      dup2\n      jump\t// out\n        /* \"Reserva.sol\":453:479  uint8 public totalentradas */\n    tag_35:\n      0x02\n      0x00\n      swap1\n      sload\n      swap1\n      0x0100\n      exp\n      swap1\n      div\n      0xff\n      and\n      dup2\n      jump\t// out\n        /* \"Reserva.sol\":647:675  address payable public owner */\n    tag_39:\n      0x05\n      0x00\n      swap1\n      sload\n      swap1\n      0x0100\n      exp\n      swap1\n      div\n      0xffffffffffffffffffffffffffffffffffffffff\n      and\n      dup2\n      jump\t// out\n        /* \"Reserva.sol\":2816:2943  function cancelar() public {... */\n    tag_43:\n        /* \"Reserva.sol\":2876:2881  owner */\n      0x05\n      0x00\n      swap1\n      sload\n      swap1\n      0x0100\n      exp\n      swap1\n      div\n      0xffffffffffffffffffffffffffffffffffffffff\n      and\n        /* \"Reserva.sol\":2862:2881  msg.sender == owner */\n      0xffffffffffffffffffffffffffffffffffffffff\n      and\n        /* \"Reserva.sol\":2862:2872  msg.sender */\n      caller\n        /* \"Reserva.sol\":2862:2881  msg.sender == owner */\n      0xffffffffffffffffffffffffffffffffffffffff\n      and\n      eq\n        /* \"Reserva.sol\":2854:2908  require(msg.sender == owner, \"No eres el propietario\") */\n      tag_91\n      jumpi\n      mload(0x40)\n      0x08c379a000000000000000000000000000000000000000000000000000000000\n      dup2\n      mstore\n      0x04\n      add\n      tag_92\n      swap1\n      tag_93\n      jump\t// in\n    tag_92:\n      mload(0x40)\n      dup1\n      swap2\n      sub\n      swap1\n      revert\n    tag_91:\n        /* \"Reserva.sol\":2931:2935  true */\n      0x01\n        /* \"Reserva.sol\":2919:2928  cancelado */\n      0x06\n      0x15\n        /* \"Reserva.sol\":2919:2935  cancelado = true */\n      0x0100\n      exp\n      dup2\n      sload\n      dup2\n      0xff\n      mul\n      not\n      and\n      swap1\n      dup4\n      iszero\n      iszero\n      mul\n      or\n      swap1\n      sstore\n      pop\n        /* \"Reserva.sol\":2816:2943  function cancelar() public {... */\n      jump\t// out\n        /* \"Reserva.sol\":429:446  uint public price */\n    tag_46:\n      sload(0x01)\n      dup2\n      jump\t// out\n        /* \"Reserva.sol\":3635:3743  function getentradasdisponibles() public view returns (uint8){... */\n    tag_51:\n        /* \"Reserva.sol\":3690:3695  uint8 */\n      0x00\n        /* \"Reserva.sol\":3715:3734  entradasdisponibles */\n      0x02\n      0x01\n      swap1\n      sload\n      swap1\n      0x0100\n      exp\n      swap1\n      div\n      0xff\n      and\n        /* \"Reserva.sol\":3707:3735  return (entradasdisponibles) */\n      swap1\n      pop\n        /* \"Reserva.sol\":3635:3743  function getentradasdisponibles() public view returns (uint8){... */\n      swap1\n      jump\t// out\n        /* \"Reserva.sol\":682:720  address payable public contractaddress */\n    tag_55:\n      0x06\n      0x00\n      swap1\n      sload\n      swap1\n      0x0100\n      exp\n      swap1\n      div\n      0xffffffffffffffffffffffffffffffffffffffff\n      and\n      dup2\n      jump\t// out\n        /* \"#utility.yul\":7:133   */\n    tag_95:\n        /* \"#utility.yul\":44:51   */\n      0x00\n        /* \"#utility.yul\":84:126   */\n      0xffffffffffffffffffffffffffffffffffffffff\n        /* \"#utility.yul\":77:82   */\n      dup3\n        /* \"#utility.yul\":73:127   */\n      and\n        /* \"#utility.yul\":62:127   */\n      swap1\n      pop\n        /* \"#utility.yul\":7:133   */\n      swap2\n      swap1\n      pop\n      jump\t// out\n        /* \"#utility.yul\":139:243   */\n    tag_96:\n        /* \"#utility.yul\":184:191   */\n      0x00\n        /* \"#utility.yul\":213:237   */\n      tag_122\n        /* \"#utility.yul\":231:236   */\n      dup3\n        /* \"#utility.yul\":213:237   */\n      tag_95\n      jump\t// in\n    tag_122:\n        /* \"#utility.yul\":202:237   */\n      swap1\n      pop\n        /* \"#utility.yul\":139:243   */\n      swap2\n      swap1\n      pop\n      jump\t// out\n        /* \"#utility.yul\":249:391   */\n    tag_97:\n        /* \"#utility.yul\":352:384   */\n      tag_124\n        /* \"#utility.yul\":378:383   */\n      dup2\n        /* \"#utility.yul\":352:384   */\n      tag_96\n      jump\t// in\n    tag_124:\n        /* \"#utility.yul\":347:350   */\n      dup3\n        /* \"#utility.yul\":340:385   */\n      mstore\n        /* \"#utility.yul\":249:391   */\n      pop\n      pop\n      jump\t// out\n        /* \"#utility.yul\":397:651   */\n    tag_18:\n        /* \"#utility.yul\":506:510   */\n      0x00\n        /* \"#utility.yul\":544:546   */\n      0x20\n        /* \"#utility.yul\":533:542   */\n      dup3\n        /* \"#utility.yul\":529:547   */\n      add\n        /* \"#utility.yul\":521:547   */\n      swap1\n      pop\n        /* \"#utility.yul\":557:644   */\n      tag_126\n        /* \"#utility.yul\":641:642   */\n      0x00\n        /* \"#utility.yul\":630:639   */\n      dup4\n        /* \"#utility.yul\":626:643   */\n      add\n        /* \"#utility.yul\":617:623   */\n      dup5\n        /* \"#utility.yul\":557:644   */\n      tag_97\n      jump\t// in\n    tag_126:\n        /* \"#utility.yul\":397:651   */\n      swap3\n      swap2\n      pop\n      pop\n      jump\t// out\n        /* \"#utility.yul\":657:743   */\n    tag_98:\n        /* \"#utility.yul\":692:699   */\n      0x00\n        /* \"#utility.yul\":732:736   */\n      0xff\n        /* \"#utility.yul\":725:730   */\n      dup3\n        /* \"#utility.yul\":721:737   */\n      and\n        /* \"#utility.yul\":710:737   */\n      swap1\n      pop\n        /* \"#utility.yul\":657:743   */\n      swap2\n      swap1\n      pop\n      jump\t// out\n        /* \"#utility.yul\":749:861   */\n    tag_99:\n        /* \"#utility.yul\":832:854   */\n      tag_129\n        /* \"#utility.yul\":848:853   */\n      dup2\n        /* \"#utility.yul\":832:854   */\n      tag_98\n      jump\t// in\n    tag_129:\n        /* \"#utility.yul\":827:830   */\n      dup3\n        /* \"#utility.yul\":820:855   */\n      mstore\n        /* \"#utility.yul\":749:861   */\n      pop\n      pop\n      jump\t// out\n        /* \"#utility.yul\":867:1081   */\n    tag_23:\n        /* \"#utility.yul\":956:960   */\n      0x00\n        /* \"#utility.yul\":994:996   */\n      0x20\n        /* \"#utility.yul\":983:992   */\n      dup3\n        /* \"#utility.yul\":979:997   */\n      add\n        /* \"#utility.yul\":971:997   */\n      swap1\n      pop\n        /* \"#utility.yul\":1007:1074   */\n      tag_131\n        /* \"#utility.yul\":1071:1072   */\n      0x00\n        /* \"#utility.yul\":1060:1069   */\n      dup4\n        /* \"#utility.yul\":1056:1073   */\n      add\n        /* \"#utility.yul\":1047:1053   */\n      dup5\n        /* \"#utility.yul\":1007:1074   */\n      tag_99\n      jump\t// in\n    tag_131:\n        /* \"#utility.yul\":867:1081   */\n      swap3\n      swap2\n      pop\n      pop\n      jump\t// out\n        /* \"#utility.yul\":1087:1186   */\n    tag_100:\n        /* \"#utility.yul\":1139:1145   */\n      0x00\n        /* \"#utility.yul\":1173:1178   */\n      dup2\n        /* \"#utility.yul\":1167:1179   */\n      mload\n        /* \"#utility.yul\":1157:1179   */\n      swap1\n      pop\n        /* \"#utility.yul\":1087:1186   */\n      swap2\n      swap1\n      pop\n      jump\t// out\n        /* \"#utility.yul\":1192:1361   */\n    tag_101:\n        /* \"#utility.yul\":1276:1287   */\n      0x00\n        /* \"#utility.yul\":1310:1316   */\n      dup3\n        /* \"#utility.yul\":1305:1308   */\n      dup3\n        /* \"#utility.yul\":1298:1317   */\n      mstore\n        /* \"#utility.yul\":1350:1354   */\n      0x20\n        /* \"#utility.yul\":1345:1348   */\n      dup3\n        /* \"#utility.yul\":1341:1355   */\n      add\n        /* \"#utility.yul\":1326:1355   */\n      swap1\n      pop\n        /* \"#utility.yul\":1192:1361   */\n      swap3\n      swap2\n      pop\n      pop\n      jump\t// out\n        /* \"#utility.yul\":1367:1613   */\n    tag_102:\n        /* \"#utility.yul\":1448:1449   */\n      0x00\n        /* \"#utility.yul\":1458:1571   */\n    tag_135:\n        /* \"#utility.yul\":1472:1478   */\n      dup4\n        /* \"#utility.yul\":1469:1470   */\n      dup2\n        /* \"#utility.yul\":1466:1479   */\n      lt\n        /* \"#utility.yul\":1458:1571   */\n      iszero\n      tag_137\n      jumpi\n        /* \"#utility.yul\":1557:1558   */\n      dup1\n        /* \"#utility.yul\":1552:1555   */\n      dup3\n        /* \"#utility.yul\":1548:1559   */\n      add\n        /* \"#utility.yul\":1542:1560   */\n      mload\n        /* \"#utility.yul\":1538:1539   */\n      dup2\n        /* \"#utility.yul\":1533:1536   */\n      dup5\n        /* \"#utility.yul\":1529:1540   */\n      add\n        /* \"#utility.yul\":1522:1561   */\n      mstore\n        /* \"#utility.yul\":1494:1496   */\n      0x20\n        /* \"#utility.yul\":1491:1492   */\n      dup2\n        /* \"#utility.yul\":1487:1497   */\n      add\n        /* \"#utility.yul\":1482:1497   */\n      swap1\n      pop\n        /* \"#utility.yul\":1458:1571   */\n      jump(tag_135)\n    tag_137:\n        /* \"#utility.yul\":1605:1606   */\n      0x00\n        /* \"#utility.yul\":1596:1602   */\n      dup5\n        /* \"#utility.yul\":1591:1594   */\n      dup5\n        /* \"#utility.yul\":1587:1603   */\n      add\n        /* \"#utility.yul\":1580:1607   */\n      mstore\n        /* \"#utility.yul\":1429:1613   */\n      pop\n        /* \"#utility.yul\":1367:1613   */\n      pop\n      pop\n      pop\n      jump\t// out\n        /* \"#utility.yul\":1619:1721   */\n    tag_103:\n        /* \"#utility.yul\":1660:1666   */\n      0x00\n        /* \"#utility.yul\":1711:1713   */\n      0x1f\n        /* \"#utility.yul\":1707:1714   */\n      not\n        /* \"#utility.yul\":1702:1704   */\n      0x1f\n        /* \"#utility.yul\":1695:1700   */\n      dup4\n        /* \"#utility.yul\":1691:1705   */\n      add\n        /* \"#utility.yul\":1687:1715   */\n      and\n        /* \"#utility.yul\":1677:1715   */\n      swap1\n      pop\n        /* \"#utility.yul\":1619:1721   */\n      swap2\n      swap1\n      pop\n      jump\t// out\n        /* \"#utility.yul\":1727:2104   */\n    tag_104:\n        /* \"#utility.yul\":1815:1818   */\n      0x00\n        /* \"#utility.yul\":1843:1882   */\n      tag_140\n        /* \"#utility.yul\":1876:1881   */\n      dup3\n        /* \"#utility.yul\":1843:1882   */\n      tag_100\n      jump\t// in\n    tag_140:\n        /* \"#utility.yul\":1898:1969   */\n      tag_141\n        /* \"#utility.yul\":1962:1968   */\n      dup2\n        /* \"#utility.yul\":1957:1960   */\n      dup6\n        /* \"#utility.yul\":1898:1969   */\n      tag_101\n      jump\t// in\n    tag_141:\n        /* \"#utility.yul\":1891:1969   */\n      swap4\n      pop\n        /* \"#utility.yul\":1978:2043   */\n      tag_142\n        /* \"#utility.yul\":2036:2042   */\n      dup2\n        /* \"#utility.yul\":2031:2034   */\n      dup6\n        /* \"#utility.yul\":2024:2028   */\n      0x20\n        /* \"#utility.yul\":2017:2022   */\n      dup7\n        /* \"#utility.yul\":2013:2029   */\n      add\n        /* \"#utility.yul\":1978:2043   */\n      tag_102\n      jump\t// in\n    tag_142:\n        /* \"#utility.yul\":2068:2097   */\n      tag_143\n        /* \"#utility.yul\":2090:2096   */\n      dup2\n        /* \"#utility.yul\":2068:2097   */\n      tag_103\n      jump\t// in\n    tag_143:\n        /* \"#utility.yul\":2063:2066   */\n      dup5\n        /* \"#utility.yul\":2059:2098   */\n      add\n        /* \"#utility.yul\":2052:2098   */\n      swap2\n      pop\n        /* \"#utility.yul\":1819:2104   */\n      pop\n        /* \"#utility.yul\":1727:2104   */\n      swap3\n      swap2\n      pop\n      pop\n      jump\t// out\n        /* \"#utility.yul\":2110:2423   */\n    tag_32:\n        /* \"#utility.yul\":2223:2227   */\n      0x00\n        /* \"#utility.yul\":2261:2263   */\n      0x20\n        /* \"#utility.yul\":2250:2259   */\n      dup3\n        /* \"#utility.yul\":2246:2264   */\n      add\n        /* \"#utility.yul\":2238:2264   */\n      swap1\n      pop\n        /* \"#utility.yul\":2310:2319   */\n      dup2\n        /* \"#utility.yul\":2304:2308   */\n      dup2\n        /* \"#utility.yul\":2300:2320   */\n      sub\n        /* \"#utility.yul\":2296:2297   */\n      0x00\n        /* \"#utility.yul\":2285:2294   */\n      dup4\n        /* \"#utility.yul\":2281:2298   */\n      add\n        /* \"#utility.yul\":2274:2321   */\n      mstore\n        /* \"#utility.yul\":2338:2416   */\n      tag_145\n        /* \"#utility.yul\":2411:2415   */\n      dup2\n        /* \"#utility.yul\":2402:2408   */\n      dup5\n        /* \"#utility.yul\":2338:2416   */\n      tag_104\n      jump\t// in\n    tag_145:\n        /* \"#utility.yul\":2330:2416   */\n      swap1\n      pop\n        /* \"#utility.yul\":2110:2423   */\n      swap3\n      swap2\n      pop\n      pop\n      jump\t// out\n        /* \"#utility.yul\":2429:2506   */\n    tag_105:\n        /* \"#utility.yul\":2466:2473   */\n      0x00\n        /* \"#utility.yul\":2495:2500   */\n      dup2\n        /* \"#utility.yul\":2484:2500   */\n      swap1\n      pop\n        /* \"#utility.yul\":2429:2506   */\n      swap2\n      swap1\n      pop\n      jump\t// out\n        /* \"#utility.yul\":2512:2630   */\n    tag_106:\n        /* \"#utility.yul\":2599:2623   */\n      tag_148\n        /* \"#utility.yul\":2617:2622   */\n      dup2\n        /* \"#utility.yul\":2599:2623   */\n      tag_105\n      jump\t// in\n    tag_148:\n        /* \"#utility.yul\":2594:2597   */\n      dup3\n        /* \"#utility.yul\":2587:2624   */\n      mstore\n        /* \"#utility.yul\":2512:2630   */\n      pop\n      pop\n      jump\t// out\n        /* \"#utility.yul\":2636:2858   */\n    tag_48:\n        /* \"#utility.yul\":2729:2733   */\n      0x00\n        /* \"#utility.yul\":2767:2769   */\n      0x20\n        /* \"#utility.yul\":2756:2765   */\n      dup3\n        /* \"#utility.yul\":2752:2770   */\n      add\n        /* \"#utility.yul\":2744:2770   */\n      swap1\n      pop\n        /* \"#utility.yul\":2780:2851   */\n      tag_150\n        /* \"#utility.yul\":2848:2849   */\n      0x00\n        /* \"#utility.yul\":2837:2846   */\n      dup4\n        /* \"#utility.yul\":2833:2850   */\n      add\n        /* \"#utility.yul\":2824:2830   */\n      dup5\n        /* \"#utility.yul\":2780:2851   */\n      tag_106\n      jump\t// in\n    tag_150:\n        /* \"#utility.yul\":2636:2858   */\n      swap3\n      swap2\n      pop\n      pop\n      jump\t// out\n        /* \"#utility.yul\":2864:3044   */\n    tag_107:\n        /* \"#utility.yul\":2912:2989   */\n      0x4e487b7100000000000000000000000000000000000000000000000000000000\n        /* \"#utility.yul\":2909:2910   */\n      0x00\n        /* \"#utility.yul\":2902:2990   */\n      mstore\n        /* \"#utility.yul\":3009:3013   */\n      0x11\n        /* \"#utility.yul\":3006:3007   */\n      0x04\n        /* \"#utility.yul\":2999:3014   */\n      mstore\n        /* \"#utility.yul\":3033:3037   */\n      0x24\n        /* \"#utility.yul\":3030:3031   */\n      0x00\n        /* \"#utility.yul\":3023:3038   */\n      revert\n        /* \"#utility.yul\":3050:3217   */\n    tag_62:\n        /* \"#utility.yul\":3087:3090   */\n      0x00\n        /* \"#utility.yul\":3110:3132   */\n      tag_153\n        /* \"#utility.yul\":3126:3131   */\n      dup3\n        /* \"#utility.yul\":3110:3132   */\n      tag_98\n      jump\t// in\n    tag_153:\n        /* \"#utility.yul\":3101:3132   */\n      swap2\n      pop\n        /* \"#utility.yul\":3154:3158   */\n      0x00\n        /* \"#utility.yul\":3147:3152   */\n      dup3\n        /* \"#utility.yul\":3144:3159   */\n      sub\n        /* \"#utility.yul\":3141:3182   */\n      tag_154\n      jumpi\n        /* \"#utility.yul\":3162:3180   */\n      tag_155\n      tag_107\n      jump\t// in\n    tag_155:\n        /* \"#utility.yul\":3141:3182   */\n    tag_154:\n        /* \"#utility.yul\":3209:3210   */\n      0x01\n        /* \"#utility.yul\":3202:3207   */\n      dup3\n        /* \"#utility.yul\":3198:3211   */\n      sub\n        /* \"#utility.yul\":3191:3211   */\n      swap1\n      pop\n        /* \"#utility.yul\":3050:3217   */\n      swap2\n      swap1\n      pop\n      jump\t// out\n        /* \"#utility.yul\":3223:3456   */\n    tag_66:\n        /* \"#utility.yul\":3262:3265   */\n      0x00\n        /* \"#utility.yul\":3285:3309   */\n      tag_157\n        /* \"#utility.yul\":3303:3308   */\n      dup3\n        /* \"#utility.yul\":3285:3309   */\n      tag_105\n      jump\t// in\n    tag_157:\n        /* \"#utility.yul\":3276:3309   */\n      swap2\n      pop\n        /* \"#utility.yul\":3331:3397   */\n      0xffffffffffffffffffffffffffffffffffffffffffffffffffffffffffffffff\n        /* \"#utility.yul\":3324:3329   */\n      dup3\n        /* \"#utility.yul\":3321:3398   */\n      sub\n        /* \"#utility.yul\":3318:3421   */\n      tag_158\n      jumpi\n        /* \"#utility.yul\":3401:3419   */\n      tag_159\n      tag_107\n      jump\t// in\n    tag_159:\n        /* \"#utility.yul\":3318:3421   */\n    tag_158:\n        /* \"#utility.yul\":3448:3449   */\n      0x01\n        /* \"#utility.yul\":3441:3446   */\n      dup3\n        /* \"#utility.yul\":3437:3450   */\n      add\n        /* \"#utility.yul\":3430:3450   */\n      swap1\n      pop\n        /* \"#utility.yul\":3223:3456   */\n      swap2\n      swap1\n      pop\n      jump\t// out\n        /* \"#utility.yul\":3462:3638   */\n    tag_108:\n        /* \"#utility.yul\":3602:3630   */\n      0x436f6d707261207265616c697a61646120636f6e20657869746f000000000000\n        /* \"#utility.yul\":3598:3599   */\n      0x00\n        /* \"#utility.yul\":3590:3596   */\n      dup3\n        /* \"#utility.yul\":3586:3600   */\n      add\n        /* \"#utility.yul\":3579:3631   */\n      mstore\n        /* \"#utility.yul\":3462:3638   */\n      pop\n      jump\t// out\n        /* \"#utility.yul\":3644:4010   */\n    tag_109:\n        /* \"#utility.yul\":3786:3789   */\n      0x00\n        /* \"#utility.yul\":3807:3874   */\n      tag_162\n        /* \"#utility.yul\":3871:3873   */\n      0x1a\n        /* \"#utility.yul\":3866:3869   */\n      dup4\n        /* \"#utility.yul\":3807:3874   */\n      tag_101\n      jump\t// in\n    tag_162:\n        /* \"#utility.yul\":3800:3874   */\n      swap2\n      pop\n        /* \"#utility.yul\":3883:3976   */\n      tag_163\n        /* \"#utility.yul\":3972:3975   */\n      dup3\n        /* \"#utility.yul\":3883:3976   */\n      tag_108\n      jump\t// in\n    tag_163:\n        /* \"#utility.yul\":4001:4003   */\n      0x20\n        /* \"#utility.yul\":3996:3999   */\n      dup3\n        /* \"#utility.yul\":3992:4004   */\n      add\n        /* \"#utility.yul\":3985:4004   */\n      swap1\n      pop\n        /* \"#utility.yul\":3644:4010   */\n      swap2\n      swap1\n      pop\n      jump\t// out\n        /* \"#utility.yul\":4016:4435   */\n    tag_69:\n        /* \"#utility.yul\":4182:4186   */\n      0x00\n        /* \"#utility.yul\":4220:4222   */\n      0x20\n        /* \"#utility.yul\":4209:4218   */\n      dup3\n        /* \"#utility.yul\":4205:4223   */\n      add\n        /* \"#utility.yul\":4197:4223   */\n      swap1\n      pop\n        /* \"#utility.yul\":4269:4278   */\n      dup2\n        /* \"#utility.yul\":4263:4267   */\n      dup2\n        /* \"#utility.yul\":4259:4279   */\n      sub\n        /* \"#utility.yul\":4255:4256   */\n      0x00\n        /* \"#utility.yul\":4244:4253   */\n      dup4\n        /* \"#utility.yul\":4240:4257   */\n      add\n        /* \"#utility.yul\":4233:4280   */\n      mstore\n        /* \"#utility.yul\":4297:4428   */\n      tag_165\n        /* \"#utility.yul\":4423:4427   */\n      dup2\n        /* \"#utility.yul\":4297:4428   */\n      tag_109\n      jump\t// in\n    tag_165:\n        /* \"#utility.yul\":4289:4428   */\n      swap1\n      pop\n        /* \"#utility.yul\":4016:4435   */\n      swap2\n      swap1\n      pop\n      jump\t// out\n        /* \"#utility.yul\":4441:4760   */\n    tag_110:\n        /* \"#utility.yul\":4581:4615   */\n      0x5961206e6f2068617920656e7472616461732c206e6f2068617320696e74726f\n        /* \"#utility.yul\":4577:4578   */\n      0x00\n        /* \"#utility.yul\":4569:4575   */\n      dup3\n        /* \"#utility.yul\":4565:4579   */\n      add\n        /* \"#utility.yul\":4558:4616   */\n      mstore\n        /* \"#utility.yul\":4650:4684   */\n      0x64756369646f20656c2070726563696f20616465637561646f2c207365206861\n        /* \"#utility.yul\":4645:4647   */\n      0x20\n        /* \"#utility.yul\":4637:4643   */\n      dup3\n        /* \"#utility.yul\":4633:4648   */\n      add\n        /* \"#utility.yul\":4626:4685   */\n      mstore\n        /* \"#utility.yul\":4719:4752   */\n      0x2063616e63656c61646f206f207961207365206861207265616c697a61646f00\n        /* \"#utility.yul\":4714:4716   */\n      0x40\n        /* \"#utility.yul\":4706:4712   */\n      dup3\n        /* \"#utility.yul\":4702:4717   */\n      add\n        /* \"#utility.yul\":4695:4753   */\n      mstore\n        /* \"#utility.yul\":4441:4760   */\n      pop\n      jump\t// out\n        /* \"#utility.yul\":4766:5132   */\n    tag_111:\n        /* \"#utility.yul\":4908:4911   */\n      0x00\n        /* \"#utility.yul\":4929:4996   */\n      tag_168\n        /* \"#utility.yul\":4993:4995   */\n      0x5f\n        /* \"#utility.yul\":4988:4991   */\n      dup4\n        /* \"#utility.yul\":4929:4996   */\n      tag_101\n      jump\t// in\n    tag_168:\n        /* \"#utility.yul\":4922:4996   */\n      swap2\n      pop\n        /* \"#utility.yul\":5005:5098   */\n      tag_169\n        /* \"#utility.yul\":5094:5097   */\n      dup3\n        /* \"#utility.yul\":5005:5098   */\n      tag_110\n      jump\t// in\n    tag_169:\n        /* \"#utility.yul\":5123:5125   */\n      0x60\n        /* \"#utility.yul\":5118:5121   */\n      dup3\n        /* \"#utility.yul\":5114:5126   */\n      add\n        /* \"#utility.yul\":5107:5126   */\n      swap1\n      pop\n        /* \"#utility.yul\":4766:5132   */\n      swap2\n      swap1\n      pop\n      jump\t// out\n        /* \"#utility.yul\":5138:5557   */\n    tag_72:\n        /* \"#utility.yul\":5304:5308   */\n      0x00\n        /* \"#utility.yul\":5342:5344   */\n      0x20\n        /* \"#utility.yul\":5331:5340   */\n      dup3\n        /* \"#utility.yul\":5327:5345   */\n      add\n        /* \"#utility.yul\":5319:5345   */\n      swap1\n      pop\n        /* \"#utility.yul\":5391:5400   */\n      dup2\n        /* \"#utility.yul\":5385:5389   */\n      dup2\n        /* \"#utility.yul\":5381:5401   */\n      sub\n        /* \"#utility.yul\":5377:5378   */\n      0x00\n        /* \"#utility.yul\":5366:5375   */\n      dup4\n        /* \"#utility.yul\":5362:5379   */\n      add\n        /* \"#utility.yul\":5355:5402   */\n      mstore\n        /* \"#utility.yul\":5419:5550   */\n      tag_171\n        /* \"#utility.yul\":5545:5549   */\n      dup2\n        /* \"#utility.yul\":5419:5550   */\n      tag_111\n      jump\t// in\n    tag_171:\n        /* \"#utility.yul\":5411:5550   */\n      swap1\n      pop\n        /* \"#utility.yul\":5138:5557   */\n      swap2\n      swap1\n      pop\n      jump\t// out\n        /* \"#utility.yul\":5563:5738   */\n    tag_112:\n        /* \"#utility.yul\":5703:5730   */\n      0x456c20636f6e63696572746f20736967756520656e2070696500000000000000\n        /* \"#utility.yul\":5699:5700   */\n      0x00\n        /* \"#utility.yul\":5691:5697   */\n      dup3\n        /* \"#utility.yul\":5687:5701   */\n      add\n        /* \"#utility.yul\":5680:5731   */\n      mstore\n        /* \"#utility.yul\":5563:5738   */\n      pop\n      jump\t// out\n        /* \"#utility.yul\":5744:6110   */\n    tag_113:\n        /* \"#utility.yul\":5886:5889   */\n      0x00\n        /* \"#utility.yul\":5907:5974   */\n      tag_174\n        /* \"#utility.yul\":5971:5973   */\n      0x19\n        /* \"#utility.yul\":5966:5969   */\n      dup4\n        /* \"#utility.yul\":5907:5974   */\n      tag_101\n      jump\t// in\n    tag_174:\n        /* \"#utility.yul\":5900:5974   */\n      swap2\n      pop\n        /* \"#utility.yul\":5983:6076   */\n      tag_175\n        /* \"#utility.yul\":6072:6075   */\n      dup3\n        /* \"#utility.yul\":5983:6076   */\n      tag_112\n      jump\t// in\n    tag_175:\n        /* \"#utility.yul\":6101:6103   */\n      0x20\n        /* \"#utility.yul\":6096:6099   */\n      dup3\n        /* \"#utility.yul\":6092:6104   */\n      add\n        /* \"#utility.yul\":6085:6104   */\n      swap1\n      pop\n        /* \"#utility.yul\":5744:6110   */\n      swap2\n      swap1\n      pop\n      jump\t// out\n        /* \"#utility.yul\":6116:6535   */\n    tag_76:\n        /* \"#utility.yul\":6282:6286   */\n      0x00\n        /* \"#utility.yul\":6320:6322   */\n      0x20\n        /* \"#utility.yul\":6309:6318   */\n      dup3\n        /* \"#utility.yul\":6305:6323   */\n      add\n        /* \"#utility.yul\":6297:6323   */\n      swap1\n      pop\n        /* \"#utility.yul\":6369:6378   */\n      dup2\n        /* \"#utility.yul\":6363:6367   */\n      dup2\n        /* \"#utility.yul\":6359:6379   */\n      sub\n        /* \"#utility.yul\":6355:6356   */\n      0x00\n        /* \"#utility.yul\":6344:6353   */\n      dup4\n        /* \"#utility.yul\":6340:6357   */\n      add\n        /* \"#utility.yul\":6333:6380   */\n      mstore\n        /* \"#utility.yul\":6397:6528   */\n      tag_177\n        /* \"#utility.yul\":6523:6527   */\n      dup2\n        /* \"#utility.yul\":6397:6528   */\n      tag_113\n      jump\t// in\n    tag_177:\n        /* \"#utility.yul\":6389:6528   */\n      swap1\n      pop\n        /* \"#utility.yul\":6116:6535   */\n      swap2\n      swap1\n      pop\n      jump\t// out\n        /* \"#utility.yul\":6541:6763   */\n    tag_114:\n        /* \"#utility.yul\":6681:6715   */\n      0x4e6f207469656e657320656e7472616461207061726120656c20636f6e636965\n        /* \"#utility.yul\":6677:6678   */\n      0x00\n        /* \"#utility.yul\":6669:6675   */\n      dup3\n        /* \"#utility.yul\":6665:6679   */\n      add\n        /* \"#utility.yul\":6658:6716   */\n      mstore\n        /* \"#utility.yul\":6750:6755   */\n      0x72746f0000000000000000000000000000000000000000000000000000000000\n        /* \"#utility.yul\":6745:6747   */\n      0x20\n        /* \"#utility.yul\":6737:6743   */\n      dup3\n        /* \"#utility.yul\":6733:6748   */\n      add\n        /* \"#utility.yul\":6726:6756   */\n      mstore\n        /* \"#utility.yul\":6541:6763   */\n      pop\n      jump\t// out\n        /* \"#utility.yul\":6769:7135   */\n    tag_115:\n        /* \"#utility.yul\":6911:6914   */\n      0x00\n        /* \"#utility.yul\":6932:6999   */\n      tag_180\n        /* \"#utility.yul\":6996:6998   */\n      0x23\n        /* \"#utility.yul\":6991:6994   */\n      dup4\n        /* \"#utility.yul\":6932:6999   */\n      tag_101\n      jump\t// in\n    tag_180:\n        /* \"#utility.yul\":6925:6999   */\n      swap2\n      pop\n        /* \"#utility.yul\":7008:7101   */\n      tag_181\n        /* \"#utility.yul\":7097:7100   */\n      dup3\n        /* \"#utility.yul\":7008:7101   */\n      tag_114\n      jump\t// in\n    tag_181:\n        /* \"#utility.yul\":7126:7128   */\n      0x40\n        /* \"#utility.yul\":7121:7124   */\n      dup3\n        /* \"#utility.yul\":7117:7129   */\n      add\n        /* \"#utility.yul\":7110:7129   */\n      swap1\n      pop\n        /* \"#utility.yul\":6769:7135   */\n      swap2\n      swap1\n      pop\n      jump\t// out\n        /* \"#utility.yul\":7141:7560   */\n    tag_79:\n        /* \"#utility.yul\":7307:7311   */\n      0x00\n        /* \"#utility.yul\":7345:7347   */\n      0x20\n        /* \"#utility.yul\":7334:7343   */\n      dup3\n        /* \"#utility.yul\":7330:7348   */\n      add\n        /* \"#utility.yul\":7322:7348   */\n      swap1\n      pop\n        /* \"#utility.yul\":7394:7403   */\n      dup2\n        /* \"#utility.yul\":7388:7392   */\n      dup2\n        /* \"#utility.yul\":7384:7404   */\n      sub\n        /* \"#utility.yul\":7380:7381   */\n      0x00\n        /* \"#utility.yul\":7369:7378   */\n      dup4\n        /* \"#utility.yul\":7365:7382   */\n      add\n        /* \"#utility.yul\":7358:7405   */\n      mstore\n        /* \"#utility.yul\":7422:7553   */\n      tag_183\n        /* \"#utility.yul\":7548:7552   */\n      dup2\n        /* \"#utility.yul\":7422:7553   */\n      tag_115\n      jump\t// in\n    tag_183:\n        /* \"#utility.yul\":7414:7553   */\n      swap1\n      pop\n        /* \"#utility.yul\":7141:7560   */\n      swap2\n      swap1\n      pop\n      jump\t// out\n        /* \"#utility.yul\":7566:7976   */\n    tag_81:\n        /* \"#utility.yul\":7606:7613   */\n      0x00\n        /* \"#utility.yul\":7629:7649   */\n      tag_185\n        /* \"#utility.yul\":7647:7648   */\n      dup3\n        /* \"#utility.yul\":7629:7649   */\n      tag_105\n      jump\t// in\n    tag_185:\n        /* \"#utility.yul\":7624:7649   */\n      swap2\n      pop\n        /* \"#utility.yul\":7663:7683   */\n      tag_186\n        /* \"#utility.yul\":7681:7682   */\n      dup4\n        /* \"#utility.yul\":7663:7683   */\n      tag_105\n      jump\t// in\n    tag_186:\n        /* \"#utility.yul\":7658:7683   */\n      swap3\n      pop\n        /* \"#utility.yul\":7718:7719   */\n      dup3\n        /* \"#utility.yul\":7715:7716   */\n      dup3\n        /* \"#utility.yul\":7711:7720   */\n      mul\n        /* \"#utility.yul\":7740:7770   */\n      tag_187\n        /* \"#utility.yul\":7758:7769   */\n      dup2\n        /* \"#utility.yul\":7740:7770   */\n      tag_105\n      jump\t// in\n    tag_187:\n        /* \"#utility.yul\":7729:7770   */\n      swap2\n      pop\n        /* \"#utility.yul\":7919:7920   */\n      dup3\n        /* \"#utility.yul\":7910:7917   */\n      dup3\n        /* \"#utility.yul\":7906:7921   */\n      div\n        /* \"#utility.yul\":7903:7904   */\n      dup5\n        /* \"#utility.yul\":7900:7922   */\n      eq\n        /* \"#utility.yul\":7880:7881   */\n      dup4\n        /* \"#utility.yul\":7873:7882   */\n      iszero\n        /* \"#utility.yul\":7853:7936   */\n      or\n        /* \"#utility.yul\":7830:7969   */\n      tag_188\n      jumpi\n        /* \"#utility.yul\":7949:7967   */\n      tag_189\n      tag_107\n      jump\t// in\n    tag_189:\n        /* \"#utility.yul\":7830:7969   */\n    tag_188:\n        /* \"#utility.yul\":7614:7976   */\n      pop\n        /* \"#utility.yul\":7566:7976   */\n      swap3\n      swap2\n      pop\n      pop\n      jump\t// out\n        /* \"#utility.yul\":7982:8162   */\n    tag_116:\n        /* \"#utility.yul\":8030:8107   */\n      0x4e487b7100000000000000000000000000000000000000000000000000000000\n        /* \"#utility.yul\":8027:8028   */\n      0x00\n        /* \"#utility.yul\":8020:8108   */\n      mstore\n        /* \"#utility.yul\":8127:8131   */\n      0x22\n        /* \"#utility.yul\":8124:8125   */\n      0x04\n        /* \"#utility.yul\":8117:8132   */\n      mstore\n        /* \"#utility.yul\":8151:8155   */\n      0x24\n        /* \"#utility.yul\":8148:8149   */\n      0x00\n        /* \"#utility.yul\":8141:8156   */\n      revert\n        /* \"#utility.yul\":8168:8488   */\n    tag_85:\n        /* \"#utility.yul\":8212:8218   */\n      0x00\n        /* \"#utility.yul\":8249:8250   */\n      0x02\n        /* \"#utility.yul\":8243:8247   */\n      dup3\n        /* \"#utility.yul\":8239:8251   */\n      div\n        /* \"#utility.yul\":8229:8251   */\n      swap1\n      pop\n        /* \"#utility.yul\":8296:8297   */\n      0x01\n        /* \"#utility.yul\":8290:8294   */\n      dup3\n        /* \"#utility.yul\":8286:8298   */\n      and\n        /* \"#utility.yul\":8317:8335   */\n      dup1\n        /* \"#utility.yul\":8307:8388   */\n      tag_192\n      jumpi\n        /* \"#utility.yul\":8373:8377   */\n      0x7f\n        /* \"#utility.yul\":8365:8371   */\n      dup3\n        /* \"#utility.yul\":8361:8378   */\n      and\n        /* \"#utility.yul\":8351:8378   */\n      swap2\n      pop\n        /* \"#utility.yul\":8307:8388   */\n    tag_192:\n        /* \"#utility.yul\":8435:8437   */\n      0x20\n        /* \"#utility.yul\":8427:8433   */\n      dup3\n        /* \"#utility.yul\":8424:8438   */\n      lt\n        /* \"#utility.yul\":8404:8422   */\n      dup2\n        /* \"#utility.yul\":8401:8439   */\n      sub\n        /* \"#utility.yul\":8398:8482   */\n      tag_193\n      jumpi\n        /* \"#utility.yul\":8454:8472   */\n      tag_194\n      tag_116\n      jump\t// in\n    tag_194:\n        /* \"#utility.yul\":8398:8482   */\n    tag_193:\n        /* \"#utility.yul\":8219:8488   */\n      pop\n        /* \"#utility.yul\":8168:8488   */\n      swap2\n      swap1\n      pop\n      jump\t// out\n        /* \"#utility.yul\":8494:8666   */\n    tag_117:\n        /* \"#utility.yul\":8634:8658   */\n      0x4e6f206572657320656c2070726f706965746172696f00000000000000000000\n        /* \"#utility.yul\":8630:8631   */\n      0x00\n        /* \"#utility.yul\":8622:8628   */\n      dup3\n        /* \"#utility.yul\":8618:8632   */\n      add\n        /* \"#utility.yul\":8611:8659   */\n      mstore\n        /* \"#utility.yul\":8494:8666   */\n      pop\n      jump\t// out\n        /* \"#utility.yul\":8672:9038   */\n    tag_118:\n        /* \"#utility.yul\":8814:8817   */\n      0x00\n        /* \"#utility.yul\":8835:8902   */\n      tag_197\n        /* \"#utility.yul\":8899:8901   */\n      0x16\n        /* \"#utility.yul\":8894:8897   */\n      dup4\n        /* \"#utility.yul\":8835:8902   */\n      tag_101\n      jump\t// in\n    tag_197:\n        /* \"#utility.yul\":8828:8902   */\n      swap2\n      pop\n        /* \"#utility.yul\":8911:9004   */\n      tag_198\n        /* \"#utility.yul\":9000:9003   */\n      dup3\n        /* \"#utility.yul\":8911:9004   */\n      tag_117\n      jump\t// in\n    tag_198:\n        /* \"#utility.yul\":9029:9031   */\n      0x20\n        /* \"#utility.yul\":9024:9027   */\n      dup3\n        /* \"#utility.yul\":9020:9032   */\n      add\n        /* \"#utility.yul\":9013:9032   */\n      swap1\n      pop\n        /* \"#utility.yul\":8672:9038   */\n      swap2\n      swap1\n      pop\n      jump\t// out\n        /* \"#utility.yul\":9044:9463   */\n    tag_93:\n        /* \"#utility.yul\":9210:9214   */\n      0x00\n        /* \"#utility.yul\":9248:9250   */\n      0x20\n        /* \"#utility.yul\":9237:9246   */\n      dup3\n        /* \"#utility.yul\":9233:9251   */\n      add\n        /* \"#utility.yul\":9225:9251   */\n      swap1\n      pop\n        /* \"#utility.yul\":9297:9306   */\n      dup2\n        /* \"#utility.yul\":9291:9295   */\n      dup2\n        /* \"#utility.yul\":9287:9307   */\n      sub\n        /* \"#utility.yul\":9283:9284   */\n      0x00\n        /* \"#utility.yul\":9272:9281   */\n      dup4\n        /* \"#utility.yul\":9268:9285   */\n      add\n        /* \"#utility.yul\":9261:9308   */\n      mstore\n        /* \"#utility.yul\":9325:9456   */\n      tag_200\n        /* \"#utility.yul\":9451:9455   */\n      dup2\n        /* \"#utility.yul\":9325:9456   */\n      tag_118\n      jump\t// in\n    tag_200:\n        /* \"#utility.yul\":9317:9456   */\n      swap1\n      pop\n        /* \"#utility.yul\":9044:9463   */\n      swap2\n      swap1\n      pop\n      jump\t// out\n\n    auxdata: 0xa2646970667358221220622d35d5584c8112980c1de5424253ebc426fa79da607c5f70f455536f4df3fd64736f6c63430008110033\n}\n",
				"bytecode": {
					"linkReferences": {},
					"object": "6080604052476003553480156200001557600080fd5b50604051806060016040528060308152602001620012a46030913960009081620000409190620003e9565b5066038d7ea4c680006001819055506064600260006101000a81548160ff021916908360ff160217905550600260009054906101000a900460ff16600260016101000a81548160ff021916908360ff1602179055506000600660146101000a81548160ff02191690831515021790555033600560006101000a81548173ffffffffffffffffffffffffffffffffffffffff021916908373ffffffffffffffffffffffffffffffffffffffff16021790555030600660006101000a81548173ffffffffffffffffffffffffffffffffffffffff021916908373ffffffffffffffffffffffffffffffffffffffff1602179055507f2844c95bf1b4598da931d527f903501abc60fe0199c65da52d5ce818c6c5e961604051620001619062000531565b60405180910390a162000553565b600081519050919050565b7f4e487b7100000000000000000000000000000000000000000000000000000000600052604160045260246000fd5b7f4e487b7100000000000000000000000000000000000000000000000000000000600052602260045260246000fd5b60006002820490506001821680620001f157607f821691505b602082108103620002075762000206620001a9565b5b50919050565b60008190508160005260206000209050919050565b60006020601f8301049050919050565b600082821b905092915050565b600060088302620002717fffffffffffffffffffffffffffffffffffffffffffffffffffffffffffffffff8262000232565b6200027d868362000232565b95508019841693508086168417925050509392505050565b6000819050919050565b6000819050919050565b6000620002ca620002c4620002be8462000295565b6200029f565b62000295565b9050919050565b6000819050919050565b620002e683620002a9565b620002fe620002f582620002d1565b8484546200023f565b825550505050565b600090565b6200031562000306565b62000322818484620002db565b505050565b5b818110156200034a576200033e6000826200030b565b60018101905062000328565b5050565b601f821115620003995762000363816200020d565b6200036e8462000222565b810160208510156200037e578190505b620003966200038d8562000222565b83018262000327565b50505b505050565b600082821c905092915050565b6000620003be600019846008026200039e565b1980831691505092915050565b6000620003d98383620003ab565b9150826002028217905092915050565b620003f4826200016f565b67ffffffffffffffff81111562000410576200040f6200017a565b5b6200041c8254620001d8565b620004298282856200034e565b600060209050601f8311600181146200046157600084156200044c578287015190505b620004588582620003cb565b865550620004c8565b601f19841662000471866200020d565b60005b828110156200049b5784890151825560018201915060208501945060208101905062000474565b86831015620004bb5784890151620004b7601f891682620003ab565b8355505b6001600288020188555050505b505050505050565b600082825260208201905092915050565b7f436f6e63696572746f20646973706f6e69626c65000000000000000000000000600082015250565b600062000519601483620004d0565b91506200052682620004e1565b602082019050919050565b600060208201905081810360008301526200054c816200050a565b9050919050565b610d4180620005636000396000f3fe60806040526004361061009c5760003560e01c806372e61c521161006457806372e61c52146101365780638da5cb5b146101615780638ffb1ccf1461018c578063a035b1fe146101a3578063cb196d0f146101ce578063db7fbc86146101f95761009c565b80630f50b6e7146100a15780632651e778146100cc5780632e71a1b4146100f75780633ccfd60b146101015780637284e4161461010b575b600080fd5b3480156100ad57600080fd5b506100b6610224565b6040516100c39190610803565b60405180910390f35b3480156100d857600080fd5b506100e161024a565b6040516100ee919061083a565b60405180910390f35b6100ff61025d565b005b61010961049f565b005b34801561011757600080fd5b5061012061060b565b60405161012d91906108e5565b60405180910390f35b34801561014257600080fd5b5061014b610699565b604051610158919061083a565b60405180910390f35b34801561016d57600080fd5b506101766106ac565b6040516101839190610803565b60405180910390f35b34801561019857600080fd5b506101a16106d2565b005b3480156101af57600080fd5b506101b861077f565b6040516101c59190610920565b60405180910390f35b3480156101da57600080fd5b506101e3610785565b6040516101f0919061083a565b60405180910390f35b34801561020557600080fd5b5061020e61079c565b60405161021b9190610803565b60405180910390f35b600460009054906101000a900473ffffffffffffffffffffffffffffffffffffffff1681565b600260019054906101000a900460ff1681565b6000600260019054906101000a900460ff1660ff16118015610280575060015434145b80156102995750600660159054906101000a900460ff16155b156104675733600460006101000a81548173ffffffffffffffffffffffffffffffffffffffff021916908373ffffffffffffffffffffffffffffffffffffffff1602179055506002600181819054906101000a900460ff16809291906102fe9061096a565b91906101000a81548160ff021916908360ff160217905550506000600260019054906101000a900460ff1660ff16036103455760011515600660149054906101000a905050505b6000600760003373ffffffffffffffffffffffffffffffffffffffff1673ffffffffffffffffffffffffffffffffffffffff1681526020019081526020016000205411156103e757600760003373ffffffffffffffffffffffffffffffffffffffff1673ffffffffffffffffffffffffffffffffffffffff16815260200190815260200160002060008154809291906103dd90610993565b919050555061042d565b6001600760003373ffffffffffffffffffffffffffffffffffffffff1673ffffffffffffffffffffffffffffffffffffffff168152602001908152602001600020819055505b7f2844c95bf1b4598da931d527f903501abc60fe0199c65da52d5ce818c6c5e96160405161045a90610a27565b60405180910390a161049d565b7f2844c95bf1b4598da931d527f903501abc60fe0199c65da52d5ce818c6c5e96160405161049490610adf565b60405180910390a15b565b600660159054906101000a900460ff166104ee576040517f08c379a00000000000000000000000000000000000000000000000000000000081526004016104e590610b4b565b60405180910390fd5b6000600760003373ffffffffffffffffffffffffffffffffffffffff1673ffffffffffffffffffffffffffffffffffffffff1681526020019081526020016000205411610570576040517f08c379a000000000000000000000000000000000000000000000000000000000815260040161056790610bdd565b60405180910390fd5b6000600760003373ffffffffffffffffffffffffffffffffffffffff1673ffffffffffffffffffffffffffffffffffffffff168152602001908152602001600020546001546105bf9190610bfd565b90503373ffffffffffffffffffffffffffffffffffffffff166108fc829081150290604051600060405180830381858888f19350505050158015610607573d6000803e3d6000fd5b5050565b6000805461061890610c6e565b80601f016020809104026020016040519081016040528092919081815260200182805461064490610c6e565b80156106915780601f1061066657610100808354040283529160200191610691565b820191906000526020600020905b81548152906001019060200180831161067457829003601f168201915b505050505081565b600260009054906101000a900460ff1681565b600560009054906101000a900473ffffffffffffffffffffffffffffffffffffffff1681565b600560009054906101000a900473ffffffffffffffffffffffffffffffffffffffff1673ffffffffffffffffffffffffffffffffffffffff163373ffffffffffffffffffffffffffffffffffffffff1614610762576040517f08c379a000000000000000000000000000000000000000000000000000000000815260040161075990610ceb565b60405180910390fd5b6001600660156101000a81548160ff021916908315150217905550565b60015481565b6000600260019054906101000a900460ff16905090565b600660009054906101000a900473ffffffffffffffffffffffffffffffffffffffff1681565b600073ffffffffffffffffffffffffffffffffffffffff82169050919050565b60006107ed826107c2565b9050919050565b6107fd816107e2565b82525050565b600060208201905061081860008301846107f4565b92915050565b600060ff82169050919050565b6108348161081e565b82525050565b600060208201905061084f600083018461082b565b92915050565b600081519050919050565b600082825260208201905092915050565b60005b8381101561088f578082015181840152602081019050610874565b60008484015250505050565b6000601f19601f8301169050919050565b60006108b782610855565b6108c18185610860565b93506108d1818560208601610871565b6108da8161089b565b840191505092915050565b600060208201905081810360008301526108ff81846108ac565b905092915050565b6000819050919050565b61091a81610907565b82525050565b60006020820190506109356000830184610911565b92915050565b7f4e487b7100000000000000000000000000000000000000000000000000000000600052601160045260246000fd5b60006109758261081e565b9150600082036109885761098761093b565b5b600182039050919050565b600061099e82610907565b91507fffffffffffffffffffffffffffffffffffffffffffffffffffffffffffffffff82036109d0576109cf61093b565b5b600182019050919050565b7f436f6d707261207265616c697a61646120636f6e20657869746f000000000000600082015250565b6000610a11601a83610860565b9150610a1c826109db565b602082019050919050565b60006020820190508181036000830152610a4081610a04565b9050919050565b7f5961206e6f2068617920656e7472616461732c206e6f2068617320696e74726f60008201527f64756369646f20656c2070726563696f20616465637561646f2c20736520686160208201527f2063616e63656c61646f206f207961207365206861207265616c697a61646f00604082015250565b6000610ac9605f83610860565b9150610ad482610a47565b606082019050919050565b60006020820190508181036000830152610af881610abc565b9050919050565b7f456c20636f6e63696572746f20736967756520656e2070696500000000000000600082015250565b6000610b35601983610860565b9150610b4082610aff565b602082019050919050565b60006020820190508181036000830152610b6481610b28565b9050919050565b7f4e6f207469656e657320656e7472616461207061726120656c20636f6e63696560008201527f72746f0000000000000000000000000000000000000000000000000000000000602082015250565b6000610bc7602383610860565b9150610bd282610b6b565b604082019050919050565b60006020820190508181036000830152610bf681610bba565b9050919050565b6000610c0882610907565b9150610c1383610907565b9250828202610c2181610907565b91508282048414831517610c3857610c3761093b565b5b5092915050565b7f4e487b7100000000000000000000000000000000000000000000000000000000600052602260045260246000fd5b60006002820490506001821680610c8657607f821691505b602082108103610c9957610c98610c3f565b5b50919050565b7f4e6f206572657320656c2070726f706965746172696f00000000000000000000600082015250565b6000610cd5601683610860565b9150610ce082610c9f565b602082019050919050565b60006020820190508181036000830152610d0481610cc8565b905091905056fea2646970667358221220622d35d5584c8112980c1de5424253ebc426fa79da607c5f70f455536f4df3fd64736f6c63430008110033436f6e63696572746f206465206d696c696b6920656e206c612073616c6120536f6c20656c2032352f30332f32303233",
					"opcodes": "PUSH1 0x80 PUSH1 0x40 MSTORE SELFBALANCE PUSH1 0x3 SSTORE CALLVALUE DUP1 ISZERO PUSH3 0x15 JUMPI PUSH1 0x0 DUP1 REVERT JUMPDEST POP PUSH1 0x40 MLOAD DUP1 PUSH1 0x60 ADD PUSH1 0x40 MSTORE DUP1 PUSH1 0x30 DUP2 MSTORE PUSH1 0x20 ADD PUSH3 0x12A4 PUSH1 0x30 SWAP2 CODECOPY PUSH1 0x0 SWAP1 DUP2 PUSH3 0x40 SWAP2 SWAP1 PUSH3 0x3E9 JUMP JUMPDEST POP PUSH7 0x38D7EA4C68000 PUSH1 0x1 DUP2 SWAP1 SSTORE POP PUSH1 0x64 PUSH1 0x2 PUSH1 0x0 PUSH2 0x100 EXP DUP2 SLOAD DUP2 PUSH1 0xFF MUL NOT AND SWAP1 DUP4 PUSH1 0xFF AND MUL OR SWAP1 SSTORE POP PUSH1 0x2 PUSH1 0x0 SWAP1 SLOAD SWAP1 PUSH2 0x100 EXP SWAP1 DIV PUSH1 0xFF AND PUSH1 0x2 PUSH1 0x1 PUSH2 0x100 EXP DUP2 SLOAD DUP2 PUSH1 0xFF MUL NOT AND SWAP1 DUP4 PUSH1 0xFF AND MUL OR SWAP1 SSTORE POP PUSH1 0x0 PUSH1 0x6 PUSH1 0x14 PUSH2 0x100 EXP DUP2 SLOAD DUP2 PUSH1 0xFF MUL NOT AND SWAP1 DUP4 ISZERO ISZERO MUL OR SWAP1 SSTORE POP CALLER PUSH1 0x5 PUSH1 0x0 PUSH2 0x100 EXP DUP2 SLOAD DUP2 PUSH20 0xFFFFFFFFFFFFFFFFFFFFFFFFFFFFFFFFFFFFFFFF MUL NOT AND SWAP1 DUP4 PUSH20 0xFFFFFFFFFFFFFFFFFFFFFFFFFFFFFFFFFFFFFFFF AND MUL OR SWAP1 SSTORE POP ADDRESS PUSH1 0x6 PUSH1 0x0 PUSH2 0x100 EXP DUP2 SLOAD DUP2 PUSH20 0xFFFFFFFFFFFFFFFFFFFFFFFFFFFFFFFFFFFFFFFF MUL NOT AND SWAP1 DUP4 PUSH20 0xFFFFFFFFFFFFFFFFFFFFFFFFFFFFFFFFFFFFFFFF AND MUL OR SWAP1 SSTORE POP PUSH32 0x2844C95BF1B4598DA931D527F903501ABC60FE0199C65DA52D5CE818C6C5E961 PUSH1 0x40 MLOAD PUSH3 0x161 SWAP1 PUSH3 0x531 JUMP JUMPDEST PUSH1 0x40 MLOAD DUP1 SWAP2 SUB SWAP1 LOG1 PUSH3 0x553 JUMP JUMPDEST PUSH1 0x0 DUP2 MLOAD SWAP1 POP SWAP2 SWAP1 POP JUMP JUMPDEST PUSH32 0x4E487B7100000000000000000000000000000000000000000000000000000000 PUSH1 0x0 MSTORE PUSH1 0x41 PUSH1 0x4 MSTORE PUSH1 0x24 PUSH1 0x0 REVERT JUMPDEST PUSH32 0x4E487B7100000000000000000000000000000000000000000000000000000000 PUSH1 0x0 MSTORE PUSH1 0x22 PUSH1 0x4 MSTORE PUSH1 0x24 PUSH1 0x0 REVERT JUMPDEST PUSH1 0x0 PUSH1 0x2 DUP3 DIV SWAP1 POP PUSH1 0x1 DUP3 AND DUP1 PUSH3 0x1F1 JUMPI PUSH1 0x7F DUP3 AND SWAP2 POP JUMPDEST PUSH1 0x20 DUP3 LT DUP2 SUB PUSH3 0x207 JUMPI PUSH3 0x206 PUSH3 0x1A9 JUMP JUMPDEST JUMPDEST POP SWAP2 SWAP1 POP JUMP JUMPDEST PUSH1 0x0 DUP2 SWAP1 POP DUP2 PUSH1 0x0 MSTORE PUSH1 0x20 PUSH1 0x0 KECCAK256 SWAP1 POP SWAP2 SWAP1 POP JUMP JUMPDEST PUSH1 0x0 PUSH1 0x20 PUSH1 0x1F DUP4 ADD DIV SWAP1 POP SWAP2 SWAP1 POP JUMP JUMPDEST PUSH1 0x0 DUP3 DUP3 SHL SWAP1 POP SWAP3 SWAP2 POP POP JUMP JUMPDEST PUSH1 0x0 PUSH1 0x8 DUP4 MUL PUSH3 0x271 PUSH32 0xFFFFFFFFFFFFFFFFFFFFFFFFFFFFFFFFFFFFFFFFFFFFFFFFFFFFFFFFFFFFFFFF DUP3 PUSH3 0x232 JUMP JUMPDEST PUSH3 0x27D DUP7 DUP4 PUSH3 0x232 JUMP JUMPDEST SWAP6 POP DUP1 NOT DUP5 AND SWAP4 POP DUP1 DUP7 AND DUP5 OR SWAP3 POP POP POP SWAP4 SWAP3 POP POP POP JUMP JUMPDEST PUSH1 0x0 DUP2 SWAP1 POP SWAP2 SWAP1 POP JUMP JUMPDEST PUSH1 0x0 DUP2 SWAP1 POP SWAP2 SWAP1 POP JUMP JUMPDEST PUSH1 0x0 PUSH3 0x2CA PUSH3 0x2C4 PUSH3 0x2BE DUP5 PUSH3 0x295 JUMP JUMPDEST PUSH3 0x29F JUMP JUMPDEST PUSH3 0x295 JUMP JUMPDEST SWAP1 POP SWAP2 SWAP1 POP JUMP JUMPDEST PUSH1 0x0 DUP2 SWAP1 POP SWAP2 SWAP1 POP JUMP JUMPDEST PUSH3 0x2E6 DUP4 PUSH3 0x2A9 JUMP JUMPDEST PUSH3 0x2FE PUSH3 0x2F5 DUP3 PUSH3 0x2D1 JUMP JUMPDEST DUP5 DUP5 SLOAD PUSH3 0x23F JUMP JUMPDEST DUP3 SSTORE POP POP POP POP JUMP JUMPDEST PUSH1 0x0 SWAP1 JUMP JUMPDEST PUSH3 0x315 PUSH3 0x306 JUMP JUMPDEST PUSH3 0x322 DUP2 DUP5 DUP5 PUSH3 0x2DB JUMP JUMPDEST POP POP POP JUMP JUMPDEST JUMPDEST DUP2 DUP2 LT ISZERO PUSH3 0x34A JUMPI PUSH3 0x33E PUSH1 0x0 DUP3 PUSH3 0x30B JUMP JUMPDEST PUSH1 0x1 DUP2 ADD SWAP1 POP PUSH3 0x328 JUMP JUMPDEST POP POP JUMP JUMPDEST PUSH1 0x1F DUP3 GT ISZERO PUSH3 0x399 JUMPI PUSH3 0x363 DUP2 PUSH3 0x20D JUMP JUMPDEST PUSH3 0x36E DUP5 PUSH3 0x222 JUMP JUMPDEST DUP2 ADD PUSH1 0x20 DUP6 LT ISZERO PUSH3 0x37E JUMPI DUP2 SWAP1 POP JUMPDEST PUSH3 0x396 PUSH3 0x38D DUP6 PUSH3 0x222 JUMP JUMPDEST DUP4 ADD DUP3 PUSH3 0x327 JUMP JUMPDEST POP POP JUMPDEST POP POP POP JUMP JUMPDEST PUSH1 0x0 DUP3 DUP3 SHR SWAP1 POP SWAP3 SWAP2 POP POP JUMP JUMPDEST PUSH1 0x0 PUSH3 0x3BE PUSH1 0x0 NOT DUP5 PUSH1 0x8 MUL PUSH3 0x39E JUMP JUMPDEST NOT DUP1 DUP4 AND SWAP2 POP POP SWAP3 SWAP2 POP POP JUMP JUMPDEST PUSH1 0x0 PUSH3 0x3D9 DUP4 DUP4 PUSH3 0x3AB JUMP JUMPDEST SWAP2 POP DUP3 PUSH1 0x2 MUL DUP3 OR SWAP1 POP SWAP3 SWAP2 POP POP JUMP JUMPDEST PUSH3 0x3F4 DUP3 PUSH3 0x16F JUMP JUMPDEST PUSH8 0xFFFFFFFFFFFFFFFF DUP2 GT ISZERO PUSH3 0x410 JUMPI PUSH3 0x40F PUSH3 0x17A JUMP JUMPDEST JUMPDEST PUSH3 0x41C DUP3 SLOAD PUSH3 0x1D8 JUMP JUMPDEST PUSH3 0x429 DUP3 DUP3 DUP6 PUSH3 0x34E JUMP JUMPDEST PUSH1 0x0 PUSH1 0x20 SWAP1 POP PUSH1 0x1F DUP4 GT PUSH1 0x1 DUP2 EQ PUSH3 0x461 JUMPI PUSH1 0x0 DUP5 ISZERO PUSH3 0x44C JUMPI DUP3 DUP8 ADD MLOAD SWAP1 POP JUMPDEST PUSH3 0x458 DUP6 DUP3 PUSH3 0x3CB JUMP JUMPDEST DUP7 SSTORE POP PUSH3 0x4C8 JUMP JUMPDEST PUSH1 0x1F NOT DUP5 AND PUSH3 0x471 DUP7 PUSH3 0x20D JUMP JUMPDEST PUSH1 0x0 JUMPDEST DUP3 DUP2 LT ISZERO PUSH3 0x49B JUMPI DUP5 DUP10 ADD MLOAD DUP3 SSTORE PUSH1 0x1 DUP3 ADD SWAP2 POP PUSH1 0x20 DUP6 ADD SWAP5 POP PUSH1 0x20 DUP2 ADD SWAP1 POP PUSH3 0x474 JUMP JUMPDEST DUP7 DUP4 LT ISZERO PUSH3 0x4BB JUMPI DUP5 DUP10 ADD MLOAD PUSH3 0x4B7 PUSH1 0x1F DUP10 AND DUP3 PUSH3 0x3AB JUMP JUMPDEST DUP4 SSTORE POP JUMPDEST PUSH1 0x1 PUSH1 0x2 DUP9 MUL ADD DUP9 SSTORE POP POP POP JUMPDEST POP POP POP POP POP POP JUMP JUMPDEST PUSH1 0x0 DUP3 DUP3 MSTORE PUSH1 0x20 DUP3 ADD SWAP1 POP SWAP3 SWAP2 POP POP JUMP JUMPDEST PUSH32 0x436F6E63696572746F20646973706F6E69626C65000000000000000000000000 PUSH1 0x0 DUP3 ADD MSTORE POP JUMP JUMPDEST PUSH1 0x0 PUSH3 0x519 PUSH1 0x14 DUP4 PUSH3 0x4D0 JUMP JUMPDEST SWAP2 POP PUSH3 0x526 DUP3 PUSH3 0x4E1 JUMP JUMPDEST PUSH1 0x20 DUP3 ADD SWAP1 POP SWAP2 SWAP1 POP JUMP JUMPDEST PUSH1 0x0 PUSH1 0x20 DUP3 ADD SWAP1 POP DUP2 DUP2 SUB PUSH1 0x0 DUP4 ADD MSTORE PUSH3 0x54C DUP2 PUSH3 0x50A JUMP JUMPDEST SWAP1 POP SWAP2 SWAP1 POP JUMP JUMPDEST PUSH2 0xD41 DUP1 PUSH3 0x563 PUSH1 0x0 CODECOPY PUSH1 0x0 RETURN INVALID PUSH1 0x80 PUSH1 0x40 MSTORE PUSH1 0x4 CALLDATASIZE LT PUSH2 0x9C JUMPI PUSH1 0x0 CALLDATALOAD PUSH1 0xE0 SHR DUP1 PUSH4 0x72E61C52 GT PUSH2 0x64 JUMPI DUP1 PUSH4 0x72E61C52 EQ PUSH2 0x136 JUMPI DUP1 PUSH4 0x8DA5CB5B EQ PUSH2 0x161 JUMPI DUP1 PUSH4 0x8FFB1CCF EQ PUSH2 0x18C JUMPI DUP1 PUSH4 0xA035B1FE EQ PUSH2 0x1A3 JUMPI DUP1 PUSH4 0xCB196D0F EQ PUSH2 0x1CE JUMPI DUP1 PUSH4 0xDB7FBC86 EQ PUSH2 0x1F9 JUMPI PUSH2 0x9C JUMP JUMPDEST DUP1 PUSH4 0xF50B6E7 EQ PUSH2 0xA1 JUMPI DUP1 PUSH4 0x2651E778 EQ PUSH2 0xCC JUMPI DUP1 PUSH4 0x2E71A1B4 EQ PUSH2 0xF7 JUMPI DUP1 PUSH4 0x3CCFD60B EQ PUSH2 0x101 JUMPI DUP1 PUSH4 0x7284E416 EQ PUSH2 0x10B JUMPI JUMPDEST PUSH1 0x0 DUP1 REVERT JUMPDEST CALLVALUE DUP1 ISZERO PUSH2 0xAD JUMPI PUSH1 0x0 DUP1 REVERT JUMPDEST POP PUSH2 0xB6 PUSH2 0x224 JUMP JUMPDEST PUSH1 0x40 MLOAD PUSH2 0xC3 SWAP2 SWAP1 PUSH2 0x803 JUMP JUMPDEST PUSH1 0x40 MLOAD DUP1 SWAP2 SUB SWAP1 RETURN JUMPDEST CALLVALUE DUP1 ISZERO PUSH2 0xD8 JUMPI PUSH1 0x0 DUP1 REVERT JUMPDEST POP PUSH2 0xE1 PUSH2 0x24A JUMP JUMPDEST PUSH1 0x40 MLOAD PUSH2 0xEE SWAP2 SWAP1 PUSH2 0x83A JUMP JUMPDEST PUSH1 0x40 MLOAD DUP1 SWAP2 SUB SWAP1 RETURN JUMPDEST PUSH2 0xFF PUSH2 0x25D JUMP JUMPDEST STOP JUMPDEST PUSH2 0x109 PUSH2 0x49F JUMP JUMPDEST STOP JUMPDEST CALLVALUE DUP1 ISZERO PUSH2 0x117 JUMPI PUSH1 0x0 DUP1 REVERT JUMPDEST POP PUSH2 0x120 PUSH2 0x60B JUMP JUMPDEST PUSH1 0x40 MLOAD PUSH2 0x12D SWAP2 SWAP1 PUSH2 0x8E5 JUMP JUMPDEST PUSH1 0x40 MLOAD DUP1 SWAP2 SUB SWAP1 RETURN JUMPDEST CALLVALUE DUP1 ISZERO PUSH2 0x142 JUMPI PUSH1 0x0 DUP1 REVERT JUMPDEST POP PUSH2 0x14B PUSH2 0x699 JUMP JUMPDEST PUSH1 0x40 MLOAD PUSH2 0x158 SWAP2 SWAP1 PUSH2 0x83A JUMP JUMPDEST PUSH1 0x40 MLOAD DUP1 SWAP2 SUB SWAP1 RETURN JUMPDEST CALLVALUE DUP1 ISZERO PUSH2 0x16D JUMPI PUSH1 0x0 DUP1 REVERT JUMPDEST POP PUSH2 0x176 PUSH2 0x6AC JUMP JUMPDEST PUSH1 0x40 MLOAD PUSH2 0x183 SWAP2 SWAP1 PUSH2 0x803 JUMP JUMPDEST PUSH1 0x40 MLOAD DUP1 SWAP2 SUB SWAP1 RETURN JUMPDEST CALLVALUE DUP1 ISZERO PUSH2 0x198 JUMPI PUSH1 0x0 DUP1 REVERT JUMPDEST POP PUSH2 0x1A1 PUSH2 0x6D2 JUMP JUMPDEST STOP JUMPDEST CALLVALUE DUP1 ISZERO PUSH2 0x1AF JUMPI PUSH1 0x0 DUP1 REVERT JUMPDEST POP PUSH2 0x1B8 PUSH2 0x77F JUMP JUMPDEST PUSH1 0x40 MLOAD PUSH2 0x1C5 SWAP2 SWAP1 PUSH2 0x920 JUMP JUMPDEST PUSH1 0x40 MLOAD DUP1 SWAP2 SUB SWAP1 RETURN JUMPDEST CALLVALUE DUP1 ISZERO PUSH2 0x1DA JUMPI PUSH1 0x0 DUP1 REVERT JUMPDEST POP PUSH2 0x1E3 PUSH2 0x785 JUMP JUMPDEST PUSH1 0x40 MLOAD PUSH2 0x1F0 SWAP2 SWAP1 PUSH2 0x83A JUMP JUMPDEST PUSH1 0x40 MLOAD DUP1 SWAP2 SUB SWAP1 RETURN JUMPDEST CALLVALUE DUP1 ISZERO PUSH2 0x205 JUMPI PUSH1 0x0 DUP1 REVERT JUMPDEST POP PUSH2 0x20E PUSH2 0x79C JUMP JUMPDEST PUSH1 0x40 MLOAD PUSH2 0x21B SWAP2 SWAP1 PUSH2 0x803 JUMP JUMPDEST PUSH1 0x40 MLOAD DUP1 SWAP2 SUB SWAP1 RETURN JUMPDEST PUSH1 0x4 PUSH1 0x0 SWAP1 SLOAD SWAP1 PUSH2 0x100 EXP SWAP1 DIV PUSH20 0xFFFFFFFFFFFFFFFFFFFFFFFFFFFFFFFFFFFFFFFF AND DUP2 JUMP JUMPDEST PUSH1 0x2 PUSH1 0x1 SWAP1 SLOAD SWAP1 PUSH2 0x100 EXP SWAP1 DIV PUSH1 0xFF AND DUP2 JUMP JUMPDEST PUSH1 0x0 PUSH1 0x2 PUSH1 0x1 SWAP1 SLOAD SWAP1 PUSH2 0x100 EXP SWAP1 DIV PUSH1 0xFF AND PUSH1 0xFF AND GT DUP1 ISZERO PUSH2 0x280 JUMPI POP PUSH1 0x1 SLOAD CALLVALUE EQ JUMPDEST DUP1 ISZERO PUSH2 0x299 JUMPI POP PUSH1 0x6 PUSH1 0x15 SWAP1 SLOAD SWAP1 PUSH2 0x100 EXP SWAP1 DIV PUSH1 0xFF AND ISZERO JUMPDEST ISZERO PUSH2 0x467 JUMPI CALLER PUSH1 0x4 PUSH1 0x0 PUSH2 0x100 EXP DUP2 SLOAD DUP2 PUSH20 0xFFFFFFFFFFFFFFFFFFFFFFFFFFFFFFFFFFFFFFFF MUL NOT AND SWAP1 DUP4 PUSH20 0xFFFFFFFFFFFFFFFFFFFFFFFFFFFFFFFFFFFFFFFF AND MUL OR SWAP1 SSTORE POP PUSH1 0x2 PUSH1 0x1 DUP2 DUP2 SWAP1 SLOAD SWAP1 PUSH2 0x100 EXP SWAP1 DIV PUSH1 0xFF AND DUP1 SWAP3 SWAP2 SWAP1 PUSH2 0x2FE SWAP1 PUSH2 0x96A JUMP JUMPDEST SWAP2 SWAP1 PUSH2 0x100 EXP DUP2 SLOAD DUP2 PUSH1 0xFF MUL NOT AND SWAP1 DUP4 PUSH1 0xFF AND MUL OR SWAP1 SSTORE POP POP PUSH1 0x0 PUSH1 0x2 PUSH1 0x1 SWAP1 SLOAD SWAP1 PUSH2 0x100 EXP SWAP1 DIV PUSH1 0xFF AND PUSH1 0xFF AND SUB PUSH2 0x345 JUMPI PUSH1 0x1 ISZERO ISZERO PUSH1 0x6 PUSH1 0x14 SWAP1 SLOAD SWAP1 PUSH2 0x100 EXP SWAP1 POP POP POP JUMPDEST PUSH1 0x0 PUSH1 0x7 PUSH1 0x0 CALLER PUSH20 0xFFFFFFFFFFFFFFFFFFFFFFFFFFFFFFFFFFFFFFFF AND PUSH20 0xFFFFFFFFFFFFFFFFFFFFFFFFFFFFFFFFFFFFFFFF AND DUP2 MSTORE PUSH1 0x20 ADD SWAP1 DUP2 MSTORE PUSH1 0x20 ADD PUSH1 0x0 KECCAK256 SLOAD GT ISZERO PUSH2 0x3E7 JUMPI PUSH1 0x7 PUSH1 0x0 CALLER PUSH20 0xFFFFFFFFFFFFFFFFFFFFFFFFFFFFFFFFFFFFFFFF AND PUSH20 0xFFFFFFFFFFFFFFFFFFFFFFFFFFFFFFFFFFFFFFFF AND DUP2 MSTORE PUSH1 0x20 ADD SWAP1 DUP2 MSTORE PUSH1 0x20 ADD PUSH1 0x0 KECCAK256 PUSH1 0x0 DUP2 SLOAD DUP1 SWAP3 SWAP2 SWAP1 PUSH2 0x3DD SWAP1 PUSH2 0x993 JUMP JUMPDEST SWAP2 SWAP1 POP SSTORE POP PUSH2 0x42D JUMP JUMPDEST PUSH1 0x1 PUSH1 0x7 PUSH1 0x0 CALLER PUSH20 0xFFFFFFFFFFFFFFFFFFFFFFFFFFFFFFFFFFFFFFFF AND PUSH20 0xFFFFFFFFFFFFFFFFFFFFFFFFFFFFFFFFFFFFFFFF AND DUP2 MSTORE PUSH1 0x20 ADD SWAP1 DUP2 MSTORE PUSH1 0x20 ADD PUSH1 0x0 KECCAK256 DUP2 SWAP1 SSTORE POP JUMPDEST PUSH32 0x2844C95BF1B4598DA931D527F903501ABC60FE0199C65DA52D5CE818C6C5E961 PUSH1 0x40 MLOAD PUSH2 0x45A SWAP1 PUSH2 0xA27 JUMP JUMPDEST PUSH1 0x40 MLOAD DUP1 SWAP2 SUB SWAP1 LOG1 PUSH2 0x49D JUMP JUMPDEST PUSH32 0x2844C95BF1B4598DA931D527F903501ABC60FE0199C65DA52D5CE818C6C5E961 PUSH1 0x40 MLOAD PUSH2 0x494 SWAP1 PUSH2 0xADF JUMP JUMPDEST PUSH1 0x40 MLOAD DUP1 SWAP2 SUB SWAP1 LOG1 JUMPDEST JUMP JUMPDEST PUSH1 0x6 PUSH1 0x15 SWAP1 SLOAD SWAP1 PUSH2 0x100 EXP SWAP1 DIV PUSH1 0xFF AND PUSH2 0x4EE JUMPI PUSH1 0x40 MLOAD PUSH32 0x8C379A000000000000000000000000000000000000000000000000000000000 DUP2 MSTORE PUSH1 0x4 ADD PUSH2 0x4E5 SWAP1 PUSH2 0xB4B JUMP JUMPDEST PUSH1 0x40 MLOAD DUP1 SWAP2 SUB SWAP1 REVERT JUMPDEST PUSH1 0x0 PUSH1 0x7 PUSH1 0x0 CALLER PUSH20 0xFFFFFFFFFFFFFFFFFFFFFFFFFFFFFFFFFFFFFFFF AND PUSH20 0xFFFFFFFFFFFFFFFFFFFFFFFFFFFFFFFFFFFFFFFF AND DUP2 MSTORE PUSH1 0x20 ADD SWAP1 DUP2 MSTORE PUSH1 0x20 ADD PUSH1 0x0 KECCAK256 SLOAD GT PUSH2 0x570 JUMPI PUSH1 0x40 MLOAD PUSH32 0x8C379A000000000000000000000000000000000000000000000000000000000 DUP2 MSTORE PUSH1 0x4 ADD PUSH2 0x567 SWAP1 PUSH2 0xBDD JUMP JUMPDEST PUSH1 0x40 MLOAD DUP1 SWAP2 SUB SWAP1 REVERT JUMPDEST PUSH1 0x0 PUSH1 0x7 PUSH1 0x0 CALLER PUSH20 0xFFFFFFFFFFFFFFFFFFFFFFFFFFFFFFFFFFFFFFFF AND PUSH20 0xFFFFFFFFFFFFFFFFFFFFFFFFFFFFFFFFFFFFFFFF AND DUP2 MSTORE PUSH1 0x20 ADD SWAP1 DUP2 MSTORE PUSH1 0x20 ADD PUSH1 0x0 KECCAK256 SLOAD PUSH1 0x1 SLOAD PUSH2 0x5BF SWAP2 SWAP1 PUSH2 0xBFD JUMP JUMPDEST SWAP1 POP CALLER PUSH20 0xFFFFFFFFFFFFFFFFFFFFFFFFFFFFFFFFFFFFFFFF AND PUSH2 0x8FC DUP3 SWAP1 DUP2 ISZERO MUL SWAP1 PUSH1 0x40 MLOAD PUSH1 0x0 PUSH1 0x40 MLOAD DUP1 DUP4 SUB DUP2 DUP6 DUP9 DUP9 CALL SWAP4 POP POP POP POP ISZERO DUP1 ISZERO PUSH2 0x607 JUMPI RETURNDATASIZE PUSH1 0x0 DUP1 RETURNDATACOPY RETURNDATASIZE PUSH1 0x0 REVERT JUMPDEST POP POP JUMP JUMPDEST PUSH1 0x0 DUP1 SLOAD PUSH2 0x618 SWAP1 PUSH2 0xC6E JUMP JUMPDEST DUP1 PUSH1 0x1F ADD PUSH1 0x20 DUP1 SWAP2 DIV MUL PUSH1 0x20 ADD PUSH1 0x40 MLOAD SWAP1 DUP2 ADD PUSH1 0x40 MSTORE DUP1 SWAP3 SWAP2 SWAP1 DUP2 DUP2 MSTORE PUSH1 0x20 ADD DUP3 DUP1 SLOAD PUSH2 0x644 SWAP1 PUSH2 0xC6E JUMP JUMPDEST DUP1 ISZERO PUSH2 0x691 JUMPI DUP1 PUSH1 0x1F LT PUSH2 0x666 JUMPI PUSH2 0x100 DUP1 DUP4 SLOAD DIV MUL DUP4 MSTORE SWAP2 PUSH1 0x20 ADD SWAP2 PUSH2 0x691 JUMP JUMPDEST DUP3 ADD SWAP2 SWAP1 PUSH1 0x0 MSTORE PUSH1 0x20 PUSH1 0x0 KECCAK256 SWAP1 JUMPDEST DUP2 SLOAD DUP2 MSTORE SWAP1 PUSH1 0x1 ADD SWAP1 PUSH1 0x20 ADD DUP1 DUP4 GT PUSH2 0x674 JUMPI DUP3 SWAP1 SUB PUSH1 0x1F AND DUP3 ADD SWAP2 JUMPDEST POP POP POP POP POP DUP2 JUMP JUMPDEST PUSH1 0x2 PUSH1 0x0 SWAP1 SLOAD SWAP1 PUSH2 0x100 EXP SWAP1 DIV PUSH1 0xFF AND DUP2 JUMP JUMPDEST PUSH1 0x5 PUSH1 0x0 SWAP1 SLOAD SWAP1 PUSH2 0x100 EXP SWAP1 DIV PUSH20 0xFFFFFFFFFFFFFFFFFFFFFFFFFFFFFFFFFFFFFFFF AND DUP2 JUMP JUMPDEST PUSH1 0x5 PUSH1 0x0 SWAP1 SLOAD SWAP1 PUSH2 0x100 EXP SWAP1 DIV PUSH20 0xFFFFFFFFFFFFFFFFFFFFFFFFFFFFFFFFFFFFFFFF AND PUSH20 0xFFFFFFFFFFFFFFFFFFFFFFFFFFFFFFFFFFFFFFFF AND CALLER PUSH20 0xFFFFFFFFFFFFFFFFFFFFFFFFFFFFFFFFFFFFFFFF AND EQ PUSH2 0x762 JUMPI PUSH1 0x40 MLOAD PUSH32 0x8C379A000000000000000000000000000000000000000000000000000000000 DUP2 MSTORE PUSH1 0x4 ADD PUSH2 0x759 SWAP1 PUSH2 0xCEB JUMP JUMPDEST PUSH1 0x40 MLOAD DUP1 SWAP2 SUB SWAP1 REVERT JUMPDEST PUSH1 0x1 PUSH1 0x6 PUSH1 0x15 PUSH2 0x100 EXP DUP2 SLOAD DUP2 PUSH1 0xFF MUL NOT AND SWAP1 DUP4 ISZERO ISZERO MUL OR SWAP1 SSTORE POP JUMP JUMPDEST PUSH1 0x1 SLOAD DUP2 JUMP JUMPDEST PUSH1 0x0 PUSH1 0x2 PUSH1 0x1 SWAP1 SLOAD SWAP1 PUSH2 0x100 EXP SWAP1 DIV PUSH1 0xFF AND SWAP1 POP SWAP1 JUMP JUMPDEST PUSH1 0x6 PUSH1 0x0 SWAP1 SLOAD SWAP1 PUSH2 0x100 EXP SWAP1 DIV PUSH20 0xFFFFFFFFFFFFFFFFFFFFFFFFFFFFFFFFFFFFFFFF AND DUP2 JUMP JUMPDEST PUSH1 0x0 PUSH20 0xFFFFFFFFFFFFFFFFFFFFFFFFFFFFFFFFFFFFFFFF DUP3 AND SWAP1 POP SWAP2 SWAP1 POP JUMP JUMPDEST PUSH1 0x0 PUSH2 0x7ED DUP3 PUSH2 0x7C2 JUMP JUMPDEST SWAP1 POP SWAP2 SWAP1 POP JUMP JUMPDEST PUSH2 0x7FD DUP2 PUSH2 0x7E2 JUMP JUMPDEST DUP3 MSTORE POP POP JUMP JUMPDEST PUSH1 0x0 PUSH1 0x20 DUP3 ADD SWAP1 POP PUSH2 0x818 PUSH1 0x0 DUP4 ADD DUP5 PUSH2 0x7F4 JUMP JUMPDEST SWAP3 SWAP2 POP POP JUMP JUMPDEST PUSH1 0x0 PUSH1 0xFF DUP3 AND SWAP1 POP SWAP2 SWAP1 POP JUMP JUMPDEST PUSH2 0x834 DUP2 PUSH2 0x81E JUMP JUMPDEST DUP3 MSTORE POP POP JUMP JUMPDEST PUSH1 0x0 PUSH1 0x20 DUP3 ADD SWAP1 POP PUSH2 0x84F PUSH1 0x0 DUP4 ADD DUP5 PUSH2 0x82B JUMP JUMPDEST SWAP3 SWAP2 POP POP JUMP JUMPDEST PUSH1 0x0 DUP2 MLOAD SWAP1 POP SWAP2 SWAP1 POP JUMP JUMPDEST PUSH1 0x0 DUP3 DUP3 MSTORE PUSH1 0x20 DUP3 ADD SWAP1 POP SWAP3 SWAP2 POP POP JUMP JUMPDEST PUSH1 0x0 JUMPDEST DUP4 DUP2 LT ISZERO PUSH2 0x88F JUMPI DUP1 DUP3 ADD MLOAD DUP2 DUP5 ADD MSTORE PUSH1 0x20 DUP2 ADD SWAP1 POP PUSH2 0x874 JUMP JUMPDEST PUSH1 0x0 DUP5 DUP5 ADD MSTORE POP POP POP POP JUMP JUMPDEST PUSH1 0x0 PUSH1 0x1F NOT PUSH1 0x1F DUP4 ADD AND SWAP1 POP SWAP2 SWAP1 POP JUMP JUMPDEST PUSH1 0x0 PUSH2 0x8B7 DUP3 PUSH2 0x855 JUMP JUMPDEST PUSH2 0x8C1 DUP2 DUP6 PUSH2 0x860 JUMP JUMPDEST SWAP4 POP PUSH2 0x8D1 DUP2 DUP6 PUSH1 0x20 DUP7 ADD PUSH2 0x871 JUMP JUMPDEST PUSH2 0x8DA DUP2 PUSH2 0x89B JUMP JUMPDEST DUP5 ADD SWAP2 POP POP SWAP3 SWAP2 POP POP JUMP JUMPDEST PUSH1 0x0 PUSH1 0x20 DUP3 ADD SWAP1 POP DUP2 DUP2 SUB PUSH1 0x0 DUP4 ADD MSTORE PUSH2 0x8FF DUP2 DUP5 PUSH2 0x8AC JUMP JUMPDEST SWAP1 POP SWAP3 SWAP2 POP POP JUMP JUMPDEST PUSH1 0x0 DUP2 SWAP1 POP SWAP2 SWAP1 POP JUMP JUMPDEST PUSH2 0x91A DUP2 PUSH2 0x907 JUMP JUMPDEST DUP3 MSTORE POP POP JUMP JUMPDEST PUSH1 0x0 PUSH1 0x20 DUP3 ADD SWAP1 POP PUSH2 0x935 PUSH1 0x0 DUP4 ADD DUP5 PUSH2 0x911 JUMP JUMPDEST SWAP3 SWAP2 POP POP JUMP JUMPDEST PUSH32 0x4E487B7100000000000000000000000000000000000000000000000000000000 PUSH1 0x0 MSTORE PUSH1 0x11 PUSH1 0x4 MSTORE PUSH1 0x24 PUSH1 0x0 REVERT JUMPDEST PUSH1 0x0 PUSH2 0x975 DUP3 PUSH2 0x81E JUMP JUMPDEST SWAP2 POP PUSH1 0x0 DUP3 SUB PUSH2 0x988 JUMPI PUSH2 0x987 PUSH2 0x93B JUMP JUMPDEST JUMPDEST PUSH1 0x1 DUP3 SUB SWAP1 POP SWAP2 SWAP1 POP JUMP JUMPDEST PUSH1 0x0 PUSH2 0x99E DUP3 PUSH2 0x907 JUMP JUMPDEST SWAP2 POP PUSH32 0xFFFFFFFFFFFFFFFFFFFFFFFFFFFFFFFFFFFFFFFFFFFFFFFFFFFFFFFFFFFFFFFF DUP3 SUB PUSH2 0x9D0 JUMPI PUSH2 0x9CF PUSH2 0x93B JUMP JUMPDEST JUMPDEST PUSH1 0x1 DUP3 ADD SWAP1 POP SWAP2 SWAP1 POP JUMP JUMPDEST PUSH32 0x436F6D707261207265616C697A61646120636F6E20657869746F000000000000 PUSH1 0x0 DUP3 ADD MSTORE POP JUMP JUMPDEST PUSH1 0x0 PUSH2 0xA11 PUSH1 0x1A DUP4 PUSH2 0x860 JUMP JUMPDEST SWAP2 POP PUSH2 0xA1C DUP3 PUSH2 0x9DB JUMP JUMPDEST PUSH1 0x20 DUP3 ADD SWAP1 POP SWAP2 SWAP1 POP JUMP JUMPDEST PUSH1 0x0 PUSH1 0x20 DUP3 ADD SWAP1 POP DUP2 DUP2 SUB PUSH1 0x0 DUP4 ADD MSTORE PUSH2 0xA40 DUP2 PUSH2 0xA04 JUMP JUMPDEST SWAP1 POP SWAP2 SWAP1 POP JUMP JUMPDEST PUSH32 0x5961206E6F2068617920656E7472616461732C206E6F2068617320696E74726F PUSH1 0x0 DUP3 ADD MSTORE PUSH32 0x64756369646F20656C2070726563696F20616465637561646F2C207365206861 PUSH1 0x20 DUP3 ADD MSTORE PUSH32 0x2063616E63656C61646F206F207961207365206861207265616C697A61646F00 PUSH1 0x40 DUP3 ADD MSTORE POP JUMP JUMPDEST PUSH1 0x0 PUSH2 0xAC9 PUSH1 0x5F DUP4 PUSH2 0x860 JUMP JUMPDEST SWAP2 POP PUSH2 0xAD4 DUP3 PUSH2 0xA47 JUMP JUMPDEST PUSH1 0x60 DUP3 ADD SWAP1 POP SWAP2 SWAP1 POP JUMP JUMPDEST PUSH1 0x0 PUSH1 0x20 DUP3 ADD SWAP1 POP DUP2 DUP2 SUB PUSH1 0x0 DUP4 ADD MSTORE PUSH2 0xAF8 DUP2 PUSH2 0xABC JUMP JUMPDEST SWAP1 POP SWAP2 SWAP1 POP JUMP JUMPDEST PUSH32 0x456C20636F6E63696572746F20736967756520656E2070696500000000000000 PUSH1 0x0 DUP3 ADD MSTORE POP JUMP JUMPDEST PUSH1 0x0 PUSH2 0xB35 PUSH1 0x19 DUP4 PUSH2 0x860 JUMP JUMPDEST SWAP2 POP PUSH2 0xB40 DUP3 PUSH2 0xAFF JUMP JUMPDEST PUSH1 0x20 DUP3 ADD SWAP1 POP SWAP2 SWAP1 POP JUMP JUMPDEST PUSH1 0x0 PUSH1 0x20 DUP3 ADD SWAP1 POP DUP2 DUP2 SUB PUSH1 0x0 DUP4 ADD MSTORE PUSH2 0xB64 DUP2 PUSH2 0xB28 JUMP JUMPDEST SWAP1 POP SWAP2 SWAP1 POP JUMP JUMPDEST PUSH32 0x4E6F207469656E657320656E7472616461207061726120656C20636F6E636965 PUSH1 0x0 DUP3 ADD MSTORE PUSH32 0x72746F0000000000000000000000000000000000000000000000000000000000 PUSH1 0x20 DUP3 ADD MSTORE POP JUMP JUMPDEST PUSH1 0x0 PUSH2 0xBC7 PUSH1 0x23 DUP4 PUSH2 0x860 JUMP JUMPDEST SWAP2 POP PUSH2 0xBD2 DUP3 PUSH2 0xB6B JUMP JUMPDEST PUSH1 0x40 DUP3 ADD SWAP1 POP SWAP2 SWAP1 POP JUMP JUMPDEST PUSH1 0x0 PUSH1 0x20 DUP3 ADD SWAP1 POP DUP2 DUP2 SUB PUSH1 0x0 DUP4 ADD MSTORE PUSH2 0xBF6 DUP2 PUSH2 0xBBA JUMP JUMPDEST SWAP1 POP SWAP2 SWAP1 POP JUMP JUMPDEST PUSH1 0x0 PUSH2 0xC08 DUP3 PUSH2 0x907 JUMP JUMPDEST SWAP2 POP PUSH2 0xC13 DUP4 PUSH2 0x907 JUMP JUMPDEST SWAP3 POP DUP3 DUP3 MUL PUSH2 0xC21 DUP2 PUSH2 0x907 JUMP JUMPDEST SWAP2 POP DUP3 DUP3 DIV DUP5 EQ DUP4 ISZERO OR PUSH2 0xC38 JUMPI PUSH2 0xC37 PUSH2 0x93B JUMP JUMPDEST JUMPDEST POP SWAP3 SWAP2 POP POP JUMP JUMPDEST PUSH32 0x4E487B7100000000000000000000000000000000000000000000000000000000 PUSH1 0x0 MSTORE PUSH1 0x22 PUSH1 0x4 MSTORE PUSH1 0x24 PUSH1 0x0 REVERT JUMPDEST PUSH1 0x0 PUSH1 0x2 DUP3 DIV SWAP1 POP PUSH1 0x1 DUP3 AND DUP1 PUSH2 0xC86 JUMPI PUSH1 0x7F DUP3 AND SWAP2 POP JUMPDEST PUSH1 0x20 DUP3 LT DUP2 SUB PUSH2 0xC99 JUMPI PUSH2 0xC98 PUSH2 0xC3F JUMP JUMPDEST JUMPDEST POP SWAP2 SWAP1 POP JUMP JUMPDEST PUSH32 0x4E6F206572657320656C2070726F706965746172696F00000000000000000000 PUSH1 0x0 DUP3 ADD MSTORE POP JUMP JUMPDEST PUSH1 0x0 PUSH2 0xCD5 PUSH1 0x16 DUP4 PUSH2 0x860 JUMP JUMPDEST SWAP2 POP PUSH2 0xCE0 DUP3 PUSH2 0xC9F JUMP JUMPDEST PUSH1 0x20 DUP3 ADD SWAP1 POP SWAP2 SWAP1 POP JUMP JUMPDEST PUSH1 0x0 PUSH1 0x20 DUP3 ADD SWAP1 POP DUP2 DUP2 SUB PUSH1 0x0 DUP4 ADD MSTORE PUSH2 0xD04 DUP2 PUSH2 0xCC8 JUMP JUMPDEST SWAP1 POP SWAP2 SWAP1 POP JUMP INVALID LOG2 PUSH5 0x6970667358 0x22 SLT KECCAK256 PUSH3 0x2D35D5 PC 0x4C DUP2 SLT SWAP9 0xC SAR 0xE5 TIMESTAMP TIMESTAMP MSTORE8 0xEB 0xC4 0x26 STATICCALL PUSH26 0xDA607C5F70F455536F4DF3FD64736F6C63430008110033436F6E PUSH4 0x69657274 PUSH16 0x206465206D696C696B6920656E206C61 KECCAK256 PUSH20 0x616C6120536F6C20656C2032352F30332F323032 CALLER "
				},
				"gasEstimates": {
					"creation": {
						"codeDepositCost": "678600",
						"executionCost": "infinite",
						"totalCost": "infinite"
					},
					"external": {
						"cancelar()": "26675",
						"compra()": "90541",
						"comprador()": "2515",
						"contractaddress()": "2624",
						"description()": "infinite",
						"entradasdisponibles()": "2544",
						"getentradasdisponibles()": "2617",
						"owner()": "2536",
						"price()": "2495",
						"totalentradas()": "2471",
						"withdraw()": "infinite"
					}
				},
				"methodIdentifiers": {
					"cancelar()": "8ffb1ccf",
					"compra()": "2e71a1b4",
					"comprador()": "0f50b6e7",
					"contractaddress()": "db7fbc86",
					"description()": "7284e416",
					"entradasdisponibles()": "2651e778",
					"getentradasdisponibles()": "cb196d0f",
					"owner()": "8da5cb5b",
					"price()": "a035b1fe",
					"totalentradas()": "72e61c52",
					"withdraw()": "3ccfd60b"
				}
			},
			"storageLayout": {
				"storage": [
					{
						"astId": 3,
						"contract": "Reserva.sol:Reserva",
						"label": "description",
						"offset": 0,
						"slot": "0",
						"type": "t_string_storage"
					},
					{
						"astId": 5,
						"contract": "Reserva.sol:Reserva",
						"label": "price",
						"offset": 0,
						"slot": "1",
						"type": "t_uint256"
					},
					{
						"astId": 7,
						"contract": "Reserva.sol:Reserva",
						"label": "totalentradas",
						"offset": 0,
						"slot": "2",
						"type": "t_uint8"
					},
					{
						"astId": 9,
						"contract": "Reserva.sol:Reserva",
						"label": "entradasdisponibles",
						"offset": 1,
						"slot": "2",
						"type": "t_uint8"
					},
					{
						"astId": 16,
						"contract": "Reserva.sol:Reserva",
						"label": "fondostotales",
						"offset": 0,
						"slot": "3",
						"type": "t_uint256"
					},
					{
						"astId": 18,
						"contract": "Reserva.sol:Reserva",
						"label": "comprador",
						"offset": 0,
						"slot": "4",
						"type": "t_address_payable"
					},
					{
						"astId": 20,
						"contract": "Reserva.sol:Reserva",
						"label": "owner",
						"offset": 0,
						"slot": "5",
						"type": "t_address_payable"
					},
					{
						"astId": 22,
						"contract": "Reserva.sol:Reserva",
						"label": "contractaddress",
						"offset": 0,
						"slot": "6",
						"type": "t_address_payable"
					},
					{
						"astId": 24,
						"contract": "Reserva.sol:Reserva",
						"label": "completo",
						"offset": 20,
						"slot": "6",
						"type": "t_bool"
					},
					{
						"astId": 26,
						"contract": "Reserva.sol:Reserva",
						"label": "cancelado",
						"offset": 21,
						"slot": "6",
						"type": "t_bool"
					},
					{
						"astId": 38,
						"contract": "Reserva.sol:Reserva",
						"label": "pendingWithdrawals",
						"offset": 0,
						"slot": "7",
						"type": "t_mapping(t_address,t_uint256)"
					}
				],
				"types": {
					"t_address": {
						"encoding": "inplace",
						"label": "address",
						"numberOfBytes": "20"
					},
					"t_address_payable": {
						"encoding": "inplace",
						"label": "address payable",
						"numberOfBytes": "20"
					},
					"t_bool": {
						"encoding": "inplace",
						"label": "bool",
						"numberOfBytes": "1"
					},
					"t_mapping(t_address,t_uint256)": {
						"encoding": "mapping",
						"key": "t_address",
						"label": "mapping(address => uint256)",
						"numberOfBytes": "32",
						"value": "t_uint256"
					},
					"t_string_storage": {
						"encoding": "bytes",
						"label": "string",
						"numberOfBytes": "32"
					},
					"t_uint256": {
						"encoding": "inplace",
						"label": "uint256",
						"numberOfBytes": "32"
					},
					"t_uint8": {
						"encoding": "inplace",
						"label": "uint8",
						"numberOfBytes": "1"
					}
				}
			},
			"userdoc": {
				"kind": "user",
				"methods": {},
				"version": 1
			}
		}
	}
}