{
	"Trazabilidad.sol": {
		"Trazabilidad": {
			"abi": [
				{
					"inputs": [],
					"stateMutability": "nonpayable",
					"type": "constructor"
				},
				{
					"anonymous": false,
					"inputs": [
						{
							"indexed": false,
							"internalType": "string",
							"name": "_message",
							"type": "string"
						}
					],
					"name": "Msg",
					"type": "event"
				},
				{
					"anonymous": false,
					"inputs": [
						{
							"indexed": false,
							"internalType": "string",
							"name": "_message",
							"type": "string"
						},
						{
							"indexed": false,
							"internalType": "address",
							"name": "_repartidor",
							"type": "address"
						},
						{
							"indexed": false,
							"internalType": "address",
							"name": "_cliente",
							"type": "address"
						},
						{
							"indexed": false,
							"internalType": "uint256",
							"name": "precio",
							"type": "uint256"
						},
						{
							"indexed": false,
							"internalType": "string",
							"name": "_descipcion",
							"type": "string"
						}
					],
					"name": "MsgEntrada",
					"type": "event"
				},
				{
					"anonymous": false,
					"inputs": [
						{
							"indexed": false,
							"internalType": "uint8",
							"name": "_numentrada",
							"type": "uint8"
						},
						{
							"indexed": false,
							"internalType": "string",
							"name": "_descipcion",
							"type": "string"
						},
						{
							"indexed": false,
							"internalType": "uint256",
							"name": "_precio",
							"type": "uint256"
						},
						{
							"indexed": false,
							"internalType": "string",
							"name": "_status",
							"type": "string"
						},
						{
							"indexed": false,
							"internalType": "address",
							"name": "_cliente",
							"type": "address"
						},
						{
							"indexed": false,
							"internalType": "address",
							"name": "_repartidor",
							"type": "address"
						},
						{
							"indexed": false,
							"internalType": "address",
							"name": "_vendedor",
							"type": "address"
						}
					],
					"name": "MsgEntradaXNumEnt",
					"type": "event"
				},
				{
					"anonymous": false,
					"inputs": [
						{
							"indexed": false,
							"internalType": "string",
							"name": "_message",
							"type": "string"
						},
						{
							"indexed": false,
							"internalType": "uint256",
							"name": "_precio",
							"type": "uint256"
						}
					],
					"name": "MsgPrecio",
					"type": "event"
				},
				{
					"inputs": [
						{
							"internalType": "uint256",
							"name": "numEnt",
							"type": "uint256"
						}
					],
					"name": "canceladaEntrada",
					"outputs": [],
					"stateMutability": "payable",
					"type": "function"
				},
				{
					"inputs": [
						{
							"internalType": "uint256",
							"name": "numEnt",
							"type": "uint256"
						}
					],
					"name": "clienteFirmaRecepcion",
					"outputs": [],
					"stateMutability": "payable",
					"type": "function"
				},
				{
					"inputs": [],
					"name": "contractaddress",
					"outputs": [
						{
							"internalType": "address payable",
							"name": "",
							"type": "address"
						}
					],
					"stateMutability": "view",
					"type": "function"
				},
				{
					"inputs": [
						{
							"internalType": "address",
							"name": "repartidor",
							"type": "address"
						},
						{
							"internalType": "address",
							"name": "cliente",
							"type": "address"
						},
						{
							"internalType": "address",
							"name": "vendedor",
							"type": "address"
						},
						{
							"internalType": "uint256",
							"name": "precio",
							"type": "uint256"
						},
						{
							"internalType": "string",
							"name": "description",
							"type": "string"
						}
					],
					"name": "crearEntrega",
					"outputs": [],
					"stateMutability": "payable",
					"type": "function"
				},
				{
					"inputs": [],
					"name": "fondoscontratos",
					"outputs": [
						{
							"internalType": "uint256",
							"name": "",
							"type": "uint256"
						}
					],
					"stateMutability": "view",
					"type": "function"
				},
				{
					"inputs": [],
					"name": "numCalculado",
					"outputs": [
						{
							"internalType": "uint8",
							"name": "",
							"type": "uint8"
						}
					],
					"stateMutability": "view",
					"type": "function"
				},
				{
					"inputs": [],
					"name": "owner",
					"outputs": [
						{
							"internalType": "address payable",
							"name": "",
							"type": "address"
						}
					],
					"stateMutability": "view",
					"type": "function"
				},
				{
					"inputs": [],
					"name": "panico",
					"outputs": [],
					"stateMutability": "nonpayable",
					"type": "function"
				},
				{
					"inputs": [
						{
							"internalType": "uint256",
							"name": "numEnt",
							"type": "uint256"
						}
					],
					"name": "repartidorFirmaLlegada",
					"outputs": [],
					"stateMutability": "nonpayable",
					"type": "function"
				},
				{
					"inputs": [
						{
							"internalType": "uint256",
							"name": "numEnt",
							"type": "uint256"
						}
					],
					"name": "repartidorFirmaSalida",
					"outputs": [],
					"stateMutability": "nonpayable",
					"type": "function"
				},
				{
					"inputs": [
						{
							"internalType": "uint256",
							"name": "_numEnt",
							"type": "uint256"
						}
					],
					"name": "vendedorRecicePago",
					"outputs": [],
					"stateMutability": "payable",
					"type": "function"
				},
				{
					"inputs": [
						{
							"internalType": "uint256",
							"name": "numEnt",
							"type": "uint256"
						}
					],
					"name": "viewEntrega",
					"outputs": [],
					"stateMutability": "nonpayable",
					"type": "function"
				},
				{
					"inputs": [
						{
							"internalType": "uint256",
							"name": "numEnt",
							"type": "uint256"
						}
					],
					"name": "viewEntregaStatus",
					"outputs": [
						{
							"internalType": "string",
							"name": "",
							"type": "string"
						}
					],
					"stateMutability": "view",
					"type": "function"
				}
			],
			"devdoc": {
				"kind": "dev",
				"methods": {},
				"version": 1
			},
			"evm": {
				"assembly": "    /* \"Trazabilidad.sol\":289:10909  contract Trazabilidad {... */\n  mstore(0x40, 0x80)\n    /* \"Trazabilidad.sol\":945:966  address(this).balance */\n  selfbalance\n    /* \"Trazabilidad.sol\":924:966  uint fondostotales = address(this).balance */\n  0x05\n  sstore\n    /* \"Trazabilidad.sol\":1000:1036  string private ACCEPTED = \"ACCEPTED\" */\n  mload(0x40)\n  dup1\n  0x40\n  add\n  0x40\n  mstore\n  dup1\n  0x08\n  dup2\n  mstore\n  0x20\n  add\n  0x4143434550544544000000000000000000000000000000000000000000000000\n  dup2\n  mstore\n  pop\n  0x06\n  swap1\n  dup2\n  tag_1\n  swap2\n  swap1\n  tag_2\n  jump\t// in\ntag_1:\n  pop\n    /* \"Trazabilidad.sol\":1043:1073  string private READY = \"READY\" */\n  mload(0x40)\n  dup1\n  0x40\n  add\n  0x40\n  mstore\n  dup1\n  0x05\n  dup2\n  mstore\n  0x20\n  add\n  0x5245414459000000000000000000000000000000000000000000000000000000\n  dup2\n  mstore\n  pop\n  0x07\n  swap1\n  dup2\n  tag_3\n  swap2\n  swap1\n  tag_2\n  jump\t// in\ntag_3:\n  pop\n    /* \"Trazabilidad.sol\":1080:1108  string private CLOK = \"CLOK\" */\n  mload(0x40)\n  dup1\n  0x40\n  add\n  0x40\n  mstore\n  dup1\n  0x04\n  dup2\n  mstore\n  0x20\n  add\n  0x434c4f4b00000000000000000000000000000000000000000000000000000000\n  dup2\n  mstore\n  pop\n  0x08\n  swap1\n  dup2\n  tag_4\n  swap2\n  swap1\n  tag_2\n  jump\t// in\ntag_4:\n  pop\n    /* \"Trazabilidad.sol\":1115:1143  string private RPOK = \"RPOK\" */\n  mload(0x40)\n  dup1\n  0x40\n  add\n  0x40\n  mstore\n  dup1\n  0x04\n  dup2\n  mstore\n  0x20\n  add\n  0x52504f4b00000000000000000000000000000000000000000000000000000000\n  dup2\n  mstore\n  pop\n  0x09\n  swap1\n  dup2\n  tag_5\n  swap2\n  swap1\n  tag_2\n  jump\t// in\ntag_5:\n  pop\n    /* \"Trazabilidad.sol\":1150:1178  string private CLKO = \"CLKO\" */\n  mload(0x40)\n  dup1\n  0x40\n  add\n  0x40\n  mstore\n  dup1\n  0x04\n  dup2\n  mstore\n  0x20\n  add\n  0x434c4b4f00000000000000000000000000000000000000000000000000000000\n  dup2\n  mstore\n  pop\n  0x0a\n  swap1\n  dup2\n  tag_6\n  swap2\n  swap1\n  tag_2\n  jump\t// in\ntag_6:\n  pop\n    /* \"Trazabilidad.sol\":1185:1213  string private RPKO = \"RPKO\" */\n  mload(0x40)\n  dup1\n  0x40\n  add\n  0x40\n  mstore\n  dup1\n  0x04\n  dup2\n  mstore\n  0x20\n  add\n  0x52504b4f00000000000000000000000000000000000000000000000000000000\n  dup2\n  mstore\n  pop\n  0x0b\n  swap1\n  dup2\n  tag_7\n  swap2\n  swap1\n  tag_2\n  jump\t// in\ntag_7:\n  pop\n    /* \"Trazabilidad.sol\":1220:1252  string private CANCEL = \"CANCEL\" */\n  mload(0x40)\n  dup1\n  0x40\n  add\n  0x40\n  mstore\n  dup1\n  0x06\n  dup2\n  mstore\n  0x20\n  add\n  0x43414e43454c0000000000000000000000000000000000000000000000000000\n  dup2\n  mstore\n  pop\n  0x0c\n  swap1\n  dup2\n  tag_8\n  swap2\n  swap1\n  tag_2\n  jump\t// in\ntag_8:\n  pop\n    /* \"Trazabilidad.sol\":1259:1297  string private REALIZADA = \"REALIZADA\" */\n  mload(0x40)\n  dup1\n  0x40\n  add\n  0x40\n  mstore\n  dup1\n  0x09\n  dup2\n  mstore\n  0x20\n  add\n  0x5245414c495a4144410000000000000000000000000000000000000000000000\n  dup2\n  mstore\n  pop\n  0x0d\n  swap1\n  dup2\n  tag_9\n  swap2\n  swap1\n  tag_2\n  jump\t// in\ntag_9:\n  pop\n    /* \"Trazabilidad.sol\":1856:2189  constructor() {... */\n  callvalue\n  dup1\n  iszero\n  tag_10\n  jumpi\n  0x00\n  dup1\n  revert\ntag_10:\n  pop\n    /* \"Trazabilidad.sol\":1963:1973  msg.sender */\n  caller\n    /* \"Trazabilidad.sol\":1947:1952  owner */\n  0x03\n  0x00\n    /* \"Trazabilidad.sol\":1947:1974  owner = payable(msg.sender) */\n  0x0100\n  exp\n  dup2\n  sload\n  dup2\n  0xffffffffffffffffffffffffffffffffffffffff\n  mul\n  not\n  and\n  swap1\n  dup4\n  0xffffffffffffffffffffffffffffffffffffffff\n  and\n  mul\n  or\n  swap1\n  sstore\n  pop\n    /* \"Trazabilidad.sol\":2019:2023  this */\n  address\n    /* \"Trazabilidad.sol\":1985:2000  contractaddress */\n  0x04\n  0x00\n    /* \"Trazabilidad.sol\":1985:2025  contractaddress = payable(address(this)) */\n  0x0100\n  exp\n  dup2\n  sload\n  dup2\n  0xffffffffffffffffffffffffffffffffffffffff\n  mul\n  not\n  and\n  swap1\n  dup4\n  0xffffffffffffffffffffffffffffffffffffffff\n  and\n  mul\n  or\n  swap1\n  sstore\n  pop\n    /* \"Trazabilidad.sol\":2051:2052  0 */\n  0x00\n    /* \"Trazabilidad.sol\":2036:2048  numCalculado */\n  0x01\n  0x00\n    /* \"Trazabilidad.sol\":2036:2052  numCalculado = 0 */\n  0x0100\n  exp\n  dup2\n  sload\n  dup2\n  0xff\n  mul\n  not\n  and\n  swap1\n  dup4\n  0xff\n  and\n  mul\n  or\n  swap1\n  sstore\n  pop\n    /* \"Trazabilidad.sol\":2080:2091  0.001 ether */\n  0x038d7ea4c68000\n    /* \"Trazabilidad.sol\":2063:2077  priceTrasporte */\n  0x00\n    /* \"Trazabilidad.sol\":2063:2091  priceTrasporte = 0.001 ether */\n  dup2\n  swap1\n  sstore\n  pop\n    /* \"Trazabilidad.sol\":2138:2181  Msg(\"Contrato entraga creada sin Entragas\") */\n  0xf24055cc366c1d53b75688e6ba6eb419d022fb5f4956c5d66a6ef54adbf3270a\n  mload(0x40)\n  tag_13\n  swap1\n  tag_14\n  jump\t// in\ntag_13:\n  mload(0x40)\n  dup1\n  swap2\n  sub\n  swap1\n  log1\n    /* \"Trazabilidad.sol\":289:10909  contract Trazabilidad {... */\n  jump(tag_15)\n    /* \"#utility.yul\":7:106   */\ntag_16:\n    /* \"#utility.yul\":59:65   */\n  0x00\n    /* \"#utility.yul\":93:98   */\n  dup2\n    /* \"#utility.yul\":87:99   */\n  mload\n    /* \"#utility.yul\":77:99   */\n  swap1\n  pop\n    /* \"#utility.yul\":7:106   */\n  swap2\n  swap1\n  pop\n  jump\t// out\n    /* \"#utility.yul\":112:292   */\ntag_17:\n    /* \"#utility.yul\":160:237   */\n  0x4e487b7100000000000000000000000000000000000000000000000000000000\n    /* \"#utility.yul\":157:158   */\n  0x00\n    /* \"#utility.yul\":150:238   */\n  mstore\n    /* \"#utility.yul\":257:261   */\n  0x41\n    /* \"#utility.yul\":254:255   */\n  0x04\n    /* \"#utility.yul\":247:262   */\n  mstore\n    /* \"#utility.yul\":281:285   */\n  0x24\n    /* \"#utility.yul\":278:279   */\n  0x00\n    /* \"#utility.yul\":271:286   */\n  revert\n    /* \"#utility.yul\":298:478   */\ntag_18:\n    /* \"#utility.yul\":346:423   */\n  0x4e487b7100000000000000000000000000000000000000000000000000000000\n    /* \"#utility.yul\":343:344   */\n  0x00\n    /* \"#utility.yul\":336:424   */\n  mstore\n    /* \"#utility.yul\":443:447   */\n  0x22\n    /* \"#utility.yul\":440:441   */\n  0x04\n    /* \"#utility.yul\":433:448   */\n  mstore\n    /* \"#utility.yul\":467:471   */\n  0x24\n    /* \"#utility.yul\":464:465   */\n  0x00\n    /* \"#utility.yul\":457:472   */\n  revert\n    /* \"#utility.yul\":484:804   */\ntag_19:\n    /* \"#utility.yul\":528:534   */\n  0x00\n    /* \"#utility.yul\":565:566   */\n  0x02\n    /* \"#utility.yul\":559:563   */\n  dup3\n    /* \"#utility.yul\":555:567   */\n  div\n    /* \"#utility.yul\":545:567   */\n  swap1\n  pop\n    /* \"#utility.yul\":612:613   */\n  0x01\n    /* \"#utility.yul\":606:610   */\n  dup3\n    /* \"#utility.yul\":602:614   */\n  and\n    /* \"#utility.yul\":633:651   */\n  dup1\n    /* \"#utility.yul\":623:704   */\n  tag_44\n  jumpi\n    /* \"#utility.yul\":689:693   */\n  0x7f\n    /* \"#utility.yul\":681:687   */\n  dup3\n    /* \"#utility.yul\":677:694   */\n  and\n    /* \"#utility.yul\":667:694   */\n  swap2\n  pop\n    /* \"#utility.yul\":623:704   */\ntag_44:\n    /* \"#utility.yul\":751:753   */\n  0x20\n    /* \"#utility.yul\":743:749   */\n  dup3\n    /* \"#utility.yul\":740:754   */\n  lt\n    /* \"#utility.yul\":720:738   */\n  dup2\n    /* \"#utility.yul\":717:755   */\n  sub\n    /* \"#utility.yul\":714:798   */\n  tag_45\n  jumpi\n    /* \"#utility.yul\":770:788   */\n  tag_46\n  tag_18\n  jump\t// in\ntag_46:\n    /* \"#utility.yul\":714:798   */\ntag_45:\n    /* \"#utility.yul\":535:804   */\n  pop\n    /* \"#utility.yul\":484:804   */\n  swap2\n  swap1\n  pop\n  jump\t// out\n    /* \"#utility.yul\":810:951   */\ntag_20:\n    /* \"#utility.yul\":859:863   */\n  0x00\n    /* \"#utility.yul\":882:885   */\n  dup2\n    /* \"#utility.yul\":874:885   */\n  swap1\n  pop\n    /* \"#utility.yul\":905:908   */\n  dup2\n    /* \"#utility.yul\":902:903   */\n  0x00\n    /* \"#utility.yul\":895:909   */\n  mstore\n    /* \"#utility.yul\":939:943   */\n  0x20\n    /* \"#utility.yul\":936:937   */\n  0x00\n    /* \"#utility.yul\":926:944   */\n  keccak256\n    /* \"#utility.yul\":918:944   */\n  swap1\n  pop\n    /* \"#utility.yul\":810:951   */\n  swap2\n  swap1\n  pop\n  jump\t// out\n    /* \"#utility.yul\":957:1050   */\ntag_21:\n    /* \"#utility.yul\":994:1000   */\n  0x00\n    /* \"#utility.yul\":1041:1043   */\n  0x20\n    /* \"#utility.yul\":1036:1038   */\n  0x1f\n    /* \"#utility.yul\":1029:1034   */\n  dup4\n    /* \"#utility.yul\":1025:1039   */\n  add\n    /* \"#utility.yul\":1021:1044   */\n  div\n    /* \"#utility.yul\":1011:1044   */\n  swap1\n  pop\n    /* \"#utility.yul\":957:1050   */\n  swap2\n  swap1\n  pop\n  jump\t// out\n    /* \"#utility.yul\":1056:1163   */\ntag_22:\n    /* \"#utility.yul\":1100:1108   */\n  0x00\n    /* \"#utility.yul\":1150:1155   */\n  dup3\n    /* \"#utility.yul\":1144:1148   */\n  dup3\n    /* \"#utility.yul\":1140:1156   */\n  shl\n    /* \"#utility.yul\":1119:1156   */\n  swap1\n  pop\n    /* \"#utility.yul\":1056:1163   */\n  swap3\n  swap2\n  pop\n  pop\n  jump\t// out\n    /* \"#utility.yul\":1169:1562   */\ntag_23:\n    /* \"#utility.yul\":1238:1244   */\n  0x00\n    /* \"#utility.yul\":1288:1289   */\n  0x08\n    /* \"#utility.yul\":1276:1286   */\n  dup4\n    /* \"#utility.yul\":1272:1290   */\n  mul\n    /* \"#utility.yul\":1311:1408   */\n  tag_51\n    /* \"#utility.yul\":1341:1407   */\n  0xffffffffffffffffffffffffffffffffffffffffffffffffffffffffffffffff\n    /* \"#utility.yul\":1330:1339   */\n  dup3\n    /* \"#utility.yul\":1311:1408   */\n  tag_22\n  jump\t// in\ntag_51:\n    /* \"#utility.yul\":1429:1468   */\n  tag_52\n    /* \"#utility.yul\":1459:1467   */\n  dup7\n    /* \"#utility.yul\":1448:1457   */\n  dup4\n    /* \"#utility.yul\":1429:1468   */\n  tag_22\n  jump\t// in\ntag_52:\n    /* \"#utility.yul\":1417:1468   */\n  swap6\n  pop\n    /* \"#utility.yul\":1501:1505   */\n  dup1\n    /* \"#utility.yul\":1497:1506   */\n  not\n    /* \"#utility.yul\":1490:1495   */\n  dup5\n    /* \"#utility.yul\":1486:1507   */\n  and\n    /* \"#utility.yul\":1477:1507   */\n  swap4\n  pop\n    /* \"#utility.yul\":1550:1554   */\n  dup1\n    /* \"#utility.yul\":1540:1548   */\n  dup7\n    /* \"#utility.yul\":1536:1555   */\n  and\n    /* \"#utility.yul\":1529:1534   */\n  dup5\n    /* \"#utility.yul\":1526:1556   */\n  or\n    /* \"#utility.yul\":1516:1556   */\n  swap3\n  pop\n    /* \"#utility.yul\":1245:1562   */\n  pop\n  pop\n    /* \"#utility.yul\":1169:1562   */\n  swap4\n  swap3\n  pop\n  pop\n  pop\n  jump\t// out\n    /* \"#utility.yul\":1568:1645   */\ntag_24:\n    /* \"#utility.yul\":1605:1612   */\n  0x00\n    /* \"#utility.yul\":1634:1639   */\n  dup2\n    /* \"#utility.yul\":1623:1639   */\n  swap1\n  pop\n    /* \"#utility.yul\":1568:1645   */\n  swap2\n  swap1\n  pop\n  jump\t// out\n    /* \"#utility.yul\":1651:1711   */\ntag_25:\n    /* \"#utility.yul\":1679:1682   */\n  0x00\n    /* \"#utility.yul\":1700:1705   */\n  dup2\n    /* \"#utility.yul\":1693:1705   */\n  swap1\n  pop\n    /* \"#utility.yul\":1651:1711   */\n  swap2\n  swap1\n  pop\n  jump\t// out\n    /* \"#utility.yul\":1717:1859   */\ntag_26:\n    /* \"#utility.yul\":1767:1776   */\n  0x00\n    /* \"#utility.yul\":1800:1853   */\n  tag_56\n    /* \"#utility.yul\":1818:1852   */\n  tag_57\n    /* \"#utility.yul\":1827:1851   */\n  tag_58\n    /* \"#utility.yul\":1845:1850   */\n  dup5\n    /* \"#utility.yul\":1827:1851   */\n  tag_24\n  jump\t// in\ntag_58:\n    /* \"#utility.yul\":1818:1852   */\n  tag_25\n  jump\t// in\ntag_57:\n    /* \"#utility.yul\":1800:1853   */\n  tag_24\n  jump\t// in\ntag_56:\n    /* \"#utility.yul\":1787:1853   */\n  swap1\n  pop\n    /* \"#utility.yul\":1717:1859   */\n  swap2\n  swap1\n  pop\n  jump\t// out\n    /* \"#utility.yul\":1865:1940   */\ntag_27:\n    /* \"#utility.yul\":1908:1911   */\n  0x00\n    /* \"#utility.yul\":1929:1934   */\n  dup2\n    /* \"#utility.yul\":1922:1934   */\n  swap1\n  pop\n    /* \"#utility.yul\":1865:1940   */\n  swap2\n  swap1\n  pop\n  jump\t// out\n    /* \"#utility.yul\":1946:2215   */\ntag_28:\n    /* \"#utility.yul\":2056:2095   */\n  tag_61\n    /* \"#utility.yul\":2087:2094   */\n  dup4\n    /* \"#utility.yul\":2056:2095   */\n  tag_26\n  jump\t// in\ntag_61:\n    /* \"#utility.yul\":2117:2208   */\n  tag_62\n    /* \"#utility.yul\":2166:2207   */\n  tag_63\n    /* \"#utility.yul\":2190:2206   */\n  dup3\n    /* \"#utility.yul\":2166:2207   */\n  tag_27\n  jump\t// in\ntag_63:\n    /* \"#utility.yul\":2158:2164   */\n  dup5\n    /* \"#utility.yul\":2151:2155   */\n  dup5\n    /* \"#utility.yul\":2145:2156   */\n  sload\n    /* \"#utility.yul\":2117:2208   */\n  tag_23\n  jump\t// in\ntag_62:\n    /* \"#utility.yul\":2111:2115   */\n  dup3\n    /* \"#utility.yul\":2104:2209   */\n  sstore\n    /* \"#utility.yul\":2022:2215   */\n  pop\n    /* \"#utility.yul\":1946:2215   */\n  pop\n  pop\n  pop\n  jump\t// out\n    /* \"#utility.yul\":2221:2294   */\ntag_29:\n    /* \"#utility.yul\":2266:2269   */\n  0x00\n    /* \"#utility.yul\":2221:2294   */\n  swap1\n  jump\t// out\n    /* \"#utility.yul\":2300:2489   */\ntag_30:\n    /* \"#utility.yul\":2377:2409   */\n  tag_66\n  tag_29\n  jump\t// in\ntag_66:\n    /* \"#utility.yul\":2418:2483   */\n  tag_67\n    /* \"#utility.yul\":2476:2482   */\n  dup2\n    /* \"#utility.yul\":2468:2474   */\n  dup5\n    /* \"#utility.yul\":2462:2466   */\n  dup5\n    /* \"#utility.yul\":2418:2483   */\n  tag_28\n  jump\t// in\ntag_67:\n    /* \"#utility.yul\":2353:2489   */\n  pop\n    /* \"#utility.yul\":2300:2489   */\n  pop\n  pop\n  jump\t// out\n    /* \"#utility.yul\":2495:2681   */\ntag_31:\n    /* \"#utility.yul\":2555:2675   */\ntag_69:\n    /* \"#utility.yul\":2572:2575   */\n  dup2\n    /* \"#utility.yul\":2565:2570   */\n  dup2\n    /* \"#utility.yul\":2562:2576   */\n  lt\n    /* \"#utility.yul\":2555:2675   */\n  iszero\n  tag_71\n  jumpi\n    /* \"#utility.yul\":2626:2665   */\n  tag_72\n    /* \"#utility.yul\":2663:2664   */\n  0x00\n    /* \"#utility.yul\":2656:2661   */\n  dup3\n    /* \"#utility.yul\":2626:2665   */\n  tag_30\n  jump\t// in\ntag_72:\n    /* \"#utility.yul\":2599:2600   */\n  0x01\n    /* \"#utility.yul\":2592:2597   */\n  dup2\n    /* \"#utility.yul\":2588:2601   */\n  add\n    /* \"#utility.yul\":2579:2601   */\n  swap1\n  pop\n    /* \"#utility.yul\":2555:2675   */\n  jump(tag_69)\ntag_71:\n    /* \"#utility.yul\":2495:2681   */\n  pop\n  pop\n  jump\t// out\n    /* \"#utility.yul\":2687:3230   */\ntag_32:\n    /* \"#utility.yul\":2788:2790   */\n  0x1f\n    /* \"#utility.yul\":2783:2786   */\n  dup3\n    /* \"#utility.yul\":2780:2791   */\n  gt\n    /* \"#utility.yul\":2777:3223   */\n  iszero\n  tag_74\n  jumpi\n    /* \"#utility.yul\":2822:2860   */\n  tag_75\n    /* \"#utility.yul\":2854:2859   */\n  dup2\n    /* \"#utility.yul\":2822:2860   */\n  tag_20\n  jump\t// in\ntag_75:\n    /* \"#utility.yul\":2906:2935   */\n  tag_76\n    /* \"#utility.yul\":2924:2934   */\n  dup5\n    /* \"#utility.yul\":2906:2935   */\n  tag_21\n  jump\t// in\ntag_76:\n    /* \"#utility.yul\":2896:2904   */\n  dup2\n    /* \"#utility.yul\":2892:2936   */\n  add\n    /* \"#utility.yul\":3089:3091   */\n  0x20\n    /* \"#utility.yul\":3077:3087   */\n  dup6\n    /* \"#utility.yul\":3074:3092   */\n  lt\n    /* \"#utility.yul\":3071:3120   */\n  iszero\n  tag_77\n  jumpi\n    /* \"#utility.yul\":3110:3118   */\n  dup2\n    /* \"#utility.yul\":3095:3118   */\n  swap1\n  pop\n    /* \"#utility.yul\":3071:3120   */\ntag_77:\n    /* \"#utility.yul\":3133:3213   */\n  tag_78\n    /* \"#utility.yul\":3189:3211   */\n  tag_79\n    /* \"#utility.yul\":3207:3210   */\n  dup6\n    /* \"#utility.yul\":3189:3211   */\n  tag_21\n  jump\t// in\ntag_79:\n    /* \"#utility.yul\":3179:3187   */\n  dup4\n    /* \"#utility.yul\":3175:3212   */\n  add\n    /* \"#utility.yul\":3162:3173   */\n  dup3\n    /* \"#utility.yul\":3133:3213   */\n  tag_31\n  jump\t// in\ntag_78:\n    /* \"#utility.yul\":2792:3223   */\n  pop\n  pop\n    /* \"#utility.yul\":2777:3223   */\ntag_74:\n    /* \"#utility.yul\":2687:3230   */\n  pop\n  pop\n  pop\n  jump\t// out\n    /* \"#utility.yul\":3236:3353   */\ntag_33:\n    /* \"#utility.yul\":3290:3298   */\n  0x00\n    /* \"#utility.yul\":3340:3345   */\n  dup3\n    /* \"#utility.yul\":3334:3338   */\n  dup3\n    /* \"#utility.yul\":3330:3346   */\n  shr\n    /* \"#utility.yul\":3309:3346   */\n  swap1\n  pop\n    /* \"#utility.yul\":3236:3353   */\n  swap3\n  swap2\n  pop\n  pop\n  jump\t// out\n    /* \"#utility.yul\":3359:3528   */\ntag_34:\n    /* \"#utility.yul\":3403:3409   */\n  0x00\n    /* \"#utility.yul\":3436:3487   */\n  tag_82\n    /* \"#utility.yul\":3484:3485   */\n  0x00\n    /* \"#utility.yul\":3480:3486   */\n  not\n    /* \"#utility.yul\":3472:3477   */\n  dup5\n    /* \"#utility.yul\":3469:3470   */\n  0x08\n    /* \"#utility.yul\":3465:3478   */\n  mul\n    /* \"#utility.yul\":3436:3487   */\n  tag_33\n  jump\t// in\ntag_82:\n    /* \"#utility.yul\":3432:3488   */\n  not\n    /* \"#utility.yul\":3517:3521   */\n  dup1\n    /* \"#utility.yul\":3511:3515   */\n  dup4\n    /* \"#utility.yul\":3507:3522   */\n  and\n    /* \"#utility.yul\":3497:3522   */\n  swap2\n  pop\n    /* \"#utility.yul\":3410:3528   */\n  pop\n    /* \"#utility.yul\":3359:3528   */\n  swap3\n  swap2\n  pop\n  pop\n  jump\t// out\n    /* \"#utility.yul\":3533:3828   */\ntag_35:\n    /* \"#utility.yul\":3609:3613   */\n  0x00\n    /* \"#utility.yul\":3755:3784   */\n  tag_84\n    /* \"#utility.yul\":3780:3783   */\n  dup4\n    /* \"#utility.yul\":3774:3778   */\n  dup4\n    /* \"#utility.yul\":3755:3784   */\n  tag_34\n  jump\t// in\ntag_84:\n    /* \"#utility.yul\":3747:3784   */\n  swap2\n  pop\n    /* \"#utility.yul\":3817:3820   */\n  dup3\n    /* \"#utility.yul\":3814:3815   */\n  0x02\n    /* \"#utility.yul\":3810:3821   */\n  mul\n    /* \"#utility.yul\":3804:3808   */\n  dup3\n    /* \"#utility.yul\":3801:3822   */\n  or\n    /* \"#utility.yul\":3793:3822   */\n  swap1\n  pop\n    /* \"#utility.yul\":3533:3828   */\n  swap3\n  swap2\n  pop\n  pop\n  jump\t// out\n    /* \"#utility.yul\":3833:5228   */\ntag_2:\n    /* \"#utility.yul\":3950:3987   */\n  tag_86\n    /* \"#utility.yul\":3983:3986   */\n  dup3\n    /* \"#utility.yul\":3950:3987   */\n  tag_16\n  jump\t// in\ntag_86:\n    /* \"#utility.yul\":4052:4070   */\n  0xffffffffffffffff\n    /* \"#utility.yul\":4044:4050   */\n  dup2\n    /* \"#utility.yul\":4041:4071   */\n  gt\n    /* \"#utility.yul\":4038:4094   */\n  iszero\n  tag_87\n  jumpi\n    /* \"#utility.yul\":4074:4092   */\n  tag_88\n  tag_17\n  jump\t// in\ntag_88:\n    /* \"#utility.yul\":4038:4094   */\ntag_87:\n    /* \"#utility.yul\":4118:4156   */\n  tag_89\n    /* \"#utility.yul\":4150:4154   */\n  dup3\n    /* \"#utility.yul\":4144:4155   */\n  sload\n    /* \"#utility.yul\":4118:4156   */\n  tag_19\n  jump\t// in\ntag_89:\n    /* \"#utility.yul\":4203:4270   */\n  tag_90\n    /* \"#utility.yul\":4263:4269   */\n  dup3\n    /* \"#utility.yul\":4255:4261   */\n  dup3\n    /* \"#utility.yul\":4249:4253   */\n  dup6\n    /* \"#utility.yul\":4203:4270   */\n  tag_32\n  jump\t// in\ntag_90:\n    /* \"#utility.yul\":4297:4298   */\n  0x00\n    /* \"#utility.yul\":4321:4325   */\n  0x20\n    /* \"#utility.yul\":4308:4325   */\n  swap1\n  pop\n    /* \"#utility.yul\":4353:4355   */\n  0x1f\n    /* \"#utility.yul\":4345:4351   */\n  dup4\n    /* \"#utility.yul\":4342:4356   */\n  gt\n    /* \"#utility.yul\":4370:4371   */\n  0x01\n    /* \"#utility.yul\":4365:4983   */\n  dup2\n  eq\n  tag_92\n  jumpi\n    /* \"#utility.yul\":5027:5028   */\n  0x00\n    /* \"#utility.yul\":5044:5050   */\n  dup5\n    /* \"#utility.yul\":5041:5118   */\n  iszero\n  tag_93\n  jumpi\n    /* \"#utility.yul\":5093:5102   */\n  dup3\n    /* \"#utility.yul\":5088:5091   */\n  dup8\n    /* \"#utility.yul\":5084:5103   */\n  add\n    /* \"#utility.yul\":5078:5104   */\n  mload\n    /* \"#utility.yul\":5069:5104   */\n  swap1\n  pop\n    /* \"#utility.yul\":5041:5118   */\ntag_93:\n    /* \"#utility.yul\":5144:5211   */\n  tag_94\n    /* \"#utility.yul\":5204:5210   */\n  dup6\n    /* \"#utility.yul\":5197:5202   */\n  dup3\n    /* \"#utility.yul\":5144:5211   */\n  tag_35\n  jump\t// in\ntag_94:\n    /* \"#utility.yul\":5138:5142   */\n  dup7\n    /* \"#utility.yul\":5131:5212   */\n  sstore\n    /* \"#utility.yul\":5000:5222   */\n  pop\n    /* \"#utility.yul\":4335:5222   */\n  jump(tag_91)\n    /* \"#utility.yul\":4365:4983   */\ntag_92:\n    /* \"#utility.yul\":4417:4421   */\n  0x1f\n    /* \"#utility.yul\":4413:4422   */\n  not\n    /* \"#utility.yul\":4405:4411   */\n  dup5\n    /* \"#utility.yul\":4401:4423   */\n  and\n    /* \"#utility.yul\":4451:4488   */\n  tag_95\n    /* \"#utility.yul\":4483:4487   */\n  dup7\n    /* \"#utility.yul\":4451:4488   */\n  tag_20\n  jump\t// in\ntag_95:\n    /* \"#utility.yul\":4510:4511   */\n  0x00\n    /* \"#utility.yul\":4524:4732   */\ntag_96:\n    /* \"#utility.yul\":4538:4545   */\n  dup3\n    /* \"#utility.yul\":4535:4536   */\n  dup2\n    /* \"#utility.yul\":4532:4546   */\n  lt\n    /* \"#utility.yul\":4524:4732   */\n  iszero\n  tag_98\n  jumpi\n    /* \"#utility.yul\":4617:4626   */\n  dup5\n    /* \"#utility.yul\":4612:4615   */\n  dup10\n    /* \"#utility.yul\":4608:4627   */\n  add\n    /* \"#utility.yul\":4602:4628   */\n  mload\n    /* \"#utility.yul\":4594:4600   */\n  dup3\n    /* \"#utility.yul\":4587:4629   */\n  sstore\n    /* \"#utility.yul\":4668:4669   */\n  0x01\n    /* \"#utility.yul\":4660:4666   */\n  dup3\n    /* \"#utility.yul\":4656:4670   */\n  add\n    /* \"#utility.yul\":4646:4670   */\n  swap2\n  pop\n    /* \"#utility.yul\":4715:4717   */\n  0x20\n    /* \"#utility.yul\":4704:4713   */\n  dup6\n    /* \"#utility.yul\":4700:4718   */\n  add\n    /* \"#utility.yul\":4687:4718   */\n  swap5\n  pop\n    /* \"#utility.yul\":4561:4565   */\n  0x20\n    /* \"#utility.yul\":4558:4559   */\n  dup2\n    /* \"#utility.yul\":4554:4566   */\n  add\n    /* \"#utility.yul\":4549:4566   */\n  swap1\n  pop\n    /* \"#utility.yul\":4524:4732   */\n  jump(tag_96)\ntag_98:\n    /* \"#utility.yul\":4760:4766   */\n  dup7\n    /* \"#utility.yul\":4751:4758   */\n  dup4\n    /* \"#utility.yul\":4748:4767   */\n  lt\n    /* \"#utility.yul\":4745:4924   */\n  iszero\n  tag_99\n  jumpi\n    /* \"#utility.yul\":4818:4827   */\n  dup5\n    /* \"#utility.yul\":4813:4816   */\n  dup10\n    /* \"#utility.yul\":4809:4828   */\n  add\n    /* \"#utility.yul\":4803:4829   */\n  mload\n    /* \"#utility.yul\":4861:4909   */\n  tag_100\n    /* \"#utility.yul\":4903:4907   */\n  0x1f\n    /* \"#utility.yul\":4895:4901   */\n  dup10\n    /* \"#utility.yul\":4891:4908   */\n  and\n    /* \"#utility.yul\":4880:4889   */\n  dup3\n    /* \"#utility.yul\":4861:4909   */\n  tag_34\n  jump\t// in\ntag_100:\n    /* \"#utility.yul\":4853:4859   */\n  dup4\n    /* \"#utility.yul\":4846:4910   */\n  sstore\n    /* \"#utility.yul\":4768:4924   */\n  pop\n    /* \"#utility.yul\":4745:4924   */\ntag_99:\n    /* \"#utility.yul\":4970:4971   */\n  0x01\n    /* \"#utility.yul\":4966:4967   */\n  0x02\n    /* \"#utility.yul\":4958:4964   */\n  dup9\n    /* \"#utility.yul\":4954:4968   */\n  mul\n    /* \"#utility.yul\":4950:4972   */\n  add\n    /* \"#utility.yul\":4944:4948   */\n  dup9\n    /* \"#utility.yul\":4937:4973   */\n  sstore\n    /* \"#utility.yul\":4372:4983   */\n  pop\n  pop\n  pop\n    /* \"#utility.yul\":4335:5222   */\ntag_91:\n  pop\n    /* \"#utility.yul\":3925:5228   */\n  pop\n  pop\n  pop\n    /* \"#utility.yul\":3833:5228   */\n  pop\n  pop\n  jump\t// out\n    /* \"#utility.yul\":5234:5403   */\ntag_36:\n    /* \"#utility.yul\":5318:5329   */\n  0x00\n    /* \"#utility.yul\":5352:5358   */\n  dup3\n    /* \"#utility.yul\":5347:5350   */\n  dup3\n    /* \"#utility.yul\":5340:5359   */\n  mstore\n    /* \"#utility.yul\":5392:5396   */\n  0x20\n    /* \"#utility.yul\":5387:5390   */\n  dup3\n    /* \"#utility.yul\":5383:5397   */\n  add\n    /* \"#utility.yul\":5368:5397   */\n  swap1\n  pop\n    /* \"#utility.yul\":5234:5403   */\n  swap3\n  swap2\n  pop\n  pop\n  jump\t// out\n    /* \"#utility.yul\":5409:5632   */\ntag_37:\n    /* \"#utility.yul\":5549:5583   */\n  0x436f6e747261746f20656e7472616761206372656164612073696e20456e7472\n    /* \"#utility.yul\":5545:5546   */\n  0x00\n    /* \"#utility.yul\":5537:5543   */\n  dup3\n    /* \"#utility.yul\":5533:5547   */\n  add\n    /* \"#utility.yul\":5526:5584   */\n  mstore\n    /* \"#utility.yul\":5618:5624   */\n  0x6167617300000000000000000000000000000000000000000000000000000000\n    /* \"#utility.yul\":5613:5615   */\n  0x20\n    /* \"#utility.yul\":5605:5611   */\n  dup3\n    /* \"#utility.yul\":5601:5616   */\n  add\n    /* \"#utility.yul\":5594:5625   */\n  mstore\n    /* \"#utility.yul\":5409:5632   */\n  pop\n  jump\t// out\n    /* \"#utility.yul\":5638:6004   */\ntag_38:\n    /* \"#utility.yul\":5780:5783   */\n  0x00\n    /* \"#utility.yul\":5801:5868   */\n  tag_104\n    /* \"#utility.yul\":5865:5867   */\n  0x24\n    /* \"#utility.yul\":5860:5863   */\n  dup4\n    /* \"#utility.yul\":5801:5868   */\n  tag_36\n  jump\t// in\ntag_104:\n    /* \"#utility.yul\":5794:5868   */\n  swap2\n  pop\n    /* \"#utility.yul\":5877:5970   */\n  tag_105\n    /* \"#utility.yul\":5966:5969   */\n  dup3\n    /* \"#utility.yul\":5877:5970   */\n  tag_37\n  jump\t// in\ntag_105:\n    /* \"#utility.yul\":5995:5997   */\n  0x40\n    /* \"#utility.yul\":5990:5993   */\n  dup3\n    /* \"#utility.yul\":5986:5998   */\n  add\n    /* \"#utility.yul\":5979:5998   */\n  swap1\n  pop\n    /* \"#utility.yul\":5638:6004   */\n  swap2\n  swap1\n  pop\n  jump\t// out\n    /* \"#utility.yul\":6010:6429   */\ntag_14:\n    /* \"#utility.yul\":6176:6180   */\n  0x00\n    /* \"#utility.yul\":6214:6216   */\n  0x20\n    /* \"#utility.yul\":6203:6212   */\n  dup3\n    /* \"#utility.yul\":6199:6217   */\n  add\n    /* \"#utility.yul\":6191:6217   */\n  swap1\n  pop\n    /* \"#utility.yul\":6263:6272   */\n  dup2\n    /* \"#utility.yul\":6257:6261   */\n  dup2\n    /* \"#utility.yul\":6253:6273   */\n  sub\n    /* \"#utility.yul\":6249:6250   */\n  0x00\n    /* \"#utility.yul\":6238:6247   */\n  dup4\n    /* \"#utility.yul\":6234:6251   */\n  add\n    /* \"#utility.yul\":6227:6274   */\n  mstore\n    /* \"#utility.yul\":6291:6422   */\n  tag_107\n    /* \"#utility.yul\":6417:6421   */\n  dup2\n    /* \"#utility.yul\":6291:6422   */\n  tag_38\n  jump\t// in\ntag_107:\n    /* \"#utility.yul\":6283:6422   */\n  swap1\n  pop\n    /* \"#utility.yul\":6010:6429   */\n  swap2\n  swap1\n  pop\n  jump\t// out\n    /* \"Trazabilidad.sol\":289:10909  contract Trazabilidad {... */\ntag_15:\n  dataSize(sub_0)\n  dup1\n  dataOffset(sub_0)\n  0x00\n  codecopy\n  0x00\n  return\nstop\n\nsub_0: assembly {\n        /* \"Trazabilidad.sol\":289:10909  contract Trazabilidad {... */\n      mstore(0x40, 0x80)\n      jumpi(tag_1, lt(calldatasize, 0x04))\n      shr(0xe0, calldataload(0x00))\n      dup1\n      0x8da5cb5b\n      gt\n      tag_15\n      jumpi\n      dup1\n      0xdb7fbc86\n      gt\n      tag_16\n      jumpi\n      dup1\n      0xdb7fbc86\n      eq\n      tag_11\n      jumpi\n      dup1\n      0xdbbd9752\n      eq\n      tag_12\n      jumpi\n      dup1\n      0xdd1a8d67\n      eq\n      tag_13\n      jumpi\n      dup1\n      0xf856e749\n      eq\n      tag_14\n      jumpi\n      jump(tag_1)\n    tag_16:\n      dup1\n      0x8da5cb5b\n      eq\n      tag_8\n      jumpi\n      dup1\n      0xbdc0679f\n      eq\n      tag_9\n      jumpi\n      dup1\n      0xd6223cca\n      eq\n      tag_10\n      jumpi\n      jump(tag_1)\n    tag_15:\n      dup1\n      0x19315abc\n      eq\n      tag_2\n      jumpi\n      dup1\n      0x3ecd4392\n      eq\n      tag_3\n      jumpi\n      dup1\n      0x77e93dba\n      eq\n      tag_4\n      jumpi\n      dup1\n      0x7b0553f2\n      eq\n      tag_5\n      jumpi\n      dup1\n      0x81e6830f\n      eq\n      tag_6\n      jumpi\n      dup1\n      0x86255ba2\n      eq\n      tag_7\n      jumpi\n    tag_1:\n      0x00\n      dup1\n      revert\n        /* \"Trazabilidad.sol\":7051:8007  function crearEntrega(... */\n    tag_2:\n      tag_17\n      0x04\n      dup1\n      calldatasize\n      sub\n      dup2\n      add\n      swap1\n      tag_18\n      swap2\n      swap1\n      tag_19\n      jump\t// in\n    tag_18:\n      tag_20\n      jump\t// in\n    tag_17:\n      stop\n        /* \"Trazabilidad.sol\":5833:6617  function vendedorRecicePago(uint _numEnt) ... */\n    tag_3:\n      tag_21\n      0x04\n      dup1\n      calldatasize\n      sub\n      dup2\n      add\n      swap1\n      tag_22\n      swap2\n      swap1\n      tag_23\n      jump\t// in\n    tag_22:\n      tag_24\n      jump\t// in\n    tag_21:\n      stop\n        /* \"Trazabilidad.sol\":10042:10902  function viewEntregaStatus(uint numEnt) public view isOwner returns(string memory){... */\n    tag_4:\n      callvalue\n      dup1\n      iszero\n      tag_25\n      jumpi\n      0x00\n      dup1\n      revert\n    tag_25:\n      pop\n      tag_26\n      0x04\n      dup1\n      calldatasize\n      sub\n      dup2\n      add\n      swap1\n      tag_27\n      swap2\n      swap1\n      tag_23\n      jump\t// in\n    tag_27:\n      tag_28\n      jump\t// in\n    tag_26:\n      mload(0x40)\n      tag_29\n      swap2\n      swap1\n      tag_30\n      jump\t// in\n    tag_29:\n      mload(0x40)\n      dup1\n      swap2\n      sub\n      swap1\n      return\n        /* \"Trazabilidad.sol\":9119:9648  function viewEntrega(uint numEnt) public isOwner() {... */\n    tag_5:\n      callvalue\n      dup1\n      iszero\n      tag_31\n      jumpi\n      0x00\n      dup1\n      revert\n    tag_31:\n      pop\n      tag_32\n      0x04\n      dup1\n      calldatasize\n      sub\n      dup2\n      add\n      swap1\n      tag_33\n      swap2\n      swap1\n      tag_23\n      jump\t// in\n    tag_33:\n      tag_34\n      jump\t// in\n    tag_32:\n      stop\n        /* \"Trazabilidad.sol\":8827:9023  function panico() public isOwner(){... */\n    tag_6:\n      callvalue\n      dup1\n      iszero\n      tag_35\n      jumpi\n      0x00\n      dup1\n      revert\n    tag_35:\n      pop\n      tag_36\n      tag_37\n      jump\t// in\n    tag_36:\n      stop\n        /* \"Trazabilidad.sol\":8102:8723  function canceladaEntrada(uint numEnt) payable public isOwner(){... */\n    tag_7:\n      tag_38\n      0x04\n      dup1\n      calldatasize\n      sub\n      dup2\n      add\n      swap1\n      tag_39\n      swap2\n      swap1\n      tag_23\n      jump\t// in\n    tag_39:\n      tag_40\n      jump\t// in\n    tag_38:\n      stop\n        /* \"Trazabilidad.sol\":844:872  address payable public owner */\n    tag_8:\n      callvalue\n      dup1\n      iszero\n      tag_41\n      jumpi\n      0x00\n      dup1\n      revert\n    tag_41:\n      pop\n      tag_42\n      tag_43\n      jump\t// in\n    tag_42:\n      mload(0x40)\n      tag_44\n      swap2\n      swap1\n      tag_45\n      jump\t// in\n    tag_44:\n      mload(0x40)\n      dup1\n      swap2\n      sub\n      swap1\n      return\n        /* \"Trazabilidad.sol\":3741:4209  function repartidorFirmaSalida(uint numEnt) public isRepartidor(numEnt) {... */\n    tag_9:\n      callvalue\n      dup1\n      iszero\n      tag_46\n      jumpi\n      0x00\n      dup1\n      revert\n    tag_46:\n      pop\n      tag_47\n      0x04\n      dup1\n      calldatasize\n      sub\n      dup2\n      add\n      swap1\n      tag_48\n      swap2\n      swap1\n      tag_23\n      jump\t// in\n    tag_48:\n      tag_49\n      jump\t// in\n    tag_47:\n      stop\n        /* \"Trazabilidad.sol\":4960:5708  function clienteFirmaRecepcion(uint numEnt) payable public isCliente(numEnt) {... */\n    tag_10:\n      tag_50\n      0x04\n      dup1\n      calldatasize\n      sub\n      dup2\n      add\n      swap1\n      tag_51\n      swap2\n      swap1\n      tag_23\n      jump\t// in\n    tag_51:\n      tag_52\n      jump\t// in\n    tag_50:\n      stop\n        /* \"Trazabilidad.sol\":879:917  address payable public contractaddress */\n    tag_11:\n      callvalue\n      dup1\n      iszero\n      tag_53\n      jumpi\n      0x00\n      dup1\n      revert\n    tag_53:\n      pop\n      tag_54\n      tag_55\n      jump\t// in\n    tag_54:\n      mload(0x40)\n      tag_56\n      swap2\n      swap1\n      tag_45\n      jump\t// in\n    tag_56:\n      mload(0x40)\n      dup1\n      swap2\n      sub\n      swap1\n      return\n        /* \"Trazabilidad.sol\":767:792  uint8 public numCalculado */\n    tag_12:\n      callvalue\n      dup1\n      iszero\n      tag_57\n      jumpi\n      0x00\n      dup1\n      revert\n    tag_57:\n      pop\n      tag_58\n      tag_59\n      jump\t// in\n    tag_58:\n      mload(0x40)\n      tag_60\n      swap2\n      swap1\n      tag_61\n      jump\t// in\n    tag_60:\n      mload(0x40)\n      dup1\n      swap2\n      sub\n      swap1\n      return\n        /* \"Trazabilidad.sol\":9745:9854  function fondoscontratos() public view isOwner returns(uint){... */\n    tag_13:\n      callvalue\n      dup1\n      iszero\n      tag_62\n      jumpi\n      0x00\n      dup1\n      revert\n    tag_62:\n      pop\n      tag_63\n      tag_64\n      jump\t// in\n    tag_63:\n      mload(0x40)\n      tag_65\n      swap2\n      swap1\n      tag_66\n      jump\t// in\n    tag_65:\n      mload(0x40)\n      dup1\n      swap2\n      sub\n      swap1\n      return\n        /* \"Trazabilidad.sol\":4355:4815  function repartidorFirmaLlegada(uint numEnt) public isRepartidor(numEnt) {... */\n    tag_14:\n      callvalue\n      dup1\n      iszero\n      tag_67\n      jumpi\n      0x00\n      dup1\n      revert\n    tag_67:\n      pop\n      tag_68\n      0x04\n      dup1\n      calldatasize\n      sub\n      dup2\n      add\n      swap1\n      tag_69\n      swap2\n      swap1\n      tag_23\n      jump\t// in\n    tag_69:\n      tag_70\n      jump\t// in\n    tag_68:\n      stop\n        /* \"Trazabilidad.sol\":7051:8007  function crearEntrega(... */\n    tag_20:\n        /* \"Trazabilidad.sol\":2988:2993  owner */\n      0x03\n      0x00\n      swap1\n      sload\n      swap1\n      0x0100\n      exp\n      swap1\n      div\n      0xffffffffffffffffffffffffffffffffffffffff\n      and\n        /* \"Trazabilidad.sol\":2974:2993  msg.sender == owner */\n      0xffffffffffffffffffffffffffffffffffffffff\n      and\n        /* \"Trazabilidad.sol\":2974:2984  msg.sender */\n      caller\n        /* \"Trazabilidad.sol\":2974:2993  msg.sender == owner */\n      0xffffffffffffffffffffffffffffffffffffffff\n      and\n      eq\n        /* \"Trazabilidad.sol\":2966:3025  require(msg.sender == owner,\"No eres creador del contrato\") */\n      tag_72\n      jumpi\n      mload(0x40)\n      0x08c379a000000000000000000000000000000000000000000000000000000000\n      dup2\n      mstore\n      0x04\n      add\n      tag_73\n      swap1\n      tag_74\n      jump\t// in\n    tag_73:\n      mload(0x40)\n      dup1\n      swap2\n      sub\n      swap1\n      revert\n    tag_72:\n        /* \"Trazabilidad.sol\":7275:7285  repartidor */\n      dup6\n        /* \"Trazabilidad.sol\":3479:3480  0 */\n      0x00\n        /* \"Trazabilidad.sol\":3463:3481  addr != address(0) */\n      0xffffffffffffffffffffffffffffffffffffffff\n      and\n        /* \"Trazabilidad.sol\":3463:3467  addr */\n      dup2\n        /* \"Trazabilidad.sol\":3463:3481  addr != address(0) */\n      0xffffffffffffffffffffffffffffffffffffffff\n      and\n      sub\n        /* \"Trazabilidad.sol\":3455:3503  require(addr != address(0), \"Not valid address\") */\n      tag_76\n      jumpi\n      mload(0x40)\n      0x08c379a000000000000000000000000000000000000000000000000000000000\n      dup2\n      mstore\n      0x04\n      add\n      tag_77\n      swap1\n      tag_78\n      jump\t// in\n    tag_77:\n      mload(0x40)\n      dup1\n      swap2\n      sub\n      swap1\n      revert\n    tag_76:\n        /* \"Trazabilidad.sol\":7311:7318  cliente */\n      dup6\n        /* \"Trazabilidad.sol\":3479:3480  0 */\n      0x00\n        /* \"Trazabilidad.sol\":3463:3481  addr != address(0) */\n      0xffffffffffffffffffffffffffffffffffffffff\n      and\n        /* \"Trazabilidad.sol\":3463:3467  addr */\n      dup2\n        /* \"Trazabilidad.sol\":3463:3481  addr != address(0) */\n      0xffffffffffffffffffffffffffffffffffffffff\n      and\n      sub\n        /* \"Trazabilidad.sol\":3455:3503  require(addr != address(0), \"Not valid address\") */\n      tag_80\n      jumpi\n      mload(0x40)\n      0x08c379a000000000000000000000000000000000000000000000000000000000\n      dup2\n      mstore\n      0x04\n      add\n      tag_81\n      swap1\n      tag_78\n      jump\t// in\n    tag_81:\n      mload(0x40)\n      dup1\n      swap2\n      sub\n      swap1\n      revert\n    tag_80:\n        /* \"Trazabilidad.sol\":7343:7351  vendedor */\n      dup6\n        /* \"Trazabilidad.sol\":3479:3480  0 */\n      0x00\n        /* \"Trazabilidad.sol\":3463:3481  addr != address(0) */\n      0xffffffffffffffffffffffffffffffffffffffff\n      and\n        /* \"Trazabilidad.sol\":3463:3467  addr */\n      dup2\n        /* \"Trazabilidad.sol\":3463:3481  addr != address(0) */\n      0xffffffffffffffffffffffffffffffffffffffff\n      and\n      sub\n        /* \"Trazabilidad.sol\":3455:3503  require(addr != address(0), \"Not valid address\") */\n      tag_83\n      jumpi\n      mload(0x40)\n      0x08c379a000000000000000000000000000000000000000000000000000000000\n      dup2\n      mstore\n      0x04\n      add\n      tag_84\n      swap1\n      tag_78\n      jump\t// in\n    tag_84:\n      mload(0x40)\n      dup1\n      swap2\n      sub\n      swap1\n      revert\n    tag_83:\n        /* \"Trazabilidad.sol\":7373:7385  numCalculado */\n      0x01\n      0x00\n        /* \"Trazabilidad.sol\":7373:7388  numCalculado ++ */\n      dup2\n      dup2\n      swap1\n      sload\n      swap1\n      0x0100\n      exp\n      swap1\n      div\n      0xff\n      and\n      dup1\n      swap3\n      swap2\n      swap1\n      tag_86\n      swap1\n      tag_87\n      jump\t// in\n    tag_86:\n      swap2\n      swap1\n      0x0100\n      exp\n      dup2\n      sload\n      dup2\n      0xff\n      mul\n      not\n      and\n      swap1\n      dup4\n      0xff\n      and\n      mul\n      or\n      swap1\n      sstore\n      pop\n      pop\n        /* \"Trazabilidad.sol\":7438:7450  numCalculado */\n      0x01\n      0x00\n      swap1\n      sload\n      swap1\n      0x0100\n      exp\n      swap1\n      div\n      0xff\n      and\n        /* \"Trazabilidad.sol\":7400:7410  mapEntrega */\n      0x02\n        /* \"Trazabilidad.sol\":7400:7424  mapEntrega[numCalculado] */\n      0x00\n        /* \"Trazabilidad.sol\":7411:7423  numCalculado */\n      0x01\n      0x00\n      swap1\n      sload\n      swap1\n      0x0100\n      exp\n      swap1\n      div\n      0xff\n      and\n        /* \"Trazabilidad.sol\":7400:7424  mapEntrega[numCalculado] */\n      0xff\n      and\n      dup2\n      mstore\n      0x20\n      add\n      swap1\n      dup2\n      mstore\n      0x20\n      add\n      0x00\n      keccak256\n        /* \"Trazabilidad.sol\":7400:7435  mapEntrega[numCalculado].numEntrega */\n      0x00\n      add\n      0x00\n        /* \"Trazabilidad.sol\":7400:7450  mapEntrega[numCalculado].numEntrega = numCalculado */\n      0x0100\n      exp\n      dup2\n      sload\n      dup2\n      0xff\n      mul\n      not\n      and\n      swap1\n      dup4\n      0xff\n      and\n      mul\n      or\n      swap1\n      sstore\n      pop\n        /* \"Trazabilidad.sol\":7500:7511  description */\n      dup5\n      dup5\n        /* \"Trazabilidad.sol\":7461:7471  mapEntrega */\n      0x02\n        /* \"Trazabilidad.sol\":7461:7485  mapEntrega[numCalculado] */\n      0x00\n        /* \"Trazabilidad.sol\":7472:7484  numCalculado */\n      0x01\n      0x00\n      swap1\n      sload\n      swap1\n      0x0100\n      exp\n      swap1\n      div\n      0xff\n      and\n        /* \"Trazabilidad.sol\":7461:7485  mapEntrega[numCalculado] */\n      0xff\n      and\n      dup2\n      mstore\n      0x20\n      add\n      swap1\n      dup2\n      mstore\n      0x20\n      add\n      0x00\n      keccak256\n        /* \"Trazabilidad.sol\":7461:7497  mapEntrega[numCalculado].description */\n      0x01\n      add\n        /* \"Trazabilidad.sol\":7461:7511  mapEntrega[numCalculado].description = description */\n      swap2\n      dup3\n      tag_88\n      swap3\n      swap2\n      swap1\n      tag_89\n      jump\t// in\n    tag_88:\n      pop\n        /* \"Trazabilidad.sol\":7565:7572  1 ether */\n      0x0de0b6b3a7640000\n        /* \"Trazabilidad.sol\":7555:7561  precio */\n      dup7\n        /* \"Trazabilidad.sol\":7555:7573  precio * (1 ether) */\n      tag_90\n      swap2\n      swap1\n      tag_91\n      jump\t// in\n    tag_90:\n        /* \"Trazabilidad.sol\":7522:7532  mapEntrega */\n      0x02\n        /* \"Trazabilidad.sol\":7522:7546  mapEntrega[numCalculado] */\n      0x00\n        /* \"Trazabilidad.sol\":7533:7545  numCalculado */\n      0x01\n      0x00\n      swap1\n      sload\n      swap1\n      0x0100\n      exp\n      swap1\n      div\n      0xff\n      and\n        /* \"Trazabilidad.sol\":7522:7546  mapEntrega[numCalculado] */\n      0xff\n      and\n      dup2\n      mstore\n      0x20\n      add\n      swap1\n      dup2\n      mstore\n      0x20\n      add\n      0x00\n      keccak256\n        /* \"Trazabilidad.sol\":7522:7552  mapEntrega[numCalculado].price */\n      0x02\n      add\n        /* \"Trazabilidad.sol\":7522:7573  mapEntrega[numCalculado].price = precio * (1 ether) */\n      dup2\n      swap1\n      sstore\n      pop\n        /* \"Trazabilidad.sol\":7621:7636  block.timestamp */\n      timestamp\n        /* \"Trazabilidad.sol\":7584:7594  mapEntrega */\n      0x02\n        /* \"Trazabilidad.sol\":7584:7608  mapEntrega[numCalculado] */\n      0x00\n        /* \"Trazabilidad.sol\":7595:7607  numCalculado */\n      0x01\n      0x00\n      swap1\n      sload\n      swap1\n      0x0100\n      exp\n      swap1\n      div\n      0xff\n      and\n        /* \"Trazabilidad.sol\":7584:7608  mapEntrega[numCalculado] */\n      0xff\n      and\n      dup2\n      mstore\n      0x20\n      add\n      swap1\n      dup2\n      mstore\n      0x20\n      add\n      0x00\n      keccak256\n        /* \"Trazabilidad.sol\":7584:7618  mapEntrega[numCalculado].timestamp */\n      0x03\n      add\n        /* \"Trazabilidad.sol\":7584:7636  mapEntrega[numCalculado].timestamp = block.timestamp */\n      dup2\n      swap1\n      sstore\n      pop\n        /* \"Trazabilidad.sol\":7681:7696  Status.ACCEPTED */\n      0x00\n        /* \"Trazabilidad.sol\":7647:7657  mapEntrega */\n      0x02\n        /* \"Trazabilidad.sol\":7647:7671  mapEntrega[numCalculado] */\n      0x00\n        /* \"Trazabilidad.sol\":7658:7670  numCalculado */\n      0x01\n      0x00\n      swap1\n      sload\n      swap1\n      0x0100\n      exp\n      swap1\n      div\n      0xff\n      and\n        /* \"Trazabilidad.sol\":7647:7671  mapEntrega[numCalculado] */\n      0xff\n      and\n      dup2\n      mstore\n      0x20\n      add\n      swap1\n      dup2\n      mstore\n      0x20\n      add\n      0x00\n      keccak256\n        /* \"Trazabilidad.sol\":7647:7678  mapEntrega[numCalculado].status */\n      0x04\n      add\n      0x00\n        /* \"Trazabilidad.sol\":7647:7696  mapEntrega[numCalculado].status = Status.ACCEPTED */\n      0x0100\n      exp\n      dup2\n      sload\n      dup2\n      0xff\n      mul\n      not\n      and\n      swap1\n      dup4\n      0x07\n      dup2\n      gt\n      iszero\n      tag_92\n      jumpi\n      tag_93\n      tag_94\n      jump\t// in\n    tag_93:\n    tag_92:\n      mul\n      or\n      swap1\n      sstore\n      pop\n        /* \"Trazabilidad.sol\":7759:7769  repartidor */\n      dup9\n        /* \"Trazabilidad.sol\":7707:7717  mapEntrega */\n      0x02\n        /* \"Trazabilidad.sol\":7707:7731  mapEntrega[numCalculado] */\n      0x00\n        /* \"Trazabilidad.sol\":7718:7730  numCalculado */\n      0x01\n      0x00\n      swap1\n      sload\n      swap1\n      0x0100\n      exp\n      swap1\n      div\n      0xff\n      and\n        /* \"Trazabilidad.sol\":7707:7731  mapEntrega[numCalculado] */\n      0xff\n      and\n      dup2\n      mstore\n      0x20\n      add\n      swap1\n      dup2\n      mstore\n      0x20\n      add\n      0x00\n      keccak256\n        /* \"Trazabilidad.sol\":7707:7739  mapEntrega[numCalculado].mapRole */\n      0x05\n      add\n        /* \"Trazabilidad.sol\":7707:7756  mapEntrega[numCalculado].mapRole[Role.REPARTIDOR] */\n      0x00\n        /* \"Trazabilidad.sol\":7740:7755  Role.REPARTIDOR */\n      0x01\n        /* \"Trazabilidad.sol\":7707:7756  mapEntrega[numCalculado].mapRole[Role.REPARTIDOR] */\n      0x02\n      dup2\n      gt\n      iszero\n      tag_95\n      jumpi\n      tag_96\n      tag_94\n      jump\t// in\n    tag_96:\n    tag_95:\n      0x02\n      dup2\n      gt\n      iszero\n      tag_97\n      jumpi\n      tag_98\n      tag_94\n      jump\t// in\n    tag_98:\n    tag_97:\n      dup2\n      mstore\n      0x20\n      add\n      swap1\n      dup2\n      mstore\n      0x20\n      add\n      0x00\n      keccak256\n      0x00\n        /* \"Trazabilidad.sol\":7707:7769  mapEntrega[numCalculado].mapRole[Role.REPARTIDOR] = repartidor */\n      0x0100\n      exp\n      dup2\n      sload\n      dup2\n      0xffffffffffffffffffffffffffffffffffffffff\n      mul\n      not\n      and\n      swap1\n      dup4\n      0xffffffffffffffffffffffffffffffffffffffff\n      and\n      mul\n      or\n      swap1\n      sstore\n      pop\n        /* \"Trazabilidad.sol\":7829:7836  cliente */\n      dup8\n        /* \"Trazabilidad.sol\":7780:7790  mapEntrega */\n      0x02\n        /* \"Trazabilidad.sol\":7780:7804  mapEntrega[numCalculado] */\n      0x00\n        /* \"Trazabilidad.sol\":7791:7803  numCalculado */\n      0x01\n      0x00\n      swap1\n      sload\n      swap1\n      0x0100\n      exp\n      swap1\n      div\n      0xff\n      and\n        /* \"Trazabilidad.sol\":7780:7804  mapEntrega[numCalculado] */\n      0xff\n      and\n      dup2\n      mstore\n      0x20\n      add\n      swap1\n      dup2\n      mstore\n      0x20\n      add\n      0x00\n      keccak256\n        /* \"Trazabilidad.sol\":7780:7812  mapEntrega[numCalculado].mapRole */\n      0x05\n      add\n        /* \"Trazabilidad.sol\":7780:7826  mapEntrega[numCalculado].mapRole[Role.CLIENTE] */\n      0x00\n        /* \"Trazabilidad.sol\":7813:7825  Role.CLIENTE */\n      dup1\n        /* \"Trazabilidad.sol\":7780:7826  mapEntrega[numCalculado].mapRole[Role.CLIENTE] */\n      0x02\n      dup2\n      gt\n      iszero\n      tag_99\n      jumpi\n      tag_100\n      tag_94\n      jump\t// in\n    tag_100:\n    tag_99:\n      0x02\n      dup2\n      gt\n      iszero\n      tag_101\n      jumpi\n      tag_102\n      tag_94\n      jump\t// in\n    tag_102:\n    tag_101:\n      dup2\n      mstore\n      0x20\n      add\n      swap1\n      dup2\n      mstore\n      0x20\n      add\n      0x00\n      keccak256\n      0x00\n        /* \"Trazabilidad.sol\":7780:7836  mapEntrega[numCalculado].mapRole[Role.CLIENTE] = cliente */\n      0x0100\n      exp\n      dup2\n      sload\n      dup2\n      0xffffffffffffffffffffffffffffffffffffffff\n      mul\n      not\n      and\n      swap1\n      dup4\n      0xffffffffffffffffffffffffffffffffffffffff\n      and\n      mul\n      or\n      swap1\n      sstore\n      pop\n        /* \"Trazabilidad.sol\":7897:7905  vendedor */\n      dup7\n        /* \"Trazabilidad.sol\":7847:7857  mapEntrega */\n      0x02\n        /* \"Trazabilidad.sol\":7847:7871  mapEntrega[numCalculado] */\n      0x00\n        /* \"Trazabilidad.sol\":7858:7870  numCalculado */\n      0x01\n      0x00\n      swap1\n      sload\n      swap1\n      0x0100\n      exp\n      swap1\n      div\n      0xff\n      and\n        /* \"Trazabilidad.sol\":7847:7871  mapEntrega[numCalculado] */\n      0xff\n      and\n      dup2\n      mstore\n      0x20\n      add\n      swap1\n      dup2\n      mstore\n      0x20\n      add\n      0x00\n      keccak256\n        /* \"Trazabilidad.sol\":7847:7879  mapEntrega[numCalculado].mapRole */\n      0x05\n      add\n        /* \"Trazabilidad.sol\":7847:7894  mapEntrega[numCalculado].mapRole[Role.VENDEDOR] */\n      0x00\n        /* \"Trazabilidad.sol\":7880:7893  Role.VENDEDOR */\n      0x02\n        /* \"Trazabilidad.sol\":7847:7894  mapEntrega[numCalculado].mapRole[Role.VENDEDOR] */\n      dup1\n      dup2\n      gt\n      iszero\n      tag_103\n      jumpi\n      tag_104\n      tag_94\n      jump\t// in\n    tag_104:\n    tag_103:\n      0x02\n      dup2\n      gt\n      iszero\n      tag_105\n      jumpi\n      tag_106\n      tag_94\n      jump\t// in\n    tag_106:\n    tag_105:\n      dup2\n      mstore\n      0x20\n      add\n      swap1\n      dup2\n      mstore\n      0x20\n      add\n      0x00\n      keccak256\n      0x00\n        /* \"Trazabilidad.sol\":7847:7905  mapEntrega[numCalculado].mapRole[Role.VENDEDOR] = vendedor */\n      0x0100\n      exp\n      dup2\n      sload\n      dup2\n      0xffffffffffffffffffffffffffffffffffffffff\n      mul\n      not\n      and\n      swap1\n      dup4\n      0xffffffffffffffffffffffffffffffffffffffff\n      and\n      mul\n      or\n      swap1\n      sstore\n      pop\n        /* \"Trazabilidad.sol\":7921:7997  MsgEntrada (\"Entrega creada: \" ,repartidor, cliente, msg.value, description) */\n      0xe2cca8dd1b934f26bc529408f1013db8c61c3bc945d0507390b5a6b5b29d7284\n        /* \"Trazabilidad.sol\":7953:7963  repartidor */\n      dup10\n        /* \"Trazabilidad.sol\":7965:7972  cliente */\n      dup10\n        /* \"Trazabilidad.sol\":7974:7983  msg.value */\n      callvalue\n        /* \"Trazabilidad.sol\":7985:7996  description */\n      dup9\n      dup9\n        /* \"Trazabilidad.sol\":7921:7997  MsgEntrada (\"Entrega creada: \" ,repartidor, cliente, msg.value, description) */\n      mload(0x40)\n      tag_107\n      swap6\n      swap5\n      swap4\n      swap3\n      swap2\n      swap1\n      tag_108\n      jump\t// in\n    tag_107:\n      mload(0x40)\n      dup1\n      swap2\n      sub\n      swap1\n      log1\n        /* \"Trazabilidad.sol\":3514:3515  _ */\n      pop\n      pop\n        /* \"Trazabilidad.sol\":3036:3037  _ */\n      pop\n        /* \"Trazabilidad.sol\":7051:8007  function crearEntrega(... */\n      pop\n      pop\n      pop\n      pop\n      pop\n      pop\n      jump\t// out\n        /* \"Trazabilidad.sol\":5833:6617  function vendedorRecicePago(uint _numEnt) ... */\n    tag_24:\n        /* \"Trazabilidad.sol\":5911:5918  _numEnt */\n      dup1\n        /* \"Trazabilidad.sol\":3247:3257  msg.sender */\n      caller\n        /* \"Trazabilidad.sol\":3202:3257  mapEntrega[numEnt].mapRole[Role.VENDEDOR] == msg.sender */\n      0xffffffffffffffffffffffffffffffffffffffff\n      and\n        /* \"Trazabilidad.sol\":3202:3212  mapEntrega */\n      0x02\n        /* \"Trazabilidad.sol\":3202:3220  mapEntrega[numEnt] */\n      0x00\n        /* \"Trazabilidad.sol\":3213:3219  numEnt */\n      dup4\n        /* \"Trazabilidad.sol\":3202:3220  mapEntrega[numEnt] */\n      dup2\n      mstore\n      0x20\n      add\n      swap1\n      dup2\n      mstore\n      0x20\n      add\n      0x00\n      keccak256\n        /* \"Trazabilidad.sol\":3202:3228  mapEntrega[numEnt].mapRole */\n      0x05\n      add\n        /* \"Trazabilidad.sol\":3202:3243  mapEntrega[numEnt].mapRole[Role.VENDEDOR] */\n      0x00\n        /* \"Trazabilidad.sol\":3229:3242  Role.VENDEDOR */\n      0x02\n        /* \"Trazabilidad.sol\":3202:3243  mapEntrega[numEnt].mapRole[Role.VENDEDOR] */\n      dup1\n      dup2\n      gt\n      iszero\n      tag_110\n      jumpi\n      tag_111\n      tag_94\n      jump\t// in\n    tag_111:\n    tag_110:\n      0x02\n      dup2\n      gt\n      iszero\n      tag_112\n      jumpi\n      tag_113\n      tag_94\n      jump\t// in\n    tag_113:\n    tag_112:\n      dup2\n      mstore\n      0x20\n      add\n      swap1\n      dup2\n      mstore\n      0x20\n      add\n      0x00\n      keccak256\n      0x00\n      swap1\n      sload\n      swap1\n      0x0100\n      exp\n      swap1\n      div\n      0xffffffffffffffffffffffffffffffffffffffff\n      and\n        /* \"Trazabilidad.sol\":3202:3257  mapEntrega[numEnt].mapRole[Role.VENDEDOR] == msg.sender */\n      0xffffffffffffffffffffffffffffffffffffffff\n      and\n      eq\n        /* \"Trazabilidad.sol\":3194:3293  require(mapEntrega[numEnt].mapRole[Role.VENDEDOR] == msg.sender,\"No eres el vendedor del contrato\") */\n      tag_114\n      jumpi\n      mload(0x40)\n      0x08c379a000000000000000000000000000000000000000000000000000000000\n      dup2\n      mstore\n      0x04\n      add\n      tag_115\n      swap1\n      tag_116\n      jump\t// in\n    tag_115:\n      mload(0x40)\n      dup1\n      swap2\n      sub\n      swap1\n      revert\n    tag_114:\n        /* \"Trazabilidad.sol\":5949:5950  0 */\n      0x00\n        /* \"Trazabilidad.sol\":5939:5946  _numEnt */\n      dup3\n        /* \"Trazabilidad.sol\":5939:5950  _numEnt > 0 */\n      gt\n        /* \"Trazabilidad.sol\":5939:5977  _numEnt > 0 && _numEnt <= numCalculado */\n      dup1\n      iszero\n      tag_118\n      jumpi\n      pop\n        /* \"Trazabilidad.sol\":5965:5977  numCalculado */\n      0x01\n      0x00\n      swap1\n      sload\n      swap1\n      0x0100\n      exp\n      swap1\n      div\n      0xff\n      and\n        /* \"Trazabilidad.sol\":5954:5977  _numEnt <= numCalculado */\n      0xff\n      and\n        /* \"Trazabilidad.sol\":5954:5961  _numEnt */\n      dup3\n        /* \"Trazabilidad.sol\":5954:5977  _numEnt <= numCalculado */\n      gt\n      iszero\n        /* \"Trazabilidad.sol\":5939:5977  _numEnt > 0 && _numEnt <= numCalculado */\n    tag_118:\n        /* \"Trazabilidad.sol\":5931:6016  require(_numEnt > 0 && _numEnt <= numCalculado,\"El Numero de entrega no es correcto\") */\n      tag_119\n      jumpi\n      mload(0x40)\n      0x08c379a000000000000000000000000000000000000000000000000000000000\n      dup2\n      mstore\n      0x04\n      add\n      tag_120\n      swap1\n      tag_121\n      jump\t// in\n    tag_120:\n      mload(0x40)\n      dup1\n      swap2\n      sub\n      swap1\n      revert\n    tag_119:\n        /* \"Trazabilidad.sol\":6116:6127  Status.CLOK */\n      0x02\n        /* \"Trazabilidad.sol\":6086:6127  mapEntrega[_numEnt].status == Status.CLOK */\n      0x07\n      dup2\n      gt\n      iszero\n      tag_122\n      jumpi\n      tag_123\n      tag_94\n      jump\t// in\n    tag_123:\n    tag_122:\n        /* \"Trazabilidad.sol\":6086:6096  mapEntrega */\n      0x02\n        /* \"Trazabilidad.sol\":6086:6105  mapEntrega[_numEnt] */\n      0x00\n        /* \"Trazabilidad.sol\":6097:6104  _numEnt */\n      dup5\n        /* \"Trazabilidad.sol\":6086:6105  mapEntrega[_numEnt] */\n      dup2\n      mstore\n      0x20\n      add\n      swap1\n      dup2\n      mstore\n      0x20\n      add\n      0x00\n      keccak256\n        /* \"Trazabilidad.sol\":6086:6112  mapEntrega[_numEnt].status */\n      0x04\n      add\n      0x00\n      swap1\n      sload\n      swap1\n      0x0100\n      exp\n      swap1\n      div\n      0xff\n      and\n        /* \"Trazabilidad.sol\":6086:6127  mapEntrega[_numEnt].status == Status.CLOK */\n      0x07\n      dup2\n      gt\n      iszero\n      tag_124\n      jumpi\n      tag_125\n      tag_94\n      jump\t// in\n    tag_125:\n    tag_124:\n      eq\n        /* \"Trazabilidad.sol\":6078:6168  require(mapEntrega[_numEnt].status == Status.CLOK,\"El Cliente no ha firmado la recepcion\") */\n      tag_126\n      jumpi\n      mload(0x40)\n      0x08c379a000000000000000000000000000000000000000000000000000000000\n      dup2\n      mstore\n      0x04\n      add\n      tag_127\n      swap1\n      tag_128\n      jump\t// in\n    tag_127:\n      mload(0x40)\n      dup1\n      swap2\n      sub\n      swap1\n      revert\n    tag_126:\n        /* \"Trazabilidad.sol\":6208:6224  Status.REALIZADA */\n      0x07\n        /* \"Trazabilidad.sol\":6179:6189  mapEntrega */\n      0x02\n        /* \"Trazabilidad.sol\":6179:6198  mapEntrega[_numEnt] */\n      0x00\n        /* \"Trazabilidad.sol\":6190:6197  _numEnt */\n      dup5\n        /* \"Trazabilidad.sol\":6179:6198  mapEntrega[_numEnt] */\n      dup2\n      mstore\n      0x20\n      add\n      swap1\n      dup2\n      mstore\n      0x20\n      add\n      0x00\n      keccak256\n        /* \"Trazabilidad.sol\":6179:6205  mapEntrega[_numEnt].status */\n      0x04\n      add\n      0x00\n        /* \"Trazabilidad.sol\":6179:6224  mapEntrega[_numEnt].status = Status.REALIZADA */\n      0x0100\n      exp\n      dup2\n      sload\n      dup2\n      0xff\n      mul\n      not\n      and\n      swap1\n      dup4\n      0x07\n      dup2\n      gt\n      iszero\n      tag_129\n      jumpi\n      tag_130\n      tag_94\n      jump\t// in\n    tag_130:\n    tag_129:\n      mul\n      or\n      swap1\n      sstore\n      pop\n        /* \"Trazabilidad.sol\":6267:6282  block.timestamp */\n      timestamp\n        /* \"Trazabilidad.sol\":6235:6245  mapEntrega */\n      0x02\n        /* \"Trazabilidad.sol\":6235:6254  mapEntrega[_numEnt] */\n      0x00\n        /* \"Trazabilidad.sol\":6246:6253  _numEnt */\n      dup5\n        /* \"Trazabilidad.sol\":6235:6254  mapEntrega[_numEnt] */\n      dup2\n      mstore\n      0x20\n      add\n      swap1\n      dup2\n      mstore\n      0x20\n      add\n      0x00\n      keccak256\n        /* \"Trazabilidad.sol\":6235:6264  mapEntrega[_numEnt].timestamp */\n      0x03\n      add\n        /* \"Trazabilidad.sol\":6235:6282  mapEntrega[_numEnt].timestamp = block.timestamp */\n      dup2\n      swap1\n      sstore\n      pop\n        /* \"Trazabilidad.sol\":6341:6351  mapEntrega */\n      0x02\n        /* \"Trazabilidad.sol\":6341:6360  mapEntrega[_numEnt] */\n      0x00\n        /* \"Trazabilidad.sol\":6352:6359  _numEnt */\n      dup4\n        /* \"Trazabilidad.sol\":6341:6360  mapEntrega[_numEnt] */\n      dup2\n      mstore\n      0x20\n      add\n      swap1\n      dup2\n      mstore\n      0x20\n      add\n      0x00\n      keccak256\n        /* \"Trazabilidad.sol\":6341:6368  mapEntrega[_numEnt].mapRole */\n      0x05\n      add\n        /* \"Trazabilidad.sol\":6341:6385  mapEntrega[_numEnt].mapRole[Role.REPARTIDOR] */\n      0x00\n        /* \"Trazabilidad.sol\":6369:6384  Role.REPARTIDOR */\n      0x01\n        /* \"Trazabilidad.sol\":6341:6385  mapEntrega[_numEnt].mapRole[Role.REPARTIDOR] */\n      0x02\n      dup2\n      gt\n      iszero\n      tag_131\n      jumpi\n      tag_132\n      tag_94\n      jump\t// in\n    tag_132:\n    tag_131:\n      0x02\n      dup2\n      gt\n      iszero\n      tag_133\n      jumpi\n      tag_134\n      tag_94\n      jump\t// in\n    tag_134:\n    tag_133:\n      dup2\n      mstore\n      0x20\n      add\n      swap1\n      dup2\n      mstore\n      0x20\n      add\n      0x00\n      keccak256\n      0x00\n      swap1\n      sload\n      swap1\n      0x0100\n      exp\n      swap1\n      div\n      0xffffffffffffffffffffffffffffffffffffffff\n      and\n        /* \"Trazabilidad.sol\":6333:6395  payable(mapEntrega[_numEnt].mapRole[Role.REPARTIDOR]).transfer */\n      0xffffffffffffffffffffffffffffffffffffffff\n      and\n        /* \"Trazabilidad.sol\":6333:6411  payable(mapEntrega[_numEnt].mapRole[Role.REPARTIDOR]).transfer(priceTrasporte) */\n      0x08fc\n        /* \"Trazabilidad.sol\":6396:6410  priceTrasporte */\n      sload(0x00)\n        /* \"Trazabilidad.sol\":6333:6411  payable(mapEntrega[_numEnt].mapRole[Role.REPARTIDOR]).transfer(priceTrasporte) */\n      swap1\n      dup2\n      iszero\n      mul\n      swap1\n      mload(0x40)\n      0x00\n      mload(0x40)\n      dup1\n      dup4\n      sub\n      dup2\n      dup6\n      dup9\n      dup9\n      call\n      swap4\n      pop\n      pop\n      pop\n      pop\n      iszero\n      dup1\n      iszero\n      tag_136\n      jumpi\n      returndatasize\n      0x00\n      dup1\n      returndatacopy\n      revert(0x00, returndatasize)\n    tag_136:\n      pop\n        /* \"Trazabilidad.sol\":6458:6468  mapEntrega */\n      0x02\n        /* \"Trazabilidad.sol\":6458:6477  mapEntrega[_numEnt] */\n      0x00\n        /* \"Trazabilidad.sol\":6469:6476  _numEnt */\n      dup4\n        /* \"Trazabilidad.sol\":6458:6477  mapEntrega[_numEnt] */\n      dup2\n      mstore\n      0x20\n      add\n      swap1\n      dup2\n      mstore\n      0x20\n      add\n      0x00\n      keccak256\n        /* \"Trazabilidad.sol\":6458:6485  mapEntrega[_numEnt].mapRole */\n      0x05\n      add\n        /* \"Trazabilidad.sol\":6458:6500  mapEntrega[_numEnt].mapRole[Role.VENDEDOR] */\n      0x00\n        /* \"Trazabilidad.sol\":6486:6499  Role.VENDEDOR */\n      0x02\n        /* \"Trazabilidad.sol\":6458:6500  mapEntrega[_numEnt].mapRole[Role.VENDEDOR] */\n      dup1\n      dup2\n      gt\n      iszero\n      tag_137\n      jumpi\n      tag_138\n      tag_94\n      jump\t// in\n    tag_138:\n    tag_137:\n      0x02\n      dup2\n      gt\n      iszero\n      tag_139\n      jumpi\n      tag_140\n      tag_94\n      jump\t// in\n    tag_140:\n    tag_139:\n      dup2\n      mstore\n      0x20\n      add\n      swap1\n      dup2\n      mstore\n      0x20\n      add\n      0x00\n      keccak256\n      0x00\n      swap1\n      sload\n      swap1\n      0x0100\n      exp\n      swap1\n      div\n      0xffffffffffffffffffffffffffffffffffffffff\n      and\n        /* \"Trazabilidad.sol\":6450:6510  payable(mapEntrega[_numEnt].mapRole[Role.VENDEDOR]).transfer */\n      0xffffffffffffffffffffffffffffffffffffffff\n      and\n        /* \"Trazabilidad.sol\":6450:6537  payable(mapEntrega[_numEnt].mapRole[Role.VENDEDOR]).transfer(mapEntrega[_numEnt].price) */\n      0x08fc\n        /* \"Trazabilidad.sol\":6511:6521  mapEntrega */\n      0x02\n        /* \"Trazabilidad.sol\":6511:6530  mapEntrega[_numEnt] */\n      0x00\n        /* \"Trazabilidad.sol\":6522:6529  _numEnt */\n      dup6\n        /* \"Trazabilidad.sol\":6511:6530  mapEntrega[_numEnt] */\n      dup2\n      mstore\n      0x20\n      add\n      swap1\n      dup2\n      mstore\n      0x20\n      add\n      0x00\n      keccak256\n        /* \"Trazabilidad.sol\":6511:6536  mapEntrega[_numEnt].price */\n      0x02\n      add\n      sload\n        /* \"Trazabilidad.sol\":6450:6537  payable(mapEntrega[_numEnt].mapRole[Role.VENDEDOR]).transfer(mapEntrega[_numEnt].price) */\n      swap1\n      dup2\n      iszero\n      mul\n      swap1\n      mload(0x40)\n      0x00\n      mload(0x40)\n      dup1\n      dup4\n      sub\n      dup2\n      dup6\n      dup9\n      dup9\n      call\n      swap4\n      pop\n      pop\n      pop\n      pop\n      iszero\n      dup1\n      iszero\n      tag_142\n      jumpi\n      returndatasize\n      0x00\n      dup1\n      returndatacopy\n      revert(0x00, returndatasize)\n    tag_142:\n      pop\n        /* \"Trazabilidad.sol\":6553:6609  Msg(\"El vendedor recoje el pago y se paga el trasporte\") */\n      0xf24055cc366c1d53b75688e6ba6eb419d022fb5f4956c5d66a6ef54adbf3270a\n      mload(0x40)\n      tag_143\n      swap1\n      tag_144\n      jump\t// in\n    tag_143:\n      mload(0x40)\n      dup1\n      swap2\n      sub\n      swap1\n      log1\n        /* \"Trazabilidad.sol\":5833:6617  function vendedorRecicePago(uint _numEnt) ... */\n      pop\n      pop\n      jump\t// out\n        /* \"Trazabilidad.sol\":10042:10902  function viewEntregaStatus(uint numEnt) public view isOwner returns(string memory){... */\n    tag_28:\n        /* \"Trazabilidad.sol\":10110:10123  string memory */\n      0x60\n        /* \"Trazabilidad.sol\":2988:2993  owner */\n      0x03\n      0x00\n      swap1\n      sload\n      swap1\n      0x0100\n      exp\n      swap1\n      div\n      0xffffffffffffffffffffffffffffffffffffffff\n      and\n        /* \"Trazabilidad.sol\":2974:2993  msg.sender == owner */\n      0xffffffffffffffffffffffffffffffffffffffff\n      and\n        /* \"Trazabilidad.sol\":2974:2984  msg.sender */\n      caller\n        /* \"Trazabilidad.sol\":2974:2993  msg.sender == owner */\n      0xffffffffffffffffffffffffffffffffffffffff\n      and\n      eq\n        /* \"Trazabilidad.sol\":2966:3025  require(msg.sender == owner,\"No eres creador del contrato\") */\n      tag_146\n      jumpi\n      mload(0x40)\n      0x08c379a000000000000000000000000000000000000000000000000000000000\n      dup2\n      mstore\n      0x04\n      add\n      tag_147\n      swap1\n      tag_74\n      jump\t// in\n    tag_147:\n      mload(0x40)\n      dup1\n      swap2\n      sub\n      swap1\n      revert\n    tag_146:\n        /* \"Trazabilidad.sol\":10152:10153  0 */\n      0x00\n        /* \"Trazabilidad.sol\":10143:10149  numEnt */\n      dup3\n        /* \"Trazabilidad.sol\":10143:10153  numEnt > 0 */\n      gt\n        /* \"Trazabilidad.sol\":10143:10179  numEnt > 0 && numEnt <= numCalculado */\n      dup1\n      iszero\n      tag_149\n      jumpi\n      pop\n        /* \"Trazabilidad.sol\":10167:10179  numCalculado */\n      0x01\n      0x00\n      swap1\n      sload\n      swap1\n      0x0100\n      exp\n      swap1\n      div\n      0xff\n      and\n        /* \"Trazabilidad.sol\":10157:10179  numEnt <= numCalculado */\n      0xff\n      and\n        /* \"Trazabilidad.sol\":10157:10163  numEnt */\n      dup3\n        /* \"Trazabilidad.sol\":10157:10179  numEnt <= numCalculado */\n      gt\n      iszero\n        /* \"Trazabilidad.sol\":10143:10179  numEnt > 0 && numEnt <= numCalculado */\n    tag_149:\n        /* \"Trazabilidad.sol\":10135:10218  require(numEnt > 0 && numEnt <= numCalculado,\"El Numero de entrega no es correcto\") */\n      tag_150\n      jumpi\n      mload(0x40)\n      0x08c379a000000000000000000000000000000000000000000000000000000000\n      dup2\n      mstore\n      0x04\n      add\n      tag_151\n      swap1\n      tag_121\n      jump\t// in\n    tag_151:\n      mload(0x40)\n      dup1\n      swap2\n      sub\n      swap1\n      revert\n    tag_150:\n        /* \"Trazabilidad.sol\":10262:10277  Status.ACCEPTED */\n      0x00\n        /* \"Trazabilidad.sol\":10233:10277  mapEntrega[numEnt].status == Status.ACCEPTED */\n      0x07\n      dup2\n      gt\n      iszero\n      tag_152\n      jumpi\n      tag_153\n      tag_94\n      jump\t// in\n    tag_153:\n    tag_152:\n        /* \"Trazabilidad.sol\":10233:10243  mapEntrega */\n      0x02\n        /* \"Trazabilidad.sol\":10233:10251  mapEntrega[numEnt] */\n      0x00\n        /* \"Trazabilidad.sol\":10244:10250  numEnt */\n      dup5\n        /* \"Trazabilidad.sol\":10233:10251  mapEntrega[numEnt] */\n      dup2\n      mstore\n      0x20\n      add\n      swap1\n      dup2\n      mstore\n      0x20\n      add\n      0x00\n      keccak256\n        /* \"Trazabilidad.sol\":10233:10258  mapEntrega[numEnt].status */\n      0x04\n      add\n      0x00\n      swap1\n      sload\n      swap1\n      0x0100\n      exp\n      swap1\n      div\n      0xff\n      and\n        /* \"Trazabilidad.sol\":10233:10277  mapEntrega[numEnt].status == Status.ACCEPTED */\n      0x07\n      dup2\n      gt\n      iszero\n      tag_154\n      jumpi\n      tag_155\n      tag_94\n      jump\t// in\n    tag_155:\n    tag_154:\n      sub\n        /* \"Trazabilidad.sol\":10229:10895  if (mapEntrega[numEnt].status == Status.ACCEPTED){... */\n      tag_156\n      jumpi\n        /* \"Trazabilidad.sol\":10300:10308  ACCEPTED */\n      0x06\n        /* \"Trazabilidad.sol\":10293:10308  return ACCEPTED */\n      dup1\n      sload\n      tag_157\n      swap1\n      tag_158\n      jump\t// in\n    tag_157:\n      dup1\n      0x1f\n      add\n      0x20\n      dup1\n      swap2\n      div\n      mul\n      0x20\n      add\n      mload(0x40)\n      swap1\n      dup2\n      add\n      0x40\n      mstore\n      dup1\n      swap3\n      swap2\n      swap1\n      dup2\n      dup2\n      mstore\n      0x20\n      add\n      dup3\n      dup1\n      sload\n      tag_159\n      swap1\n      tag_158\n      jump\t// in\n    tag_159:\n      dup1\n      iszero\n      tag_160\n      jumpi\n      dup1\n      0x1f\n      lt\n      tag_161\n      jumpi\n      0x0100\n      dup1\n      dup4\n      sload\n      div\n      mul\n      dup4\n      mstore\n      swap2\n      0x20\n      add\n      swap2\n      jump(tag_160)\n    tag_161:\n      dup3\n      add\n      swap2\n      swap1\n      0x00\n      mstore\n      keccak256(0x00, 0x20)\n      swap1\n    tag_162:\n      dup2\n      sload\n      dup2\n      mstore\n      swap1\n      0x01\n      add\n      swap1\n      0x20\n      add\n      dup1\n      dup4\n      gt\n      tag_162\n      jumpi\n      dup3\n      swap1\n      sub\n      0x1f\n      and\n      dup3\n      add\n      swap2\n    tag_160:\n      pop\n      pop\n      pop\n      pop\n      pop\n      swap1\n      pop\n      jump(tag_148)\n        /* \"Trazabilidad.sol\":10229:10895  if (mapEntrega[numEnt].status == Status.ACCEPTED){... */\n    tag_156:\n        /* \"Trazabilidad.sol\":10357:10369  Status.READY */\n      0x01\n        /* \"Trazabilidad.sol\":10328:10369  mapEntrega[numEnt].status == Status.READY */\n      0x07\n      dup2\n      gt\n      iszero\n      tag_164\n      jumpi\n      tag_165\n      tag_94\n      jump\t// in\n    tag_165:\n    tag_164:\n        /* \"Trazabilidad.sol\":10328:10338  mapEntrega */\n      0x02\n        /* \"Trazabilidad.sol\":10328:10346  mapEntrega[numEnt] */\n      0x00\n        /* \"Trazabilidad.sol\":10339:10345  numEnt */\n      dup5\n        /* \"Trazabilidad.sol\":10328:10346  mapEntrega[numEnt] */\n      dup2\n      mstore\n      0x20\n      add\n      swap1\n      dup2\n      mstore\n      0x20\n      add\n      0x00\n      keccak256\n        /* \"Trazabilidad.sol\":10328:10353  mapEntrega[numEnt].status */\n      0x04\n      add\n      0x00\n      swap1\n      sload\n      swap1\n      0x0100\n      exp\n      swap1\n      div\n      0xff\n      and\n        /* \"Trazabilidad.sol\":10328:10369  mapEntrega[numEnt].status == Status.READY */\n      0x07\n      dup2\n      gt\n      iszero\n      tag_166\n      jumpi\n      tag_167\n      tag_94\n      jump\t// in\n    tag_167:\n    tag_166:\n      sub\n        /* \"Trazabilidad.sol\":10325:10895  if(mapEntrega[numEnt].status == Status.READY){... */\n      tag_168\n      jumpi\n        /* \"Trazabilidad.sol\":10392:10397  READY */\n      0x07\n        /* \"Trazabilidad.sol\":10385:10397  return READY */\n      dup1\n      sload\n      tag_169\n      swap1\n      tag_158\n      jump\t// in\n    tag_169:\n      dup1\n      0x1f\n      add\n      0x20\n      dup1\n      swap2\n      div\n      mul\n      0x20\n      add\n      mload(0x40)\n      swap1\n      dup2\n      add\n      0x40\n      mstore\n      dup1\n      swap3\n      swap2\n      swap1\n      dup2\n      dup2\n      mstore\n      0x20\n      add\n      dup3\n      dup1\n      sload\n      tag_170\n      swap1\n      tag_158\n      jump\t// in\n    tag_170:\n      dup1\n      iszero\n      tag_171\n      jumpi\n      dup1\n      0x1f\n      lt\n      tag_172\n      jumpi\n      0x0100\n      dup1\n      dup4\n      sload\n      div\n      mul\n      dup4\n      mstore\n      swap2\n      0x20\n      add\n      swap2\n      jump(tag_171)\n    tag_172:\n      dup3\n      add\n      swap2\n      swap1\n      0x00\n      mstore\n      keccak256(0x00, 0x20)\n      swap1\n    tag_173:\n      dup2\n      sload\n      dup2\n      mstore\n      swap1\n      0x01\n      add\n      swap1\n      0x20\n      add\n      dup1\n      dup4\n      gt\n      tag_173\n      jumpi\n      dup3\n      swap1\n      sub\n      0x1f\n      and\n      dup3\n      add\n      swap2\n    tag_171:\n      pop\n      pop\n      pop\n      pop\n      pop\n      swap1\n      pop\n      jump(tag_148)\n        /* \"Trazabilidad.sol\":10325:10895  if(mapEntrega[numEnt].status == Status.READY){... */\n    tag_168:\n        /* \"Trazabilidad.sol\":10446:10457  Status.CLOK */\n      0x02\n        /* \"Trazabilidad.sol\":10417:10457  mapEntrega[numEnt].status == Status.CLOK */\n      0x07\n      dup2\n      gt\n      iszero\n      tag_175\n      jumpi\n      tag_176\n      tag_94\n      jump\t// in\n    tag_176:\n    tag_175:\n        /* \"Trazabilidad.sol\":10417:10427  mapEntrega */\n      0x02\n        /* \"Trazabilidad.sol\":10417:10435  mapEntrega[numEnt] */\n      0x00\n        /* \"Trazabilidad.sol\":10428:10434  numEnt */\n      dup5\n        /* \"Trazabilidad.sol\":10417:10435  mapEntrega[numEnt] */\n      dup2\n      mstore\n      0x20\n      add\n      swap1\n      dup2\n      mstore\n      0x20\n      add\n      0x00\n      keccak256\n        /* \"Trazabilidad.sol\":10417:10442  mapEntrega[numEnt].status */\n      0x04\n      add\n      0x00\n      swap1\n      sload\n      swap1\n      0x0100\n      exp\n      swap1\n      div\n      0xff\n      and\n        /* \"Trazabilidad.sol\":10417:10457  mapEntrega[numEnt].status == Status.CLOK */\n      0x07\n      dup2\n      gt\n      iszero\n      tag_177\n      jumpi\n      tag_178\n      tag_94\n      jump\t// in\n    tag_178:\n    tag_177:\n      sub\n        /* \"Trazabilidad.sol\":10414:10895  if(mapEntrega[numEnt].status == Status.CLOK){... */\n      tag_179\n      jumpi\n        /* \"Trazabilidad.sol\":10480:10484  CLOK */\n      0x08\n        /* \"Trazabilidad.sol\":10473:10484  return CLOK */\n      dup1\n      sload\n      tag_180\n      swap1\n      tag_158\n      jump\t// in\n    tag_180:\n      dup1\n      0x1f\n      add\n      0x20\n      dup1\n      swap2\n      div\n      mul\n      0x20\n      add\n      mload(0x40)\n      swap1\n      dup2\n      add\n      0x40\n      mstore\n      dup1\n      swap3\n      swap2\n      swap1\n      dup2\n      dup2\n      mstore\n      0x20\n      add\n      dup3\n      dup1\n      sload\n      tag_181\n      swap1\n      tag_158\n      jump\t// in\n    tag_181:\n      dup1\n      iszero\n      tag_182\n      jumpi\n      dup1\n      0x1f\n      lt\n      tag_183\n      jumpi\n      0x0100\n      dup1\n      dup4\n      sload\n      div\n      mul\n      dup4\n      mstore\n      swap2\n      0x20\n      add\n      swap2\n      jump(tag_182)\n    tag_183:\n      dup3\n      add\n      swap2\n      swap1\n      0x00\n      mstore\n      keccak256(0x00, 0x20)\n      swap1\n    tag_184:\n      dup2\n      sload\n      dup2\n      mstore\n      swap1\n      0x01\n      add\n      swap1\n      0x20\n      add\n      dup1\n      dup4\n      gt\n      tag_184\n      jumpi\n      dup3\n      swap1\n      sub\n      0x1f\n      and\n      dup3\n      add\n      swap2\n    tag_182:\n      pop\n      pop\n      pop\n      pop\n      pop\n      swap1\n      pop\n      jump(tag_148)\n        /* \"Trazabilidad.sol\":10414:10895  if(mapEntrega[numEnt].status == Status.CLOK){... */\n    tag_179:\n        /* \"Trazabilidad.sol\":10533:10544  Status.RPOK */\n      0x03\n        /* \"Trazabilidad.sol\":10504:10544  mapEntrega[numEnt].status == Status.RPOK */\n      0x07\n      dup2\n      gt\n      iszero\n      tag_186\n      jumpi\n      tag_187\n      tag_94\n      jump\t// in\n    tag_187:\n    tag_186:\n        /* \"Trazabilidad.sol\":10504:10514  mapEntrega */\n      0x02\n        /* \"Trazabilidad.sol\":10504:10522  mapEntrega[numEnt] */\n      0x00\n        /* \"Trazabilidad.sol\":10515:10521  numEnt */\n      dup5\n        /* \"Trazabilidad.sol\":10504:10522  mapEntrega[numEnt] */\n      dup2\n      mstore\n      0x20\n      add\n      swap1\n      dup2\n      mstore\n      0x20\n      add\n      0x00\n      keccak256\n        /* \"Trazabilidad.sol\":10504:10529  mapEntrega[numEnt].status */\n      0x04\n      add\n      0x00\n      swap1\n      sload\n      swap1\n      0x0100\n      exp\n      swap1\n      div\n      0xff\n      and\n        /* \"Trazabilidad.sol\":10504:10544  mapEntrega[numEnt].status == Status.RPOK */\n      0x07\n      dup2\n      gt\n      iszero\n      tag_188\n      jumpi\n      tag_189\n      tag_94\n      jump\t// in\n    tag_189:\n    tag_188:\n      sub\n        /* \"Trazabilidad.sol\":10501:10895  if(mapEntrega[numEnt].status == Status.RPOK){... */\n      tag_190\n      jumpi\n        /* \"Trazabilidad.sol\":10567:10571  RPOK */\n      0x09\n        /* \"Trazabilidad.sol\":10560:10571  return RPOK */\n      dup1\n      sload\n      tag_191\n      swap1\n      tag_158\n      jump\t// in\n    tag_191:\n      dup1\n      0x1f\n      add\n      0x20\n      dup1\n      swap2\n      div\n      mul\n      0x20\n      add\n      mload(0x40)\n      swap1\n      dup2\n      add\n      0x40\n      mstore\n      dup1\n      swap3\n      swap2\n      swap1\n      dup2\n      dup2\n      mstore\n      0x20\n      add\n      dup3\n      dup1\n      sload\n      tag_192\n      swap1\n      tag_158\n      jump\t// in\n    tag_192:\n      dup1\n      iszero\n      tag_193\n      jumpi\n      dup1\n      0x1f\n      lt\n      tag_194\n      jumpi\n      0x0100\n      dup1\n      dup4\n      sload\n      div\n      mul\n      dup4\n      mstore\n      swap2\n      0x20\n      add\n      swap2\n      jump(tag_193)\n    tag_194:\n      dup3\n      add\n      swap2\n      swap1\n      0x00\n      mstore\n      keccak256(0x00, 0x20)\n      swap1\n    tag_195:\n      dup2\n      sload\n      dup2\n      mstore\n      swap1\n      0x01\n      add\n      swap1\n      0x20\n      add\n      dup1\n      dup4\n      gt\n      tag_195\n      jumpi\n      dup3\n      swap1\n      sub\n      0x1f\n      and\n      dup3\n      add\n      swap2\n    tag_193:\n      pop\n      pop\n      pop\n      pop\n      pop\n      swap1\n      pop\n      jump(tag_148)\n        /* \"Trazabilidad.sol\":10501:10895  if(mapEntrega[numEnt].status == Status.RPOK){... */\n    tag_190:\n        /* \"Trazabilidad.sol\":10620:10631  Status.CLKO */\n      0x04\n        /* \"Trazabilidad.sol\":10591:10631  mapEntrega[numEnt].status == Status.CLKO */\n      0x07\n      dup2\n      gt\n      iszero\n      tag_197\n      jumpi\n      tag_198\n      tag_94\n      jump\t// in\n    tag_198:\n    tag_197:\n        /* \"Trazabilidad.sol\":10591:10601  mapEntrega */\n      0x02\n        /* \"Trazabilidad.sol\":10591:10609  mapEntrega[numEnt] */\n      0x00\n        /* \"Trazabilidad.sol\":10602:10608  numEnt */\n      dup5\n        /* \"Trazabilidad.sol\":10591:10609  mapEntrega[numEnt] */\n      dup2\n      mstore\n      0x20\n      add\n      swap1\n      dup2\n      mstore\n      0x20\n      add\n      0x00\n      keccak256\n        /* \"Trazabilidad.sol\":10591:10616  mapEntrega[numEnt].status */\n      0x04\n      add\n      0x00\n      swap1\n      sload\n      swap1\n      0x0100\n      exp\n      swap1\n      div\n      0xff\n      and\n        /* \"Trazabilidad.sol\":10591:10631  mapEntrega[numEnt].status == Status.CLKO */\n      0x07\n      dup2\n      gt\n      iszero\n      tag_199\n      jumpi\n      tag_200\n      tag_94\n      jump\t// in\n    tag_200:\n    tag_199:\n      sub\n        /* \"Trazabilidad.sol\":10588:10895  if(mapEntrega[numEnt].status == Status.CLKO){... */\n      tag_201\n      jumpi\n        /* \"Trazabilidad.sol\":10654:10658  CLKO */\n      0x0a\n        /* \"Trazabilidad.sol\":10647:10658  return CLKO */\n      dup1\n      sload\n      tag_202\n      swap1\n      tag_158\n      jump\t// in\n    tag_202:\n      dup1\n      0x1f\n      add\n      0x20\n      dup1\n      swap2\n      div\n      mul\n      0x20\n      add\n      mload(0x40)\n      swap1\n      dup2\n      add\n      0x40\n      mstore\n      dup1\n      swap3\n      swap2\n      swap1\n      dup2\n      dup2\n      mstore\n      0x20\n      add\n      dup3\n      dup1\n      sload\n      tag_203\n      swap1\n      tag_158\n      jump\t// in\n    tag_203:\n      dup1\n      iszero\n      tag_204\n      jumpi\n      dup1\n      0x1f\n      lt\n      tag_205\n      jumpi\n      0x0100\n      dup1\n      dup4\n      sload\n      div\n      mul\n      dup4\n      mstore\n      swap2\n      0x20\n      add\n      swap2\n      jump(tag_204)\n    tag_205:\n      dup3\n      add\n      swap2\n      swap1\n      0x00\n      mstore\n      keccak256(0x00, 0x20)\n      swap1\n    tag_206:\n      dup2\n      sload\n      dup2\n      mstore\n      swap1\n      0x01\n      add\n      swap1\n      0x20\n      add\n      dup1\n      dup4\n      gt\n      tag_206\n      jumpi\n      dup3\n      swap1\n      sub\n      0x1f\n      and\n      dup3\n      add\n      swap2\n    tag_204:\n      pop\n      pop\n      pop\n      pop\n      pop\n      swap1\n      pop\n      jump(tag_148)\n        /* \"Trazabilidad.sol\":10588:10895  if(mapEntrega[numEnt].status == Status.CLKO){... */\n    tag_201:\n        /* \"Trazabilidad.sol\":10707:10718  Status.RPKO */\n      0x05\n        /* \"Trazabilidad.sol\":10678:10718  mapEntrega[numEnt].status == Status.RPKO */\n      0x07\n      dup2\n      gt\n      iszero\n      tag_208\n      jumpi\n      tag_209\n      tag_94\n      jump\t// in\n    tag_209:\n    tag_208:\n        /* \"Trazabilidad.sol\":10678:10688  mapEntrega */\n      0x02\n        /* \"Trazabilidad.sol\":10678:10696  mapEntrega[numEnt] */\n      0x00\n        /* \"Trazabilidad.sol\":10689:10695  numEnt */\n      dup5\n        /* \"Trazabilidad.sol\":10678:10696  mapEntrega[numEnt] */\n      dup2\n      mstore\n      0x20\n      add\n      swap1\n      dup2\n      mstore\n      0x20\n      add\n      0x00\n      keccak256\n        /* \"Trazabilidad.sol\":10678:10703  mapEntrega[numEnt].status */\n      0x04\n      add\n      0x00\n      swap1\n      sload\n      swap1\n      0x0100\n      exp\n      swap1\n      div\n      0xff\n      and\n        /* \"Trazabilidad.sol\":10678:10718  mapEntrega[numEnt].status == Status.RPKO */\n      0x07\n      dup2\n      gt\n      iszero\n      tag_210\n      jumpi\n      tag_211\n      tag_94\n      jump\t// in\n    tag_211:\n    tag_210:\n      sub\n        /* \"Trazabilidad.sol\":10675:10895  if(mapEntrega[numEnt].status == Status.RPKO){... */\n      tag_212\n      jumpi\n        /* \"Trazabilidad.sol\":10741:10745  RPKO */\n      0x0b\n        /* \"Trazabilidad.sol\":10734:10745  return RPKO */\n      dup1\n      sload\n      tag_213\n      swap1\n      tag_158\n      jump\t// in\n    tag_213:\n      dup1\n      0x1f\n      add\n      0x20\n      dup1\n      swap2\n      div\n      mul\n      0x20\n      add\n      mload(0x40)\n      swap1\n      dup2\n      add\n      0x40\n      mstore\n      dup1\n      swap3\n      swap2\n      swap1\n      dup2\n      dup2\n      mstore\n      0x20\n      add\n      dup3\n      dup1\n      sload\n      tag_214\n      swap1\n      tag_158\n      jump\t// in\n    tag_214:\n      dup1\n      iszero\n      tag_215\n      jumpi\n      dup1\n      0x1f\n      lt\n      tag_216\n      jumpi\n      0x0100\n      dup1\n      dup4\n      sload\n      div\n      mul\n      dup4\n      mstore\n      swap2\n      0x20\n      add\n      swap2\n      jump(tag_215)\n    tag_216:\n      dup3\n      add\n      swap2\n      swap1\n      0x00\n      mstore\n      keccak256(0x00, 0x20)\n      swap1\n    tag_217:\n      dup2\n      sload\n      dup2\n      mstore\n      swap1\n      0x01\n      add\n      swap1\n      0x20\n      add\n      dup1\n      dup4\n      gt\n      tag_217\n      jumpi\n      dup3\n      swap1\n      sub\n      0x1f\n      and\n      dup3\n      add\n      swap2\n    tag_215:\n      pop\n      pop\n      pop\n      pop\n      pop\n      swap1\n      pop\n      jump(tag_148)\n        /* \"Trazabilidad.sol\":10675:10895  if(mapEntrega[numEnt].status == Status.RPKO){... */\n    tag_212:\n        /* \"Trazabilidad.sol\":10794:10807  Status.CANCEL */\n      0x06\n        /* \"Trazabilidad.sol\":10765:10807  mapEntrega[numEnt].status == Status.CANCEL */\n      0x07\n      dup2\n      gt\n      iszero\n      tag_219\n      jumpi\n      tag_220\n      tag_94\n      jump\t// in\n    tag_220:\n    tag_219:\n        /* \"Trazabilidad.sol\":10765:10775  mapEntrega */\n      0x02\n        /* \"Trazabilidad.sol\":10765:10783  mapEntrega[numEnt] */\n      0x00\n        /* \"Trazabilidad.sol\":10776:10782  numEnt */\n      dup5\n        /* \"Trazabilidad.sol\":10765:10783  mapEntrega[numEnt] */\n      dup2\n      mstore\n      0x20\n      add\n      swap1\n      dup2\n      mstore\n      0x20\n      add\n      0x00\n      keccak256\n        /* \"Trazabilidad.sol\":10765:10790  mapEntrega[numEnt].status */\n      0x04\n      add\n      0x00\n      swap1\n      sload\n      swap1\n      0x0100\n      exp\n      swap1\n      div\n      0xff\n      and\n        /* \"Trazabilidad.sol\":10765:10807  mapEntrega[numEnt].status == Status.CANCEL */\n      0x07\n      dup2\n      gt\n      iszero\n      tag_221\n      jumpi\n      tag_222\n      tag_94\n      jump\t// in\n    tag_222:\n    tag_221:\n      sub\n        /* \"Trazabilidad.sol\":10762:10895  if(mapEntrega[numEnt].status == Status.CANCEL){... */\n      tag_223\n      jumpi\n        /* \"Trazabilidad.sol\":10830:10836  CANCEL */\n      0x0c\n        /* \"Trazabilidad.sol\":10823:10836  return CANCEL */\n      dup1\n      sload\n      tag_224\n      swap1\n      tag_158\n      jump\t// in\n    tag_224:\n      dup1\n      0x1f\n      add\n      0x20\n      dup1\n      swap2\n      div\n      mul\n      0x20\n      add\n      mload(0x40)\n      swap1\n      dup2\n      add\n      0x40\n      mstore\n      dup1\n      swap3\n      swap2\n      swap1\n      dup2\n      dup2\n      mstore\n      0x20\n      add\n      dup3\n      dup1\n      sload\n      tag_225\n      swap1\n      tag_158\n      jump\t// in\n    tag_225:\n      dup1\n      iszero\n      tag_226\n      jumpi\n      dup1\n      0x1f\n      lt\n      tag_227\n      jumpi\n      0x0100\n      dup1\n      dup4\n      sload\n      div\n      mul\n      dup4\n      mstore\n      swap2\n      0x20\n      add\n      swap2\n      jump(tag_226)\n    tag_227:\n      dup3\n      add\n      swap2\n      swap1\n      0x00\n      mstore\n      keccak256(0x00, 0x20)\n      swap1\n    tag_228:\n      dup2\n      sload\n      dup2\n      mstore\n      swap1\n      0x01\n      add\n      swap1\n      0x20\n      add\n      dup1\n      dup4\n      gt\n      tag_228\n      jumpi\n      dup3\n      swap1\n      sub\n      0x1f\n      and\n      dup3\n      add\n      swap2\n    tag_226:\n      pop\n      pop\n      pop\n      pop\n      pop\n      swap1\n      pop\n      jump(tag_148)\n        /* \"Trazabilidad.sol\":10762:10895  if(mapEntrega[numEnt].status == Status.CANCEL){... */\n    tag_223:\n        /* \"Trazabilidad.sol\":10874:10883  REALIZADA */\n      0x0d\n        /* \"Trazabilidad.sol\":10867:10883  return REALIZADA */\n      dup1\n      sload\n      tag_230\n      swap1\n      tag_158\n      jump\t// in\n    tag_230:\n      dup1\n      0x1f\n      add\n      0x20\n      dup1\n      swap2\n      div\n      mul\n      0x20\n      add\n      mload(0x40)\n      swap1\n      dup2\n      add\n      0x40\n      mstore\n      dup1\n      swap3\n      swap2\n      swap1\n      dup2\n      dup2\n      mstore\n      0x20\n      add\n      dup3\n      dup1\n      sload\n      tag_231\n      swap1\n      tag_158\n      jump\t// in\n    tag_231:\n      dup1\n      iszero\n      tag_232\n      jumpi\n      dup1\n      0x1f\n      lt\n      tag_233\n      jumpi\n      0x0100\n      dup1\n      dup4\n      sload\n      div\n      mul\n      dup4\n      mstore\n      swap2\n      0x20\n      add\n      swap2\n      jump(tag_232)\n    tag_233:\n      dup3\n      add\n      swap2\n      swap1\n      0x00\n      mstore\n      keccak256(0x00, 0x20)\n      swap1\n    tag_234:\n      dup2\n      sload\n      dup2\n      mstore\n      swap1\n      0x01\n      add\n      swap1\n      0x20\n      add\n      dup1\n      dup4\n      gt\n      tag_234\n      jumpi\n      dup3\n      swap1\n      sub\n      0x1f\n      and\n      dup3\n      add\n      swap2\n    tag_232:\n      pop\n      pop\n      pop\n      pop\n      pop\n      swap1\n      pop\n        /* \"Trazabilidad.sol\":3036:3037  _ */\n    tag_148:\n        /* \"Trazabilidad.sol\":10042:10902  function viewEntregaStatus(uint numEnt) public view isOwner returns(string memory){... */\n      swap2\n      swap1\n      pop\n      jump\t// out\n        /* \"Trazabilidad.sol\":9119:9648  function viewEntrega(uint numEnt) public isOwner() {... */\n    tag_34:\n        /* \"Trazabilidad.sol\":2988:2993  owner */\n      0x03\n      0x00\n      swap1\n      sload\n      swap1\n      0x0100\n      exp\n      swap1\n      div\n      0xffffffffffffffffffffffffffffffffffffffff\n      and\n        /* \"Trazabilidad.sol\":2974:2993  msg.sender == owner */\n      0xffffffffffffffffffffffffffffffffffffffff\n      and\n        /* \"Trazabilidad.sol\":2974:2984  msg.sender */\n      caller\n        /* \"Trazabilidad.sol\":2974:2993  msg.sender == owner */\n      0xffffffffffffffffffffffffffffffffffffffff\n      and\n      eq\n        /* \"Trazabilidad.sol\":2966:3025  require(msg.sender == owner,\"No eres creador del contrato\") */\n      tag_236\n      jumpi\n      mload(0x40)\n      0x08c379a000000000000000000000000000000000000000000000000000000000\n      dup2\n      mstore\n      0x04\n      add\n      tag_237\n      swap1\n      tag_74\n      jump\t// in\n    tag_237:\n      mload(0x40)\n      dup1\n      swap2\n      sub\n      swap1\n      revert\n    tag_236:\n        /* \"Trazabilidad.sol\":9198:9199  0 */\n      0x00\n        /* \"Trazabilidad.sol\":9189:9195  numEnt */\n      dup2\n        /* \"Trazabilidad.sol\":9189:9199  numEnt > 0 */\n      gt\n        /* \"Trazabilidad.sol\":9189:9225  numEnt > 0 && numEnt <= numCalculado */\n      dup1\n      iszero\n      tag_239\n      jumpi\n      pop\n        /* \"Trazabilidad.sol\":9213:9225  numCalculado */\n      0x01\n      0x00\n      swap1\n      sload\n      swap1\n      0x0100\n      exp\n      swap1\n      div\n      0xff\n      and\n        /* \"Trazabilidad.sol\":9203:9225  numEnt <= numCalculado */\n      0xff\n      and\n        /* \"Trazabilidad.sol\":9203:9209  numEnt */\n      dup2\n        /* \"Trazabilidad.sol\":9203:9225  numEnt <= numCalculado */\n      gt\n      iszero\n        /* \"Trazabilidad.sol\":9189:9225  numEnt > 0 && numEnt <= numCalculado */\n    tag_239:\n        /* \"Trazabilidad.sol\":9181:9264  require(numEnt > 0 && numEnt <= numCalculado,\"El Numero de entrega no es correcto\") */\n      tag_240\n      jumpi\n      mload(0x40)\n      0x08c379a000000000000000000000000000000000000000000000000000000000\n      dup2\n      mstore\n      0x04\n      add\n      tag_241\n      swap1\n      tag_121\n      jump\t// in\n    tag_241:\n      mload(0x40)\n      dup1\n      swap2\n      sub\n      swap1\n      revert\n    tag_240:\n        /* \"Trazabilidad.sol\":9280:9639  MsgEntradaXNumEnt (... */\n      0x6da4b27b55b238e744da4718a971dc37927628f29a571ea47fc99133719050c6\n        /* \"Trazabilidad.sol\":9313:9323  mapEntrega */\n      0x02\n        /* \"Trazabilidad.sol\":9313:9331  mapEntrega[numEnt] */\n      0x00\n        /* \"Trazabilidad.sol\":9324:9330  numEnt */\n      dup4\n        /* \"Trazabilidad.sol\":9313:9331  mapEntrega[numEnt] */\n      dup2\n      mstore\n      0x20\n      add\n      swap1\n      dup2\n      mstore\n      0x20\n      add\n      0x00\n      keccak256\n        /* \"Trazabilidad.sol\":9313:9342  mapEntrega[numEnt].numEntrega */\n      0x00\n      add\n      0x00\n      swap1\n      sload\n      swap1\n      0x0100\n      exp\n      swap1\n      div\n      0xff\n      and\n        /* \"Trazabilidad.sol\":9358:9368  mapEntrega */\n      0x02\n        /* \"Trazabilidad.sol\":9358:9376  mapEntrega[numEnt] */\n      0x00\n        /* \"Trazabilidad.sol\":9369:9375  numEnt */\n      dup5\n        /* \"Trazabilidad.sol\":9358:9376  mapEntrega[numEnt] */\n      dup2\n      mstore\n      0x20\n      add\n      swap1\n      dup2\n      mstore\n      0x20\n      add\n      0x00\n      keccak256\n        /* \"Trazabilidad.sol\":9358:9388  mapEntrega[numEnt].description */\n      0x01\n      add\n        /* \"Trazabilidad.sol\":9403:9413  mapEntrega */\n      0x02\n        /* \"Trazabilidad.sol\":9403:9421  mapEntrega[numEnt] */\n      0x00\n        /* \"Trazabilidad.sol\":9414:9420  numEnt */\n      dup6\n        /* \"Trazabilidad.sol\":9403:9421  mapEntrega[numEnt] */\n      dup2\n      mstore\n      0x20\n      add\n      swap1\n      dup2\n      mstore\n      0x20\n      add\n      0x00\n      keccak256\n        /* \"Trazabilidad.sol\":9403:9427  mapEntrega[numEnt].price */\n      0x02\n      add\n      sload\n        /* \"Trazabilidad.sol\":9442:9467  viewEntregaStatus(numEnt) */\n      tag_242\n        /* \"Trazabilidad.sol\":9460:9466  numEnt */\n      dup6\n        /* \"Trazabilidad.sol\":9442:9459  viewEntregaStatus */\n      tag_28\n        /* \"Trazabilidad.sol\":9442:9467  viewEntregaStatus(numEnt) */\n      jump\t// in\n    tag_242:\n        /* \"Trazabilidad.sol\":9483:9493  mapEntrega */\n      0x02\n        /* \"Trazabilidad.sol\":9483:9501  mapEntrega[numEnt] */\n      0x00\n        /* \"Trazabilidad.sol\":9494:9500  numEnt */\n      dup8\n        /* \"Trazabilidad.sol\":9483:9501  mapEntrega[numEnt] */\n      dup2\n      mstore\n      0x20\n      add\n      swap1\n      dup2\n      mstore\n      0x20\n      add\n      0x00\n      keccak256\n        /* \"Trazabilidad.sol\":9483:9509  mapEntrega[numEnt].mapRole */\n      0x05\n      add\n        /* \"Trazabilidad.sol\":9483:9523  mapEntrega[numEnt].mapRole[Role.CLIENTE] */\n      0x00\n        /* \"Trazabilidad.sol\":9510:9522  Role.CLIENTE */\n      dup1\n        /* \"Trazabilidad.sol\":9483:9523  mapEntrega[numEnt].mapRole[Role.CLIENTE] */\n      0x02\n      dup2\n      gt\n      iszero\n      tag_243\n      jumpi\n      tag_244\n      tag_94\n      jump\t// in\n    tag_244:\n    tag_243:\n      0x02\n      dup2\n      gt\n      iszero\n      tag_245\n      jumpi\n      tag_246\n      tag_94\n      jump\t// in\n    tag_246:\n    tag_245:\n      dup2\n      mstore\n      0x20\n      add\n      swap1\n      dup2\n      mstore\n      0x20\n      add\n      0x00\n      keccak256\n      0x00\n      swap1\n      sload\n      swap1\n      0x0100\n      exp\n      swap1\n      div\n      0xffffffffffffffffffffffffffffffffffffffff\n      and\n        /* \"Trazabilidad.sol\":9539:9549  mapEntrega */\n      0x02\n        /* \"Trazabilidad.sol\":9539:9557  mapEntrega[numEnt] */\n      0x00\n        /* \"Trazabilidad.sol\":9550:9556  numEnt */\n      dup9\n        /* \"Trazabilidad.sol\":9539:9557  mapEntrega[numEnt] */\n      dup2\n      mstore\n      0x20\n      add\n      swap1\n      dup2\n      mstore\n      0x20\n      add\n      0x00\n      keccak256\n        /* \"Trazabilidad.sol\":9539:9565  mapEntrega[numEnt].mapRole */\n      0x05\n      add\n        /* \"Trazabilidad.sol\":9539:9582  mapEntrega[numEnt].mapRole[Role.REPARTIDOR] */\n      0x00\n        /* \"Trazabilidad.sol\":9566:9581  Role.REPARTIDOR */\n      0x01\n        /* \"Trazabilidad.sol\":9539:9582  mapEntrega[numEnt].mapRole[Role.REPARTIDOR] */\n      0x02\n      dup2\n      gt\n      iszero\n      tag_247\n      jumpi\n      tag_248\n      tag_94\n      jump\t// in\n    tag_248:\n    tag_247:\n      0x02\n      dup2\n      gt\n      iszero\n      tag_249\n      jumpi\n      tag_250\n      tag_94\n      jump\t// in\n    tag_250:\n    tag_249:\n      dup2\n      mstore\n      0x20\n      add\n      swap1\n      dup2\n      mstore\n      0x20\n      add\n      0x00\n      keccak256\n      0x00\n      swap1\n      sload\n      swap1\n      0x0100\n      exp\n      swap1\n      div\n      0xffffffffffffffffffffffffffffffffffffffff\n      and\n        /* \"Trazabilidad.sol\":9597:9607  mapEntrega */\n      0x02\n        /* \"Trazabilidad.sol\":9597:9615  mapEntrega[numEnt] */\n      0x00\n        /* \"Trazabilidad.sol\":9608:9614  numEnt */\n      dup10\n        /* \"Trazabilidad.sol\":9597:9615  mapEntrega[numEnt] */\n      dup2\n      mstore\n      0x20\n      add\n      swap1\n      dup2\n      mstore\n      0x20\n      add\n      0x00\n      keccak256\n        /* \"Trazabilidad.sol\":9597:9623  mapEntrega[numEnt].mapRole */\n      0x05\n      add\n        /* \"Trazabilidad.sol\":9597:9638  mapEntrega[numEnt].mapRole[Role.VENDEDOR] */\n      0x00\n        /* \"Trazabilidad.sol\":9624:9637  Role.VENDEDOR */\n      0x02\n        /* \"Trazabilidad.sol\":9597:9638  mapEntrega[numEnt].mapRole[Role.VENDEDOR] */\n      dup1\n      dup2\n      gt\n      iszero\n      tag_251\n      jumpi\n      tag_252\n      tag_94\n      jump\t// in\n    tag_252:\n    tag_251:\n      0x02\n      dup2\n      gt\n      iszero\n      tag_253\n      jumpi\n      tag_254\n      tag_94\n      jump\t// in\n    tag_254:\n    tag_253:\n      dup2\n      mstore\n      0x20\n      add\n      swap1\n      dup2\n      mstore\n      0x20\n      add\n      0x00\n      keccak256\n      0x00\n      swap1\n      sload\n      swap1\n      0x0100\n      exp\n      swap1\n      div\n      0xffffffffffffffffffffffffffffffffffffffff\n      and\n        /* \"Trazabilidad.sol\":9280:9639  MsgEntradaXNumEnt (... */\n      mload(0x40)\n      tag_255\n      swap8\n      swap7\n      swap6\n      swap5\n      swap4\n      swap3\n      swap2\n      swap1\n      tag_256\n      jump\t// in\n    tag_255:\n      mload(0x40)\n      dup1\n      swap2\n      sub\n      swap1\n      log1\n        /* \"Trazabilidad.sol\":9119:9648  function viewEntrega(uint numEnt) public isOwner() {... */\n      pop\n      jump\t// out\n        /* \"Trazabilidad.sol\":8827:9023  function panico() public isOwner(){... */\n    tag_37:\n        /* \"Trazabilidad.sol\":2988:2993  owner */\n      0x03\n      0x00\n      swap1\n      sload\n      swap1\n      0x0100\n      exp\n      swap1\n      div\n      0xffffffffffffffffffffffffffffffffffffffff\n      and\n        /* \"Trazabilidad.sol\":2974:2993  msg.sender == owner */\n      0xffffffffffffffffffffffffffffffffffffffff\n      and\n        /* \"Trazabilidad.sol\":2974:2984  msg.sender */\n      caller\n        /* \"Trazabilidad.sol\":2974:2993  msg.sender == owner */\n      0xffffffffffffffffffffffffffffffffffffffff\n      and\n      eq\n        /* \"Trazabilidad.sol\":2966:3025  require(msg.sender == owner,\"No eres creador del contrato\") */\n      tag_258\n      jumpi\n      mload(0x40)\n      0x08c379a000000000000000000000000000000000000000000000000000000000\n      dup2\n      mstore\n      0x04\n      add\n      tag_259\n      swap1\n      tag_74\n      jump\t// in\n    tag_259:\n      mload(0x40)\n      dup1\n      swap2\n      sub\n      swap1\n      revert\n    tag_258:\n        /* \"Trazabilidad.sol\":8882:8887  owner */\n      0x03\n      0x00\n      swap1\n      sload\n      swap1\n      0x0100\n      exp\n      swap1\n      div\n      0xffffffffffffffffffffffffffffffffffffffff\n      and\n        /* \"Trazabilidad.sol\":8882:8896  owner.transfer */\n      0xffffffffffffffffffffffffffffffffffffffff\n      and\n        /* \"Trazabilidad.sol\":8882:8919  owner.transfer(address(this).balance) */\n      0x08fc\n        /* \"Trazabilidad.sol\":8897:8918  address(this).balance */\n      selfbalance\n        /* \"Trazabilidad.sol\":8882:8919  owner.transfer(address(this).balance) */\n      swap1\n      dup2\n      iszero\n      mul\n      swap1\n      mload(0x40)\n      0x00\n      mload(0x40)\n      dup1\n      dup4\n      sub\n      dup2\n      dup6\n      dup9\n      dup9\n      call\n      swap4\n      pop\n      pop\n      pop\n      pop\n      iszero\n      dup1\n      iszero\n      tag_262\n      jumpi\n      returndatasize\n      0x00\n      dup1\n      returndatacopy\n      revert(0x00, returndatasize)\n    tag_262:\n      pop\n        /* \"Trazabilidad.sol\":8935:9015  Msg(\"Funcion de panico Realizada se devuelven los fondos del Contrato al owner\") */\n      0xf24055cc366c1d53b75688e6ba6eb419d022fb5f4956c5d66a6ef54adbf3270a\n      mload(0x40)\n      tag_263\n      swap1\n      tag_264\n      jump\t// in\n    tag_263:\n      mload(0x40)\n      dup1\n      swap2\n      sub\n      swap1\n      log1\n        /* \"Trazabilidad.sol\":8827:9023  function panico() public isOwner(){... */\n      jump\t// out\n        /* \"Trazabilidad.sol\":8102:8723  function canceladaEntrada(uint numEnt) payable public isOwner(){... */\n    tag_40:\n        /* \"Trazabilidad.sol\":2988:2993  owner */\n      0x03\n      0x00\n      swap1\n      sload\n      swap1\n      0x0100\n      exp\n      swap1\n      div\n      0xffffffffffffffffffffffffffffffffffffffff\n      and\n        /* \"Trazabilidad.sol\":2974:2993  msg.sender == owner */\n      0xffffffffffffffffffffffffffffffffffffffff\n      and\n        /* \"Trazabilidad.sol\":2974:2984  msg.sender */\n      caller\n        /* \"Trazabilidad.sol\":2974:2993  msg.sender == owner */\n      0xffffffffffffffffffffffffffffffffffffffff\n      and\n      eq\n        /* \"Trazabilidad.sol\":2966:3025  require(msg.sender == owner,\"No eres creador del contrato\") */\n      tag_266\n      jumpi\n      mload(0x40)\n      0x08c379a000000000000000000000000000000000000000000000000000000000\n      dup2\n      mstore\n      0x04\n      add\n      tag_267\n      swap1\n      tag_74\n      jump\t// in\n    tag_267:\n      mload(0x40)\n      dup1\n      swap2\n      sub\n      swap1\n      revert\n    tag_266:\n        /* \"Trazabilidad.sol\":8193:8194  0 */\n      0x00\n        /* \"Trazabilidad.sol\":8184:8190  numEnt */\n      dup2\n        /* \"Trazabilidad.sol\":8184:8194  numEnt > 0 */\n      gt\n        /* \"Trazabilidad.sol\":8184:8220  numEnt > 0 && numEnt <= numCalculado */\n      dup1\n      iszero\n      tag_269\n      jumpi\n      pop\n        /* \"Trazabilidad.sol\":8208:8220  numCalculado */\n      0x01\n      0x00\n      swap1\n      sload\n      swap1\n      0x0100\n      exp\n      swap1\n      div\n      0xff\n      and\n        /* \"Trazabilidad.sol\":8198:8220  numEnt <= numCalculado */\n      0xff\n      and\n        /* \"Trazabilidad.sol\":8198:8204  numEnt */\n      dup2\n        /* \"Trazabilidad.sol\":8198:8220  numEnt <= numCalculado */\n      gt\n      iszero\n        /* \"Trazabilidad.sol\":8184:8220  numEnt > 0 && numEnt <= numCalculado */\n    tag_269:\n        /* \"Trazabilidad.sol\":8176:8259  require(numEnt > 0 && numEnt <= numCalculado,\"El Numero de entrega no es correcto\") */\n      tag_270\n      jumpi\n      mload(0x40)\n      0x08c379a000000000000000000000000000000000000000000000000000000000\n      dup2\n      mstore\n      0x04\n      add\n      tag_271\n      swap1\n      tag_121\n      jump\t// in\n    tag_271:\n      mload(0x40)\n      dup1\n      swap2\n      sub\n      swap1\n      revert\n    tag_270:\n        /* \"Trazabilidad.sol\":8307:8322  Status.ACCEPTED */\n      0x00\n        /* \"Trazabilidad.sol\":8278:8322  mapEntrega[numEnt].status == Status.ACCEPTED */\n      0x07\n      dup2\n      gt\n      iszero\n      tag_272\n      jumpi\n      tag_273\n      tag_94\n      jump\t// in\n    tag_273:\n    tag_272:\n        /* \"Trazabilidad.sol\":8278:8288  mapEntrega */\n      0x02\n        /* \"Trazabilidad.sol\":8278:8296  mapEntrega[numEnt] */\n      0x00\n        /* \"Trazabilidad.sol\":8289:8295  numEnt */\n      dup4\n        /* \"Trazabilidad.sol\":8278:8296  mapEntrega[numEnt] */\n      dup2\n      mstore\n      0x20\n      add\n      swap1\n      dup2\n      mstore\n      0x20\n      add\n      0x00\n      keccak256\n        /* \"Trazabilidad.sol\":8278:8303  mapEntrega[numEnt].status */\n      0x04\n      add\n      0x00\n      swap1\n      sload\n      swap1\n      0x0100\n      exp\n      swap1\n      div\n      0xff\n      and\n        /* \"Trazabilidad.sol\":8278:8322  mapEntrega[numEnt].status == Status.ACCEPTED */\n      0x07\n      dup2\n      gt\n      iszero\n      tag_274\n      jumpi\n      tag_275\n      tag_94\n      jump\t// in\n    tag_275:\n    tag_274:\n      eq\n        /* \"Trazabilidad.sol\":8270:8385  require(mapEntrega[numEnt].status == Status.ACCEPTED, \"El estado no es el adecuado para poder Cancelar la entrega\") */\n      tag_276\n      jumpi\n      mload(0x40)\n      0x08c379a000000000000000000000000000000000000000000000000000000000\n      dup2\n      mstore\n      0x04\n      add\n      tag_277\n      swap1\n      tag_278\n      jump\t// in\n    tag_277:\n      mload(0x40)\n      dup1\n      swap2\n      sub\n      swap1\n      revert\n    tag_276:\n        /* \"Trazabilidad.sol\":8424:8437  Status.CANCEL */\n      0x06\n        /* \"Trazabilidad.sol\":8396:8406  mapEntrega */\n      0x02\n        /* \"Trazabilidad.sol\":8396:8414  mapEntrega[numEnt] */\n      0x00\n        /* \"Trazabilidad.sol\":8407:8413  numEnt */\n      dup4\n        /* \"Trazabilidad.sol\":8396:8414  mapEntrega[numEnt] */\n      dup2\n      mstore\n      0x20\n      add\n      swap1\n      dup2\n      mstore\n      0x20\n      add\n      0x00\n      keccak256\n        /* \"Trazabilidad.sol\":8396:8421  mapEntrega[numEnt].status */\n      0x04\n      add\n      0x00\n        /* \"Trazabilidad.sol\":8396:8437  mapEntrega[numEnt].status = Status.CANCEL */\n      0x0100\n      exp\n      dup2\n      sload\n      dup2\n      0xff\n      mul\n      not\n      and\n      swap1\n      dup4\n      0x07\n      dup2\n      gt\n      iszero\n      tag_279\n      jumpi\n      tag_280\n      tag_94\n      jump\t// in\n    tag_280:\n    tag_279:\n      mul\n      or\n      swap1\n      sstore\n      pop\n        /* \"Trazabilidad.sol\":8479:8494  block.timestamp */\n      timestamp\n        /* \"Trazabilidad.sol\":8448:8458  mapEntrega */\n      0x02\n        /* \"Trazabilidad.sol\":8448:8466  mapEntrega[numEnt] */\n      0x00\n        /* \"Trazabilidad.sol\":8459:8465  numEnt */\n      dup4\n        /* \"Trazabilidad.sol\":8448:8466  mapEntrega[numEnt] */\n      dup2\n      mstore\n      0x20\n      add\n      swap1\n      dup2\n      mstore\n      0x20\n      add\n      0x00\n      keccak256\n        /* \"Trazabilidad.sol\":8448:8476  mapEntrega[numEnt].timestamp */\n      0x03\n      add\n        /* \"Trazabilidad.sol\":8448:8494  mapEntrega[numEnt].timestamp = block.timestamp */\n      dup2\n      swap1\n      sstore\n      pop\n        /* \"Trazabilidad.sol\":8510:8715  MsgEntrada (\"Entrega Cancelada\",... */\n      0xe2cca8dd1b934f26bc529408f1013db8c61c3bc945d0507390b5a6b5b29d7284\n        /* \"Trazabilidad.sol\":8552:8562  mapEntrega */\n      0x02\n        /* \"Trazabilidad.sol\":8552:8570  mapEntrega[numEnt] */\n      0x00\n        /* \"Trazabilidad.sol\":8563:8569  numEnt */\n      dup4\n        /* \"Trazabilidad.sol\":8552:8570  mapEntrega[numEnt] */\n      dup2\n      mstore\n      0x20\n      add\n      swap1\n      dup2\n      mstore\n      0x20\n      add\n      0x00\n      keccak256\n        /* \"Trazabilidad.sol\":8552:8578  mapEntrega[numEnt].mapRole */\n      0x05\n      add\n        /* \"Trazabilidad.sol\":8552:8595  mapEntrega[numEnt].mapRole[Role.REPARTIDOR] */\n      0x00\n        /* \"Trazabilidad.sol\":8579:8594  Role.REPARTIDOR */\n      0x01\n        /* \"Trazabilidad.sol\":8552:8595  mapEntrega[numEnt].mapRole[Role.REPARTIDOR] */\n      0x02\n      dup2\n      gt\n      iszero\n      tag_281\n      jumpi\n      tag_282\n      tag_94\n      jump\t// in\n    tag_282:\n    tag_281:\n      0x02\n      dup2\n      gt\n      iszero\n      tag_283\n      jumpi\n      tag_284\n      tag_94\n      jump\t// in\n    tag_284:\n    tag_283:\n      dup2\n      mstore\n      0x20\n      add\n      swap1\n      dup2\n      mstore\n      0x20\n      add\n      0x00\n      keccak256\n      0x00\n      swap1\n      sload\n      swap1\n      0x0100\n      exp\n      swap1\n      div\n      0xffffffffffffffffffffffffffffffffffffffff\n      and\n        /* \"Trazabilidad.sol\":8606:8616  mapEntrega */\n      0x02\n        /* \"Trazabilidad.sol\":8606:8624  mapEntrega[numEnt] */\n      0x00\n        /* \"Trazabilidad.sol\":8617:8623  numEnt */\n      dup5\n        /* \"Trazabilidad.sol\":8606:8624  mapEntrega[numEnt] */\n      dup2\n      mstore\n      0x20\n      add\n      swap1\n      dup2\n      mstore\n      0x20\n      add\n      0x00\n      keccak256\n        /* \"Trazabilidad.sol\":8606:8632  mapEntrega[numEnt].mapRole */\n      0x05\n      add\n        /* \"Trazabilidad.sol\":8606:8646  mapEntrega[numEnt].mapRole[Role.CLIENTE] */\n      0x00\n        /* \"Trazabilidad.sol\":8633:8645  Role.CLIENTE */\n      dup1\n        /* \"Trazabilidad.sol\":8606:8646  mapEntrega[numEnt].mapRole[Role.CLIENTE] */\n      0x02\n      dup2\n      gt\n      iszero\n      tag_285\n      jumpi\n      tag_286\n      tag_94\n      jump\t// in\n    tag_286:\n    tag_285:\n      0x02\n      dup2\n      gt\n      iszero\n      tag_287\n      jumpi\n      tag_288\n      tag_94\n      jump\t// in\n    tag_288:\n    tag_287:\n      dup2\n      mstore\n      0x20\n      add\n      swap1\n      dup2\n      mstore\n      0x20\n      add\n      0x00\n      keccak256\n      0x00\n      swap1\n      sload\n      swap1\n      0x0100\n      exp\n      swap1\n      div\n      0xffffffffffffffffffffffffffffffffffffffff\n      and\n        /* \"Trazabilidad.sol\":8658:8668  mapEntrega */\n      0x02\n        /* \"Trazabilidad.sol\":8658:8676  mapEntrega[numEnt] */\n      0x00\n        /* \"Trazabilidad.sol\":8669:8675  numEnt */\n      dup6\n        /* \"Trazabilidad.sol\":8658:8676  mapEntrega[numEnt] */\n      dup2\n      mstore\n      0x20\n      add\n      swap1\n      dup2\n      mstore\n      0x20\n      add\n      0x00\n      keccak256\n        /* \"Trazabilidad.sol\":8658:8682  mapEntrega[numEnt].price */\n      0x02\n      add\n      sload\n        /* \"Trazabilidad.sol\":8684:8694  mapEntrega */\n      0x02\n        /* \"Trazabilidad.sol\":8684:8702  mapEntrega[numEnt] */\n      0x00\n        /* \"Trazabilidad.sol\":8695:8701  numEnt */\n      dup7\n        /* \"Trazabilidad.sol\":8684:8702  mapEntrega[numEnt] */\n      dup2\n      mstore\n      0x20\n      add\n      swap1\n      dup2\n      mstore\n      0x20\n      add\n      0x00\n      keccak256\n        /* \"Trazabilidad.sol\":8684:8714  mapEntrega[numEnt].description */\n      0x01\n      add\n        /* \"Trazabilidad.sol\":8510:8715  MsgEntrada (\"Entrega Cancelada\",... */\n      mload(0x40)\n      tag_289\n      swap5\n      swap4\n      swap3\n      swap2\n      swap1\n      tag_290\n      jump\t// in\n    tag_289:\n      mload(0x40)\n      dup1\n      swap2\n      sub\n      swap1\n      log1\n        /* \"Trazabilidad.sol\":8102:8723  function canceladaEntrada(uint numEnt) payable public isOwner(){... */\n      pop\n      jump\t// out\n        /* \"Trazabilidad.sol\":844:872  address payable public owner */\n    tag_43:\n      0x03\n      0x00\n      swap1\n      sload\n      swap1\n      0x0100\n      exp\n      swap1\n      div\n      0xffffffffffffffffffffffffffffffffffffffff\n      and\n      dup2\n      jump\t// out\n        /* \"Trazabilidad.sol\":3741:4209  function repartidorFirmaSalida(uint numEnt) public isRepartidor(numEnt) {... */\n    tag_49:\n        /* \"Trazabilidad.sol\":3805:3811  numEnt */\n      dup1\n        /* \"Trazabilidad.sol\":2453:2463  msg.sender */\n      caller\n        /* \"Trazabilidad.sol\":2406:2463  mapEntrega[numEnt].mapRole[Role.REPARTIDOR] == msg.sender */\n      0xffffffffffffffffffffffffffffffffffffffff\n      and\n        /* \"Trazabilidad.sol\":2406:2416  mapEntrega */\n      0x02\n        /* \"Trazabilidad.sol\":2406:2424  mapEntrega[numEnt] */\n      0x00\n        /* \"Trazabilidad.sol\":2417:2423  numEnt */\n      dup4\n        /* \"Trazabilidad.sol\":2406:2424  mapEntrega[numEnt] */\n      dup2\n      mstore\n      0x20\n      add\n      swap1\n      dup2\n      mstore\n      0x20\n      add\n      0x00\n      keccak256\n        /* \"Trazabilidad.sol\":2406:2432  mapEntrega[numEnt].mapRole */\n      0x05\n      add\n        /* \"Trazabilidad.sol\":2406:2449  mapEntrega[numEnt].mapRole[Role.REPARTIDOR] */\n      0x00\n        /* \"Trazabilidad.sol\":2433:2448  Role.REPARTIDOR */\n      0x01\n        /* \"Trazabilidad.sol\":2406:2449  mapEntrega[numEnt].mapRole[Role.REPARTIDOR] */\n      0x02\n      dup2\n      gt\n      iszero\n      tag_292\n      jumpi\n      tag_293\n      tag_94\n      jump\t// in\n    tag_293:\n    tag_292:\n      0x02\n      dup2\n      gt\n      iszero\n      tag_294\n      jumpi\n      tag_295\n      tag_94\n      jump\t// in\n    tag_295:\n    tag_294:\n      dup2\n      mstore\n      0x20\n      add\n      swap1\n      dup2\n      mstore\n      0x20\n      add\n      0x00\n      keccak256\n      0x00\n      swap1\n      sload\n      swap1\n      0x0100\n      exp\n      swap1\n      div\n      0xffffffffffffffffffffffffffffffffffffffff\n      and\n        /* \"Trazabilidad.sol\":2406:2463  mapEntrega[numEnt].mapRole[Role.REPARTIDOR] == msg.sender */\n      0xffffffffffffffffffffffffffffffffffffffff\n      and\n      eq\n        /* \"Trazabilidad.sol\":2398:2523  require(mapEntrega[numEnt].mapRole[Role.REPARTIDOR] == msg.sender ,\"No tienes rol de repartidor o no estas signado como tal\") */\n      tag_296\n      jumpi\n      mload(0x40)\n      0x08c379a000000000000000000000000000000000000000000000000000000000\n      dup2\n      mstore\n      0x04\n      add\n      tag_297\n      swap1\n      tag_298\n      jump\t// in\n    tag_297:\n      mload(0x40)\n      dup1\n      swap2\n      sub\n      swap1\n      revert\n    tag_296:\n        /* \"Trazabilidad.sol\":3841:3842  0 */\n      0x00\n        /* \"Trazabilidad.sol\":3832:3838  numEnt */\n      dup3\n        /* \"Trazabilidad.sol\":3832:3842  numEnt > 0 */\n      gt\n        /* \"Trazabilidad.sol\":3832:3868  numEnt > 0 && numEnt <= numCalculado */\n      dup1\n      iszero\n      tag_300\n      jumpi\n      pop\n        /* \"Trazabilidad.sol\":3856:3868  numCalculado */\n      0x01\n      0x00\n      swap1\n      sload\n      swap1\n      0x0100\n      exp\n      swap1\n      div\n      0xff\n      and\n        /* \"Trazabilidad.sol\":3846:3868  numEnt <= numCalculado */\n      0xff\n      and\n        /* \"Trazabilidad.sol\":3846:3852  numEnt */\n      dup3\n        /* \"Trazabilidad.sol\":3846:3868  numEnt <= numCalculado */\n      gt\n      iszero\n        /* \"Trazabilidad.sol\":3832:3868  numEnt > 0 && numEnt <= numCalculado */\n    tag_300:\n        /* \"Trazabilidad.sol\":3824:3907  require(numEnt > 0 && numEnt <= numCalculado,\"El Numero de entrega no es correcto\") */\n      tag_301\n      jumpi\n      mload(0x40)\n      0x08c379a000000000000000000000000000000000000000000000000000000000\n      dup2\n      mstore\n      0x04\n      add\n      tag_302\n      swap1\n      tag_121\n      jump\t// in\n    tag_302:\n      mload(0x40)\n      dup1\n      swap2\n      sub\n      swap1\n      revert\n    tag_301:\n        /* \"Trazabilidad.sol\":3955:3970  Status.ACCEPTED */\n      0x00\n        /* \"Trazabilidad.sol\":3926:3970  mapEntrega[numEnt].status == Status.ACCEPTED */\n      0x07\n      dup2\n      gt\n      iszero\n      tag_303\n      jumpi\n      tag_304\n      tag_94\n      jump\t// in\n    tag_304:\n    tag_303:\n        /* \"Trazabilidad.sol\":3926:3936  mapEntrega */\n      0x02\n        /* \"Trazabilidad.sol\":3926:3944  mapEntrega[numEnt] */\n      0x00\n        /* \"Trazabilidad.sol\":3937:3943  numEnt */\n      dup5\n        /* \"Trazabilidad.sol\":3926:3944  mapEntrega[numEnt] */\n      dup2\n      mstore\n      0x20\n      add\n      swap1\n      dup2\n      mstore\n      0x20\n      add\n      0x00\n      keccak256\n        /* \"Trazabilidad.sol\":3926:3951  mapEntrega[numEnt].status */\n      0x04\n      add\n      0x00\n      swap1\n      sload\n      swap1\n      0x0100\n      exp\n      swap1\n      div\n      0xff\n      and\n        /* \"Trazabilidad.sol\":3926:3970  mapEntrega[numEnt].status == Status.ACCEPTED */\n      0x07\n      dup2\n      gt\n      iszero\n      tag_305\n      jumpi\n      tag_306\n      tag_94\n      jump\t// in\n    tag_306:\n    tag_305:\n      eq\n        /* \"Trazabilidad.sol\":3918:4024  require(mapEntrega[numEnt].status == Status.ACCEPTED,\"EL estado de la Entraga tiene que estar a ACCEPTED\") */\n      tag_307\n      jumpi\n      mload(0x40)\n      0x08c379a000000000000000000000000000000000000000000000000000000000\n      dup2\n      mstore\n      0x04\n      add\n      tag_308\n      swap1\n      tag_309\n      jump\t// in\n    tag_308:\n      mload(0x40)\n      dup1\n      swap2\n      sub\n      swap1\n      revert\n    tag_307:\n        /* \"Trazabilidad.sol\":4063:4075  Status.READY */\n      0x01\n        /* \"Trazabilidad.sol\":4035:4045  mapEntrega */\n      0x02\n        /* \"Trazabilidad.sol\":4035:4053  mapEntrega[numEnt] */\n      0x00\n        /* \"Trazabilidad.sol\":4046:4052  numEnt */\n      dup5\n        /* \"Trazabilidad.sol\":4035:4053  mapEntrega[numEnt] */\n      dup2\n      mstore\n      0x20\n      add\n      swap1\n      dup2\n      mstore\n      0x20\n      add\n      0x00\n      keccak256\n        /* \"Trazabilidad.sol\":4035:4060  mapEntrega[numEnt].status */\n      0x04\n      add\n      0x00\n        /* \"Trazabilidad.sol\":4035:4075  mapEntrega[numEnt].status = Status.READY */\n      0x0100\n      exp\n      dup2\n      sload\n      dup2\n      0xff\n      mul\n      not\n      and\n      swap1\n      dup4\n      0x07\n      dup2\n      gt\n      iszero\n      tag_310\n      jumpi\n      tag_311\n      tag_94\n      jump\t// in\n    tag_311:\n    tag_310:\n      mul\n      or\n      swap1\n      sstore\n      pop\n        /* \"Trazabilidad.sol\":4117:4132  block.timestamp */\n      timestamp\n        /* \"Trazabilidad.sol\":4086:4096  mapEntrega */\n      0x02\n        /* \"Trazabilidad.sol\":4086:4104  mapEntrega[numEnt] */\n      0x00\n        /* \"Trazabilidad.sol\":4097:4103  numEnt */\n      dup5\n        /* \"Trazabilidad.sol\":4086:4104  mapEntrega[numEnt] */\n      dup2\n      mstore\n      0x20\n      add\n      swap1\n      dup2\n      mstore\n      0x20\n      add\n      0x00\n      keccak256\n        /* \"Trazabilidad.sol\":4086:4114  mapEntrega[numEnt].timestamp */\n      0x03\n      add\n        /* \"Trazabilidad.sol\":4086:4132  mapEntrega[numEnt].timestamp = block.timestamp */\n      dup2\n      swap1\n      sstore\n      pop\n        /* \"Trazabilidad.sol\":4148:4191  Msg(\"La entrega a salido hacia su destino\") */\n      0xf24055cc366c1d53b75688e6ba6eb419d022fb5f4956c5d66a6ef54adbf3270a\n      mload(0x40)\n      tag_312\n      swap1\n      tag_313\n      jump\t// in\n    tag_312:\n      mload(0x40)\n      dup1\n      swap2\n      sub\n      swap1\n      log1\n        /* \"Trazabilidad.sol\":3741:4209  function repartidorFirmaSalida(uint numEnt) public isRepartidor(numEnt) {... */\n      pop\n      pop\n      jump\t// out\n        /* \"Trazabilidad.sol\":4960:5708  function clienteFirmaRecepcion(uint numEnt) payable public isCliente(numEnt) {... */\n    tag_52:\n        /* \"Trazabilidad.sol\":5029:5035  numEnt */\n      dup1\n        /* \"Trazabilidad.sol\":2744:2754  msg.sender */\n      caller\n        /* \"Trazabilidad.sol\":2700:2754  mapEntrega[numEnt].mapRole[Role.CLIENTE] == msg.sender */\n      0xffffffffffffffffffffffffffffffffffffffff\n      and\n        /* \"Trazabilidad.sol\":2700:2710  mapEntrega */\n      0x02\n        /* \"Trazabilidad.sol\":2700:2718  mapEntrega[numEnt] */\n      0x00\n        /* \"Trazabilidad.sol\":2711:2717  numEnt */\n      dup4\n        /* \"Trazabilidad.sol\":2700:2718  mapEntrega[numEnt] */\n      dup2\n      mstore\n      0x20\n      add\n      swap1\n      dup2\n      mstore\n      0x20\n      add\n      0x00\n      keccak256\n        /* \"Trazabilidad.sol\":2700:2726  mapEntrega[numEnt].mapRole */\n      0x05\n      add\n        /* \"Trazabilidad.sol\":2700:2740  mapEntrega[numEnt].mapRole[Role.CLIENTE] */\n      0x00\n        /* \"Trazabilidad.sol\":2727:2739  Role.CLIENTE */\n      dup1\n        /* \"Trazabilidad.sol\":2700:2740  mapEntrega[numEnt].mapRole[Role.CLIENTE] */\n      0x02\n      dup2\n      gt\n      iszero\n      tag_315\n      jumpi\n      tag_316\n      tag_94\n      jump\t// in\n    tag_316:\n    tag_315:\n      0x02\n      dup2\n      gt\n      iszero\n      tag_317\n      jumpi\n      tag_318\n      tag_94\n      jump\t// in\n    tag_318:\n    tag_317:\n      dup2\n      mstore\n      0x20\n      add\n      swap1\n      dup2\n      mstore\n      0x20\n      add\n      0x00\n      keccak256\n      0x00\n      swap1\n      sload\n      swap1\n      0x0100\n      exp\n      swap1\n      div\n      0xffffffffffffffffffffffffffffffffffffffff\n      and\n        /* \"Trazabilidad.sol\":2700:2754  mapEntrega[numEnt].mapRole[Role.CLIENTE] == msg.sender */\n      0xffffffffffffffffffffffffffffffffffffffff\n      and\n      eq\n        /* \"Trazabilidad.sol\":2692:2817  require(mapEntrega[numEnt].mapRole[Role.CLIENTE] == msg.sender ,\"No eres cliente de la entrega o no estas asignado como tal\") */\n      tag_319\n      jumpi\n      mload(0x40)\n      0x08c379a000000000000000000000000000000000000000000000000000000000\n      dup2\n      mstore\n      0x04\n      add\n      tag_320\n      swap1\n      tag_321\n      jump\t// in\n    tag_320:\n      mload(0x40)\n      dup1\n      swap2\n      sub\n      swap1\n      revert\n    tag_319:\n        /* \"Trazabilidad.sol\":5065:5066  0 */\n      0x00\n        /* \"Trazabilidad.sol\":5056:5062  numEnt */\n      dup3\n        /* \"Trazabilidad.sol\":5056:5066  numEnt > 0 */\n      gt\n        /* \"Trazabilidad.sol\":5056:5092  numEnt > 0 && numEnt <= numCalculado */\n      dup1\n      iszero\n      tag_323\n      jumpi\n      pop\n        /* \"Trazabilidad.sol\":5080:5092  numCalculado */\n      0x01\n      0x00\n      swap1\n      sload\n      swap1\n      0x0100\n      exp\n      swap1\n      div\n      0xff\n      and\n        /* \"Trazabilidad.sol\":5070:5092  numEnt <= numCalculado */\n      0xff\n      and\n        /* \"Trazabilidad.sol\":5070:5076  numEnt */\n      dup3\n        /* \"Trazabilidad.sol\":5070:5092  numEnt <= numCalculado */\n      gt\n      iszero\n        /* \"Trazabilidad.sol\":5056:5092  numEnt > 0 && numEnt <= numCalculado */\n    tag_323:\n        /* \"Trazabilidad.sol\":5048:5131  require(numEnt > 0 && numEnt <= numCalculado,\"El Numero de entrega no es correcto\") */\n      tag_324\n      jumpi\n      mload(0x40)\n      0x08c379a000000000000000000000000000000000000000000000000000000000\n      dup2\n      mstore\n      0x04\n      add\n      tag_325\n      swap1\n      tag_121\n      jump\t// in\n    tag_325:\n      mload(0x40)\n      dup1\n      swap2\n      sub\n      swap1\n      revert\n    tag_324:\n        /* \"Trazabilidad.sol\":5158:5168  mapEntrega */\n      0x02\n        /* \"Trazabilidad.sol\":5158:5176  mapEntrega[numEnt] */\n      0x00\n        /* \"Trazabilidad.sol\":5169:5175  numEnt */\n      dup4\n        /* \"Trazabilidad.sol\":5158:5176  mapEntrega[numEnt] */\n      dup2\n      mstore\n      0x20\n      add\n      swap1\n      dup2\n      mstore\n      0x20\n      add\n      0x00\n      keccak256\n        /* \"Trazabilidad.sol\":5158:5182  mapEntrega[numEnt].price */\n      0x02\n      add\n      sload\n        /* \"Trazabilidad.sol\":5145:5154  msg.value */\n      callvalue\n        /* \"Trazabilidad.sol\":5145:5182  msg.value != mapEntrega[numEnt].price */\n      eq\n        /* \"Trazabilidad.sol\":5142:5700  if(msg.value != mapEntrega[numEnt].price){... */\n      tag_326\n      jumpi\n        /* \"Trazabilidad.sol\":5203:5335  MsgPrecio (\"No tienes suficientes fondos para comprar el producto, o el valor es distinto tiene que ser: \",mapEntrega[numEnt].price) */\n      0x1ae5bb67fa8e729e5064fbc2aa51ecd2f5002f6f627c47c1c75b4e74680f99c9\n        /* \"Trazabilidad.sol\":5310:5320  mapEntrega */\n      0x02\n        /* \"Trazabilidad.sol\":5310:5328  mapEntrega[numEnt] */\n      0x00\n        /* \"Trazabilidad.sol\":5321:5327  numEnt */\n      dup5\n        /* \"Trazabilidad.sol\":5310:5328  mapEntrega[numEnt] */\n      dup2\n      mstore\n      0x20\n      add\n      swap1\n      dup2\n      mstore\n      0x20\n      add\n      0x00\n      keccak256\n        /* \"Trazabilidad.sol\":5310:5334  mapEntrega[numEnt].price */\n      0x02\n      add\n      sload\n        /* \"Trazabilidad.sol\":5203:5335  MsgPrecio (\"No tienes suficientes fondos para comprar el producto, o el valor es distinto tiene que ser: \",mapEntrega[numEnt].price) */\n      mload(0x40)\n      tag_327\n      swap2\n      swap1\n      tag_328\n      jump\t// in\n    tag_327:\n      mload(0x40)\n      dup1\n      swap2\n      sub\n      swap1\n      log1\n        /* \"Trazabilidad.sol\":5142:5700  if(msg.value != mapEntrega[numEnt].price){... */\n      jump(tag_329)\n    tag_326:\n        /* \"Trazabilidad.sol\":5405:5416  Status.RPOK */\n      0x03\n        /* \"Trazabilidad.sol\":5376:5416  mapEntrega[numEnt].status == Status.RPOK */\n      0x07\n      dup2\n      gt\n      iszero\n      tag_330\n      jumpi\n      tag_331\n      tag_94\n      jump\t// in\n    tag_331:\n    tag_330:\n        /* \"Trazabilidad.sol\":5376:5386  mapEntrega */\n      0x02\n        /* \"Trazabilidad.sol\":5376:5394  mapEntrega[numEnt] */\n      0x00\n        /* \"Trazabilidad.sol\":5387:5393  numEnt */\n      dup5\n        /* \"Trazabilidad.sol\":5376:5394  mapEntrega[numEnt] */\n      dup2\n      mstore\n      0x20\n      add\n      swap1\n      dup2\n      mstore\n      0x20\n      add\n      0x00\n      keccak256\n        /* \"Trazabilidad.sol\":5376:5401  mapEntrega[numEnt].status */\n      0x04\n      add\n      0x00\n      swap1\n      sload\n      swap1\n      0x0100\n      exp\n      swap1\n      div\n      0xff\n      and\n        /* \"Trazabilidad.sol\":5376:5416  mapEntrega[numEnt].status == Status.RPOK */\n      0x07\n      dup2\n      gt\n      iszero\n      tag_332\n      jumpi\n      tag_333\n      tag_94\n      jump\t// in\n    tag_333:\n    tag_332:\n      eq\n        /* \"Trazabilidad.sol\":5368:5501  require(mapEntrega[numEnt].status == Status.RPOK, \"El repartidor no a llegado al destino no puedes firmar la receocion del producto\") */\n      tag_334\n      jumpi\n      mload(0x40)\n      0x08c379a000000000000000000000000000000000000000000000000000000000\n      dup2\n      mstore\n      0x04\n      add\n      tag_335\n      swap1\n      tag_336\n      jump\t// in\n    tag_335:\n      mload(0x40)\n      dup1\n      swap2\n      sub\n      swap1\n      revert\n    tag_334:\n        /* \"Trazabilidad.sol\":5544:5555  Status.CLOK */\n      0x02\n        /* \"Trazabilidad.sol\":5516:5526  mapEntrega */\n      dup1\n        /* \"Trazabilidad.sol\":5516:5534  mapEntrega[numEnt] */\n      0x00\n        /* \"Trazabilidad.sol\":5527:5533  numEnt */\n      dup5\n        /* \"Trazabilidad.sol\":5516:5534  mapEntrega[numEnt] */\n      dup2\n      mstore\n      0x20\n      add\n      swap1\n      dup2\n      mstore\n      0x20\n      add\n      0x00\n      keccak256\n        /* \"Trazabilidad.sol\":5516:5541  mapEntrega[numEnt].status */\n      0x04\n      add\n      0x00\n        /* \"Trazabilidad.sol\":5516:5555  mapEntrega[numEnt].status = Status.CLOK */\n      0x0100\n      exp\n      dup2\n      sload\n      dup2\n      0xff\n      mul\n      not\n      and\n      swap1\n      dup4\n      0x07\n      dup2\n      gt\n      iszero\n      tag_337\n      jumpi\n      tag_338\n      tag_94\n      jump\t// in\n    tag_338:\n    tag_337:\n      mul\n      or\n      swap1\n      sstore\n      pop\n        /* \"Trazabilidad.sol\":5601:5616  block.timestamp */\n      timestamp\n        /* \"Trazabilidad.sol\":5570:5580  mapEntrega */\n      0x02\n        /* \"Trazabilidad.sol\":5570:5588  mapEntrega[numEnt] */\n      0x00\n        /* \"Trazabilidad.sol\":5581:5587  numEnt */\n      dup5\n        /* \"Trazabilidad.sol\":5570:5588  mapEntrega[numEnt] */\n      dup2\n      mstore\n      0x20\n      add\n      swap1\n      dup2\n      mstore\n      0x20\n      add\n      0x00\n      keccak256\n        /* \"Trazabilidad.sol\":5570:5598  mapEntrega[numEnt].timestamp */\n      0x03\n      add\n        /* \"Trazabilidad.sol\":5570:5616  mapEntrega[numEnt].timestamp = block.timestamp */\n      dup2\n      swap1\n      sstore\n      pop\n        /* \"Trazabilidad.sol\":5636:5688  Msg(\"El Cliente a firmado la recepcion de Producto\") */\n      0xf24055cc366c1d53b75688e6ba6eb419d022fb5f4956c5d66a6ef54adbf3270a\n      mload(0x40)\n      tag_339\n      swap1\n      tag_340\n      jump\t// in\n    tag_339:\n      mload(0x40)\n      dup1\n      swap2\n      sub\n      swap1\n      log1\n        /* \"Trazabilidad.sol\":5142:5700  if(msg.value != mapEntrega[numEnt].price){... */\n    tag_329:\n        /* \"Trazabilidad.sol\":4960:5708  function clienteFirmaRecepcion(uint numEnt) payable public isCliente(numEnt) {... */\n      pop\n      pop\n      jump\t// out\n        /* \"Trazabilidad.sol\":879:917  address payable public contractaddress */\n    tag_55:\n      0x04\n      0x00\n      swap1\n      sload\n      swap1\n      0x0100\n      exp\n      swap1\n      div\n      0xffffffffffffffffffffffffffffffffffffffff\n      and\n      dup2\n      jump\t// out\n        /* \"Trazabilidad.sol\":767:792  uint8 public numCalculado */\n    tag_59:\n      0x01\n      0x00\n      swap1\n      sload\n      swap1\n      0x0100\n      exp\n      swap1\n      div\n      0xff\n      and\n      dup2\n      jump\t// out\n        /* \"Trazabilidad.sol\":9745:9854  function fondoscontratos() public view isOwner returns(uint){... */\n    tag_64:\n        /* \"Trazabilidad.sol\":9800:9804  uint */\n      0x00\n        /* \"Trazabilidad.sol\":2988:2993  owner */\n      0x03\n      0x00\n      swap1\n      sload\n      swap1\n      0x0100\n      exp\n      swap1\n      div\n      0xffffffffffffffffffffffffffffffffffffffff\n      and\n        /* \"Trazabilidad.sol\":2974:2993  msg.sender == owner */\n      0xffffffffffffffffffffffffffffffffffffffff\n      and\n        /* \"Trazabilidad.sol\":2974:2984  msg.sender */\n      caller\n        /* \"Trazabilidad.sol\":2974:2993  msg.sender == owner */\n      0xffffffffffffffffffffffffffffffffffffffff\n      and\n      eq\n        /* \"Trazabilidad.sol\":2966:3025  require(msg.sender == owner,\"No eres creador del contrato\") */\n      tag_342\n      jumpi\n      mload(0x40)\n      0x08c379a000000000000000000000000000000000000000000000000000000000\n      dup2\n      mstore\n      0x04\n      add\n      tag_343\n      swap1\n      tag_74\n      jump\t// in\n    tag_343:\n      mload(0x40)\n      dup1\n      swap2\n      sub\n      swap1\n      revert\n    tag_342:\n        /* \"Trazabilidad.sol\":9824:9845  address(this).balance */\n      selfbalance\n        /* \"Trazabilidad.sol\":9816:9846  return (address(this).balance) */\n      swap1\n      pop\n        /* \"Trazabilidad.sol\":9745:9854  function fondoscontratos() public view isOwner returns(uint){... */\n      swap1\n      jump\t// out\n        /* \"Trazabilidad.sol\":4355:4815  function repartidorFirmaLlegada(uint numEnt) public isRepartidor(numEnt) {... */\n    tag_70:\n        /* \"Trazabilidad.sol\":4420:4426  numEnt */\n      dup1\n        /* \"Trazabilidad.sol\":2453:2463  msg.sender */\n      caller\n        /* \"Trazabilidad.sol\":2406:2463  mapEntrega[numEnt].mapRole[Role.REPARTIDOR] == msg.sender */\n      0xffffffffffffffffffffffffffffffffffffffff\n      and\n        /* \"Trazabilidad.sol\":2406:2416  mapEntrega */\n      0x02\n        /* \"Trazabilidad.sol\":2406:2424  mapEntrega[numEnt] */\n      0x00\n        /* \"Trazabilidad.sol\":2417:2423  numEnt */\n      dup4\n        /* \"Trazabilidad.sol\":2406:2424  mapEntrega[numEnt] */\n      dup2\n      mstore\n      0x20\n      add\n      swap1\n      dup2\n      mstore\n      0x20\n      add\n      0x00\n      keccak256\n        /* \"Trazabilidad.sol\":2406:2432  mapEntrega[numEnt].mapRole */\n      0x05\n      add\n        /* \"Trazabilidad.sol\":2406:2449  mapEntrega[numEnt].mapRole[Role.REPARTIDOR] */\n      0x00\n        /* \"Trazabilidad.sol\":2433:2448  Role.REPARTIDOR */\n      0x01\n        /* \"Trazabilidad.sol\":2406:2449  mapEntrega[numEnt].mapRole[Role.REPARTIDOR] */\n      0x02\n      dup2\n      gt\n      iszero\n      tag_346\n      jumpi\n      tag_347\n      tag_94\n      jump\t// in\n    tag_347:\n    tag_346:\n      0x02\n      dup2\n      gt\n      iszero\n      tag_348\n      jumpi\n      tag_349\n      tag_94\n      jump\t// in\n    tag_349:\n    tag_348:\n      dup2\n      mstore\n      0x20\n      add\n      swap1\n      dup2\n      mstore\n      0x20\n      add\n      0x00\n      keccak256\n      0x00\n      swap1\n      sload\n      swap1\n      0x0100\n      exp\n      swap1\n      div\n      0xffffffffffffffffffffffffffffffffffffffff\n      and\n        /* \"Trazabilidad.sol\":2406:2463  mapEntrega[numEnt].mapRole[Role.REPARTIDOR] == msg.sender */\n      0xffffffffffffffffffffffffffffffffffffffff\n      and\n      eq\n        /* \"Trazabilidad.sol\":2398:2523  require(mapEntrega[numEnt].mapRole[Role.REPARTIDOR] == msg.sender ,\"No tienes rol de repartidor o no estas signado como tal\") */\n      tag_350\n      jumpi\n      mload(0x40)\n      0x08c379a000000000000000000000000000000000000000000000000000000000\n      dup2\n      mstore\n      0x04\n      add\n      tag_351\n      swap1\n      tag_298\n      jump\t// in\n    tag_351:\n      mload(0x40)\n      dup1\n      swap2\n      sub\n      swap1\n      revert\n    tag_350:\n        /* \"Trazabilidad.sol\":4456:4457  0 */\n      0x00\n        /* \"Trazabilidad.sol\":4447:4453  numEnt */\n      dup3\n        /* \"Trazabilidad.sol\":4447:4457  numEnt > 0 */\n      gt\n        /* \"Trazabilidad.sol\":4447:4483  numEnt > 0 && numEnt <= numCalculado */\n      dup1\n      iszero\n      tag_353\n      jumpi\n      pop\n        /* \"Trazabilidad.sol\":4471:4483  numCalculado */\n      0x01\n      0x00\n      swap1\n      sload\n      swap1\n      0x0100\n      exp\n      swap1\n      div\n      0xff\n      and\n        /* \"Trazabilidad.sol\":4461:4483  numEnt <= numCalculado */\n      0xff\n      and\n        /* \"Trazabilidad.sol\":4461:4467  numEnt */\n      dup3\n        /* \"Trazabilidad.sol\":4461:4483  numEnt <= numCalculado */\n      gt\n      iszero\n        /* \"Trazabilidad.sol\":4447:4483  numEnt > 0 && numEnt <= numCalculado */\n    tag_353:\n        /* \"Trazabilidad.sol\":4439:4522  require(numEnt > 0 && numEnt <= numCalculado,\"El Numero de entrega no es correcto\") */\n      tag_354\n      jumpi\n      mload(0x40)\n      0x08c379a000000000000000000000000000000000000000000000000000000000\n      dup2\n      mstore\n      0x04\n      add\n      tag_355\n      swap1\n      tag_121\n      jump\t// in\n    tag_355:\n      mload(0x40)\n      dup1\n      swap2\n      sub\n      swap1\n      revert\n    tag_354:\n        /* \"Trazabilidad.sol\":4570:4582  Status.READY */\n      0x01\n        /* \"Trazabilidad.sol\":4541:4582  mapEntrega[numEnt].status == Status.READY */\n      0x07\n      dup2\n      gt\n      iszero\n      tag_356\n      jumpi\n      tag_357\n      tag_94\n      jump\t// in\n    tag_357:\n    tag_356:\n        /* \"Trazabilidad.sol\":4541:4551  mapEntrega */\n      0x02\n        /* \"Trazabilidad.sol\":4541:4559  mapEntrega[numEnt] */\n      0x00\n        /* \"Trazabilidad.sol\":4552:4558  numEnt */\n      dup5\n        /* \"Trazabilidad.sol\":4541:4559  mapEntrega[numEnt] */\n      dup2\n      mstore\n      0x20\n      add\n      swap1\n      dup2\n      mstore\n      0x20\n      add\n      0x00\n      keccak256\n        /* \"Trazabilidad.sol\":4541:4566  mapEntrega[numEnt].status */\n      0x04\n      add\n      0x00\n      swap1\n      sload\n      swap1\n      0x0100\n      exp\n      swap1\n      div\n      0xff\n      and\n        /* \"Trazabilidad.sol\":4541:4582  mapEntrega[numEnt].status == Status.READY */\n      0x07\n      dup2\n      gt\n      iszero\n      tag_358\n      jumpi\n      tag_359\n      tag_94\n      jump\t// in\n    tag_359:\n    tag_358:\n      eq\n        /* \"Trazabilidad.sol\":4533:4633  require(mapEntrega[numEnt].status == Status.READY,\"EL estado de la Entraga tiene que estar a READY\") */\n      tag_360\n      jumpi\n      mload(0x40)\n      0x08c379a000000000000000000000000000000000000000000000000000000000\n      dup2\n      mstore\n      0x04\n      add\n      tag_361\n      swap1\n      tag_362\n      jump\t// in\n    tag_361:\n      mload(0x40)\n      dup1\n      swap2\n      sub\n      swap1\n      revert\n    tag_360:\n        /* \"Trazabilidad.sol\":4672:4683  Status.RPOK */\n      0x03\n        /* \"Trazabilidad.sol\":4644:4654  mapEntrega */\n      0x02\n        /* \"Trazabilidad.sol\":4644:4662  mapEntrega[numEnt] */\n      0x00\n        /* \"Trazabilidad.sol\":4655:4661  numEnt */\n      dup5\n        /* \"Trazabilidad.sol\":4644:4662  mapEntrega[numEnt] */\n      dup2\n      mstore\n      0x20\n      add\n      swap1\n      dup2\n      mstore\n      0x20\n      add\n      0x00\n      keccak256\n        /* \"Trazabilidad.sol\":4644:4669  mapEntrega[numEnt].status */\n      0x04\n      add\n      0x00\n        /* \"Trazabilidad.sol\":4644:4683  mapEntrega[numEnt].status = Status.RPOK */\n      0x0100\n      exp\n      dup2\n      sload\n      dup2\n      0xff\n      mul\n      not\n      and\n      swap1\n      dup4\n      0x07\n      dup2\n      gt\n      iszero\n      tag_363\n      jumpi\n      tag_364\n      tag_94\n      jump\t// in\n    tag_364:\n    tag_363:\n      mul\n      or\n      swap1\n      sstore\n      pop\n        /* \"Trazabilidad.sol\":4725:4740  block.timestamp */\n      timestamp\n        /* \"Trazabilidad.sol\":4694:4704  mapEntrega */\n      0x02\n        /* \"Trazabilidad.sol\":4694:4712  mapEntrega[numEnt] */\n      0x00\n        /* \"Trazabilidad.sol\":4705:4711  numEnt */\n      dup5\n        /* \"Trazabilidad.sol\":4694:4712  mapEntrega[numEnt] */\n      dup2\n      mstore\n      0x20\n      add\n      swap1\n      dup2\n      mstore\n      0x20\n      add\n      0x00\n      keccak256\n        /* \"Trazabilidad.sol\":4694:4722  mapEntrega[numEnt].timestamp */\n      0x03\n      add\n        /* \"Trazabilidad.sol\":4694:4740  mapEntrega[numEnt].timestamp = block.timestamp */\n      dup2\n      swap1\n      sstore\n      pop\n        /* \"Trazabilidad.sol\":4756:4807  Msg(\"El repartidor ha firmado la llega al destino\") */\n      0xf24055cc366c1d53b75688e6ba6eb419d022fb5f4956c5d66a6ef54adbf3270a\n      mload(0x40)\n      tag_365\n      swap1\n      tag_366\n      jump\t// in\n    tag_365:\n      mload(0x40)\n      dup1\n      swap2\n      sub\n      swap1\n      log1\n        /* \"Trazabilidad.sol\":4355:4815  function repartidorFirmaLlegada(uint numEnt) public isRepartidor(numEnt) {... */\n      pop\n      pop\n      jump\t// out\n        /* \"#utility.yul\":88:205   */\n    tag_368:\n        /* \"#utility.yul\":197:198   */\n      0x00\n        /* \"#utility.yul\":194:195   */\n      dup1\n        /* \"#utility.yul\":187:199   */\n      revert\n        /* \"#utility.yul\":211:328   */\n    tag_369:\n        /* \"#utility.yul\":320:321   */\n      0x00\n        /* \"#utility.yul\":317:318   */\n      dup1\n        /* \"#utility.yul\":310:322   */\n      revert\n        /* \"#utility.yul\":334:460   */\n    tag_370:\n        /* \"#utility.yul\":371:378   */\n      0x00\n        /* \"#utility.yul\":411:453   */\n      0xffffffffffffffffffffffffffffffffffffffff\n        /* \"#utility.yul\":404:409   */\n      dup3\n        /* \"#utility.yul\":400:454   */\n      and\n        /* \"#utility.yul\":389:454   */\n      swap1\n      pop\n        /* \"#utility.yul\":334:460   */\n      swap2\n      swap1\n      pop\n      jump\t// out\n        /* \"#utility.yul\":466:562   */\n    tag_371:\n        /* \"#utility.yul\":503:510   */\n      0x00\n        /* \"#utility.yul\":532:556   */\n      tag_458\n        /* \"#utility.yul\":550:555   */\n      dup3\n        /* \"#utility.yul\":532:556   */\n      tag_370\n      jump\t// in\n    tag_458:\n        /* \"#utility.yul\":521:556   */\n      swap1\n      pop\n        /* \"#utility.yul\":466:562   */\n      swap2\n      swap1\n      pop\n      jump\t// out\n        /* \"#utility.yul\":568:690   */\n    tag_372:\n        /* \"#utility.yul\":641:665   */\n      tag_460\n        /* \"#utility.yul\":659:664   */\n      dup2\n        /* \"#utility.yul\":641:665   */\n      tag_371\n      jump\t// in\n    tag_460:\n        /* \"#utility.yul\":634:639   */\n      dup2\n        /* \"#utility.yul\":631:666   */\n      eq\n        /* \"#utility.yul\":621:684   */\n      tag_461\n      jumpi\n        /* \"#utility.yul\":680:681   */\n      0x00\n        /* \"#utility.yul\":677:678   */\n      dup1\n        /* \"#utility.yul\":670:682   */\n      revert\n        /* \"#utility.yul\":621:684   */\n    tag_461:\n        /* \"#utility.yul\":568:690   */\n      pop\n      jump\t// out\n        /* \"#utility.yul\":696:835   */\n    tag_373:\n        /* \"#utility.yul\":742:747   */\n      0x00\n        /* \"#utility.yul\":780:786   */\n      dup2\n        /* \"#utility.yul\":767:787   */\n      calldataload\n        /* \"#utility.yul\":758:787   */\n      swap1\n      pop\n        /* \"#utility.yul\":796:829   */\n      tag_463\n        /* \"#utility.yul\":823:828   */\n      dup2\n        /* \"#utility.yul\":796:829   */\n      tag_372\n      jump\t// in\n    tag_463:\n        /* \"#utility.yul\":696:835   */\n      swap3\n      swap2\n      pop\n      pop\n      jump\t// out\n        /* \"#utility.yul\":841:918   */\n    tag_374:\n        /* \"#utility.yul\":878:885   */\n      0x00\n        /* \"#utility.yul\":907:912   */\n      dup2\n        /* \"#utility.yul\":896:912   */\n      swap1\n      pop\n        /* \"#utility.yul\":841:918   */\n      swap2\n      swap1\n      pop\n      jump\t// out\n        /* \"#utility.yul\":924:1046   */\n    tag_375:\n        /* \"#utility.yul\":997:1021   */\n      tag_466\n        /* \"#utility.yul\":1015:1020   */\n      dup2\n        /* \"#utility.yul\":997:1021   */\n      tag_374\n      jump\t// in\n    tag_466:\n        /* \"#utility.yul\":990:995   */\n      dup2\n        /* \"#utility.yul\":987:1022   */\n      eq\n        /* \"#utility.yul\":977:1040   */\n      tag_467\n      jumpi\n        /* \"#utility.yul\":1036:1037   */\n      0x00\n        /* \"#utility.yul\":1033:1034   */\n      dup1\n        /* \"#utility.yul\":1026:1038   */\n      revert\n        /* \"#utility.yul\":977:1040   */\n    tag_467:\n        /* \"#utility.yul\":924:1046   */\n      pop\n      jump\t// out\n        /* \"#utility.yul\":1052:1191   */\n    tag_376:\n        /* \"#utility.yul\":1098:1103   */\n      0x00\n        /* \"#utility.yul\":1136:1142   */\n      dup2\n        /* \"#utility.yul\":1123:1143   */\n      calldataload\n        /* \"#utility.yul\":1114:1143   */\n      swap1\n      pop\n        /* \"#utility.yul\":1152:1185   */\n      tag_469\n        /* \"#utility.yul\":1179:1184   */\n      dup2\n        /* \"#utility.yul\":1152:1185   */\n      tag_375\n      jump\t// in\n    tag_469:\n        /* \"#utility.yul\":1052:1191   */\n      swap3\n      swap2\n      pop\n      pop\n      jump\t// out\n        /* \"#utility.yul\":1197:1314   */\n    tag_377:\n        /* \"#utility.yul\":1306:1307   */\n      0x00\n        /* \"#utility.yul\":1303:1304   */\n      dup1\n        /* \"#utility.yul\":1296:1308   */\n      revert\n        /* \"#utility.yul\":1320:1437   */\n    tag_378:\n        /* \"#utility.yul\":1429:1430   */\n      0x00\n        /* \"#utility.yul\":1426:1427   */\n      dup1\n        /* \"#utility.yul\":1419:1431   */\n      revert\n        /* \"#utility.yul\":1443:1560   */\n    tag_379:\n        /* \"#utility.yul\":1552:1553   */\n      0x00\n        /* \"#utility.yul\":1549:1550   */\n      dup1\n        /* \"#utility.yul\":1542:1554   */\n      revert\n        /* \"#utility.yul\":1580:2133   */\n    tag_380:\n        /* \"#utility.yul\":1638:1646   */\n      0x00\n        /* \"#utility.yul\":1648:1654   */\n      dup1\n        /* \"#utility.yul\":1698:1701   */\n      dup4\n        /* \"#utility.yul\":1691:1695   */\n      0x1f\n        /* \"#utility.yul\":1683:1689   */\n      dup5\n        /* \"#utility.yul\":1679:1696   */\n      add\n        /* \"#utility.yul\":1675:1702   */\n      slt\n        /* \"#utility.yul\":1665:1787   */\n      tag_474\n      jumpi\n        /* \"#utility.yul\":1706:1785   */\n      tag_475\n      tag_377\n      jump\t// in\n    tag_475:\n        /* \"#utility.yul\":1665:1787   */\n    tag_474:\n        /* \"#utility.yul\":1819:1825   */\n      dup3\n        /* \"#utility.yul\":1806:1826   */\n      calldataload\n        /* \"#utility.yul\":1796:1826   */\n      swap1\n      pop\n        /* \"#utility.yul\":1849:1867   */\n      0xffffffffffffffff\n        /* \"#utility.yul\":1841:1847   */\n      dup2\n        /* \"#utility.yul\":1838:1868   */\n      gt\n        /* \"#utility.yul\":1835:1952   */\n      iszero\n      tag_476\n      jumpi\n        /* \"#utility.yul\":1871:1950   */\n      tag_477\n      tag_378\n      jump\t// in\n    tag_477:\n        /* \"#utility.yul\":1835:1952   */\n    tag_476:\n        /* \"#utility.yul\":1985:1989   */\n      0x20\n        /* \"#utility.yul\":1977:1983   */\n      dup4\n        /* \"#utility.yul\":1973:1990   */\n      add\n        /* \"#utility.yul\":1961:1990   */\n      swap2\n      pop\n        /* \"#utility.yul\":2039:2042   */\n      dup4\n        /* \"#utility.yul\":2031:2035   */\n      0x01\n        /* \"#utility.yul\":2023:2029   */\n      dup3\n        /* \"#utility.yul\":2019:2036   */\n      mul\n        /* \"#utility.yul\":2009:2017   */\n      dup4\n        /* \"#utility.yul\":2005:2037   */\n      add\n        /* \"#utility.yul\":2002:2043   */\n      gt\n        /* \"#utility.yul\":1999:2127   */\n      iszero\n      tag_478\n      jumpi\n        /* \"#utility.yul\":2046:2125   */\n      tag_479\n      tag_379\n      jump\t// in\n    tag_479:\n        /* \"#utility.yul\":1999:2127   */\n    tag_478:\n        /* \"#utility.yul\":1580:2133   */\n      swap3\n      pop\n      swap3\n      swap1\n      pop\n      jump\t// out\n        /* \"#utility.yul\":2139:3250   */\n    tag_19:\n        /* \"#utility.yul\":2246:2252   */\n      0x00\n        /* \"#utility.yul\":2254:2260   */\n      dup1\n        /* \"#utility.yul\":2262:2268   */\n      0x00\n        /* \"#utility.yul\":2270:2276   */\n      dup1\n        /* \"#utility.yul\":2278:2284   */\n      0x00\n        /* \"#utility.yul\":2286:2292   */\n      dup1\n        /* \"#utility.yul\":2335:2338   */\n      0xa0\n        /* \"#utility.yul\":2323:2332   */\n      dup8\n        /* \"#utility.yul\":2314:2321   */\n      dup10\n        /* \"#utility.yul\":2310:2333   */\n      sub\n        /* \"#utility.yul\":2306:2339   */\n      slt\n        /* \"#utility.yul\":2303:2423   */\n      iszero\n      tag_481\n      jumpi\n        /* \"#utility.yul\":2342:2421   */\n      tag_482\n      tag_368\n      jump\t// in\n    tag_482:\n        /* \"#utility.yul\":2303:2423   */\n    tag_481:\n        /* \"#utility.yul\":2462:2463   */\n      0x00\n        /* \"#utility.yul\":2487:2540   */\n      tag_483\n        /* \"#utility.yul\":2532:2539   */\n      dup10\n        /* \"#utility.yul\":2523:2529   */\n      dup3\n        /* \"#utility.yul\":2512:2521   */\n      dup11\n        /* \"#utility.yul\":2508:2530   */\n      add\n        /* \"#utility.yul\":2487:2540   */\n      tag_373\n      jump\t// in\n    tag_483:\n        /* \"#utility.yul\":2477:2540   */\n      swap7\n      pop\n        /* \"#utility.yul\":2433:2550   */\n      pop\n        /* \"#utility.yul\":2589:2591   */\n      0x20\n        /* \"#utility.yul\":2615:2668   */\n      tag_484\n        /* \"#utility.yul\":2660:2667   */\n      dup10\n        /* \"#utility.yul\":2651:2657   */\n      dup3\n        /* \"#utility.yul\":2640:2649   */\n      dup11\n        /* \"#utility.yul\":2636:2658   */\n      add\n        /* \"#utility.yul\":2615:2668   */\n      tag_373\n      jump\t// in\n    tag_484:\n        /* \"#utility.yul\":2605:2668   */\n      swap6\n      pop\n        /* \"#utility.yul\":2560:2678   */\n      pop\n        /* \"#utility.yul\":2717:2719   */\n      0x40\n        /* \"#utility.yul\":2743:2796   */\n      tag_485\n        /* \"#utility.yul\":2788:2795   */\n      dup10\n        /* \"#utility.yul\":2779:2785   */\n      dup3\n        /* \"#utility.yul\":2768:2777   */\n      dup11\n        /* \"#utility.yul\":2764:2786   */\n      add\n        /* \"#utility.yul\":2743:2796   */\n      tag_373\n      jump\t// in\n    tag_485:\n        /* \"#utility.yul\":2733:2796   */\n      swap5\n      pop\n        /* \"#utility.yul\":2688:2806   */\n      pop\n        /* \"#utility.yul\":2845:2847   */\n      0x60\n        /* \"#utility.yul\":2871:2924   */\n      tag_486\n        /* \"#utility.yul\":2916:2923   */\n      dup10\n        /* \"#utility.yul\":2907:2913   */\n      dup3\n        /* \"#utility.yul\":2896:2905   */\n      dup11\n        /* \"#utility.yul\":2892:2914   */\n      add\n        /* \"#utility.yul\":2871:2924   */\n      tag_376\n      jump\t// in\n    tag_486:\n        /* \"#utility.yul\":2861:2924   */\n      swap4\n      pop\n        /* \"#utility.yul\":2816:2934   */\n      pop\n        /* \"#utility.yul\":3001:3004   */\n      0x80\n        /* \"#utility.yul\":2990:2999   */\n      dup8\n        /* \"#utility.yul\":2986:3005   */\n      add\n        /* \"#utility.yul\":2973:3006   */\n      calldataload\n        /* \"#utility.yul\":3033:3051   */\n      0xffffffffffffffff\n        /* \"#utility.yul\":3025:3031   */\n      dup2\n        /* \"#utility.yul\":3022:3052   */\n      gt\n        /* \"#utility.yul\":3019:3136   */\n      iszero\n      tag_487\n      jumpi\n        /* \"#utility.yul\":3055:3134   */\n      tag_488\n      tag_369\n      jump\t// in\n    tag_488:\n        /* \"#utility.yul\":3019:3136   */\n    tag_487:\n        /* \"#utility.yul\":3168:3233   */\n      tag_489\n        /* \"#utility.yul\":3225:3232   */\n      dup10\n        /* \"#utility.yul\":3216:3222   */\n      dup3\n        /* \"#utility.yul\":3205:3214   */\n      dup11\n        /* \"#utility.yul\":3201:3223   */\n      add\n        /* \"#utility.yul\":3168:3233   */\n      tag_380\n      jump\t// in\n    tag_489:\n        /* \"#utility.yul\":3150:3233   */\n      swap3\n      pop\n      swap3\n      pop\n        /* \"#utility.yul\":2944:3243   */\n      pop\n        /* \"#utility.yul\":2139:3250   */\n      swap3\n      swap6\n      pop\n      swap3\n      swap6\n      pop\n      swap3\n      swap6\n      jump\t// out\n        /* \"#utility.yul\":3256:3585   */\n    tag_23:\n        /* \"#utility.yul\":3315:3321   */\n      0x00\n        /* \"#utility.yul\":3364:3366   */\n      0x20\n        /* \"#utility.yul\":3352:3361   */\n      dup3\n        /* \"#utility.yul\":3343:3350   */\n      dup5\n        /* \"#utility.yul\":3339:3362   */\n      sub\n        /* \"#utility.yul\":3335:3367   */\n      slt\n        /* \"#utility.yul\":3332:3451   */\n      iszero\n      tag_491\n      jumpi\n        /* \"#utility.yul\":3370:3449   */\n      tag_492\n      tag_368\n      jump\t// in\n    tag_492:\n        /* \"#utility.yul\":3332:3451   */\n    tag_491:\n        /* \"#utility.yul\":3490:3491   */\n      0x00\n        /* \"#utility.yul\":3515:3568   */\n      tag_493\n        /* \"#utility.yul\":3560:3567   */\n      dup5\n        /* \"#utility.yul\":3551:3557   */\n      dup3\n        /* \"#utility.yul\":3540:3549   */\n      dup6\n        /* \"#utility.yul\":3536:3558   */\n      add\n        /* \"#utility.yul\":3515:3568   */\n      tag_376\n      jump\t// in\n    tag_493:\n        /* \"#utility.yul\":3505:3568   */\n      swap2\n      pop\n        /* \"#utility.yul\":3461:3578   */\n      pop\n        /* \"#utility.yul\":3256:3585   */\n      swap3\n      swap2\n      pop\n      pop\n      jump\t// out\n        /* \"#utility.yul\":3591:3690   */\n    tag_381:\n        /* \"#utility.yul\":3643:3649   */\n      0x00\n        /* \"#utility.yul\":3677:3682   */\n      dup2\n        /* \"#utility.yul\":3671:3683   */\n      mload\n        /* \"#utility.yul\":3661:3683   */\n      swap1\n      pop\n        /* \"#utility.yul\":3591:3690   */\n      swap2\n      swap1\n      pop\n      jump\t// out\n        /* \"#utility.yul\":3696:3865   */\n    tag_382:\n        /* \"#utility.yul\":3780:3791   */\n      0x00\n        /* \"#utility.yul\":3814:3820   */\n      dup3\n        /* \"#utility.yul\":3809:3812   */\n      dup3\n        /* \"#utility.yul\":3802:3821   */\n      mstore\n        /* \"#utility.yul\":3854:3858   */\n      0x20\n        /* \"#utility.yul\":3849:3852   */\n      dup3\n        /* \"#utility.yul\":3845:3859   */\n      add\n        /* \"#utility.yul\":3830:3859   */\n      swap1\n      pop\n        /* \"#utility.yul\":3696:3865   */\n      swap3\n      swap2\n      pop\n      pop\n      jump\t// out\n        /* \"#utility.yul\":3871:4117   */\n    tag_383:\n        /* \"#utility.yul\":3952:3953   */\n      0x00\n        /* \"#utility.yul\":3962:4075   */\n    tag_497:\n        /* \"#utility.yul\":3976:3982   */\n      dup4\n        /* \"#utility.yul\":3973:3974   */\n      dup2\n        /* \"#utility.yul\":3970:3983   */\n      lt\n        /* \"#utility.yul\":3962:4075   */\n      iszero\n      tag_499\n      jumpi\n        /* \"#utility.yul\":4061:4062   */\n      dup1\n        /* \"#utility.yul\":4056:4059   */\n      dup3\n        /* \"#utility.yul\":4052:4063   */\n      add\n        /* \"#utility.yul\":4046:4064   */\n      mload\n        /* \"#utility.yul\":4042:4043   */\n      dup2\n        /* \"#utility.yul\":4037:4040   */\n      dup5\n        /* \"#utility.yul\":4033:4044   */\n      add\n        /* \"#utility.yul\":4026:4065   */\n      mstore\n        /* \"#utility.yul\":3998:4000   */\n      0x20\n        /* \"#utility.yul\":3995:3996   */\n      dup2\n        /* \"#utility.yul\":3991:4001   */\n      add\n        /* \"#utility.yul\":3986:4001   */\n      swap1\n      pop\n        /* \"#utility.yul\":3962:4075   */\n      jump(tag_497)\n    tag_499:\n        /* \"#utility.yul\":4109:4110   */\n      0x00\n        /* \"#utility.yul\":4100:4106   */\n      dup5\n        /* \"#utility.yul\":4095:4098   */\n      dup5\n        /* \"#utility.yul\":4091:4107   */\n      add\n        /* \"#utility.yul\":4084:4111   */\n      mstore\n        /* \"#utility.yul\":3933:4117   */\n      pop\n        /* \"#utility.yul\":3871:4117   */\n      pop\n      pop\n      pop\n      jump\t// out\n        /* \"#utility.yul\":4123:4225   */\n    tag_384:\n        /* \"#utility.yul\":4164:4170   */\n      0x00\n        /* \"#utility.yul\":4215:4217   */\n      0x1f\n        /* \"#utility.yul\":4211:4218   */\n      not\n        /* \"#utility.yul\":4206:4208   */\n      0x1f\n        /* \"#utility.yul\":4199:4204   */\n      dup4\n        /* \"#utility.yul\":4195:4209   */\n      add\n        /* \"#utility.yul\":4191:4219   */\n      and\n        /* \"#utility.yul\":4181:4219   */\n      swap1\n      pop\n        /* \"#utility.yul\":4123:4225   */\n      swap2\n      swap1\n      pop\n      jump\t// out\n        /* \"#utility.yul\":4231:4608   */\n    tag_385:\n        /* \"#utility.yul\":4319:4322   */\n      0x00\n        /* \"#utility.yul\":4347:4386   */\n      tag_502\n        /* \"#utility.yul\":4380:4385   */\n      dup3\n        /* \"#utility.yul\":4347:4386   */\n      tag_381\n      jump\t// in\n    tag_502:\n        /* \"#utility.yul\":4402:4473   */\n      tag_503\n        /* \"#utility.yul\":4466:4472   */\n      dup2\n        /* \"#utility.yul\":4461:4464   */\n      dup6\n        /* \"#utility.yul\":4402:4473   */\n      tag_382\n      jump\t// in\n    tag_503:\n        /* \"#utility.yul\":4395:4473   */\n      swap4\n      pop\n        /* \"#utility.yul\":4482:4547   */\n      tag_504\n        /* \"#utility.yul\":4540:4546   */\n      dup2\n        /* \"#utility.yul\":4535:4538   */\n      dup6\n        /* \"#utility.yul\":4528:4532   */\n      0x20\n        /* \"#utility.yul\":4521:4526   */\n      dup7\n        /* \"#utility.yul\":4517:4533   */\n      add\n        /* \"#utility.yul\":4482:4547   */\n      tag_383\n      jump\t// in\n    tag_504:\n        /* \"#utility.yul\":4572:4601   */\n      tag_505\n        /* \"#utility.yul\":4594:4600   */\n      dup2\n        /* \"#utility.yul\":4572:4601   */\n      tag_384\n      jump\t// in\n    tag_505:\n        /* \"#utility.yul\":4567:4570   */\n      dup5\n        /* \"#utility.yul\":4563:4602   */\n      add\n        /* \"#utility.yul\":4556:4602   */\n      swap2\n      pop\n        /* \"#utility.yul\":4323:4608   */\n      pop\n        /* \"#utility.yul\":4231:4608   */\n      swap3\n      swap2\n      pop\n      pop\n      jump\t// out\n        /* \"#utility.yul\":4614:4927   */\n    tag_30:\n        /* \"#utility.yul\":4727:4731   */\n      0x00\n        /* \"#utility.yul\":4765:4767   */\n      0x20\n        /* \"#utility.yul\":4754:4763   */\n      dup3\n        /* \"#utility.yul\":4750:4768   */\n      add\n        /* \"#utility.yul\":4742:4768   */\n      swap1\n      pop\n        /* \"#utility.yul\":4814:4823   */\n      dup2\n        /* \"#utility.yul\":4808:4812   */\n      dup2\n        /* \"#utility.yul\":4804:4824   */\n      sub\n        /* \"#utility.yul\":4800:4801   */\n      0x00\n        /* \"#utility.yul\":4789:4798   */\n      dup4\n        /* \"#utility.yul\":4785:4802   */\n      add\n        /* \"#utility.yul\":4778:4825   */\n      mstore\n        /* \"#utility.yul\":4842:4920   */\n      tag_507\n        /* \"#utility.yul\":4915:4919   */\n      dup2\n        /* \"#utility.yul\":4906:4912   */\n      dup5\n        /* \"#utility.yul\":4842:4920   */\n      tag_385\n      jump\t// in\n    tag_507:\n        /* \"#utility.yul\":4834:4920   */\n      swap1\n      pop\n        /* \"#utility.yul\":4614:4927   */\n      swap3\n      swap2\n      pop\n      pop\n      jump\t// out\n        /* \"#utility.yul\":4933:5037   */\n    tag_386:\n        /* \"#utility.yul\":4978:4985   */\n      0x00\n        /* \"#utility.yul\":5007:5031   */\n      tag_509\n        /* \"#utility.yul\":5025:5030   */\n      dup3\n        /* \"#utility.yul\":5007:5031   */\n      tag_370\n      jump\t// in\n    tag_509:\n        /* \"#utility.yul\":4996:5031   */\n      swap1\n      pop\n        /* \"#utility.yul\":4933:5037   */\n      swap2\n      swap1\n      pop\n      jump\t// out\n        /* \"#utility.yul\":5043:5185   */\n    tag_387:\n        /* \"#utility.yul\":5146:5178   */\n      tag_511\n        /* \"#utility.yul\":5172:5177   */\n      dup2\n        /* \"#utility.yul\":5146:5178   */\n      tag_386\n      jump\t// in\n    tag_511:\n        /* \"#utility.yul\":5141:5144   */\n      dup3\n        /* \"#utility.yul\":5134:5179   */\n      mstore\n        /* \"#utility.yul\":5043:5185   */\n      pop\n      pop\n      jump\t// out\n        /* \"#utility.yul\":5191:5445   */\n    tag_45:\n        /* \"#utility.yul\":5300:5304   */\n      0x00\n        /* \"#utility.yul\":5338:5340   */\n      0x20\n        /* \"#utility.yul\":5327:5336   */\n      dup3\n        /* \"#utility.yul\":5323:5341   */\n      add\n        /* \"#utility.yul\":5315:5341   */\n      swap1\n      pop\n        /* \"#utility.yul\":5351:5438   */\n      tag_513\n        /* \"#utility.yul\":5435:5436   */\n      0x00\n        /* \"#utility.yul\":5424:5433   */\n      dup4\n        /* \"#utility.yul\":5420:5437   */\n      add\n        /* \"#utility.yul\":5411:5417   */\n      dup5\n        /* \"#utility.yul\":5351:5438   */\n      tag_387\n      jump\t// in\n    tag_513:\n        /* \"#utility.yul\":5191:5445   */\n      swap3\n      swap2\n      pop\n      pop\n      jump\t// out\n        /* \"#utility.yul\":5451:5537   */\n    tag_388:\n        /* \"#utility.yul\":5486:5493   */\n      0x00\n        /* \"#utility.yul\":5526:5530   */\n      0xff\n        /* \"#utility.yul\":5519:5524   */\n      dup3\n        /* \"#utility.yul\":5515:5531   */\n      and\n        /* \"#utility.yul\":5504:5531   */\n      swap1\n      pop\n        /* \"#utility.yul\":5451:5537   */\n      swap2\n      swap1\n      pop\n      jump\t// out\n        /* \"#utility.yul\":5543:5655   */\n    tag_389:\n        /* \"#utility.yul\":5626:5648   */\n      tag_516\n        /* \"#utility.yul\":5642:5647   */\n      dup2\n        /* \"#utility.yul\":5626:5648   */\n      tag_388\n      jump\t// in\n    tag_516:\n        /* \"#utility.yul\":5621:5624   */\n      dup3\n        /* \"#utility.yul\":5614:5649   */\n      mstore\n        /* \"#utility.yul\":5543:5655   */\n      pop\n      pop\n      jump\t// out\n        /* \"#utility.yul\":5661:5875   */\n    tag_61:\n        /* \"#utility.yul\":5750:5754   */\n      0x00\n        /* \"#utility.yul\":5788:5790   */\n      0x20\n        /* \"#utility.yul\":5777:5786   */\n      dup3\n        /* \"#utility.yul\":5773:5791   */\n      add\n        /* \"#utility.yul\":5765:5791   */\n      swap1\n      pop\n        /* \"#utility.yul\":5801:5868   */\n      tag_518\n        /* \"#utility.yul\":5865:5866   */\n      0x00\n        /* \"#utility.yul\":5854:5863   */\n      dup4\n        /* \"#utility.yul\":5850:5867   */\n      add\n        /* \"#utility.yul\":5841:5847   */\n      dup5\n        /* \"#utility.yul\":5801:5868   */\n      tag_389\n      jump\t// in\n    tag_518:\n        /* \"#utility.yul\":5661:5875   */\n      swap3\n      swap2\n      pop\n      pop\n      jump\t// out\n        /* \"#utility.yul\":5881:5999   */\n    tag_390:\n        /* \"#utility.yul\":5968:5992   */\n      tag_520\n        /* \"#utility.yul\":5986:5991   */\n      dup2\n        /* \"#utility.yul\":5968:5992   */\n      tag_374\n      jump\t// in\n    tag_520:\n        /* \"#utility.yul\":5963:5966   */\n      dup3\n        /* \"#utility.yul\":5956:5993   */\n      mstore\n        /* \"#utility.yul\":5881:5999   */\n      pop\n      pop\n      jump\t// out\n        /* \"#utility.yul\":6005:6227   */\n    tag_66:\n        /* \"#utility.yul\":6098:6102   */\n      0x00\n        /* \"#utility.yul\":6136:6138   */\n      0x20\n        /* \"#utility.yul\":6125:6134   */\n      dup3\n        /* \"#utility.yul\":6121:6139   */\n      add\n        /* \"#utility.yul\":6113:6139   */\n      swap1\n      pop\n        /* \"#utility.yul\":6149:6220   */\n      tag_522\n        /* \"#utility.yul\":6217:6218   */\n      0x00\n        /* \"#utility.yul\":6206:6215   */\n      dup4\n        /* \"#utility.yul\":6202:6219   */\n      add\n        /* \"#utility.yul\":6193:6199   */\n      dup5\n        /* \"#utility.yul\":6149:6220   */\n      tag_390\n      jump\t// in\n    tag_522:\n        /* \"#utility.yul\":6005:6227   */\n      swap3\n      swap2\n      pop\n      pop\n      jump\t// out\n        /* \"#utility.yul\":6233:6411   */\n    tag_391:\n        /* \"#utility.yul\":6373:6403   */\n      0x4e6f20657265732063726561646f722064656c20636f6e747261746f00000000\n        /* \"#utility.yul\":6369:6370   */\n      0x00\n        /* \"#utility.yul\":6361:6367   */\n      dup3\n        /* \"#utility.yul\":6357:6371   */\n      add\n        /* \"#utility.yul\":6350:6404   */\n      mstore\n        /* \"#utility.yul\":6233:6411   */\n      pop\n      jump\t// out\n        /* \"#utility.yul\":6417:6783   */\n    tag_392:\n        /* \"#utility.yul\":6559:6562   */\n      0x00\n        /* \"#utility.yul\":6580:6647   */\n      tag_525\n        /* \"#utility.yul\":6644:6646   */\n      0x1c\n        /* \"#utility.yul\":6639:6642   */\n      dup4\n        /* \"#utility.yul\":6580:6647   */\n      tag_382\n      jump\t// in\n    tag_525:\n        /* \"#utility.yul\":6573:6647   */\n      swap2\n      pop\n        /* \"#utility.yul\":6656:6749   */\n      tag_526\n        /* \"#utility.yul\":6745:6748   */\n      dup3\n        /* \"#utility.yul\":6656:6749   */\n      tag_391\n      jump\t// in\n    tag_526:\n        /* \"#utility.yul\":6774:6776   */\n      0x20\n        /* \"#utility.yul\":6769:6772   */\n      dup3\n        /* \"#utility.yul\":6765:6777   */\n      add\n        /* \"#utility.yul\":6758:6777   */\n      swap1\n      pop\n        /* \"#utility.yul\":6417:6783   */\n      swap2\n      swap1\n      pop\n      jump\t// out\n        /* \"#utility.yul\":6789:7208   */\n    tag_74:\n        /* \"#utility.yul\":6955:6959   */\n      0x00\n        /* \"#utility.yul\":6993:6995   */\n      0x20\n        /* \"#utility.yul\":6982:6991   */\n      dup3\n        /* \"#utility.yul\":6978:6996   */\n      add\n        /* \"#utility.yul\":6970:6996   */\n      swap1\n      pop\n        /* \"#utility.yul\":7042:7051   */\n      dup2\n        /* \"#utility.yul\":7036:7040   */\n      dup2\n        /* \"#utility.yul\":7032:7052   */\n      sub\n        /* \"#utility.yul\":7028:7029   */\n      0x00\n        /* \"#utility.yul\":7017:7026   */\n      dup4\n        /* \"#utility.yul\":7013:7030   */\n      add\n        /* \"#utility.yul\":7006:7053   */\n      mstore\n        /* \"#utility.yul\":7070:7201   */\n      tag_528\n        /* \"#utility.yul\":7196:7200   */\n      dup2\n        /* \"#utility.yul\":7070:7201   */\n      tag_392\n      jump\t// in\n    tag_528:\n        /* \"#utility.yul\":7062:7201   */\n      swap1\n      pop\n        /* \"#utility.yul\":6789:7208   */\n      swap2\n      swap1\n      pop\n      jump\t// out\n        /* \"#utility.yul\":7214:7381   */\n    tag_393:\n        /* \"#utility.yul\":7354:7373   */\n      0x4e6f742076616c69642061646472657373000000000000000000000000000000\n        /* \"#utility.yul\":7350:7351   */\n      0x00\n        /* \"#utility.yul\":7342:7348   */\n      dup3\n        /* \"#utility.yul\":7338:7352   */\n      add\n        /* \"#utility.yul\":7331:7374   */\n      mstore\n        /* \"#utility.yul\":7214:7381   */\n      pop\n      jump\t// out\n        /* \"#utility.yul\":7387:7753   */\n    tag_394:\n        /* \"#utility.yul\":7529:7532   */\n      0x00\n        /* \"#utility.yul\":7550:7617   */\n      tag_531\n        /* \"#utility.yul\":7614:7616   */\n      0x11\n        /* \"#utility.yul\":7609:7612   */\n      dup4\n        /* \"#utility.yul\":7550:7617   */\n      tag_382\n      jump\t// in\n    tag_531:\n        /* \"#utility.yul\":7543:7617   */\n      swap2\n      pop\n        /* \"#utility.yul\":7626:7719   */\n      tag_532\n        /* \"#utility.yul\":7715:7718   */\n      dup3\n        /* \"#utility.yul\":7626:7719   */\n      tag_393\n      jump\t// in\n    tag_532:\n        /* \"#utility.yul\":7744:7746   */\n      0x20\n        /* \"#utility.yul\":7739:7742   */\n      dup3\n        /* \"#utility.yul\":7735:7747   */\n      add\n        /* \"#utility.yul\":7728:7747   */\n      swap1\n      pop\n        /* \"#utility.yul\":7387:7753   */\n      swap2\n      swap1\n      pop\n      jump\t// out\n        /* \"#utility.yul\":7759:8178   */\n    tag_78:\n        /* \"#utility.yul\":7925:7929   */\n      0x00\n        /* \"#utility.yul\":7963:7965   */\n      0x20\n        /* \"#utility.yul\":7952:7961   */\n      dup3\n        /* \"#utility.yul\":7948:7966   */\n      add\n        /* \"#utility.yul\":7940:7966   */\n      swap1\n      pop\n        /* \"#utility.yul\":8012:8021   */\n      dup2\n        /* \"#utility.yul\":8006:8010   */\n      dup2\n        /* \"#utility.yul\":8002:8022   */\n      sub\n        /* \"#utility.yul\":7998:7999   */\n      0x00\n        /* \"#utility.yul\":7987:7996   */\n      dup4\n        /* \"#utility.yul\":7983:8000   */\n      add\n        /* \"#utility.yul\":7976:8023   */\n      mstore\n        /* \"#utility.yul\":8040:8171   */\n      tag_534\n        /* \"#utility.yul\":8166:8170   */\n      dup2\n        /* \"#utility.yul\":8040:8171   */\n      tag_394\n      jump\t// in\n    tag_534:\n        /* \"#utility.yul\":8032:8171   */\n      swap1\n      pop\n        /* \"#utility.yul\":7759:8178   */\n      swap2\n      swap1\n      pop\n      jump\t// out\n        /* \"#utility.yul\":8184:8364   */\n    tag_395:\n        /* \"#utility.yul\":8232:8309   */\n      0x4e487b7100000000000000000000000000000000000000000000000000000000\n        /* \"#utility.yul\":8229:8230   */\n      0x00\n        /* \"#utility.yul\":8222:8310   */\n      mstore\n        /* \"#utility.yul\":8329:8333   */\n      0x11\n        /* \"#utility.yul\":8326:8327   */\n      0x04\n        /* \"#utility.yul\":8319:8334   */\n      mstore\n        /* \"#utility.yul\":8353:8357   */\n      0x24\n        /* \"#utility.yul\":8350:8351   */\n      0x00\n        /* \"#utility.yul\":8343:8358   */\n      revert\n        /* \"#utility.yul\":8370:8537   */\n    tag_87:\n        /* \"#utility.yul\":8407:8410   */\n      0x00\n        /* \"#utility.yul\":8430:8452   */\n      tag_537\n        /* \"#utility.yul\":8446:8451   */\n      dup3\n        /* \"#utility.yul\":8430:8452   */\n      tag_388\n      jump\t// in\n    tag_537:\n        /* \"#utility.yul\":8421:8452   */\n      swap2\n      pop\n        /* \"#utility.yul\":8474:8478   */\n      0xff\n        /* \"#utility.yul\":8467:8472   */\n      dup3\n        /* \"#utility.yul\":8464:8479   */\n      sub\n        /* \"#utility.yul\":8461:8502   */\n      tag_538\n      jumpi\n        /* \"#utility.yul\":8482:8500   */\n      tag_539\n      tag_395\n      jump\t// in\n    tag_539:\n        /* \"#utility.yul\":8461:8502   */\n    tag_538:\n        /* \"#utility.yul\":8529:8530   */\n      0x01\n        /* \"#utility.yul\":8522:8527   */\n      dup3\n        /* \"#utility.yul\":8518:8531   */\n      add\n        /* \"#utility.yul\":8511:8531   */\n      swap1\n      pop\n        /* \"#utility.yul\":8370:8537   */\n      swap2\n      swap1\n      pop\n      jump\t// out\n        /* \"#utility.yul\":8543:8640   */\n    tag_396:\n        /* \"#utility.yul\":8602:8608   */\n      0x00\n        /* \"#utility.yul\":8630:8633   */\n      dup3\n        /* \"#utility.yul\":8620:8633   */\n      swap1\n      pop\n        /* \"#utility.yul\":8543:8640   */\n      swap3\n      swap2\n      pop\n      pop\n      jump\t// out\n        /* \"#utility.yul\":8646:8826   */\n    tag_397:\n        /* \"#utility.yul\":8694:8771   */\n      0x4e487b7100000000000000000000000000000000000000000000000000000000\n        /* \"#utility.yul\":8691:8692   */\n      0x00\n        /* \"#utility.yul\":8684:8772   */\n      mstore\n        /* \"#utility.yul\":8791:8795   */\n      0x41\n        /* \"#utility.yul\":8788:8789   */\n      0x04\n        /* \"#utility.yul\":8781:8796   */\n      mstore\n        /* \"#utility.yul\":8815:8819   */\n      0x24\n        /* \"#utility.yul\":8812:8813   */\n      0x00\n        /* \"#utility.yul\":8805:8820   */\n      revert\n        /* \"#utility.yul\":8832:9012   */\n    tag_398:\n        /* \"#utility.yul\":8880:8957   */\n      0x4e487b7100000000000000000000000000000000000000000000000000000000\n        /* \"#utility.yul\":8877:8878   */\n      0x00\n        /* \"#utility.yul\":8870:8958   */\n      mstore\n        /* \"#utility.yul\":8977:8981   */\n      0x22\n        /* \"#utility.yul\":8974:8975   */\n      0x04\n        /* \"#utility.yul\":8967:8982   */\n      mstore\n        /* \"#utility.yul\":9001:9005   */\n      0x24\n        /* \"#utility.yul\":8998:8999   */\n      0x00\n        /* \"#utility.yul\":8991:9006   */\n      revert\n        /* \"#utility.yul\":9018:9338   */\n    tag_158:\n        /* \"#utility.yul\":9062:9068   */\n      0x00\n        /* \"#utility.yul\":9099:9100   */\n      0x02\n        /* \"#utility.yul\":9093:9097   */\n      dup3\n        /* \"#utility.yul\":9089:9101   */\n      div\n        /* \"#utility.yul\":9079:9101   */\n      swap1\n      pop\n        /* \"#utility.yul\":9146:9147   */\n      0x01\n        /* \"#utility.yul\":9140:9144   */\n      dup3\n        /* \"#utility.yul\":9136:9148   */\n      and\n        /* \"#utility.yul\":9167:9185   */\n      dup1\n        /* \"#utility.yul\":9157:9238   */\n      tag_544\n      jumpi\n        /* \"#utility.yul\":9223:9227   */\n      0x7f\n        /* \"#utility.yul\":9215:9221   */\n      dup3\n        /* \"#utility.yul\":9211:9228   */\n      and\n        /* \"#utility.yul\":9201:9228   */\n      swap2\n      pop\n        /* \"#utility.yul\":9157:9238   */\n    tag_544:\n        /* \"#utility.yul\":9285:9287   */\n      0x20\n        /* \"#utility.yul\":9277:9283   */\n      dup3\n        /* \"#utility.yul\":9274:9288   */\n      lt\n        /* \"#utility.yul\":9254:9272   */\n      dup2\n        /* \"#utility.yul\":9251:9289   */\n      sub\n        /* \"#utility.yul\":9248:9332   */\n      tag_545\n      jumpi\n        /* \"#utility.yul\":9304:9322   */\n      tag_546\n      tag_398\n      jump\t// in\n    tag_546:\n        /* \"#utility.yul\":9248:9332   */\n    tag_545:\n        /* \"#utility.yul\":9069:9338   */\n      pop\n        /* \"#utility.yul\":9018:9338   */\n      swap2\n      swap1\n      pop\n      jump\t// out\n        /* \"#utility.yul\":9344:9485   */\n    tag_399:\n        /* \"#utility.yul\":9393:9397   */\n      0x00\n        /* \"#utility.yul\":9416:9419   */\n      dup2\n        /* \"#utility.yul\":9408:9419   */\n      swap1\n      pop\n        /* \"#utility.yul\":9439:9442   */\n      dup2\n        /* \"#utility.yul\":9436:9437   */\n      0x00\n        /* \"#utility.yul\":9429:9443   */\n      mstore\n        /* \"#utility.yul\":9473:9477   */\n      0x20\n        /* \"#utility.yul\":9470:9471   */\n      0x00\n        /* \"#utility.yul\":9460:9478   */\n      keccak256\n        /* \"#utility.yul\":9452:9478   */\n      swap1\n      pop\n        /* \"#utility.yul\":9344:9485   */\n      swap2\n      swap1\n      pop\n      jump\t// out\n        /* \"#utility.yul\":9491:9584   */\n    tag_400:\n        /* \"#utility.yul\":9528:9534   */\n      0x00\n        /* \"#utility.yul\":9575:9577   */\n      0x20\n        /* \"#utility.yul\":9570:9572   */\n      0x1f\n        /* \"#utility.yul\":9563:9568   */\n      dup4\n        /* \"#utility.yul\":9559:9573   */\n      add\n        /* \"#utility.yul\":9555:9578   */\n      div\n        /* \"#utility.yul\":9545:9578   */\n      swap1\n      pop\n        /* \"#utility.yul\":9491:9584   */\n      swap2\n      swap1\n      pop\n      jump\t// out\n        /* \"#utility.yul\":9590:9697   */\n    tag_401:\n        /* \"#utility.yul\":9634:9642   */\n      0x00\n        /* \"#utility.yul\":9684:9689   */\n      dup3\n        /* \"#utility.yul\":9678:9682   */\n      dup3\n        /* \"#utility.yul\":9674:9690   */\n      shl\n        /* \"#utility.yul\":9653:9690   */\n      swap1\n      pop\n        /* \"#utility.yul\":9590:9697   */\n      swap3\n      swap2\n      pop\n      pop\n      jump\t// out\n        /* \"#utility.yul\":9703:10096   */\n    tag_402:\n        /* \"#utility.yul\":9772:9778   */\n      0x00\n        /* \"#utility.yul\":9822:9823   */\n      0x08\n        /* \"#utility.yul\":9810:9820   */\n      dup4\n        /* \"#utility.yul\":9806:9824   */\n      mul\n        /* \"#utility.yul\":9845:9942   */\n      tag_551\n        /* \"#utility.yul\":9875:9941   */\n      0xffffffffffffffffffffffffffffffffffffffffffffffffffffffffffffffff\n        /* \"#utility.yul\":9864:9873   */\n      dup3\n        /* \"#utility.yul\":9845:9942   */\n      tag_401\n      jump\t// in\n    tag_551:\n        /* \"#utility.yul\":9963:10002   */\n      tag_552\n        /* \"#utility.yul\":9993:10001   */\n      dup7\n        /* \"#utility.yul\":9982:9991   */\n      dup4\n        /* \"#utility.yul\":9963:10002   */\n      tag_401\n      jump\t// in\n    tag_552:\n        /* \"#utility.yul\":9951:10002   */\n      swap6\n      pop\n        /* \"#utility.yul\":10035:10039   */\n      dup1\n        /* \"#utility.yul\":10031:10040   */\n      not\n        /* \"#utility.yul\":10024:10029   */\n      dup5\n        /* \"#utility.yul\":10020:10041   */\n      and\n        /* \"#utility.yul\":10011:10041   */\n      swap4\n      pop\n        /* \"#utility.yul\":10084:10088   */\n      dup1\n        /* \"#utility.yul\":10074:10082   */\n      dup7\n        /* \"#utility.yul\":10070:10089   */\n      and\n        /* \"#utility.yul\":10063:10068   */\n      dup5\n        /* \"#utility.yul\":10060:10090   */\n      or\n        /* \"#utility.yul\":10050:10090   */\n      swap3\n      pop\n        /* \"#utility.yul\":9779:10096   */\n      pop\n      pop\n        /* \"#utility.yul\":9703:10096   */\n      swap4\n      swap3\n      pop\n      pop\n      pop\n      jump\t// out\n        /* \"#utility.yul\":10102:10162   */\n    tag_403:\n        /* \"#utility.yul\":10130:10133   */\n      0x00\n        /* \"#utility.yul\":10151:10156   */\n      dup2\n        /* \"#utility.yul\":10144:10156   */\n      swap1\n      pop\n        /* \"#utility.yul\":10102:10162   */\n      swap2\n      swap1\n      pop\n      jump\t// out\n        /* \"#utility.yul\":10168:10310   */\n    tag_404:\n        /* \"#utility.yul\":10218:10227   */\n      0x00\n        /* \"#utility.yul\":10251:10304   */\n      tag_555\n        /* \"#utility.yul\":10269:10303   */\n      tag_556\n        /* \"#utility.yul\":10278:10302   */\n      tag_557\n        /* \"#utility.yul\":10296:10301   */\n      dup5\n        /* \"#utility.yul\":10278:10302   */\n      tag_374\n      jump\t// in\n    tag_557:\n        /* \"#utility.yul\":10269:10303   */\n      tag_403\n      jump\t// in\n    tag_556:\n        /* \"#utility.yul\":10251:10304   */\n      tag_374\n      jump\t// in\n    tag_555:\n        /* \"#utility.yul\":10238:10304   */\n      swap1\n      pop\n        /* \"#utility.yul\":10168:10310   */\n      swap2\n      swap1\n      pop\n      jump\t// out\n        /* \"#utility.yul\":10316:10391   */\n    tag_405:\n        /* \"#utility.yul\":10359:10362   */\n      0x00\n        /* \"#utility.yul\":10380:10385   */\n      dup2\n        /* \"#utility.yul\":10373:10385   */\n      swap1\n      pop\n        /* \"#utility.yul\":10316:10391   */\n      swap2\n      swap1\n      pop\n      jump\t// out\n        /* \"#utility.yul\":10397:10666   */\n    tag_406:\n        /* \"#utility.yul\":10507:10546   */\n      tag_560\n        /* \"#utility.yul\":10538:10545   */\n      dup4\n        /* \"#utility.yul\":10507:10546   */\n      tag_404\n      jump\t// in\n    tag_560:\n        /* \"#utility.yul\":10568:10659   */\n      tag_561\n        /* \"#utility.yul\":10617:10658   */\n      tag_562\n        /* \"#utility.yul\":10641:10657   */\n      dup3\n        /* \"#utility.yul\":10617:10658   */\n      tag_405\n      jump\t// in\n    tag_562:\n        /* \"#utility.yul\":10609:10615   */\n      dup5\n        /* \"#utility.yul\":10602:10606   */\n      dup5\n        /* \"#utility.yul\":10596:10607   */\n      sload\n        /* \"#utility.yul\":10568:10659   */\n      tag_402\n      jump\t// in\n    tag_561:\n        /* \"#utility.yul\":10562:10566   */\n      dup3\n        /* \"#utility.yul\":10555:10660   */\n      sstore\n        /* \"#utility.yul\":10473:10666   */\n      pop\n        /* \"#utility.yul\":10397:10666   */\n      pop\n      pop\n      pop\n      jump\t// out\n        /* \"#utility.yul\":10672:10745   */\n    tag_407:\n        /* \"#utility.yul\":10717:10720   */\n      0x00\n        /* \"#utility.yul\":10672:10745   */\n      swap1\n      jump\t// out\n        /* \"#utility.yul\":10751:10940   */\n    tag_408:\n        /* \"#utility.yul\":10828:10860   */\n      tag_565\n      tag_407\n      jump\t// in\n    tag_565:\n        /* \"#utility.yul\":10869:10934   */\n      tag_566\n        /* \"#utility.yul\":10927:10933   */\n      dup2\n        /* \"#utility.yul\":10919:10925   */\n      dup5\n        /* \"#utility.yul\":10913:10917   */\n      dup5\n        /* \"#utility.yul\":10869:10934   */\n      tag_406\n      jump\t// in\n    tag_566:\n        /* \"#utility.yul\":10804:10940   */\n      pop\n        /* \"#utility.yul\":10751:10940   */\n      pop\n      pop\n      jump\t// out\n        /* \"#utility.yul\":10946:11132   */\n    tag_409:\n        /* \"#utility.yul\":11006:11126   */\n    tag_568:\n        /* \"#utility.yul\":11023:11026   */\n      dup2\n        /* \"#utility.yul\":11016:11021   */\n      dup2\n        /* \"#utility.yul\":11013:11027   */\n      lt\n        /* \"#utility.yul\":11006:11126   */\n      iszero\n      tag_570\n      jumpi\n        /* \"#utility.yul\":11077:11116   */\n      tag_571\n        /* \"#utility.yul\":11114:11115   */\n      0x00\n        /* \"#utility.yul\":11107:11112   */\n      dup3\n        /* \"#utility.yul\":11077:11116   */\n      tag_408\n      jump\t// in\n    tag_571:\n        /* \"#utility.yul\":11050:11051   */\n      0x01\n        /* \"#utility.yul\":11043:11048   */\n      dup2\n        /* \"#utility.yul\":11039:11052   */\n      add\n        /* \"#utility.yul\":11030:11052   */\n      swap1\n      pop\n        /* \"#utility.yul\":11006:11126   */\n      jump(tag_568)\n    tag_570:\n        /* \"#utility.yul\":10946:11132   */\n      pop\n      pop\n      jump\t// out\n        /* \"#utility.yul\":11138:11681   */\n    tag_410:\n        /* \"#utility.yul\":11239:11241   */\n      0x1f\n        /* \"#utility.yul\":11234:11237   */\n      dup3\n        /* \"#utility.yul\":11231:11242   */\n      gt\n        /* \"#utility.yul\":11228:11674   */\n      iszero\n      tag_573\n      jumpi\n        /* \"#utility.yul\":11273:11311   */\n      tag_574\n        /* \"#utility.yul\":11305:11310   */\n      dup2\n        /* \"#utility.yul\":11273:11311   */\n      tag_399\n      jump\t// in\n    tag_574:\n        /* \"#utility.yul\":11357:11386   */\n      tag_575\n        /* \"#utility.yul\":11375:11385   */\n      dup5\n        /* \"#utility.yul\":11357:11386   */\n      tag_400\n      jump\t// in\n    tag_575:\n        /* \"#utility.yul\":11347:11355   */\n      dup2\n        /* \"#utility.yul\":11343:11387   */\n      add\n        /* \"#utility.yul\":11540:11542   */\n      0x20\n        /* \"#utility.yul\":11528:11538   */\n      dup6\n        /* \"#utility.yul\":11525:11543   */\n      lt\n        /* \"#utility.yul\":11522:11571   */\n      iszero\n      tag_576\n      jumpi\n        /* \"#utility.yul\":11561:11569   */\n      dup2\n        /* \"#utility.yul\":11546:11569   */\n      swap1\n      pop\n        /* \"#utility.yul\":11522:11571   */\n    tag_576:\n        /* \"#utility.yul\":11584:11664   */\n      tag_577\n        /* \"#utility.yul\":11640:11662   */\n      tag_578\n        /* \"#utility.yul\":11658:11661   */\n      dup6\n        /* \"#utility.yul\":11640:11662   */\n      tag_400\n      jump\t// in\n    tag_578:\n        /* \"#utility.yul\":11630:11638   */\n      dup4\n        /* \"#utility.yul\":11626:11663   */\n      add\n        /* \"#utility.yul\":11613:11624   */\n      dup3\n        /* \"#utility.yul\":11584:11664   */\n      tag_409\n      jump\t// in\n    tag_577:\n        /* \"#utility.yul\":11243:11674   */\n      pop\n      pop\n        /* \"#utility.yul\":11228:11674   */\n    tag_573:\n        /* \"#utility.yul\":11138:11681   */\n      pop\n      pop\n      pop\n      jump\t// out\n        /* \"#utility.yul\":11687:11804   */\n    tag_411:\n        /* \"#utility.yul\":11741:11749   */\n      0x00\n        /* \"#utility.yul\":11791:11796   */\n      dup3\n        /* \"#utility.yul\":11785:11789   */\n      dup3\n        /* \"#utility.yul\":11781:11797   */\n      shr\n        /* \"#utility.yul\":11760:11797   */\n      swap1\n      pop\n        /* \"#utility.yul\":11687:11804   */\n      swap3\n      swap2\n      pop\n      pop\n      jump\t// out\n        /* \"#utility.yul\":11810:11979   */\n    tag_412:\n        /* \"#utility.yul\":11854:11860   */\n      0x00\n        /* \"#utility.yul\":11887:11938   */\n      tag_581\n        /* \"#utility.yul\":11935:11936   */\n      0x00\n        /* \"#utility.yul\":11931:11937   */\n      not\n        /* \"#utility.yul\":11923:11928   */\n      dup5\n        /* \"#utility.yul\":11920:11921   */\n      0x08\n        /* \"#utility.yul\":11916:11929   */\n      mul\n        /* \"#utility.yul\":11887:11938   */\n      tag_411\n      jump\t// in\n    tag_581:\n        /* \"#utility.yul\":11883:11939   */\n      not\n        /* \"#utility.yul\":11968:11972   */\n      dup1\n        /* \"#utility.yul\":11962:11966   */\n      dup4\n        /* \"#utility.yul\":11958:11973   */\n      and\n        /* \"#utility.yul\":11948:11973   */\n      swap2\n      pop\n        /* \"#utility.yul\":11861:11979   */\n      pop\n        /* \"#utility.yul\":11810:11979   */\n      swap3\n      swap2\n      pop\n      pop\n      jump\t// out\n        /* \"#utility.yul\":11984:12279   */\n    tag_413:\n        /* \"#utility.yul\":12060:12064   */\n      0x00\n        /* \"#utility.yul\":12206:12235   */\n      tag_583\n        /* \"#utility.yul\":12231:12234   */\n      dup4\n        /* \"#utility.yul\":12225:12229   */\n      dup4\n        /* \"#utility.yul\":12206:12235   */\n      tag_412\n      jump\t// in\n    tag_583:\n        /* \"#utility.yul\":12198:12235   */\n      swap2\n      pop\n        /* \"#utility.yul\":12268:12271   */\n      dup3\n        /* \"#utility.yul\":12265:12266   */\n      0x02\n        /* \"#utility.yul\":12261:12272   */\n      mul\n        /* \"#utility.yul\":12255:12259   */\n      dup3\n        /* \"#utility.yul\":12252:12273   */\n      or\n        /* \"#utility.yul\":12244:12273   */\n      swap1\n      pop\n        /* \"#utility.yul\":11984:12279   */\n      swap3\n      swap2\n      pop\n      pop\n      jump\t// out\n        /* \"#utility.yul\":12284:13687   */\n    tag_89:\n        /* \"#utility.yul\":12408:12452   */\n      tag_585\n        /* \"#utility.yul\":12448:12451   */\n      dup4\n        /* \"#utility.yul\":12443:12446   */\n      dup4\n        /* \"#utility.yul\":12408:12452   */\n      tag_396\n      jump\t// in\n    tag_585:\n        /* \"#utility.yul\":12517:12535   */\n      0xffffffffffffffff\n        /* \"#utility.yul\":12509:12515   */\n      dup2\n        /* \"#utility.yul\":12506:12536   */\n      gt\n        /* \"#utility.yul\":12503:12559   */\n      iszero\n      tag_586\n      jumpi\n        /* \"#utility.yul\":12539:12557   */\n      tag_587\n      tag_397\n      jump\t// in\n    tag_587:\n        /* \"#utility.yul\":12503:12559   */\n    tag_586:\n        /* \"#utility.yul\":12583:12621   */\n      tag_588\n        /* \"#utility.yul\":12615:12619   */\n      dup3\n        /* \"#utility.yul\":12609:12620   */\n      sload\n        /* \"#utility.yul\":12583:12621   */\n      tag_158\n      jump\t// in\n    tag_588:\n        /* \"#utility.yul\":12668:12735   */\n      tag_589\n        /* \"#utility.yul\":12728:12734   */\n      dup3\n        /* \"#utility.yul\":12720:12726   */\n      dup3\n        /* \"#utility.yul\":12714:12718   */\n      dup6\n        /* \"#utility.yul\":12668:12735   */\n      tag_410\n      jump\t// in\n    tag_589:\n        /* \"#utility.yul\":12762:12763   */\n      0x00\n        /* \"#utility.yul\":12791:12793   */\n      0x1f\n        /* \"#utility.yul\":12783:12789   */\n      dup4\n        /* \"#utility.yul\":12780:12794   */\n      gt\n        /* \"#utility.yul\":12808:12809   */\n      0x01\n        /* \"#utility.yul\":12803:13435   */\n      dup2\n      eq\n      tag_591\n      jumpi\n        /* \"#utility.yul\":13479:13480   */\n      0x00\n        /* \"#utility.yul\":13496:13502   */\n      dup5\n        /* \"#utility.yul\":13493:13577   */\n      iszero\n      tag_592\n      jumpi\n        /* \"#utility.yul\":13552:13561   */\n      dup3\n        /* \"#utility.yul\":13547:13550   */\n      dup8\n        /* \"#utility.yul\":13543:13562   */\n      add\n        /* \"#utility.yul\":13530:13563   */\n      calldataload\n        /* \"#utility.yul\":13521:13563   */\n      swap1\n      pop\n        /* \"#utility.yul\":13493:13577   */\n    tag_592:\n        /* \"#utility.yul\":13603:13670   */\n      tag_593\n        /* \"#utility.yul\":13663:13669   */\n      dup6\n        /* \"#utility.yul\":13656:13661   */\n      dup3\n        /* \"#utility.yul\":13603:13670   */\n      tag_413\n      jump\t// in\n    tag_593:\n        /* \"#utility.yul\":13597:13601   */\n      dup7\n        /* \"#utility.yul\":13590:13671   */\n      sstore\n        /* \"#utility.yul\":13452:13681   */\n      pop\n        /* \"#utility.yul\":12773:13681   */\n      jump(tag_590)\n        /* \"#utility.yul\":12803:13435   */\n    tag_591:\n        /* \"#utility.yul\":12855:12859   */\n      0x1f\n        /* \"#utility.yul\":12851:12860   */\n      not\n        /* \"#utility.yul\":12843:12849   */\n      dup5\n        /* \"#utility.yul\":12839:12861   */\n      and\n        /* \"#utility.yul\":12889:12926   */\n      tag_594\n        /* \"#utility.yul\":12921:12925   */\n      dup7\n        /* \"#utility.yul\":12889:12926   */\n      tag_399\n      jump\t// in\n    tag_594:\n        /* \"#utility.yul\":12948:12949   */\n      0x00\n        /* \"#utility.yul\":12962:13177   */\n    tag_595:\n        /* \"#utility.yul\":12976:12983   */\n      dup3\n        /* \"#utility.yul\":12973:12974   */\n      dup2\n        /* \"#utility.yul\":12970:12984   */\n      lt\n        /* \"#utility.yul\":12962:13177   */\n      iszero\n      tag_597\n      jumpi\n        /* \"#utility.yul\":13062:13071   */\n      dup5\n        /* \"#utility.yul\":13057:13060   */\n      dup10\n        /* \"#utility.yul\":13053:13072   */\n      add\n        /* \"#utility.yul\":13040:13073   */\n      calldataload\n        /* \"#utility.yul\":13032:13038   */\n      dup3\n        /* \"#utility.yul\":13025:13074   */\n      sstore\n        /* \"#utility.yul\":13113:13114   */\n      0x01\n        /* \"#utility.yul\":13105:13111   */\n      dup3\n        /* \"#utility.yul\":13101:13115   */\n      add\n        /* \"#utility.yul\":13091:13115   */\n      swap2\n      pop\n        /* \"#utility.yul\":13160:13162   */\n      0x20\n        /* \"#utility.yul\":13149:13158   */\n      dup6\n        /* \"#utility.yul\":13145:13163   */\n      add\n        /* \"#utility.yul\":13132:13163   */\n      swap5\n      pop\n        /* \"#utility.yul\":12999:13003   */\n      0x20\n        /* \"#utility.yul\":12996:12997   */\n      dup2\n        /* \"#utility.yul\":12992:13004   */\n      add\n        /* \"#utility.yul\":12987:13004   */\n      swap1\n      pop\n        /* \"#utility.yul\":12962:13177   */\n      jump(tag_595)\n    tag_597:\n        /* \"#utility.yul\":13205:13211   */\n      dup7\n        /* \"#utility.yul\":13196:13203   */\n      dup4\n        /* \"#utility.yul\":13193:13212   */\n      lt\n        /* \"#utility.yul\":13190:13376   */\n      iszero\n      tag_598\n      jumpi\n        /* \"#utility.yul\":13270:13279   */\n      dup5\n        /* \"#utility.yul\":13265:13268   */\n      dup10\n        /* \"#utility.yul\":13261:13280   */\n      add\n        /* \"#utility.yul\":13248:13281   */\n      calldataload\n        /* \"#utility.yul\":13313:13361   */\n      tag_599\n        /* \"#utility.yul\":13355:13359   */\n      0x1f\n        /* \"#utility.yul\":13347:13353   */\n      dup10\n        /* \"#utility.yul\":13343:13360   */\n      and\n        /* \"#utility.yul\":13332:13341   */\n      dup3\n        /* \"#utility.yul\":13313:13361   */\n      tag_412\n      jump\t// in\n    tag_599:\n        /* \"#utility.yul\":13305:13311   */\n      dup4\n        /* \"#utility.yul\":13298:13362   */\n      sstore\n        /* \"#utility.yul\":13213:13376   */\n      pop\n        /* \"#utility.yul\":13190:13376   */\n    tag_598:\n        /* \"#utility.yul\":13422:13423   */\n      0x01\n        /* \"#utility.yul\":13418:13419   */\n      0x02\n        /* \"#utility.yul\":13410:13416   */\n      dup9\n        /* \"#utility.yul\":13406:13420   */\n      mul\n        /* \"#utility.yul\":13402:13424   */\n      add\n        /* \"#utility.yul\":13396:13400   */\n      dup9\n        /* \"#utility.yul\":13389:13425   */\n      sstore\n        /* \"#utility.yul\":12810:13435   */\n      pop\n      pop\n      pop\n        /* \"#utility.yul\":12773:13681   */\n    tag_590:\n      pop\n        /* \"#utility.yul\":12383:13687   */\n      pop\n      pop\n      pop\n        /* \"#utility.yul\":12284:13687   */\n      pop\n      pop\n      pop\n      jump\t// out\n        /* \"#utility.yul\":13693:14103   */\n    tag_91:\n        /* \"#utility.yul\":13733:13740   */\n      0x00\n        /* \"#utility.yul\":13756:13776   */\n      tag_601\n        /* \"#utility.yul\":13774:13775   */\n      dup3\n        /* \"#utility.yul\":13756:13776   */\n      tag_374\n      jump\t// in\n    tag_601:\n        /* \"#utility.yul\":13751:13776   */\n      swap2\n      pop\n        /* \"#utility.yul\":13790:13810   */\n      tag_602\n        /* \"#utility.yul\":13808:13809   */\n      dup4\n        /* \"#utility.yul\":13790:13810   */\n      tag_374\n      jump\t// in\n    tag_602:\n        /* \"#utility.yul\":13785:13810   */\n      swap3\n      pop\n        /* \"#utility.yul\":13845:13846   */\n      dup3\n        /* \"#utility.yul\":13842:13843   */\n      dup3\n        /* \"#utility.yul\":13838:13847   */\n      mul\n        /* \"#utility.yul\":13867:13897   */\n      tag_603\n        /* \"#utility.yul\":13885:13896   */\n      dup2\n        /* \"#utility.yul\":13867:13897   */\n      tag_374\n      jump\t// in\n    tag_603:\n        /* \"#utility.yul\":13856:13897   */\n      swap2\n      pop\n        /* \"#utility.yul\":14046:14047   */\n      dup3\n        /* \"#utility.yul\":14037:14044   */\n      dup3\n        /* \"#utility.yul\":14033:14048   */\n      div\n        /* \"#utility.yul\":14030:14031   */\n      dup5\n        /* \"#utility.yul\":14027:14049   */\n      eq\n        /* \"#utility.yul\":14007:14008   */\n      dup4\n        /* \"#utility.yul\":14000:14009   */\n      iszero\n        /* \"#utility.yul\":13980:14063   */\n      or\n        /* \"#utility.yul\":13957:14096   */\n      tag_604\n      jumpi\n        /* \"#utility.yul\":14076:14094   */\n      tag_605\n      tag_395\n      jump\t// in\n    tag_605:\n        /* \"#utility.yul\":13957:14096   */\n    tag_604:\n        /* \"#utility.yul\":13741:14103   */\n      pop\n        /* \"#utility.yul\":13693:14103   */\n      swap3\n      swap2\n      pop\n      pop\n      jump\t// out\n        /* \"#utility.yul\":14109:14289   */\n    tag_94:\n        /* \"#utility.yul\":14157:14234   */\n      0x4e487b7100000000000000000000000000000000000000000000000000000000\n        /* \"#utility.yul\":14154:14155   */\n      0x00\n        /* \"#utility.yul\":14147:14235   */\n      mstore\n        /* \"#utility.yul\":14254:14258   */\n      0x21\n        /* \"#utility.yul\":14251:14252   */\n      0x04\n        /* \"#utility.yul\":14244:14259   */\n      mstore\n        /* \"#utility.yul\":14278:14282   */\n      0x24\n        /* \"#utility.yul\":14275:14276   */\n      0x00\n        /* \"#utility.yul\":14268:14283   */\n      revert\n        /* \"#utility.yul\":14295:14461   */\n    tag_414:\n        /* \"#utility.yul\":14435:14453   */\n      0x456e7472656761206372656164613a2000000000000000000000000000000000\n        /* \"#utility.yul\":14431:14432   */\n      0x00\n        /* \"#utility.yul\":14423:14429   */\n      dup3\n        /* \"#utility.yul\":14419:14433   */\n      add\n        /* \"#utility.yul\":14412:14454   */\n      mstore\n        /* \"#utility.yul\":14295:14461   */\n      pop\n      jump\t// out\n        /* \"#utility.yul\":14467:14833   */\n    tag_415:\n        /* \"#utility.yul\":14609:14612   */\n      0x00\n        /* \"#utility.yul\":14630:14697   */\n      tag_609\n        /* \"#utility.yul\":14694:14696   */\n      0x10\n        /* \"#utility.yul\":14689:14692   */\n      dup4\n        /* \"#utility.yul\":14630:14697   */\n      tag_382\n      jump\t// in\n    tag_609:\n        /* \"#utility.yul\":14623:14697   */\n      swap2\n      pop\n        /* \"#utility.yul\":14706:14799   */\n      tag_610\n        /* \"#utility.yul\":14795:14798   */\n      dup3\n        /* \"#utility.yul\":14706:14799   */\n      tag_414\n      jump\t// in\n    tag_610:\n        /* \"#utility.yul\":14824:14826   */\n      0x20\n        /* \"#utility.yul\":14819:14822   */\n      dup3\n        /* \"#utility.yul\":14815:14827   */\n      add\n        /* \"#utility.yul\":14808:14827   */\n      swap1\n      pop\n        /* \"#utility.yul\":14467:14833   */\n      swap2\n      swap1\n      pop\n      jump\t// out\n        /* \"#utility.yul\":14839:14957   */\n    tag_416:\n        /* \"#utility.yul\":14926:14950   */\n      tag_612\n        /* \"#utility.yul\":14944:14949   */\n      dup2\n        /* \"#utility.yul\":14926:14950   */\n      tag_371\n      jump\t// in\n    tag_612:\n        /* \"#utility.yul\":14921:14924   */\n      dup3\n        /* \"#utility.yul\":14914:14951   */\n      mstore\n        /* \"#utility.yul\":14839:14957   */\n      pop\n      pop\n      jump\t// out\n        /* \"#utility.yul\":14963:15109   */\n    tag_417:\n        /* \"#utility.yul\":15060:15066   */\n      dup3\n        /* \"#utility.yul\":15055:15058   */\n      dup2\n        /* \"#utility.yul\":15050:15053   */\n      dup4\n        /* \"#utility.yul\":15037:15067   */\n      calldatacopy\n        /* \"#utility.yul\":15101:15102   */\n      0x00\n        /* \"#utility.yul\":15092:15098   */\n      dup4\n        /* \"#utility.yul\":15087:15090   */\n      dup4\n        /* \"#utility.yul\":15083:15099   */\n      add\n        /* \"#utility.yul\":15076:15103   */\n      mstore\n        /* \"#utility.yul\":14963:15109   */\n      pop\n      pop\n      pop\n      jump\t// out\n        /* \"#utility.yul\":15139:15456   */\n    tag_418:\n        /* \"#utility.yul\":15237:15240   */\n      0x00\n        /* \"#utility.yul\":15258:15329   */\n      tag_615\n        /* \"#utility.yul\":15322:15328   */\n      dup4\n        /* \"#utility.yul\":15317:15320   */\n      dup6\n        /* \"#utility.yul\":15258:15329   */\n      tag_382\n      jump\t// in\n    tag_615:\n        /* \"#utility.yul\":15251:15329   */\n      swap4\n      pop\n        /* \"#utility.yul\":15339:15395   */\n      tag_616\n        /* \"#utility.yul\":15388:15394   */\n      dup4\n        /* \"#utility.yul\":15383:15386   */\n      dup6\n        /* \"#utility.yul\":15376:15381   */\n      dup5\n        /* \"#utility.yul\":15339:15395   */\n      tag_417\n      jump\t// in\n    tag_616:\n        /* \"#utility.yul\":15420:15449   */\n      tag_617\n        /* \"#utility.yul\":15442:15448   */\n      dup4\n        /* \"#utility.yul\":15420:15449   */\n      tag_384\n      jump\t// in\n    tag_617:\n        /* \"#utility.yul\":15415:15418   */\n      dup5\n        /* \"#utility.yul\":15411:15450   */\n      add\n        /* \"#utility.yul\":15404:15450   */\n      swap1\n      pop\n        /* \"#utility.yul\":15139:15456   */\n      swap4\n      swap3\n      pop\n      pop\n      pop\n      jump\t// out\n        /* \"#utility.yul\":15462:16434   */\n    tag_108:\n        /* \"#utility.yul\":15770:15774   */\n      0x00\n        /* \"#utility.yul\":15808:15811   */\n      0xa0\n        /* \"#utility.yul\":15797:15806   */\n      dup3\n        /* \"#utility.yul\":15793:15812   */\n      add\n        /* \"#utility.yul\":15785:15812   */\n      swap1\n      pop\n        /* \"#utility.yul\":15858:15867   */\n      dup2\n        /* \"#utility.yul\":15852:15856   */\n      dup2\n        /* \"#utility.yul\":15848:15868   */\n      sub\n        /* \"#utility.yul\":15844:15845   */\n      0x00\n        /* \"#utility.yul\":15833:15842   */\n      dup4\n        /* \"#utility.yul\":15829:15846   */\n      add\n        /* \"#utility.yul\":15822:15869   */\n      mstore\n        /* \"#utility.yul\":15886:16017   */\n      tag_619\n        /* \"#utility.yul\":16012:16016   */\n      dup2\n        /* \"#utility.yul\":15886:16017   */\n      tag_415\n      jump\t// in\n    tag_619:\n        /* \"#utility.yul\":15878:16017   */\n      swap1\n      pop\n        /* \"#utility.yul\":16027:16099   */\n      tag_620\n        /* \"#utility.yul\":16095:16097   */\n      0x20\n        /* \"#utility.yul\":16084:16093   */\n      dup4\n        /* \"#utility.yul\":16080:16098   */\n      add\n        /* \"#utility.yul\":16071:16077   */\n      dup9\n        /* \"#utility.yul\":16027:16099   */\n      tag_416\n      jump\t// in\n    tag_620:\n        /* \"#utility.yul\":16109:16181   */\n      tag_621\n        /* \"#utility.yul\":16177:16179   */\n      0x40\n        /* \"#utility.yul\":16166:16175   */\n      dup4\n        /* \"#utility.yul\":16162:16180   */\n      add\n        /* \"#utility.yul\":16153:16159   */\n      dup8\n        /* \"#utility.yul\":16109:16181   */\n      tag_416\n      jump\t// in\n    tag_621:\n        /* \"#utility.yul\":16191:16263   */\n      tag_622\n        /* \"#utility.yul\":16259:16261   */\n      0x60\n        /* \"#utility.yul\":16248:16257   */\n      dup4\n        /* \"#utility.yul\":16244:16262   */\n      add\n        /* \"#utility.yul\":16235:16241   */\n      dup7\n        /* \"#utility.yul\":16191:16263   */\n      tag_390\n      jump\t// in\n    tag_622:\n        /* \"#utility.yul\":16311:16320   */\n      dup2\n        /* \"#utility.yul\":16305:16309   */\n      dup2\n        /* \"#utility.yul\":16301:16321   */\n      sub\n        /* \"#utility.yul\":16295:16298   */\n      0x80\n        /* \"#utility.yul\":16284:16293   */\n      dup4\n        /* \"#utility.yul\":16280:16299   */\n      add\n        /* \"#utility.yul\":16273:16322   */\n      mstore\n        /* \"#utility.yul\":16339:16427   */\n      tag_623\n        /* \"#utility.yul\":16422:16426   */\n      dup2\n        /* \"#utility.yul\":16413:16419   */\n      dup5\n        /* \"#utility.yul\":16405:16411   */\n      dup7\n        /* \"#utility.yul\":16339:16427   */\n      tag_418\n      jump\t// in\n    tag_623:\n        /* \"#utility.yul\":16331:16427   */\n      swap1\n      pop\n        /* \"#utility.yul\":15462:16434   */\n      swap7\n      swap6\n      pop\n      pop\n      pop\n      pop\n      pop\n      pop\n      jump\t// out\n        /* \"#utility.yul\":16440:16622   */\n    tag_419:\n        /* \"#utility.yul\":16580:16614   */\n      0x4e6f206572657320656c2076656e6465646f722064656c20636f6e747261746f\n        /* \"#utility.yul\":16576:16577   */\n      0x00\n        /* \"#utility.yul\":16568:16574   */\n      dup3\n        /* \"#utility.yul\":16564:16578   */\n      add\n        /* \"#utility.yul\":16557:16615   */\n      mstore\n        /* \"#utility.yul\":16440:16622   */\n      pop\n      jump\t// out\n        /* \"#utility.yul\":16628:16994   */\n    tag_420:\n        /* \"#utility.yul\":16770:16773   */\n      0x00\n        /* \"#utility.yul\":16791:16858   */\n      tag_626\n        /* \"#utility.yul\":16855:16857   */\n      0x20\n        /* \"#utility.yul\":16850:16853   */\n      dup4\n        /* \"#utility.yul\":16791:16858   */\n      tag_382\n      jump\t// in\n    tag_626:\n        /* \"#utility.yul\":16784:16858   */\n      swap2\n      pop\n        /* \"#utility.yul\":16867:16960   */\n      tag_627\n        /* \"#utility.yul\":16956:16959   */\n      dup3\n        /* \"#utility.yul\":16867:16960   */\n      tag_419\n      jump\t// in\n    tag_627:\n        /* \"#utility.yul\":16985:16987   */\n      0x20\n        /* \"#utility.yul\":16980:16983   */\n      dup3\n        /* \"#utility.yul\":16976:16988   */\n      add\n        /* \"#utility.yul\":16969:16988   */\n      swap1\n      pop\n        /* \"#utility.yul\":16628:16994   */\n      swap2\n      swap1\n      pop\n      jump\t// out\n        /* \"#utility.yul\":17000:17419   */\n    tag_116:\n        /* \"#utility.yul\":17166:17170   */\n      0x00\n        /* \"#utility.yul\":17204:17206   */\n      0x20\n        /* \"#utility.yul\":17193:17202   */\n      dup3\n        /* \"#utility.yul\":17189:17207   */\n      add\n        /* \"#utility.yul\":17181:17207   */\n      swap1\n      pop\n        /* \"#utility.yul\":17253:17262   */\n      dup2\n        /* \"#utility.yul\":17247:17251   */\n      dup2\n        /* \"#utility.yul\":17243:17263   */\n      sub\n        /* \"#utility.yul\":17239:17240   */\n      0x00\n        /* \"#utility.yul\":17228:17237   */\n      dup4\n        /* \"#utility.yul\":17224:17241   */\n      add\n        /* \"#utility.yul\":17217:17264   */\n      mstore\n        /* \"#utility.yul\":17281:17412   */\n      tag_629\n        /* \"#utility.yul\":17407:17411   */\n      dup2\n        /* \"#utility.yul\":17281:17412   */\n      tag_420\n      jump\t// in\n    tag_629:\n        /* \"#utility.yul\":17273:17412   */\n      swap1\n      pop\n        /* \"#utility.yul\":17000:17419   */\n      swap2\n      swap1\n      pop\n      jump\t// out\n        /* \"#utility.yul\":17425:17647   */\n    tag_421:\n        /* \"#utility.yul\":17565:17599   */\n      0x456c204e756d65726f20646520656e7472656761206e6f20657320636f727265\n        /* \"#utility.yul\":17561:17562   */\n      0x00\n        /* \"#utility.yul\":17553:17559   */\n      dup3\n        /* \"#utility.yul\":17549:17563   */\n      add\n        /* \"#utility.yul\":17542:17600   */\n      mstore\n        /* \"#utility.yul\":17634:17639   */\n      0x63746f0000000000000000000000000000000000000000000000000000000000\n        /* \"#utility.yul\":17629:17631   */\n      0x20\n        /* \"#utility.yul\":17621:17627   */\n      dup3\n        /* \"#utility.yul\":17617:17632   */\n      add\n        /* \"#utility.yul\":17610:17640   */\n      mstore\n        /* \"#utility.yul\":17425:17647   */\n      pop\n      jump\t// out\n        /* \"#utility.yul\":17653:18019   */\n    tag_422:\n        /* \"#utility.yul\":17795:17798   */\n      0x00\n        /* \"#utility.yul\":17816:17883   */\n      tag_632\n        /* \"#utility.yul\":17880:17882   */\n      0x23\n        /* \"#utility.yul\":17875:17878   */\n      dup4\n        /* \"#utility.yul\":17816:17883   */\n      tag_382\n      jump\t// in\n    tag_632:\n        /* \"#utility.yul\":17809:17883   */\n      swap2\n      pop\n        /* \"#utility.yul\":17892:17985   */\n      tag_633\n        /* \"#utility.yul\":17981:17984   */\n      dup3\n        /* \"#utility.yul\":17892:17985   */\n      tag_421\n      jump\t// in\n    tag_633:\n        /* \"#utility.yul\":18010:18012   */\n      0x40\n        /* \"#utility.yul\":18005:18008   */\n      dup3\n        /* \"#utility.yul\":18001:18013   */\n      add\n        /* \"#utility.yul\":17994:18013   */\n      swap1\n      pop\n        /* \"#utility.yul\":17653:18019   */\n      swap2\n      swap1\n      pop\n      jump\t// out\n        /* \"#utility.yul\":18025:18444   */\n    tag_121:\n        /* \"#utility.yul\":18191:18195   */\n      0x00\n        /* \"#utility.yul\":18229:18231   */\n      0x20\n        /* \"#utility.yul\":18218:18227   */\n      dup3\n        /* \"#utility.yul\":18214:18232   */\n      add\n        /* \"#utility.yul\":18206:18232   */\n      swap1\n      pop\n        /* \"#utility.yul\":18278:18287   */\n      dup2\n        /* \"#utility.yul\":18272:18276   */\n      dup2\n        /* \"#utility.yul\":18268:18288   */\n      sub\n        /* \"#utility.yul\":18264:18265   */\n      0x00\n        /* \"#utility.yul\":18253:18262   */\n      dup4\n        /* \"#utility.yul\":18249:18266   */\n      add\n        /* \"#utility.yul\":18242:18289   */\n      mstore\n        /* \"#utility.yul\":18306:18437   */\n      tag_635\n        /* \"#utility.yul\":18432:18436   */\n      dup2\n        /* \"#utility.yul\":18306:18437   */\n      tag_422\n      jump\t// in\n    tag_635:\n        /* \"#utility.yul\":18298:18437   */\n      swap1\n      pop\n        /* \"#utility.yul\":18025:18444   */\n      swap2\n      swap1\n      pop\n      jump\t// out\n        /* \"#utility.yul\":18450:18674   */\n    tag_423:\n        /* \"#utility.yul\":18590:18624   */\n      0x456c20436c69656e7465206e6f206861206669726d61646f206c612072656365\n        /* \"#utility.yul\":18586:18587   */\n      0x00\n        /* \"#utility.yul\":18578:18584   */\n      dup3\n        /* \"#utility.yul\":18574:18588   */\n      add\n        /* \"#utility.yul\":18567:18625   */\n      mstore\n        /* \"#utility.yul\":18659:18666   */\n      0x7063696f6e000000000000000000000000000000000000000000000000000000\n        /* \"#utility.yul\":18654:18656   */\n      0x20\n        /* \"#utility.yul\":18646:18652   */\n      dup3\n        /* \"#utility.yul\":18642:18657   */\n      add\n        /* \"#utility.yul\":18635:18667   */\n      mstore\n        /* \"#utility.yul\":18450:18674   */\n      pop\n      jump\t// out\n        /* \"#utility.yul\":18680:19046   */\n    tag_424:\n        /* \"#utility.yul\":18822:18825   */\n      0x00\n        /* \"#utility.yul\":18843:18910   */\n      tag_638\n        /* \"#utility.yul\":18907:18909   */\n      0x25\n        /* \"#utility.yul\":18902:18905   */\n      dup4\n        /* \"#utility.yul\":18843:18910   */\n      tag_382\n      jump\t// in\n    tag_638:\n        /* \"#utility.yul\":18836:18910   */\n      swap2\n      pop\n        /* \"#utility.yul\":18919:19012   */\n      tag_639\n        /* \"#utility.yul\":19008:19011   */\n      dup3\n        /* \"#utility.yul\":18919:19012   */\n      tag_423\n      jump\t// in\n    tag_639:\n        /* \"#utility.yul\":19037:19039   */\n      0x40\n        /* \"#utility.yul\":19032:19035   */\n      dup3\n        /* \"#utility.yul\":19028:19040   */\n      add\n        /* \"#utility.yul\":19021:19040   */\n      swap1\n      pop\n        /* \"#utility.yul\":18680:19046   */\n      swap2\n      swap1\n      pop\n      jump\t// out\n        /* \"#utility.yul\":19052:19471   */\n    tag_128:\n        /* \"#utility.yul\":19218:19222   */\n      0x00\n        /* \"#utility.yul\":19256:19258   */\n      0x20\n        /* \"#utility.yul\":19245:19254   */\n      dup3\n        /* \"#utility.yul\":19241:19259   */\n      add\n        /* \"#utility.yul\":19233:19259   */\n      swap1\n      pop\n        /* \"#utility.yul\":19305:19314   */\n      dup2\n        /* \"#utility.yul\":19299:19303   */\n      dup2\n        /* \"#utility.yul\":19295:19315   */\n      sub\n        /* \"#utility.yul\":19291:19292   */\n      0x00\n        /* \"#utility.yul\":19280:19289   */\n      dup4\n        /* \"#utility.yul\":19276:19293   */\n      add\n        /* \"#utility.yul\":19269:19316   */\n      mstore\n        /* \"#utility.yul\":19333:19464   */\n      tag_641\n        /* \"#utility.yul\":19459:19463   */\n      dup2\n        /* \"#utility.yul\":19333:19464   */\n      tag_424\n      jump\t// in\n    tag_641:\n        /* \"#utility.yul\":19325:19464   */\n      swap1\n      pop\n        /* \"#utility.yul\":19052:19471   */\n      swap2\n      swap1\n      pop\n      jump\t// out\n        /* \"#utility.yul\":19477:19713   */\n    tag_425:\n        /* \"#utility.yul\":19617:19651   */\n      0x456c2076656e6465646f72207265636f6a6520656c207061676f207920736520\n        /* \"#utility.yul\":19613:19614   */\n      0x00\n        /* \"#utility.yul\":19605:19611   */\n      dup3\n        /* \"#utility.yul\":19601:19615   */\n      add\n        /* \"#utility.yul\":19594:19652   */\n      mstore\n        /* \"#utility.yul\":19686:19705   */\n      0x7061676120656c2074726173706f727465000000000000000000000000000000\n        /* \"#utility.yul\":19681:19683   */\n      0x20\n        /* \"#utility.yul\":19673:19679   */\n      dup3\n        /* \"#utility.yul\":19669:19684   */\n      add\n        /* \"#utility.yul\":19662:19706   */\n      mstore\n        /* \"#utility.yul\":19477:19713   */\n      pop\n      jump\t// out\n        /* \"#utility.yul\":19719:20085   */\n    tag_426:\n        /* \"#utility.yul\":19861:19864   */\n      0x00\n        /* \"#utility.yul\":19882:19949   */\n      tag_644\n        /* \"#utility.yul\":19946:19948   */\n      0x31\n        /* \"#utility.yul\":19941:19944   */\n      dup4\n        /* \"#utility.yul\":19882:19949   */\n      tag_382\n      jump\t// in\n    tag_644:\n        /* \"#utility.yul\":19875:19949   */\n      swap2\n      pop\n        /* \"#utility.yul\":19958:20051   */\n      tag_645\n        /* \"#utility.yul\":20047:20050   */\n      dup3\n        /* \"#utility.yul\":19958:20051   */\n      tag_425\n      jump\t// in\n    tag_645:\n        /* \"#utility.yul\":20076:20078   */\n      0x40\n        /* \"#utility.yul\":20071:20074   */\n      dup3\n        /* \"#utility.yul\":20067:20079   */\n      add\n        /* \"#utility.yul\":20060:20079   */\n      swap1\n      pop\n        /* \"#utility.yul\":19719:20085   */\n      swap2\n      swap1\n      pop\n      jump\t// out\n        /* \"#utility.yul\":20091:20510   */\n    tag_144:\n        /* \"#utility.yul\":20257:20261   */\n      0x00\n        /* \"#utility.yul\":20295:20297   */\n      0x20\n        /* \"#utility.yul\":20284:20293   */\n      dup3\n        /* \"#utility.yul\":20280:20298   */\n      add\n        /* \"#utility.yul\":20272:20298   */\n      swap1\n      pop\n        /* \"#utility.yul\":20344:20353   */\n      dup2\n        /* \"#utility.yul\":20338:20342   */\n      dup2\n        /* \"#utility.yul\":20334:20354   */\n      sub\n        /* \"#utility.yul\":20330:20331   */\n      0x00\n        /* \"#utility.yul\":20319:20328   */\n      dup4\n        /* \"#utility.yul\":20315:20332   */\n      add\n        /* \"#utility.yul\":20308:20355   */\n      mstore\n        /* \"#utility.yul\":20372:20503   */\n      tag_647\n        /* \"#utility.yul\":20498:20502   */\n      dup2\n        /* \"#utility.yul\":20372:20503   */\n      tag_426\n      jump\t// in\n    tag_647:\n        /* \"#utility.yul\":20364:20503   */\n      swap1\n      pop\n        /* \"#utility.yul\":20091:20510   */\n      swap2\n      swap1\n      pop\n      jump\t// out\n        /* \"#utility.yul\":20540:21371   */\n    tag_427:\n        /* \"#utility.yul\":20625:20628   */\n      0x00\n        /* \"#utility.yul\":20662:20667   */\n      dup2\n        /* \"#utility.yul\":20656:20668   */\n      sload\n        /* \"#utility.yul\":20691:20727   */\n      tag_649\n        /* \"#utility.yul\":20717:20726   */\n      dup2\n        /* \"#utility.yul\":20691:20727   */\n      tag_158\n      jump\t// in\n    tag_649:\n        /* \"#utility.yul\":20743:20814   */\n      tag_650\n        /* \"#utility.yul\":20807:20813   */\n      dup2\n        /* \"#utility.yul\":20802:20805   */\n      dup7\n        /* \"#utility.yul\":20743:20814   */\n      tag_382\n      jump\t// in\n    tag_650:\n        /* \"#utility.yul\":20736:20814   */\n      swap5\n      pop\n        /* \"#utility.yul\":20845:20846   */\n      0x01\n        /* \"#utility.yul\":20834:20843   */\n      dup3\n        /* \"#utility.yul\":20830:20847   */\n      and\n        /* \"#utility.yul\":20861:20862   */\n      0x00\n        /* \"#utility.yul\":20856:21020   */\n      dup2\n      eq\n      tag_652\n      jumpi\n        /* \"#utility.yul\":21034:21035   */\n      0x01\n        /* \"#utility.yul\":21029:21365   */\n      dup2\n      eq\n      tag_653\n      jumpi\n        /* \"#utility.yul\":20823:21365   */\n      jump(tag_651)\n        /* \"#utility.yul\":20856:21020   */\n    tag_652:\n        /* \"#utility.yul\":20940:20944   */\n      0xff\n        /* \"#utility.yul\":20936:20945   */\n      not\n        /* \"#utility.yul\":20925:20934   */\n      dup4\n        /* \"#utility.yul\":20921:20946   */\n      and\n        /* \"#utility.yul\":20916:20919   */\n      dup7\n        /* \"#utility.yul\":20909:20947   */\n      mstore\n        /* \"#utility.yul\":21000:21006   */\n      dup2\n        /* \"#utility.yul\":20993:21007   */\n      iszero\n        /* \"#utility.yul\":20986:21008   */\n      iszero\n        /* \"#utility.yul\":20980:20984   */\n      0x20\n        /* \"#utility.yul\":20976:21009   */\n      mul\n        /* \"#utility.yul\":20971:20974   */\n      dup7\n        /* \"#utility.yul\":20967:21010   */\n      add\n        /* \"#utility.yul\":20960:21010   */\n      swap4\n      pop\n        /* \"#utility.yul\":20856:21020   */\n      jump(tag_651)\n        /* \"#utility.yul\":21029:21365   */\n    tag_653:\n        /* \"#utility.yul\":21096:21134   */\n      tag_654\n        /* \"#utility.yul\":21128:21133   */\n      dup6\n        /* \"#utility.yul\":21096:21134   */\n      tag_399\n      jump\t// in\n    tag_654:\n        /* \"#utility.yul\":21156:21157   */\n      0x00\n        /* \"#utility.yul\":21170:21324   */\n    tag_655:\n        /* \"#utility.yul\":21184:21190   */\n      dup4\n        /* \"#utility.yul\":21181:21182   */\n      dup2\n        /* \"#utility.yul\":21178:21191   */\n      lt\n        /* \"#utility.yul\":21170:21324   */\n      iszero\n      tag_657\n      jumpi\n        /* \"#utility.yul\":21258:21265   */\n      dup2\n        /* \"#utility.yul\":21252:21266   */\n      sload\n        /* \"#utility.yul\":21248:21249   */\n      dup2\n        /* \"#utility.yul\":21243:21246   */\n      dup10\n        /* \"#utility.yul\":21239:21250   */\n      add\n        /* \"#utility.yul\":21232:21267   */\n      mstore\n        /* \"#utility.yul\":21308:21309   */\n      0x01\n        /* \"#utility.yul\":21299:21306   */\n      dup3\n        /* \"#utility.yul\":21295:21310   */\n      add\n        /* \"#utility.yul\":21284:21310   */\n      swap2\n      pop\n        /* \"#utility.yul\":21206:21210   */\n      0x20\n        /* \"#utility.yul\":21203:21204   */\n      dup2\n        /* \"#utility.yul\":21199:21211   */\n      add\n        /* \"#utility.yul\":21194:21211   */\n      swap1\n      pop\n        /* \"#utility.yul\":21170:21324   */\n      jump(tag_655)\n    tag_657:\n        /* \"#utility.yul\":21353:21354   */\n      dup1\n        /* \"#utility.yul\":21348:21351   */\n      dup9\n        /* \"#utility.yul\":21344:21355   */\n      add\n        /* \"#utility.yul\":21337:21355   */\n      swap6\n      pop\n        /* \"#utility.yul\":21036:21365   */\n      pop\n      pop\n        /* \"#utility.yul\":20823:21365   */\n    tag_651:\n      pop\n        /* \"#utility.yul\":20629:21371   */\n      pop\n      pop\n        /* \"#utility.yul\":20540:21371   */\n      swap3\n      swap2\n      pop\n      pop\n      jump\t// out\n        /* \"#utility.yul\":21377:22431   */\n    tag_256:\n        /* \"#utility.yul\":21671:21675   */\n      0x00\n        /* \"#utility.yul\":21709:21712   */\n      0xe0\n        /* \"#utility.yul\":21698:21707   */\n      dup3\n        /* \"#utility.yul\":21694:21713   */\n      add\n        /* \"#utility.yul\":21686:21713   */\n      swap1\n      pop\n        /* \"#utility.yul\":21723:21790   */\n      tag_659\n        /* \"#utility.yul\":21787:21788   */\n      0x00\n        /* \"#utility.yul\":21776:21785   */\n      dup4\n        /* \"#utility.yul\":21772:21789   */\n      add\n        /* \"#utility.yul\":21763:21769   */\n      dup11\n        /* \"#utility.yul\":21723:21790   */\n      tag_389\n      jump\t// in\n    tag_659:\n        /* \"#utility.yul\":21837:21846   */\n      dup2\n        /* \"#utility.yul\":21831:21835   */\n      dup2\n        /* \"#utility.yul\":21827:21847   */\n      sub\n        /* \"#utility.yul\":21822:21824   */\n      0x20\n        /* \"#utility.yul\":21811:21820   */\n      dup4\n        /* \"#utility.yul\":21807:21825   */\n      add\n        /* \"#utility.yul\":21800:21848   */\n      mstore\n        /* \"#utility.yul\":21865:21940   */\n      tag_660\n        /* \"#utility.yul\":21935:21939   */\n      dup2\n        /* \"#utility.yul\":21926:21932   */\n      dup10\n        /* \"#utility.yul\":21865:21940   */\n      tag_427\n      jump\t// in\n    tag_660:\n        /* \"#utility.yul\":21857:21940   */\n      swap1\n      pop\n        /* \"#utility.yul\":21950:22022   */\n      tag_661\n        /* \"#utility.yul\":22018:22020   */\n      0x40\n        /* \"#utility.yul\":22007:22016   */\n      dup4\n        /* \"#utility.yul\":22003:22021   */\n      add\n        /* \"#utility.yul\":21994:22000   */\n      dup9\n        /* \"#utility.yul\":21950:22022   */\n      tag_390\n      jump\t// in\n    tag_661:\n        /* \"#utility.yul\":22069:22078   */\n      dup2\n        /* \"#utility.yul\":22063:22067   */\n      dup2\n        /* \"#utility.yul\":22059:22079   */\n      sub\n        /* \"#utility.yul\":22054:22056   */\n      0x60\n        /* \"#utility.yul\":22043:22052   */\n      dup4\n        /* \"#utility.yul\":22039:22057   */\n      add\n        /* \"#utility.yul\":22032:22080   */\n      mstore\n        /* \"#utility.yul\":22097:22175   */\n      tag_662\n        /* \"#utility.yul\":22170:22174   */\n      dup2\n        /* \"#utility.yul\":22161:22167   */\n      dup8\n        /* \"#utility.yul\":22097:22175   */\n      tag_385\n      jump\t// in\n    tag_662:\n        /* \"#utility.yul\":22089:22175   */\n      swap1\n      pop\n        /* \"#utility.yul\":22185:22258   */\n      tag_663\n        /* \"#utility.yul\":22253:22256   */\n      0x80\n        /* \"#utility.yul\":22242:22251   */\n      dup4\n        /* \"#utility.yul\":22238:22257   */\n      add\n        /* \"#utility.yul\":22229:22235   */\n      dup7\n        /* \"#utility.yul\":22185:22258   */\n      tag_416\n      jump\t// in\n    tag_663:\n        /* \"#utility.yul\":22268:22341   */\n      tag_664\n        /* \"#utility.yul\":22336:22339   */\n      0xa0\n        /* \"#utility.yul\":22325:22334   */\n      dup4\n        /* \"#utility.yul\":22321:22340   */\n      add\n        /* \"#utility.yul\":22312:22318   */\n      dup6\n        /* \"#utility.yul\":22268:22341   */\n      tag_416\n      jump\t// in\n    tag_664:\n        /* \"#utility.yul\":22351:22424   */\n      tag_665\n        /* \"#utility.yul\":22419:22422   */\n      0xc0\n        /* \"#utility.yul\":22408:22417   */\n      dup4\n        /* \"#utility.yul\":22404:22423   */\n      add\n        /* \"#utility.yul\":22395:22401   */\n      dup5\n        /* \"#utility.yul\":22351:22424   */\n      tag_416\n      jump\t// in\n    tag_665:\n        /* \"#utility.yul\":21377:22431   */\n      swap9\n      swap8\n      pop\n      pop\n      pop\n      pop\n      pop\n      pop\n      pop\n      pop\n      jump\t// out\n        /* \"#utility.yul\":22437:22734   */\n    tag_428:\n        /* \"#utility.yul\":22577:22611   */\n      0x46756e63696f6e2064652070616e69636f205265616c697a6164612073652064\n        /* \"#utility.yul\":22573:22574   */\n      0x00\n        /* \"#utility.yul\":22565:22571   */\n      dup3\n        /* \"#utility.yul\":22561:22575   */\n      add\n        /* \"#utility.yul\":22554:22612   */\n      mstore\n        /* \"#utility.yul\":22646:22680   */\n      0x657675656c76656e206c6f7320666f6e646f732064656c20436f6e747261746f\n        /* \"#utility.yul\":22641:22643   */\n      0x20\n        /* \"#utility.yul\":22633:22639   */\n      dup3\n        /* \"#utility.yul\":22629:22644   */\n      add\n        /* \"#utility.yul\":22622:22681   */\n      mstore\n        /* \"#utility.yul\":22715:22726   */\n      0x20616c206f776e65720000000000000000000000000000000000000000000000\n        /* \"#utility.yul\":22710:22712   */\n      0x40\n        /* \"#utility.yul\":22702:22708   */\n      dup3\n        /* \"#utility.yul\":22698:22713   */\n      add\n        /* \"#utility.yul\":22691:22727   */\n      mstore\n        /* \"#utility.yul\":22437:22734   */\n      pop\n      jump\t// out\n        /* \"#utility.yul\":22740:23106   */\n    tag_429:\n        /* \"#utility.yul\":22882:22885   */\n      0x00\n        /* \"#utility.yul\":22903:22970   */\n      tag_668\n        /* \"#utility.yul\":22967:22969   */\n      0x49\n        /* \"#utility.yul\":22962:22965   */\n      dup4\n        /* \"#utility.yul\":22903:22970   */\n      tag_382\n      jump\t// in\n    tag_668:\n        /* \"#utility.yul\":22896:22970   */\n      swap2\n      pop\n        /* \"#utility.yul\":22979:23072   */\n      tag_669\n        /* \"#utility.yul\":23068:23071   */\n      dup3\n        /* \"#utility.yul\":22979:23072   */\n      tag_428\n      jump\t// in\n    tag_669:\n        /* \"#utility.yul\":23097:23099   */\n      0x60\n        /* \"#utility.yul\":23092:23095   */\n      dup3\n        /* \"#utility.yul\":23088:23100   */\n      add\n        /* \"#utility.yul\":23081:23100   */\n      swap1\n      pop\n        /* \"#utility.yul\":22740:23106   */\n      swap2\n      swap1\n      pop\n      jump\t// out\n        /* \"#utility.yul\":23112:23531   */\n    tag_264:\n        /* \"#utility.yul\":23278:23282   */\n      0x00\n        /* \"#utility.yul\":23316:23318   */\n      0x20\n        /* \"#utility.yul\":23305:23314   */\n      dup3\n        /* \"#utility.yul\":23301:23319   */\n      add\n        /* \"#utility.yul\":23293:23319   */\n      swap1\n      pop\n        /* \"#utility.yul\":23365:23374   */\n      dup2\n        /* \"#utility.yul\":23359:23363   */\n      dup2\n        /* \"#utility.yul\":23355:23375   */\n      sub\n        /* \"#utility.yul\":23351:23352   */\n      0x00\n        /* \"#utility.yul\":23340:23349   */\n      dup4\n        /* \"#utility.yul\":23336:23353   */\n      add\n        /* \"#utility.yul\":23329:23376   */\n      mstore\n        /* \"#utility.yul\":23393:23524   */\n      tag_671\n        /* \"#utility.yul\":23519:23523   */\n      dup2\n        /* \"#utility.yul\":23393:23524   */\n      tag_429\n      jump\t// in\n    tag_671:\n        /* \"#utility.yul\":23385:23524   */\n      swap1\n      pop\n        /* \"#utility.yul\":23112:23531   */\n      swap2\n      swap1\n      pop\n      jump\t// out\n        /* \"#utility.yul\":23537:23782   */\n    tag_430:\n        /* \"#utility.yul\":23677:23711   */\n      0x456c2065737461646f206e6f20657320656c20616465637561646f2070617261\n        /* \"#utility.yul\":23673:23674   */\n      0x00\n        /* \"#utility.yul\":23665:23671   */\n      dup3\n        /* \"#utility.yul\":23661:23675   */\n      add\n        /* \"#utility.yul\":23654:23712   */\n      mstore\n        /* \"#utility.yul\":23746:23774   */\n      0x20706f6465722043616e63656c6172206c6120656e7472656761000000000000\n        /* \"#utility.yul\":23741:23743   */\n      0x20\n        /* \"#utility.yul\":23733:23739   */\n      dup3\n        /* \"#utility.yul\":23729:23744   */\n      add\n        /* \"#utility.yul\":23722:23775   */\n      mstore\n        /* \"#utility.yul\":23537:23782   */\n      pop\n      jump\t// out\n        /* \"#utility.yul\":23788:24154   */\n    tag_431:\n        /* \"#utility.yul\":23930:23933   */\n      0x00\n        /* \"#utility.yul\":23951:24018   */\n      tag_674\n        /* \"#utility.yul\":24015:24017   */\n      0x3a\n        /* \"#utility.yul\":24010:24013   */\n      dup4\n        /* \"#utility.yul\":23951:24018   */\n      tag_382\n      jump\t// in\n    tag_674:\n        /* \"#utility.yul\":23944:24018   */\n      swap2\n      pop\n        /* \"#utility.yul\":24027:24120   */\n      tag_675\n        /* \"#utility.yul\":24116:24119   */\n      dup3\n        /* \"#utility.yul\":24027:24120   */\n      tag_430\n      jump\t// in\n    tag_675:\n        /* \"#utility.yul\":24145:24147   */\n      0x40\n        /* \"#utility.yul\":24140:24143   */\n      dup3\n        /* \"#utility.yul\":24136:24148   */\n      add\n        /* \"#utility.yul\":24129:24148   */\n      swap1\n      pop\n        /* \"#utility.yul\":23788:24154   */\n      swap2\n      swap1\n      pop\n      jump\t// out\n        /* \"#utility.yul\":24160:24579   */\n    tag_278:\n        /* \"#utility.yul\":24326:24330   */\n      0x00\n        /* \"#utility.yul\":24364:24366   */\n      0x20\n        /* \"#utility.yul\":24353:24362   */\n      dup3\n        /* \"#utility.yul\":24349:24367   */\n      add\n        /* \"#utility.yul\":24341:24367   */\n      swap1\n      pop\n        /* \"#utility.yul\":24413:24422   */\n      dup2\n        /* \"#utility.yul\":24407:24411   */\n      dup2\n        /* \"#utility.yul\":24403:24423   */\n      sub\n        /* \"#utility.yul\":24399:24400   */\n      0x00\n        /* \"#utility.yul\":24388:24397   */\n      dup4\n        /* \"#utility.yul\":24384:24401   */\n      add\n        /* \"#utility.yul\":24377:24424   */\n      mstore\n        /* \"#utility.yul\":24441:24572   */\n      tag_677\n        /* \"#utility.yul\":24567:24571   */\n      dup2\n        /* \"#utility.yul\":24441:24572   */\n      tag_431\n      jump\t// in\n    tag_677:\n        /* \"#utility.yul\":24433:24572   */\n      swap1\n      pop\n        /* \"#utility.yul\":24160:24579   */\n      swap2\n      swap1\n      pop\n      jump\t// out\n        /* \"#utility.yul\":24585:24752   */\n    tag_432:\n        /* \"#utility.yul\":24725:24744   */\n      0x456e74726567612043616e63656c616461000000000000000000000000000000\n        /* \"#utility.yul\":24721:24722   */\n      0x00\n        /* \"#utility.yul\":24713:24719   */\n      dup3\n        /* \"#utility.yul\":24709:24723   */\n      add\n        /* \"#utility.yul\":24702:24745   */\n      mstore\n        /* \"#utility.yul\":24585:24752   */\n      pop\n      jump\t// out\n        /* \"#utility.yul\":24758:25124   */\n    tag_433:\n        /* \"#utility.yul\":24900:24903   */\n      0x00\n        /* \"#utility.yul\":24921:24988   */\n      tag_680\n        /* \"#utility.yul\":24985:24987   */\n      0x11\n        /* \"#utility.yul\":24980:24983   */\n      dup4\n        /* \"#utility.yul\":24921:24988   */\n      tag_382\n      jump\t// in\n    tag_680:\n        /* \"#utility.yul\":24914:24988   */\n      swap2\n      pop\n        /* \"#utility.yul\":24997:25090   */\n      tag_681\n        /* \"#utility.yul\":25086:25089   */\n      dup3\n        /* \"#utility.yul\":24997:25090   */\n      tag_432\n      jump\t// in\n    tag_681:\n        /* \"#utility.yul\":25115:25117   */\n      0x20\n        /* \"#utility.yul\":25110:25113   */\n      dup3\n        /* \"#utility.yul\":25106:25118   */\n      add\n        /* \"#utility.yul\":25099:25118   */\n      swap1\n      pop\n        /* \"#utility.yul\":24758:25124   */\n      swap2\n      swap1\n      pop\n      jump\t// out\n        /* \"#utility.yul\":25130:26076   */\n    tag_290:\n        /* \"#utility.yul\":25425:25429   */\n      0x00\n        /* \"#utility.yul\":25463:25466   */\n      0xa0\n        /* \"#utility.yul\":25452:25461   */\n      dup3\n        /* \"#utility.yul\":25448:25467   */\n      add\n        /* \"#utility.yul\":25440:25467   */\n      swap1\n      pop\n        /* \"#utility.yul\":25513:25522   */\n      dup2\n        /* \"#utility.yul\":25507:25511   */\n      dup2\n        /* \"#utility.yul\":25503:25523   */\n      sub\n        /* \"#utility.yul\":25499:25500   */\n      0x00\n        /* \"#utility.yul\":25488:25497   */\n      dup4\n        /* \"#utility.yul\":25484:25501   */\n      add\n        /* \"#utility.yul\":25477:25524   */\n      mstore\n        /* \"#utility.yul\":25541:25672   */\n      tag_683\n        /* \"#utility.yul\":25667:25671   */\n      dup2\n        /* \"#utility.yul\":25541:25672   */\n      tag_433\n      jump\t// in\n    tag_683:\n        /* \"#utility.yul\":25533:25672   */\n      swap1\n      pop\n        /* \"#utility.yul\":25682:25754   */\n      tag_684\n        /* \"#utility.yul\":25750:25752   */\n      0x20\n        /* \"#utility.yul\":25739:25748   */\n      dup4\n        /* \"#utility.yul\":25735:25753   */\n      add\n        /* \"#utility.yul\":25726:25732   */\n      dup8\n        /* \"#utility.yul\":25682:25754   */\n      tag_416\n      jump\t// in\n    tag_684:\n        /* \"#utility.yul\":25764:25836   */\n      tag_685\n        /* \"#utility.yul\":25832:25834   */\n      0x40\n        /* \"#utility.yul\":25821:25830   */\n      dup4\n        /* \"#utility.yul\":25817:25835   */\n      add\n        /* \"#utility.yul\":25808:25814   */\n      dup7\n        /* \"#utility.yul\":25764:25836   */\n      tag_416\n      jump\t// in\n    tag_685:\n        /* \"#utility.yul\":25846:25918   */\n      tag_686\n        /* \"#utility.yul\":25914:25916   */\n      0x60\n        /* \"#utility.yul\":25903:25912   */\n      dup4\n        /* \"#utility.yul\":25899:25917   */\n      add\n        /* \"#utility.yul\":25890:25896   */\n      dup6\n        /* \"#utility.yul\":25846:25918   */\n      tag_390\n      jump\t// in\n    tag_686:\n        /* \"#utility.yul\":25966:25975   */\n      dup2\n        /* \"#utility.yul\":25960:25964   */\n      dup2\n        /* \"#utility.yul\":25956:25976   */\n      sub\n        /* \"#utility.yul\":25950:25953   */\n      0x80\n        /* \"#utility.yul\":25939:25948   */\n      dup4\n        /* \"#utility.yul\":25935:25954   */\n      add\n        /* \"#utility.yul\":25928:25977   */\n      mstore\n        /* \"#utility.yul\":25994:26069   */\n      tag_687\n        /* \"#utility.yul\":26064:26068   */\n      dup2\n        /* \"#utility.yul\":26055:26061   */\n      dup5\n        /* \"#utility.yul\":25994:26069   */\n      tag_427\n      jump\t// in\n    tag_687:\n        /* \"#utility.yul\":25986:26069   */\n      swap1\n      pop\n        /* \"#utility.yul\":25130:26076   */\n      swap6\n      swap5\n      pop\n      pop\n      pop\n      pop\n      pop\n      jump\t// out\n        /* \"#utility.yul\":26082:26324   */\n    tag_434:\n        /* \"#utility.yul\":26222:26256   */\n      0x4e6f207469656e657320726f6c2064652072657061727469646f72206f206e6f\n        /* \"#utility.yul\":26218:26219   */\n      0x00\n        /* \"#utility.yul\":26210:26216   */\n      dup3\n        /* \"#utility.yul\":26206:26220   */\n      add\n        /* \"#utility.yul\":26199:26257   */\n      mstore\n        /* \"#utility.yul\":26291:26316   */\n      0x206573746173207369676e61646f20636f6d6f2074616c000000000000000000\n        /* \"#utility.yul\":26286:26288   */\n      0x20\n        /* \"#utility.yul\":26278:26284   */\n      dup3\n        /* \"#utility.yul\":26274:26289   */\n      add\n        /* \"#utility.yul\":26267:26317   */\n      mstore\n        /* \"#utility.yul\":26082:26324   */\n      pop\n      jump\t// out\n        /* \"#utility.yul\":26330:26696   */\n    tag_435:\n        /* \"#utility.yul\":26472:26475   */\n      0x00\n        /* \"#utility.yul\":26493:26560   */\n      tag_690\n        /* \"#utility.yul\":26557:26559   */\n      0x37\n        /* \"#utility.yul\":26552:26555   */\n      dup4\n        /* \"#utility.yul\":26493:26560   */\n      tag_382\n      jump\t// in\n    tag_690:\n        /* \"#utility.yul\":26486:26560   */\n      swap2\n      pop\n        /* \"#utility.yul\":26569:26662   */\n      tag_691\n        /* \"#utility.yul\":26658:26661   */\n      dup3\n        /* \"#utility.yul\":26569:26662   */\n      tag_434\n      jump\t// in\n    tag_691:\n        /* \"#utility.yul\":26687:26689   */\n      0x40\n        /* \"#utility.yul\":26682:26685   */\n      dup3\n        /* \"#utility.yul\":26678:26690   */\n      add\n        /* \"#utility.yul\":26671:26690   */\n      swap1\n      pop\n        /* \"#utility.yul\":26330:26696   */\n      swap2\n      swap1\n      pop\n      jump\t// out\n        /* \"#utility.yul\":26702:27121   */\n    tag_298:\n        /* \"#utility.yul\":26868:26872   */\n      0x00\n        /* \"#utility.yul\":26906:26908   */\n      0x20\n        /* \"#utility.yul\":26895:26904   */\n      dup3\n        /* \"#utility.yul\":26891:26909   */\n      add\n        /* \"#utility.yul\":26883:26909   */\n      swap1\n      pop\n        /* \"#utility.yul\":26955:26964   */\n      dup2\n        /* \"#utility.yul\":26949:26953   */\n      dup2\n        /* \"#utility.yul\":26945:26965   */\n      sub\n        /* \"#utility.yul\":26941:26942   */\n      0x00\n        /* \"#utility.yul\":26930:26939   */\n      dup4\n        /* \"#utility.yul\":26926:26943   */\n      add\n        /* \"#utility.yul\":26919:26966   */\n      mstore\n        /* \"#utility.yul\":26983:27114   */\n      tag_693\n        /* \"#utility.yul\":27109:27113   */\n      dup2\n        /* \"#utility.yul\":26983:27114   */\n      tag_435\n      jump\t// in\n    tag_693:\n        /* \"#utility.yul\":26975:27114   */\n      swap1\n      pop\n        /* \"#utility.yul\":26702:27121   */\n      swap2\n      swap1\n      pop\n      jump\t// out\n        /* \"#utility.yul\":27127:27364   */\n    tag_436:\n        /* \"#utility.yul\":27267:27301   */\n      0x454c2065737461646f206465206c6120456e7472616761207469656e65207175\n        /* \"#utility.yul\":27263:27264   */\n      0x00\n        /* \"#utility.yul\":27255:27261   */\n      dup3\n        /* \"#utility.yul\":27251:27265   */\n      add\n        /* \"#utility.yul\":27244:27302   */\n      mstore\n        /* \"#utility.yul\":27336:27356   */\n      0x6520657374617220612041434345505445440000000000000000000000000000\n        /* \"#utility.yul\":27331:27333   */\n      0x20\n        /* \"#utility.yul\":27323:27329   */\n      dup3\n        /* \"#utility.yul\":27319:27334   */\n      add\n        /* \"#utility.yul\":27312:27357   */\n      mstore\n        /* \"#utility.yul\":27127:27364   */\n      pop\n      jump\t// out\n        /* \"#utility.yul\":27370:27736   */\n    tag_437:\n        /* \"#utility.yul\":27512:27515   */\n      0x00\n        /* \"#utility.yul\":27533:27600   */\n      tag_696\n        /* \"#utility.yul\":27597:27599   */\n      0x32\n        /* \"#utility.yul\":27592:27595   */\n      dup4\n        /* \"#utility.yul\":27533:27600   */\n      tag_382\n      jump\t// in\n    tag_696:\n        /* \"#utility.yul\":27526:27600   */\n      swap2\n      pop\n        /* \"#utility.yul\":27609:27702   */\n      tag_697\n        /* \"#utility.yul\":27698:27701   */\n      dup3\n        /* \"#utility.yul\":27609:27702   */\n      tag_436\n      jump\t// in\n    tag_697:\n        /* \"#utility.yul\":27727:27729   */\n      0x40\n        /* \"#utility.yul\":27722:27725   */\n      dup3\n        /* \"#utility.yul\":27718:27730   */\n      add\n        /* \"#utility.yul\":27711:27730   */\n      swap1\n      pop\n        /* \"#utility.yul\":27370:27736   */\n      swap2\n      swap1\n      pop\n      jump\t// out\n        /* \"#utility.yul\":27742:28161   */\n    tag_309:\n        /* \"#utility.yul\":27908:27912   */\n      0x00\n        /* \"#utility.yul\":27946:27948   */\n      0x20\n        /* \"#utility.yul\":27935:27944   */\n      dup3\n        /* \"#utility.yul\":27931:27949   */\n      add\n        /* \"#utility.yul\":27923:27949   */\n      swap1\n      pop\n        /* \"#utility.yul\":27995:28004   */\n      dup2\n        /* \"#utility.yul\":27989:27993   */\n      dup2\n        /* \"#utility.yul\":27985:28005   */\n      sub\n        /* \"#utility.yul\":27981:27982   */\n      0x00\n        /* \"#utility.yul\":27970:27979   */\n      dup4\n        /* \"#utility.yul\":27966:27983   */\n      add\n        /* \"#utility.yul\":27959:28006   */\n      mstore\n        /* \"#utility.yul\":28023:28154   */\n      tag_699\n        /* \"#utility.yul\":28149:28153   */\n      dup2\n        /* \"#utility.yul\":28023:28154   */\n      tag_437\n      jump\t// in\n    tag_699:\n        /* \"#utility.yul\":28015:28154   */\n      swap1\n      pop\n        /* \"#utility.yul\":27742:28161   */\n      swap2\n      swap1\n      pop\n      jump\t// out\n        /* \"#utility.yul\":28167:28390   */\n    tag_438:\n        /* \"#utility.yul\":28307:28341   */\n      0x4c6120656e747265676120612073616c69646f20686163696120737520646573\n        /* \"#utility.yul\":28303:28304   */\n      0x00\n        /* \"#utility.yul\":28295:28301   */\n      dup3\n        /* \"#utility.yul\":28291:28305   */\n      add\n        /* \"#utility.yul\":28284:28342   */\n      mstore\n        /* \"#utility.yul\":28376:28382   */\n      0x74696e6f00000000000000000000000000000000000000000000000000000000\n        /* \"#utility.yul\":28371:28373   */\n      0x20\n        /* \"#utility.yul\":28363:28369   */\n      dup3\n        /* \"#utility.yul\":28359:28374   */\n      add\n        /* \"#utility.yul\":28352:28383   */\n      mstore\n        /* \"#utility.yul\":28167:28390   */\n      pop\n      jump\t// out\n        /* \"#utility.yul\":28396:28762   */\n    tag_439:\n        /* \"#utility.yul\":28538:28541   */\n      0x00\n        /* \"#utility.yul\":28559:28626   */\n      tag_702\n        /* \"#utility.yul\":28623:28625   */\n      0x24\n        /* \"#utility.yul\":28618:28621   */\n      dup4\n        /* \"#utility.yul\":28559:28626   */\n      tag_382\n      jump\t// in\n    tag_702:\n        /* \"#utility.yul\":28552:28626   */\n      swap2\n      pop\n        /* \"#utility.yul\":28635:28728   */\n      tag_703\n        /* \"#utility.yul\":28724:28727   */\n      dup3\n        /* \"#utility.yul\":28635:28728   */\n      tag_438\n      jump\t// in\n    tag_703:\n        /* \"#utility.yul\":28753:28755   */\n      0x40\n        /* \"#utility.yul\":28748:28751   */\n      dup3\n        /* \"#utility.yul\":28744:28756   */\n      add\n        /* \"#utility.yul\":28737:28756   */\n      swap1\n      pop\n        /* \"#utility.yul\":28396:28762   */\n      swap2\n      swap1\n      pop\n      jump\t// out\n        /* \"#utility.yul\":28768:29187   */\n    tag_313:\n        /* \"#utility.yul\":28934:28938   */\n      0x00\n        /* \"#utility.yul\":28972:28974   */\n      0x20\n        /* \"#utility.yul\":28961:28970   */\n      dup3\n        /* \"#utility.yul\":28957:28975   */\n      add\n        /* \"#utility.yul\":28949:28975   */\n      swap1\n      pop\n        /* \"#utility.yul\":29021:29030   */\n      dup2\n        /* \"#utility.yul\":29015:29019   */\n      dup2\n        /* \"#utility.yul\":29011:29031   */\n      sub\n        /* \"#utility.yul\":29007:29008   */\n      0x00\n        /* \"#utility.yul\":28996:29005   */\n      dup4\n        /* \"#utility.yul\":28992:29009   */\n      add\n        /* \"#utility.yul\":28985:29032   */\n      mstore\n        /* \"#utility.yul\":29049:29180   */\n      tag_705\n        /* \"#utility.yul\":29175:29179   */\n      dup2\n        /* \"#utility.yul\":29049:29180   */\n      tag_439\n      jump\t// in\n    tag_705:\n        /* \"#utility.yul\":29041:29180   */\n      swap1\n      pop\n        /* \"#utility.yul\":28768:29187   */\n      swap2\n      swap1\n      pop\n      jump\t// out\n        /* \"#utility.yul\":29193:29438   */\n    tag_440:\n        /* \"#utility.yul\":29333:29367   */\n      0x4e6f206572657320636c69656e7465206465206c6120656e7472656761206f20\n        /* \"#utility.yul\":29329:29330   */\n      0x00\n        /* \"#utility.yul\":29321:29327   */\n      dup3\n        /* \"#utility.yul\":29317:29331   */\n      add\n        /* \"#utility.yul\":29310:29368   */\n      mstore\n        /* \"#utility.yul\":29402:29430   */\n      0x6e6f20657374617320617369676e61646f20636f6d6f2074616c000000000000\n        /* \"#utility.yul\":29397:29399   */\n      0x20\n        /* \"#utility.yul\":29389:29395   */\n      dup3\n        /* \"#utility.yul\":29385:29400   */\n      add\n        /* \"#utility.yul\":29378:29431   */\n      mstore\n        /* \"#utility.yul\":29193:29438   */\n      pop\n      jump\t// out\n        /* \"#utility.yul\":29444:29810   */\n    tag_441:\n        /* \"#utility.yul\":29586:29589   */\n      0x00\n        /* \"#utility.yul\":29607:29674   */\n      tag_708\n        /* \"#utility.yul\":29671:29673   */\n      0x3a\n        /* \"#utility.yul\":29666:29669   */\n      dup4\n        /* \"#utility.yul\":29607:29674   */\n      tag_382\n      jump\t// in\n    tag_708:\n        /* \"#utility.yul\":29600:29674   */\n      swap2\n      pop\n        /* \"#utility.yul\":29683:29776   */\n      tag_709\n        /* \"#utility.yul\":29772:29775   */\n      dup3\n        /* \"#utility.yul\":29683:29776   */\n      tag_440\n      jump\t// in\n    tag_709:\n        /* \"#utility.yul\":29801:29803   */\n      0x40\n        /* \"#utility.yul\":29796:29799   */\n      dup3\n        /* \"#utility.yul\":29792:29804   */\n      add\n        /* \"#utility.yul\":29785:29804   */\n      swap1\n      pop\n        /* \"#utility.yul\":29444:29810   */\n      swap2\n      swap1\n      pop\n      jump\t// out\n        /* \"#utility.yul\":29816:30235   */\n    tag_321:\n        /* \"#utility.yul\":29982:29986   */\n      0x00\n        /* \"#utility.yul\":30020:30022   */\n      0x20\n        /* \"#utility.yul\":30009:30018   */\n      dup3\n        /* \"#utility.yul\":30005:30023   */\n      add\n        /* \"#utility.yul\":29997:30023   */\n      swap1\n      pop\n        /* \"#utility.yul\":30069:30078   */\n      dup2\n        /* \"#utility.yul\":30063:30067   */\n      dup2\n        /* \"#utility.yul\":30059:30079   */\n      sub\n        /* \"#utility.yul\":30055:30056   */\n      0x00\n        /* \"#utility.yul\":30044:30053   */\n      dup4\n        /* \"#utility.yul\":30040:30057   */\n      add\n        /* \"#utility.yul\":30033:30080   */\n      mstore\n        /* \"#utility.yul\":30097:30228   */\n      tag_711\n        /* \"#utility.yul\":30223:30227   */\n      dup2\n        /* \"#utility.yul\":30097:30228   */\n      tag_441\n      jump\t// in\n    tag_711:\n        /* \"#utility.yul\":30089:30228   */\n      swap1\n      pop\n        /* \"#utility.yul\":29816:30235   */\n      swap2\n      swap1\n      pop\n      jump\t// out\n        /* \"#utility.yul\":30241:30558   */\n    tag_442:\n        /* \"#utility.yul\":30381:30415   */\n      0x4e6f207469656e657320737566696369656e74657320666f6e646f7320706172\n        /* \"#utility.yul\":30377:30378   */\n      0x00\n        /* \"#utility.yul\":30369:30375   */\n      dup3\n        /* \"#utility.yul\":30365:30379   */\n      add\n        /* \"#utility.yul\":30358:30416   */\n      mstore\n        /* \"#utility.yul\":30450:30484   */\n      0x6120636f6d7072617220656c2070726f647563746f2c206f20656c2076616c6f\n        /* \"#utility.yul\":30445:30447   */\n      0x20\n        /* \"#utility.yul\":30437:30443   */\n      dup3\n        /* \"#utility.yul\":30433:30448   */\n      add\n        /* \"#utility.yul\":30426:30485   */\n      mstore\n        /* \"#utility.yul\":30519:30550   */\n      0x722065732064697374696e746f207469656e6520717565207365723a20000000\n        /* \"#utility.yul\":30514:30516   */\n      0x40\n        /* \"#utility.yul\":30506:30512   */\n      dup3\n        /* \"#utility.yul\":30502:30517   */\n      add\n        /* \"#utility.yul\":30495:30551   */\n      mstore\n        /* \"#utility.yul\":30241:30558   */\n      pop\n      jump\t// out\n        /* \"#utility.yul\":30564:30930   */\n    tag_443:\n        /* \"#utility.yul\":30706:30709   */\n      0x00\n        /* \"#utility.yul\":30727:30794   */\n      tag_714\n        /* \"#utility.yul\":30791:30793   */\n      0x5d\n        /* \"#utility.yul\":30786:30789   */\n      dup4\n        /* \"#utility.yul\":30727:30794   */\n      tag_382\n      jump\t// in\n    tag_714:\n        /* \"#utility.yul\":30720:30794   */\n      swap2\n      pop\n        /* \"#utility.yul\":30803:30896   */\n      tag_715\n        /* \"#utility.yul\":30892:30895   */\n      dup3\n        /* \"#utility.yul\":30803:30896   */\n      tag_442\n      jump\t// in\n    tag_715:\n        /* \"#utility.yul\":30921:30923   */\n      0x60\n        /* \"#utility.yul\":30916:30919   */\n      dup3\n        /* \"#utility.yul\":30912:30924   */\n      add\n        /* \"#utility.yul\":30905:30924   */\n      swap1\n      pop\n        /* \"#utility.yul\":30564:30930   */\n      swap2\n      swap1\n      pop\n      jump\t// out\n        /* \"#utility.yul\":30936:31465   */\n    tag_328:\n        /* \"#utility.yul\":31130:31134   */\n      0x00\n        /* \"#utility.yul\":31168:31170   */\n      0x40\n        /* \"#utility.yul\":31157:31166   */\n      dup3\n        /* \"#utility.yul\":31153:31171   */\n      add\n        /* \"#utility.yul\":31145:31171   */\n      swap1\n      pop\n        /* \"#utility.yul\":31217:31226   */\n      dup2\n        /* \"#utility.yul\":31211:31215   */\n      dup2\n        /* \"#utility.yul\":31207:31227   */\n      sub\n        /* \"#utility.yul\":31203:31204   */\n      0x00\n        /* \"#utility.yul\":31192:31201   */\n      dup4\n        /* \"#utility.yul\":31188:31205   */\n      add\n        /* \"#utility.yul\":31181:31228   */\n      mstore\n        /* \"#utility.yul\":31245:31376   */\n      tag_717\n        /* \"#utility.yul\":31371:31375   */\n      dup2\n        /* \"#utility.yul\":31245:31376   */\n      tag_443\n      jump\t// in\n    tag_717:\n        /* \"#utility.yul\":31237:31376   */\n      swap1\n      pop\n        /* \"#utility.yul\":31386:31458   */\n      tag_718\n        /* \"#utility.yul\":31454:31456   */\n      0x20\n        /* \"#utility.yul\":31443:31452   */\n      dup4\n        /* \"#utility.yul\":31439:31457   */\n      add\n        /* \"#utility.yul\":31430:31436   */\n      dup5\n        /* \"#utility.yul\":31386:31458   */\n      tag_390\n      jump\t// in\n    tag_718:\n        /* \"#utility.yul\":30936:31465   */\n      swap3\n      swap2\n      pop\n      pop\n      jump\t// out\n        /* \"#utility.yul\":31471:31775   */\n    tag_444:\n        /* \"#utility.yul\":31611:31645   */\n      0x456c2072657061727469646f72206e6f2061206c6c656761646f20616c206465\n        /* \"#utility.yul\":31607:31608   */\n      0x00\n        /* \"#utility.yul\":31599:31605   */\n      dup3\n        /* \"#utility.yul\":31595:31609   */\n      add\n        /* \"#utility.yul\":31588:31646   */\n      mstore\n        /* \"#utility.yul\":31680:31714   */\n      0x7374696e6f206e6f20707565646573206669726d6172206c6120726563656f63\n        /* \"#utility.yul\":31675:31677   */\n      0x20\n        /* \"#utility.yul\":31667:31673   */\n      dup3\n        /* \"#utility.yul\":31663:31678   */\n      add\n        /* \"#utility.yul\":31656:31715   */\n      mstore\n        /* \"#utility.yul\":31749:31767   */\n      0x696f6e2064656c2070726f647563746f00000000000000000000000000000000\n        /* \"#utility.yul\":31744:31746   */\n      0x40\n        /* \"#utility.yul\":31736:31742   */\n      dup3\n        /* \"#utility.yul\":31732:31747   */\n      add\n        /* \"#utility.yul\":31725:31768   */\n      mstore\n        /* \"#utility.yul\":31471:31775   */\n      pop\n      jump\t// out\n        /* \"#utility.yul\":31781:32147   */\n    tag_445:\n        /* \"#utility.yul\":31923:31926   */\n      0x00\n        /* \"#utility.yul\":31944:32011   */\n      tag_721\n        /* \"#utility.yul\":32008:32010   */\n      0x50\n        /* \"#utility.yul\":32003:32006   */\n      dup4\n        /* \"#utility.yul\":31944:32011   */\n      tag_382\n      jump\t// in\n    tag_721:\n        /* \"#utility.yul\":31937:32011   */\n      swap2\n      pop\n        /* \"#utility.yul\":32020:32113   */\n      tag_722\n        /* \"#utility.yul\":32109:32112   */\n      dup3\n        /* \"#utility.yul\":32020:32113   */\n      tag_444\n      jump\t// in\n    tag_722:\n        /* \"#utility.yul\":32138:32140   */\n      0x60\n        /* \"#utility.yul\":32133:32136   */\n      dup3\n        /* \"#utility.yul\":32129:32141   */\n      add\n        /* \"#utility.yul\":32122:32141   */\n      swap1\n      pop\n        /* \"#utility.yul\":31781:32147   */\n      swap2\n      swap1\n      pop\n      jump\t// out\n        /* \"#utility.yul\":32153:32572   */\n    tag_336:\n        /* \"#utility.yul\":32319:32323   */\n      0x00\n        /* \"#utility.yul\":32357:32359   */\n      0x20\n        /* \"#utility.yul\":32346:32355   */\n      dup3\n        /* \"#utility.yul\":32342:32360   */\n      add\n        /* \"#utility.yul\":32334:32360   */\n      swap1\n      pop\n        /* \"#utility.yul\":32406:32415   */\n      dup2\n        /* \"#utility.yul\":32400:32404   */\n      dup2\n        /* \"#utility.yul\":32396:32416   */\n      sub\n        /* \"#utility.yul\":32392:32393   */\n      0x00\n        /* \"#utility.yul\":32381:32390   */\n      dup4\n        /* \"#utility.yul\":32377:32394   */\n      add\n        /* \"#utility.yul\":32370:32417   */\n      mstore\n        /* \"#utility.yul\":32434:32565   */\n      tag_724\n        /* \"#utility.yul\":32560:32564   */\n      dup2\n        /* \"#utility.yul\":32434:32565   */\n      tag_445\n      jump\t// in\n    tag_724:\n        /* \"#utility.yul\":32426:32565   */\n      swap1\n      pop\n        /* \"#utility.yul\":32153:32572   */\n      swap2\n      swap1\n      pop\n      jump\t// out\n        /* \"#utility.yul\":32578:32810   */\n    tag_446:\n        /* \"#utility.yul\":32718:32752   */\n      0x456c20436c69656e74652061206669726d61646f206c6120726563657063696f\n        /* \"#utility.yul\":32714:32715   */\n      0x00\n        /* \"#utility.yul\":32706:32712   */\n      dup3\n        /* \"#utility.yul\":32702:32716   */\n      add\n        /* \"#utility.yul\":32695:32753   */\n      mstore\n        /* \"#utility.yul\":32787:32802   */\n      0x6e2064652050726f647563746f00000000000000000000000000000000000000\n        /* \"#utility.yul\":32782:32784   */\n      0x20\n        /* \"#utility.yul\":32774:32780   */\n      dup3\n        /* \"#utility.yul\":32770:32785   */\n      add\n        /* \"#utility.yul\":32763:32803   */\n      mstore\n        /* \"#utility.yul\":32578:32810   */\n      pop\n      jump\t// out\n        /* \"#utility.yul\":32816:33182   */\n    tag_447:\n        /* \"#utility.yul\":32958:32961   */\n      0x00\n        /* \"#utility.yul\":32979:33046   */\n      tag_727\n        /* \"#utility.yul\":33043:33045   */\n      0x2d\n        /* \"#utility.yul\":33038:33041   */\n      dup4\n        /* \"#utility.yul\":32979:33046   */\n      tag_382\n      jump\t// in\n    tag_727:\n        /* \"#utility.yul\":32972:33046   */\n      swap2\n      pop\n        /* \"#utility.yul\":33055:33148   */\n      tag_728\n        /* \"#utility.yul\":33144:33147   */\n      dup3\n        /* \"#utility.yul\":33055:33148   */\n      tag_446\n      jump\t// in\n    tag_728:\n        /* \"#utility.yul\":33173:33175   */\n      0x40\n        /* \"#utility.yul\":33168:33171   */\n      dup3\n        /* \"#utility.yul\":33164:33176   */\n      add\n        /* \"#utility.yul\":33157:33176   */\n      swap1\n      pop\n        /* \"#utility.yul\":32816:33182   */\n      swap2\n      swap1\n      pop\n      jump\t// out\n        /* \"#utility.yul\":33188:33607   */\n    tag_340:\n        /* \"#utility.yul\":33354:33358   */\n      0x00\n        /* \"#utility.yul\":33392:33394   */\n      0x20\n        /* \"#utility.yul\":33381:33390   */\n      dup3\n        /* \"#utility.yul\":33377:33395   */\n      add\n        /* \"#utility.yul\":33369:33395   */\n      swap1\n      pop\n        /* \"#utility.yul\":33441:33450   */\n      dup2\n        /* \"#utility.yul\":33435:33439   */\n      dup2\n        /* \"#utility.yul\":33431:33451   */\n      sub\n        /* \"#utility.yul\":33427:33428   */\n      0x00\n        /* \"#utility.yul\":33416:33425   */\n      dup4\n        /* \"#utility.yul\":33412:33429   */\n      add\n        /* \"#utility.yul\":33405:33452   */\n      mstore\n        /* \"#utility.yul\":33469:33600   */\n      tag_730\n        /* \"#utility.yul\":33595:33599   */\n      dup2\n        /* \"#utility.yul\":33469:33600   */\n      tag_447\n      jump\t// in\n    tag_730:\n        /* \"#utility.yul\":33461:33600   */\n      swap1\n      pop\n        /* \"#utility.yul\":33188:33607   */\n      swap2\n      swap1\n      pop\n      jump\t// out\n        /* \"#utility.yul\":33613:33847   */\n    tag_448:\n        /* \"#utility.yul\":33753:33787   */\n      0x454c2065737461646f206465206c6120456e7472616761207469656e65207175\n        /* \"#utility.yul\":33749:33750   */\n      0x00\n        /* \"#utility.yul\":33741:33747   */\n      dup3\n        /* \"#utility.yul\":33737:33751   */\n      add\n        /* \"#utility.yul\":33730:33788   */\n      mstore\n        /* \"#utility.yul\":33822:33839   */\n      0x6520657374617220612052454144590000000000000000000000000000000000\n        /* \"#utility.yul\":33817:33819   */\n      0x20\n        /* \"#utility.yul\":33809:33815   */\n      dup3\n        /* \"#utility.yul\":33805:33820   */\n      add\n        /* \"#utility.yul\":33798:33840   */\n      mstore\n        /* \"#utility.yul\":33613:33847   */\n      pop\n      jump\t// out\n        /* \"#utility.yul\":33853:34219   */\n    tag_449:\n        /* \"#utility.yul\":33995:33998   */\n      0x00\n        /* \"#utility.yul\":34016:34083   */\n      tag_733\n        /* \"#utility.yul\":34080:34082   */\n      0x2f\n        /* \"#utility.yul\":34075:34078   */\n      dup4\n        /* \"#utility.yul\":34016:34083   */\n      tag_382\n      jump\t// in\n    tag_733:\n        /* \"#utility.yul\":34009:34083   */\n      swap2\n      pop\n        /* \"#utility.yul\":34092:34185   */\n      tag_734\n        /* \"#utility.yul\":34181:34184   */\n      dup3\n        /* \"#utility.yul\":34092:34185   */\n      tag_448\n      jump\t// in\n    tag_734:\n        /* \"#utility.yul\":34210:34212   */\n      0x40\n        /* \"#utility.yul\":34205:34208   */\n      dup3\n        /* \"#utility.yul\":34201:34213   */\n      add\n        /* \"#utility.yul\":34194:34213   */\n      swap1\n      pop\n        /* \"#utility.yul\":33853:34219   */\n      swap2\n      swap1\n      pop\n      jump\t// out\n        /* \"#utility.yul\":34225:34644   */\n    tag_362:\n        /* \"#utility.yul\":34391:34395   */\n      0x00\n        /* \"#utility.yul\":34429:34431   */\n      0x20\n        /* \"#utility.yul\":34418:34427   */\n      dup3\n        /* \"#utility.yul\":34414:34432   */\n      add\n        /* \"#utility.yul\":34406:34432   */\n      swap1\n      pop\n        /* \"#utility.yul\":34478:34487   */\n      dup2\n        /* \"#utility.yul\":34472:34476   */\n      dup2\n        /* \"#utility.yul\":34468:34488   */\n      sub\n        /* \"#utility.yul\":34464:34465   */\n      0x00\n        /* \"#utility.yul\":34453:34462   */\n      dup4\n        /* \"#utility.yul\":34449:34466   */\n      add\n        /* \"#utility.yul\":34442:34489   */\n      mstore\n        /* \"#utility.yul\":34506:34637   */\n      tag_736\n        /* \"#utility.yul\":34632:34636   */\n      dup2\n        /* \"#utility.yul\":34506:34637   */\n      tag_449\n      jump\t// in\n    tag_736:\n        /* \"#utility.yul\":34498:34637   */\n      swap1\n      pop\n        /* \"#utility.yul\":34225:34644   */\n      swap2\n      swap1\n      pop\n      jump\t// out\n        /* \"#utility.yul\":34650:34881   */\n    tag_450:\n        /* \"#utility.yul\":34790:34824   */\n      0x456c2072657061727469646f72206861206669726d61646f206c61206c6c6567\n        /* \"#utility.yul\":34786:34787   */\n      0x00\n        /* \"#utility.yul\":34778:34784   */\n      dup3\n        /* \"#utility.yul\":34774:34788   */\n      add\n        /* \"#utility.yul\":34767:34825   */\n      mstore\n        /* \"#utility.yul\":34859:34873   */\n      0x6120616c2064657374696e6f0000000000000000000000000000000000000000\n        /* \"#utility.yul\":34854:34856   */\n      0x20\n        /* \"#utility.yul\":34846:34852   */\n      dup3\n        /* \"#utility.yul\":34842:34857   */\n      add\n        /* \"#utility.yul\":34835:34874   */\n      mstore\n        /* \"#utility.yul\":34650:34881   */\n      pop\n      jump\t// out\n        /* \"#utility.yul\":34887:35253   */\n    tag_451:\n        /* \"#utility.yul\":35029:35032   */\n      0x00\n        /* \"#utility.yul\":35050:35117   */\n      tag_739\n        /* \"#utility.yul\":35114:35116   */\n      0x2c\n        /* \"#utility.yul\":35109:35112   */\n      dup4\n        /* \"#utility.yul\":35050:35117   */\n      tag_382\n      jump\t// in\n    tag_739:\n        /* \"#utility.yul\":35043:35117   */\n      swap2\n      pop\n        /* \"#utility.yul\":35126:35219   */\n      tag_740\n        /* \"#utility.yul\":35215:35218   */\n      dup3\n        /* \"#utility.yul\":35126:35219   */\n      tag_450\n      jump\t// in\n    tag_740:\n        /* \"#utility.yul\":35244:35246   */\n      0x40\n        /* \"#utility.yul\":35239:35242   */\n      dup3\n        /* \"#utility.yul\":35235:35247   */\n      add\n        /* \"#utility.yul\":35228:35247   */\n      swap1\n      pop\n        /* \"#utility.yul\":34887:35253   */\n      swap2\n      swap1\n      pop\n      jump\t// out\n        /* \"#utility.yul\":35259:35678   */\n    tag_366:\n        /* \"#utility.yul\":35425:35429   */\n      0x00\n        /* \"#utility.yul\":35463:35465   */\n      0x20\n        /* \"#utility.yul\":35452:35461   */\n      dup3\n        /* \"#utility.yul\":35448:35466   */\n      add\n        /* \"#utility.yul\":35440:35466   */\n      swap1\n      pop\n        /* \"#utility.yul\":35512:35521   */\n      dup2\n        /* \"#utility.yul\":35506:35510   */\n      dup2\n        /* \"#utility.yul\":35502:35522   */\n      sub\n        /* \"#utility.yul\":35498:35499   */\n      0x00\n        /* \"#utility.yul\":35487:35496   */\n      dup4\n        /* \"#utility.yul\":35483:35500   */\n      add\n        /* \"#utility.yul\":35476:35523   */\n      mstore\n        /* \"#utility.yul\":35540:35671   */\n      tag_742\n        /* \"#utility.yul\":35666:35670   */\n      dup2\n        /* \"#utility.yul\":35540:35671   */\n      tag_451\n      jump\t// in\n    tag_742:\n        /* \"#utility.yul\":35532:35671   */\n      swap1\n      pop\n        /* \"#utility.yul\":35259:35678   */\n      swap2\n      swap1\n      pop\n      jump\t// out\n\n    auxdata: 0xa26469706673582212209fd3f7b87ef7f21f2f1d84a1c7014dab20d06465da329b47e228f78412ab8b4e64736f6c63430008110033\n}\n",
				"bytecode": {
					"linkReferences": {},
					"object": "6080604052476005556040518060400160405280600881526020017f4143434550544544000000000000000000000000000000000000000000000000815250600690816200004e9190620005b1565b506040518060400160405280600581526020017f524541445900000000000000000000000000000000000000000000000000000081525060079081620000959190620005b1565b506040518060400160405280600481526020017f434c4f4b0000000000000000000000000000000000000000000000000000000081525060089081620000dc9190620005b1565b506040518060400160405280600481526020017f52504f4b0000000000000000000000000000000000000000000000000000000081525060099081620001239190620005b1565b506040518060400160405280600481526020017f434c4b4f00000000000000000000000000000000000000000000000000000000815250600a90816200016a9190620005b1565b506040518060400160405280600481526020017f52504b4f00000000000000000000000000000000000000000000000000000000815250600b9081620001b19190620005b1565b506040518060400160405280600681526020017f43414e43454c0000000000000000000000000000000000000000000000000000815250600c9081620001f89190620005b1565b506040518060400160405280600981526020017f5245414c495a4144410000000000000000000000000000000000000000000000815250600d90816200023f9190620005b1565b503480156200024d57600080fd5b5033600360006101000a81548173ffffffffffffffffffffffffffffffffffffffff021916908373ffffffffffffffffffffffffffffffffffffffff16021790555030600460006101000a81548173ffffffffffffffffffffffffffffffffffffffff021916908373ffffffffffffffffffffffffffffffffffffffff1602179055506000600160006101000a81548160ff021916908360ff16021790555066038d7ea4c680006000819055507ff24055cc366c1d53b75688e6ba6eb419d022fb5f4956c5d66a6ef54adbf3270a60405162000329906200071f565b60405180910390a162000741565b600081519050919050565b7f4e487b7100000000000000000000000000000000000000000000000000000000600052604160045260246000fd5b7f4e487b7100000000000000000000000000000000000000000000000000000000600052602260045260246000fd5b60006002820490506001821680620003b957607f821691505b602082108103620003cf57620003ce62000371565b5b50919050565b60008190508160005260206000209050919050565b60006020601f8301049050919050565b600082821b905092915050565b600060088302620004397fffffffffffffffffffffffffffffffffffffffffffffffffffffffffffffffff82620003fa565b620004458683620003fa565b95508019841693508086168417925050509392505050565b6000819050919050565b6000819050919050565b6000620004926200048c62000486846200045d565b62000467565b6200045d565b9050919050565b6000819050919050565b620004ae8362000471565b620004c6620004bd8262000499565b84845462000407565b825550505050565b600090565b620004dd620004ce565b620004ea818484620004a3565b505050565b5b81811015620005125762000506600082620004d3565b600181019050620004f0565b5050565b601f82111562000561576200052b81620003d5565b6200053684620003ea565b8101602085101562000546578190505b6200055e6200055585620003ea565b830182620004ef565b50505b505050565b600082821c905092915050565b6000620005866000198460080262000566565b1980831691505092915050565b6000620005a1838362000573565b9150826002028217905092915050565b620005bc8262000337565b67ffffffffffffffff811115620005d857620005d762000342565b5b620005e48254620003a0565b620005f182828562000516565b600060209050601f83116001811462000629576000841562000614578287015190505b62000620858262000593565b86555062000690565b601f1984166200063986620003d5565b60005b8281101562000663578489015182556001820191506020850194506020810190506200063c565b868310156200068357848901516200067f601f89168262000573565b8355505b6001600288020188555050505b505050505050565b600082825260208201905092915050565b7f436f6e747261746f20656e7472616761206372656164612073696e20456e747260008201527f6167617300000000000000000000000000000000000000000000000000000000602082015250565b60006200070760248362000698565b91506200071482620006a9565b604082019050919050565b600060208201905081810360008301526200073a81620006f8565b9050919050565b6136c980620007516000396000f3fe6080604052600436106100c25760003560e01c80638da5cb5b1161007f578063db7fbc8611610059578063db7fbc8614610208578063dbbd975214610233578063dd1a8d671461025e578063f856e74914610289576100c2565b80638da5cb5b14610198578063bdc0679f146101c3578063d6223cca146101ec576100c2565b806319315abc146100c75780633ecd4392146100e357806377e93dba146100ff5780637b0553f21461013c57806381e6830f1461016557806386255ba21461017c575b600080fd5b6100e160048036038101906100dc919061243a565b6102b2565b005b6100fd60048036038101906100f891906124d4565b61082f565b005b34801561010b57600080fd5b50610126600480360381019061012191906124d4565b610c04565b6040516101339190612591565b60405180910390f35b34801561014857600080fd5b50610163600480360381019061015e91906124d4565b6113b1565b005b34801561017157600080fd5b5061017a611680565b005b610196600480360381019061019191906124d4565b6117b0565b005b3480156101a457600080fd5b506101ad611ac7565b6040516101ba91906125d4565b60405180910390f35b3480156101cf57600080fd5b506101ea60048036038101906101e591906124d4565b611aed565b005b610206600480360381019061020191906124d4565b611d46565b005b34801561021457600080fd5b5061021d61200d565b60405161022a91906125d4565b60405180910390f35b34801561023f57600080fd5b50610248612033565b604051610255919061260b565b60405180910390f35b34801561026a57600080fd5b50610273612046565b6040516102809190612635565b60405180910390f35b34801561029557600080fd5b506102b060048036038101906102ab91906124d4565b6120de565b005b600360009054906101000a900473ffffffffffffffffffffffffffffffffffffffff1673ffffffffffffffffffffffffffffffffffffffff163373ffffffffffffffffffffffffffffffffffffffff1614610342576040517f08c379a00000000000000000000000000000000000000000000000000000000081526004016103399061269c565b60405180910390fd5b85600073ffffffffffffffffffffffffffffffffffffffff168173ffffffffffffffffffffffffffffffffffffffff16036103b2576040517f08c379a00000000000000000000000000000000000000000000000000000000081526004016103a990612708565b60405180910390fd5b85600073ffffffffffffffffffffffffffffffffffffffff168173ffffffffffffffffffffffffffffffffffffffff1603610422576040517f08c379a000000000000000000000000000000000000000000000000000000000815260040161041990612708565b60405180910390fd5b85600073ffffffffffffffffffffffffffffffffffffffff168173ffffffffffffffffffffffffffffffffffffffff1603610492576040517f08c379a000000000000000000000000000000000000000000000000000000000815260040161048990612708565b60405180910390fd5b6001600081819054906101000a900460ff16809291906104b190612757565b91906101000a81548160ff021916908360ff16021790555050600160009054906101000a900460ff1660026000600160009054906101000a900460ff1660ff16815260200190815260200160002060000160006101000a81548160ff021916908360ff160217905550848460026000600160009054906101000a900460ff1660ff16815260200190815260200160002060010191826105519291906129c6565b50670de0b6b3a7640000866105669190612a96565b60026000600160009054906101000a900460ff1660ff168152602001908152602001600020600201819055504260026000600160009054906101000a900460ff1660ff16815260200190815260200160002060030181905550600060026000600160009054906101000a900460ff1660ff16815260200190815260200160002060040160006101000a81548160ff0219169083600781111561060b5761060a612ad8565b5b02179055508860026000600160009054906101000a900460ff1660ff16815260200190815260200160002060050160006001600281111561064f5761064e612ad8565b5b600281111561066157610660612ad8565b5b815260200190815260200160002060006101000a81548173ffffffffffffffffffffffffffffffffffffffff021916908373ffffffffffffffffffffffffffffffffffffffff1602179055508760026000600160009054906101000a900460ff1660ff16815260200190815260200160002060050160008060028111156106eb576106ea612ad8565b5b60028111156106fd576106fc612ad8565b5b815260200190815260200160002060006101000a81548173ffffffffffffffffffffffffffffffffffffffff021916908373ffffffffffffffffffffffffffffffffffffffff1602179055508660026000600160009054906101000a900460ff1660ff168152602001908152602001600020600501600060028081111561078757610786612ad8565b5b600281111561079957610798612ad8565b5b815260200190815260200160002060006101000a81548173ffffffffffffffffffffffffffffffffffffffff021916908373ffffffffffffffffffffffffffffffffffffffff1602179055507fe2cca8dd1b934f26bc529408f1013db8c61c3bc945d0507390b5a6b5b29d7284898934888860405161081c959493929190612b9e565b60405180910390a1505050505050505050565b803373ffffffffffffffffffffffffffffffffffffffff1660026000838152602001908152602001600020600501600060028081111561087257610871612ad8565b5b600281111561088457610883612ad8565b5b815260200190815260200160002060009054906101000a900473ffffffffffffffffffffffffffffffffffffffff1673ffffffffffffffffffffffffffffffffffffffff1614610909576040517f08c379a000000000000000000000000000000000000000000000000000000000815260040161090090612c4b565b60405180910390fd5b60008211801561092b5750600160009054906101000a900460ff1660ff168211155b61096a576040517f08c379a000000000000000000000000000000000000000000000000000000000815260040161096190612cdd565b60405180910390fd5b6002600781111561097e5761097d612ad8565b5b6002600084815260200190815260200160002060040160009054906101000a900460ff1660078111156109b4576109b3612ad8565b5b146109f4576040517f08c379a00000000000000000000000000000000000000000000000000000000081526004016109eb90612d6f565b60405180910390fd5b60076002600084815260200190815260200160002060040160006101000a81548160ff02191690836007811115610a2e57610a2d612ad8565b5b021790555042600260008481526020019081526020016000206003018190555060026000838152602001908152602001600020600501600060016002811115610a7a57610a79612ad8565b5b6002811115610a8c57610a8b612ad8565b5b815260200190815260200160002060009054906101000a900473ffffffffffffffffffffffffffffffffffffffff1673ffffffffffffffffffffffffffffffffffffffff166108fc6000549081150290604051600060405180830381858888f19350505050158015610b02573d6000803e3d6000fd5b50600260008381526020019081526020016000206005016000600280811115610b2e57610b2d612ad8565b5b6002811115610b4057610b3f612ad8565b5b815260200190815260200160002060009054906101000a900473ffffffffffffffffffffffffffffffffffffffff1673ffffffffffffffffffffffffffffffffffffffff166108fc60026000858152602001908152602001600020600201549081150290604051600060405180830381858888f19350505050158015610bca573d6000803e3d6000fd5b507ff24055cc366c1d53b75688e6ba6eb419d022fb5f4956c5d66a6ef54adbf3270a604051610bf890612e01565b60405180910390a15050565b6060600360009054906101000a900473ffffffffffffffffffffffffffffffffffffffff1673ffffffffffffffffffffffffffffffffffffffff163373ffffffffffffffffffffffffffffffffffffffff1614610c96576040517f08c379a0000000000000000000000000000000000000000000000000000000008152600401610c8d9061269c565b60405180910390fd5b600082118015610cb85750600160009054906101000a900460ff1660ff168211155b610cf7576040517f08c379a0000000000000000000000000000000000000000000000000000000008152600401610cee90612cdd565b60405180910390fd5b60006007811115610d0b57610d0a612ad8565b5b6002600084815260200190815260200160002060040160009054906101000a900460ff166007811115610d4157610d40612ad8565b5b03610dd85760068054610d53906127e9565b80601f0160208091040260200160405190810160405280929190818152602001828054610d7f906127e9565b8015610dcc5780601f10610da157610100808354040283529160200191610dcc565b820191906000526020600020905b815481529060010190602001808311610daf57829003601f168201915b505050505090506113ac565b60016007811115610dec57610deb612ad8565b5b6002600084815260200190815260200160002060040160009054906101000a900460ff166007811115610e2257610e21612ad8565b5b03610eb95760078054610e34906127e9565b80601f0160208091040260200160405190810160405280929190818152602001828054610e60906127e9565b8015610ead5780601f10610e8257610100808354040283529160200191610ead565b820191906000526020600020905b815481529060010190602001808311610e9057829003601f168201915b505050505090506113ac565b60026007811115610ecd57610ecc612ad8565b5b6002600084815260200190815260200160002060040160009054906101000a900460ff166007811115610f0357610f02612ad8565b5b03610f9a5760088054610f15906127e9565b80601f0160208091040260200160405190810160405280929190818152602001828054610f41906127e9565b8015610f8e5780601f10610f6357610100808354040283529160200191610f8e565b820191906000526020600020905b815481529060010190602001808311610f7157829003601f168201915b505050505090506113ac565b60036007811115610fae57610fad612ad8565b5b6002600084815260200190815260200160002060040160009054906101000a900460ff166007811115610fe457610fe3612ad8565b5b0361107b5760098054610ff6906127e9565b80601f0160208091040260200160405190810160405280929190818152602001828054611022906127e9565b801561106f5780601f106110445761010080835404028352916020019161106f565b820191906000526020600020905b81548152906001019060200180831161105257829003601f168201915b505050505090506113ac565b6004600781111561108f5761108e612ad8565b5b6002600084815260200190815260200160002060040160009054906101000a900460ff1660078111156110c5576110c4612ad8565b5b0361115c57600a80546110d7906127e9565b80601f0160208091040260200160405190810160405280929190818152602001828054611103906127e9565b80156111505780601f1061112557610100808354040283529160200191611150565b820191906000526020600020905b81548152906001019060200180831161113357829003601f168201915b505050505090506113ac565b600560078111156111705761116f612ad8565b5b6002600084815260200190815260200160002060040160009054906101000a900460ff1660078111156111a6576111a5612ad8565b5b0361123d57600b80546111b8906127e9565b80601f01602080910402602001604051908101604052809291908181526020018280546111e4906127e9565b80156112315780601f1061120657610100808354040283529160200191611231565b820191906000526020600020905b81548152906001019060200180831161121457829003601f168201915b505050505090506113ac565b6006600781111561125157611250612ad8565b5b6002600084815260200190815260200160002060040160009054906101000a900460ff16600781111561128757611286612ad8565b5b0361131e57600c8054611299906127e9565b80601f01602080910402602001604051908101604052809291908181526020018280546112c5906127e9565b80156113125780601f106112e757610100808354040283529160200191611312565b820191906000526020600020905b8154815290600101906020018083116112f557829003601f168201915b505050505090506113ac565b600d805461132b906127e9565b80601f0160208091040260200160405190810160405280929190818152602001828054611357906127e9565b80156113a45780601f10611379576101008083540402835291602001916113a4565b820191906000526020600020905b81548152906001019060200180831161138757829003601f168201915b505050505090505b919050565b600360009054906101000a900473ffffffffffffffffffffffffffffffffffffffff1673ffffffffffffffffffffffffffffffffffffffff163373ffffffffffffffffffffffffffffffffffffffff1614611441576040517f08c379a00000000000000000000000000000000000000000000000000000000081526004016114389061269c565b60405180910390fd5b6000811180156114635750600160009054906101000a900460ff1660ff168111155b6114a2576040517f08c379a000000000000000000000000000000000000000000000000000000000815260040161149990612cdd565b60405180910390fd5b7f6da4b27b55b238e744da4718a971dc37927628f29a571ea47fc99133719050c66002600083815260200190815260200160002060000160009054906101000a900460ff1660026000848152602001908152602001600020600101600260008581526020019081526020016000206002015461151d85610c04565b60026000878152602001908152602001600020600501600080600281111561154857611547612ad8565b5b600281111561155a57611559612ad8565b5b815260200190815260200160002060009054906101000a900473ffffffffffffffffffffffffffffffffffffffff16600260008881526020019081526020016000206005016000600160028111156115b5576115b4612ad8565b5b60028111156115c7576115c6612ad8565b5b815260200190815260200160002060009054906101000a900473ffffffffffffffffffffffffffffffffffffffff1660026000898152602001908152602001600020600501600060028081111561162157611620612ad8565b5b600281111561163357611632612ad8565b5b815260200190815260200160002060009054906101000a900473ffffffffffffffffffffffffffffffffffffffff166040516116759796959493929190612ea5565b60405180910390a150565b600360009054906101000a900473ffffffffffffffffffffffffffffffffffffffff1673ffffffffffffffffffffffffffffffffffffffff163373ffffffffffffffffffffffffffffffffffffffff1614611710576040517f08c379a00000000000000000000000000000000000000000000000000000000081526004016117079061269c565b60405180910390fd5b600360009054906101000a900473ffffffffffffffffffffffffffffffffffffffff1673ffffffffffffffffffffffffffffffffffffffff166108fc479081150290604051600060405180830381858888f19350505050158015611778573d6000803e3d6000fd5b507ff24055cc366c1d53b75688e6ba6eb419d022fb5f4956c5d66a6ef54adbf3270a6040516117a690612fba565b60405180910390a1565b600360009054906101000a900473ffffffffffffffffffffffffffffffffffffffff1673ffffffffffffffffffffffffffffffffffffffff163373ffffffffffffffffffffffffffffffffffffffff1614611840576040517f08c379a00000000000000000000000000000000000000000000000000000000081526004016118379061269c565b60405180910390fd5b6000811180156118625750600160009054906101000a900460ff1660ff168111155b6118a1576040517f08c379a000000000000000000000000000000000000000000000000000000000815260040161189890612cdd565b60405180910390fd5b600060078111156118b5576118b4612ad8565b5b6002600083815260200190815260200160002060040160009054906101000a900460ff1660078111156118eb576118ea612ad8565b5b1461192b576040517f08c379a00000000000000000000000000000000000000000000000000000000081526004016119229061304c565b60405180910390fd5b60066002600083815260200190815260200160002060040160006101000a81548160ff0219169083600781111561196557611964612ad8565b5b02179055504260026000838152602001908152602001600020600301819055507fe2cca8dd1b934f26bc529408f1013db8c61c3bc945d0507390b5a6b5b29d7284600260008381526020019081526020016000206005016000600160028111156119d2576119d1612ad8565b5b60028111156119e4576119e3612ad8565b5b815260200190815260200160002060009054906101000a900473ffffffffffffffffffffffffffffffffffffffff16600260008481526020019081526020016000206005016000806002811115611a3e57611a3d612ad8565b5b6002811115611a5057611a4f612ad8565b5b815260200190815260200160002060009054906101000a900473ffffffffffffffffffffffffffffffffffffffff16600260008581526020019081526020016000206002015460026000868152602001908152602001600020600101604051611abc94939291906130b8565b60405180910390a150565b600360009054906101000a900473ffffffffffffffffffffffffffffffffffffffff1681565b803373ffffffffffffffffffffffffffffffffffffffff1660026000838152602001908152602001600020600501600060016002811115611b3157611b30612ad8565b5b6002811115611b4357611b42612ad8565b5b815260200190815260200160002060009054906101000a900473ffffffffffffffffffffffffffffffffffffffff1673ffffffffffffffffffffffffffffffffffffffff1614611bc8576040517f08c379a0000000000000000000000000000000000000000000000000000000008152600401611bbf90613189565b60405180910390fd5b600082118015611bea5750600160009054906101000a900460ff1660ff168211155b611c29576040517f08c379a0000000000000000000000000000000000000000000000000000000008152600401611c2090612cdd565b60405180910390fd5b60006007811115611c3d57611c3c612ad8565b5b6002600084815260200190815260200160002060040160009054906101000a900460ff166007811115611c7357611c72612ad8565b5b14611cb3576040517f08c379a0000000000000000000000000000000000000000000000000000000008152600401611caa9061321b565b60405180910390fd5b60016002600084815260200190815260200160002060040160006101000a81548160ff02191690836007811115611ced57611cec612ad8565b5b02179055504260026000848152602001908152602001600020600301819055507ff24055cc366c1d53b75688e6ba6eb419d022fb5f4956c5d66a6ef54adbf3270a604051611d3a906132ad565b60405180910390a15050565b803373ffffffffffffffffffffffffffffffffffffffff16600260008381526020019081526020016000206005016000806002811115611d8957611d88612ad8565b5b6002811115611d9b57611d9a612ad8565b5b815260200190815260200160002060009054906101000a900473ffffffffffffffffffffffffffffffffffffffff1673ffffffffffffffffffffffffffffffffffffffff1614611e20576040517f08c379a0000000000000000000000000000000000000000000000000000000008152600401611e179061333f565b60405180910390fd5b600082118015611e425750600160009054906101000a900460ff1660ff168211155b611e81576040517f08c379a0000000000000000000000000000000000000000000000000000000008152600401611e7890612cdd565b60405180910390fd5b60026000838152602001908152602001600020600201543414611ef0577f1ae5bb67fa8e729e5064fbc2aa51ecd2f5002f6f627c47c1c75b4e74680f99c96002600084815260200190815260200160002060020154604051611ee391906133f7565b60405180910390a1612009565b60036007811115611f0457611f03612ad8565b5b6002600084815260200190815260200160002060040160009054906101000a900460ff166007811115611f3a57611f39612ad8565b5b14611f7a576040517f08c379a0000000000000000000000000000000000000000000000000000000008152600401611f71906134bd565b60405180910390fd5b600280600084815260200190815260200160002060040160006101000a81548160ff02191690836007811115611fb357611fb2612ad8565b5b02179055504260026000848152602001908152602001600020600301819055507ff24055cc366c1d53b75688e6ba6eb419d022fb5f4956c5d66a6ef54adbf3270a6040516120009061354f565b60405180910390a15b5050565b600460009054906101000a900473ffffffffffffffffffffffffffffffffffffffff1681565b600160009054906101000a900460ff1681565b6000600360009054906101000a900473ffffffffffffffffffffffffffffffffffffffff1673ffffffffffffffffffffffffffffffffffffffff163373ffffffffffffffffffffffffffffffffffffffff16146120d8576040517f08c379a00000000000000000000000000000000000000000000000000000000081526004016120cf9061269c565b60405180910390fd5b47905090565b803373ffffffffffffffffffffffffffffffffffffffff166002600083815260200190815260200160002060050160006001600281111561212257612121612ad8565b5b600281111561213457612133612ad8565b5b815260200190815260200160002060009054906101000a900473ffffffffffffffffffffffffffffffffffffffff1673ffffffffffffffffffffffffffffffffffffffff16146121b9576040517f08c379a00000000000000000000000000000000000000000000000000000000081526004016121b090613189565b60405180910390fd5b6000821180156121db5750600160009054906101000a900460ff1660ff168211155b61221a576040517f08c379a000000000000000000000000000000000000000000000000000000000815260040161221190612cdd565b60405180910390fd5b6001600781111561222e5761222d612ad8565b5b6002600084815260200190815260200160002060040160009054906101000a900460ff16600781111561226457612263612ad8565b5b146122a4576040517f08c379a000000000000000000000000000000000000000000000000000000000815260040161229b906135e1565b60405180910390fd5b60036002600084815260200190815260200160002060040160006101000a81548160ff021916908360078111156122de576122dd612ad8565b5b02179055504260026000848152602001908152602001600020600301819055507ff24055cc366c1d53b75688e6ba6eb419d022fb5f4956c5d66a6ef54adbf3270a60405161232b90613673565b60405180910390a15050565b600080fd5b600080fd5b600073ffffffffffffffffffffffffffffffffffffffff82169050919050565b600061236c82612341565b9050919050565b61237c81612361565b811461238757600080fd5b50565b60008135905061239981612373565b92915050565b6000819050919050565b6123b28161239f565b81146123bd57600080fd5b50565b6000813590506123cf816123a9565b92915050565b600080fd5b600080fd5b600080fd5b60008083601f8401126123fa576123f96123d5565b5b8235905067ffffffffffffffff811115612417576124166123da565b5b602083019150836001820283011115612433576124326123df565b5b9250929050565b60008060008060008060a0878903121561245757612456612337565b5b600061246589828a0161238a565b965050602061247689828a0161238a565b955050604061248789828a0161238a565b945050606061249889828a016123c0565b935050608087013567ffffffffffffffff8111156124b9576124b861233c565b5b6124c589828a016123e4565b92509250509295509295509295565b6000602082840312156124ea576124e9612337565b5b60006124f8848285016123c0565b91505092915050565b600081519050919050565b600082825260208201905092915050565b60005b8381101561253b578082015181840152602081019050612520565b60008484015250505050565b6000601f19601f8301169050919050565b600061256382612501565b61256d818561250c565b935061257d81856020860161251d565b61258681612547565b840191505092915050565b600060208201905081810360008301526125ab8184612558565b905092915050565b60006125be82612341565b9050919050565b6125ce816125b3565b82525050565b60006020820190506125e960008301846125c5565b92915050565b600060ff82169050919050565b612605816125ef565b82525050565b600060208201905061262060008301846125fc565b92915050565b61262f8161239f565b82525050565b600060208201905061264a6000830184612626565b92915050565b7f4e6f20657265732063726561646f722064656c20636f6e747261746f00000000600082015250565b6000612686601c8361250c565b915061269182612650565b602082019050919050565b600060208201905081810360008301526126b581612679565b9050919050565b7f4e6f742076616c69642061646472657373000000000000000000000000000000600082015250565b60006126f260118361250c565b91506126fd826126bc565b602082019050919050565b60006020820190508181036000830152612721816126e5565b9050919050565b7f4e487b7100000000000000000000000000000000000000000000000000000000600052601160045260246000fd5b6000612762826125ef565b915060ff820361277557612774612728565b5b600182019050919050565b600082905092915050565b7f4e487b7100000000000000000000000000000000000000000000000000000000600052604160045260246000fd5b7f4e487b7100000000000000000000000000000000000000000000000000000000600052602260045260246000fd5b6000600282049050600182168061280157607f821691505b602082108103612814576128136127ba565b5b50919050565b60008190508160005260206000209050919050565b60006020601f8301049050919050565b600082821b905092915050565b60006008830261287c7fffffffffffffffffffffffffffffffffffffffffffffffffffffffffffffffff8261283f565b612886868361283f565b95508019841693508086168417925050509392505050565b6000819050919050565b60006128c36128be6128b98461239f565b61289e565b61239f565b9050919050565b6000819050919050565b6128dd836128a8565b6128f16128e9826128ca565b84845461284c565b825550505050565b600090565b6129066128f9565b6129118184846128d4565b505050565b5b818110156129355761292a6000826128fe565b600181019050612917565b5050565b601f82111561297a5761294b8161281a565b6129548461282f565b81016020851015612963578190505b61297761296f8561282f565b830182612916565b50505b505050565b600082821c905092915050565b600061299d6000198460080261297f565b1980831691505092915050565b60006129b6838361298c565b9150826002028217905092915050565b6129d08383612780565b67ffffffffffffffff8111156129e9576129e861278b565b5b6129f382546127e9565b6129fe828285612939565b6000601f831160018114612a2d5760008415612a1b578287013590505b612a2585826129aa565b865550612a8d565b601f198416612a3b8661281a565b60005b82811015612a6357848901358255600182019150602085019450602081019050612a3e565b86831015612a805784890135612a7c601f89168261298c565b8355505b6001600288020188555050505b50505050505050565b6000612aa18261239f565b9150612aac8361239f565b9250828202612aba8161239f565b91508282048414831517612ad157612ad0612728565b5b5092915050565b7f4e487b7100000000000000000000000000000000000000000000000000000000600052602160045260246000fd5b7f456e7472656761206372656164613a2000000000000000000000000000000000600082015250565b6000612b3d60108361250c565b9150612b4882612b07565b602082019050919050565b612b5c81612361565b82525050565b82818337600083830152505050565b6000612b7d838561250c565b9350612b8a838584612b62565b612b9383612547565b840190509392505050565b600060a0820190508181036000830152612bb781612b30565b9050612bc66020830188612b53565b612bd36040830187612b53565b612be06060830186612626565b8181036080830152612bf3818486612b71565b90509695505050505050565b7f4e6f206572657320656c2076656e6465646f722064656c20636f6e747261746f600082015250565b6000612c3560208361250c565b9150612c4082612bff565b602082019050919050565b60006020820190508181036000830152612c6481612c28565b9050919050565b7f456c204e756d65726f20646520656e7472656761206e6f20657320636f72726560008201527f63746f0000000000000000000000000000000000000000000000000000000000602082015250565b6000612cc760238361250c565b9150612cd282612c6b565b604082019050919050565b60006020820190508181036000830152612cf681612cba565b9050919050565b7f456c20436c69656e7465206e6f206861206669726d61646f206c61207265636560008201527f7063696f6e000000000000000000000000000000000000000000000000000000602082015250565b6000612d5960258361250c565b9150612d6482612cfd565b604082019050919050565b60006020820190508181036000830152612d8881612d4c565b9050919050565b7f456c2076656e6465646f72207265636f6a6520656c207061676f20792073652060008201527f7061676120656c2074726173706f727465000000000000000000000000000000602082015250565b6000612deb60318361250c565b9150612df682612d8f565b604082019050919050565b60006020820190508181036000830152612e1a81612dde565b9050919050565b60008154612e2e816127e9565b612e38818661250c565b94506001821660008114612e535760018114612e6957612e9c565b60ff198316865281151560200286019350612e9c565b612e728561281a565b60005b83811015612e9457815481890152600182019150602081019050612e75565b808801955050505b50505092915050565b600060e082019050612eba600083018a6125fc565b8181036020830152612ecc8189612e21565b9050612edb6040830188612626565b8181036060830152612eed8187612558565b9050612efc6080830186612b53565b612f0960a0830185612b53565b612f1660c0830184612b53565b98975050505050505050565b7f46756e63696f6e2064652070616e69636f205265616c697a616461207365206460008201527f657675656c76656e206c6f7320666f6e646f732064656c20436f6e747261746f60208201527f20616c206f776e65720000000000000000000000000000000000000000000000604082015250565b6000612fa460498361250c565b9150612faf82612f22565b606082019050919050565b60006020820190508181036000830152612fd381612f97565b9050919050565b7f456c2065737461646f206e6f20657320656c20616465637561646f207061726160008201527f20706f6465722043616e63656c6172206c6120656e7472656761000000000000602082015250565b6000613036603a8361250c565b915061304182612fda565b604082019050919050565b6000602082019050818103600083015261306581613029565b9050919050565b7f456e74726567612043616e63656c616461000000000000000000000000000000600082015250565b60006130a260118361250c565b91506130ad8261306c565b602082019050919050565b600060a08201905081810360008301526130d181613095565b90506130e06020830187612b53565b6130ed6040830186612b53565b6130fa6060830185612626565b818103608083015261310c8184612e21565b905095945050505050565b7f4e6f207469656e657320726f6c2064652072657061727469646f72206f206e6f60008201527f206573746173207369676e61646f20636f6d6f2074616c000000000000000000602082015250565b600061317360378361250c565b915061317e82613117565b604082019050919050565b600060208201905081810360008301526131a281613166565b9050919050565b7f454c2065737461646f206465206c6120456e7472616761207469656e6520717560008201527f6520657374617220612041434345505445440000000000000000000000000000602082015250565b600061320560328361250c565b9150613210826131a9565b604082019050919050565b60006020820190508181036000830152613234816131f8565b9050919050565b7f4c6120656e747265676120612073616c69646f2068616369612073752064657360008201527f74696e6f00000000000000000000000000000000000000000000000000000000602082015250565b600061329760248361250c565b91506132a28261323b565b604082019050919050565b600060208201905081810360008301526132c68161328a565b9050919050565b7f4e6f206572657320636c69656e7465206465206c6120656e7472656761206f2060008201527f6e6f20657374617320617369676e61646f20636f6d6f2074616c000000000000602082015250565b6000613329603a8361250c565b9150613334826132cd565b604082019050919050565b600060208201905081810360008301526133588161331c565b9050919050565b7f4e6f207469656e657320737566696369656e74657320666f6e646f732070617260008201527f6120636f6d7072617220656c2070726f647563746f2c206f20656c2076616c6f60208201527f722065732064697374696e746f207469656e6520717565207365723a20000000604082015250565b60006133e1605d8361250c565b91506133ec8261335f565b606082019050919050565b60006040820190508181036000830152613410816133d4565b905061341f6020830184612626565b92915050565b7f456c2072657061727469646f72206e6f2061206c6c656761646f20616c20646560008201527f7374696e6f206e6f20707565646573206669726d6172206c6120726563656f6360208201527f696f6e2064656c2070726f647563746f00000000000000000000000000000000604082015250565b60006134a760508361250c565b91506134b282613425565b606082019050919050565b600060208201905081810360008301526134d68161349a565b9050919050565b7f456c20436c69656e74652061206669726d61646f206c6120726563657063696f60008201527f6e2064652050726f647563746f00000000000000000000000000000000000000602082015250565b6000613539602d8361250c565b9150613544826134dd565b604082019050919050565b600060208201905081810360008301526135688161352c565b9050919050565b7f454c2065737461646f206465206c6120456e7472616761207469656e6520717560008201527f6520657374617220612052454144590000000000000000000000000000000000602082015250565b60006135cb602f8361250c565b91506135d68261356f565b604082019050919050565b600060208201905081810360008301526135fa816135be565b9050919050565b7f456c2072657061727469646f72206861206669726d61646f206c61206c6c656760008201527f6120616c2064657374696e6f0000000000000000000000000000000000000000602082015250565b600061365d602c8361250c565b915061366882613601565b604082019050919050565b6000602082019050818103600083015261368c81613650565b905091905056fea26469706673582212209fd3f7b87ef7f21f2f1d84a1c7014dab20d06465da329b47e228f78412ab8b4e64736f6c63430008110033",
					"opcodes": "PUSH1 0x80 PUSH1 0x40 MSTORE SELFBALANCE PUSH1 0x5 SSTORE PUSH1 0x40 MLOAD DUP1 PUSH1 0x40 ADD PUSH1 0x40 MSTORE DUP1 PUSH1 0x8 DUP2 MSTORE PUSH1 0x20 ADD PUSH32 0x4143434550544544000000000000000000000000000000000000000000000000 DUP2 MSTORE POP PUSH1 0x6 SWAP1 DUP2 PUSH3 0x4E SWAP2 SWAP1 PUSH3 0x5B1 JUMP JUMPDEST POP PUSH1 0x40 MLOAD DUP1 PUSH1 0x40 ADD PUSH1 0x40 MSTORE DUP1 PUSH1 0x5 DUP2 MSTORE PUSH1 0x20 ADD PUSH32 0x5245414459000000000000000000000000000000000000000000000000000000 DUP2 MSTORE POP PUSH1 0x7 SWAP1 DUP2 PUSH3 0x95 SWAP2 SWAP1 PUSH3 0x5B1 JUMP JUMPDEST POP PUSH1 0x40 MLOAD DUP1 PUSH1 0x40 ADD PUSH1 0x40 MSTORE DUP1 PUSH1 0x4 DUP2 MSTORE PUSH1 0x20 ADD PUSH32 0x434C4F4B00000000000000000000000000000000000000000000000000000000 DUP2 MSTORE POP PUSH1 0x8 SWAP1 DUP2 PUSH3 0xDC SWAP2 SWAP1 PUSH3 0x5B1 JUMP JUMPDEST POP PUSH1 0x40 MLOAD DUP1 PUSH1 0x40 ADD PUSH1 0x40 MSTORE DUP1 PUSH1 0x4 DUP2 MSTORE PUSH1 0x20 ADD PUSH32 0x52504F4B00000000000000000000000000000000000000000000000000000000 DUP2 MSTORE POP PUSH1 0x9 SWAP1 DUP2 PUSH3 0x123 SWAP2 SWAP1 PUSH3 0x5B1 JUMP JUMPDEST POP PUSH1 0x40 MLOAD DUP1 PUSH1 0x40 ADD PUSH1 0x40 MSTORE DUP1 PUSH1 0x4 DUP2 MSTORE PUSH1 0x20 ADD PUSH32 0x434C4B4F00000000000000000000000000000000000000000000000000000000 DUP2 MSTORE POP PUSH1 0xA SWAP1 DUP2 PUSH3 0x16A SWAP2 SWAP1 PUSH3 0x5B1 JUMP JUMPDEST POP PUSH1 0x40 MLOAD DUP1 PUSH1 0x40 ADD PUSH1 0x40 MSTORE DUP1 PUSH1 0x4 DUP2 MSTORE PUSH1 0x20 ADD PUSH32 0x52504B4F00000000000000000000000000000000000000000000000000000000 DUP2 MSTORE POP PUSH1 0xB SWAP1 DUP2 PUSH3 0x1B1 SWAP2 SWAP1 PUSH3 0x5B1 JUMP JUMPDEST POP PUSH1 0x40 MLOAD DUP1 PUSH1 0x40 ADD PUSH1 0x40 MSTORE DUP1 PUSH1 0x6 DUP2 MSTORE PUSH1 0x20 ADD PUSH32 0x43414E43454C0000000000000000000000000000000000000000000000000000 DUP2 MSTORE POP PUSH1 0xC SWAP1 DUP2 PUSH3 0x1F8 SWAP2 SWAP1 PUSH3 0x5B1 JUMP JUMPDEST POP PUSH1 0x40 MLOAD DUP1 PUSH1 0x40 ADD PUSH1 0x40 MSTORE DUP1 PUSH1 0x9 DUP2 MSTORE PUSH1 0x20 ADD PUSH32 0x5245414C495A4144410000000000000000000000000000000000000000000000 DUP2 MSTORE POP PUSH1 0xD SWAP1 DUP2 PUSH3 0x23F SWAP2 SWAP1 PUSH3 0x5B1 JUMP JUMPDEST POP CALLVALUE DUP1 ISZERO PUSH3 0x24D JUMPI PUSH1 0x0 DUP1 REVERT JUMPDEST POP CALLER PUSH1 0x3 PUSH1 0x0 PUSH2 0x100 EXP DUP2 SLOAD DUP2 PUSH20 0xFFFFFFFFFFFFFFFFFFFFFFFFFFFFFFFFFFFFFFFF MUL NOT AND SWAP1 DUP4 PUSH20 0xFFFFFFFFFFFFFFFFFFFFFFFFFFFFFFFFFFFFFFFF AND MUL OR SWAP1 SSTORE POP ADDRESS PUSH1 0x4 PUSH1 0x0 PUSH2 0x100 EXP DUP2 SLOAD DUP2 PUSH20 0xFFFFFFFFFFFFFFFFFFFFFFFFFFFFFFFFFFFFFFFF MUL NOT AND SWAP1 DUP4 PUSH20 0xFFFFFFFFFFFFFFFFFFFFFFFFFFFFFFFFFFFFFFFF AND MUL OR SWAP1 SSTORE POP PUSH1 0x0 PUSH1 0x1 PUSH1 0x0 PUSH2 0x100 EXP DUP2 SLOAD DUP2 PUSH1 0xFF MUL NOT AND SWAP1 DUP4 PUSH1 0xFF AND MUL OR SWAP1 SSTORE POP PUSH7 0x38D7EA4C68000 PUSH1 0x0 DUP2 SWAP1 SSTORE POP PUSH32 0xF24055CC366C1D53B75688E6BA6EB419D022FB5F4956C5D66A6EF54ADBF3270A PUSH1 0x40 MLOAD PUSH3 0x329 SWAP1 PUSH3 0x71F JUMP JUMPDEST PUSH1 0x40 MLOAD DUP1 SWAP2 SUB SWAP1 LOG1 PUSH3 0x741 JUMP JUMPDEST PUSH1 0x0 DUP2 MLOAD SWAP1 POP SWAP2 SWAP1 POP JUMP JUMPDEST PUSH32 0x4E487B7100000000000000000000000000000000000000000000000000000000 PUSH1 0x0 MSTORE PUSH1 0x41 PUSH1 0x4 MSTORE PUSH1 0x24 PUSH1 0x0 REVERT JUMPDEST PUSH32 0x4E487B7100000000000000000000000000000000000000000000000000000000 PUSH1 0x0 MSTORE PUSH1 0x22 PUSH1 0x4 MSTORE PUSH1 0x24 PUSH1 0x0 REVERT JUMPDEST PUSH1 0x0 PUSH1 0x2 DUP3 DIV SWAP1 POP PUSH1 0x1 DUP3 AND DUP1 PUSH3 0x3B9 JUMPI PUSH1 0x7F DUP3 AND SWAP2 POP JUMPDEST PUSH1 0x20 DUP3 LT DUP2 SUB PUSH3 0x3CF JUMPI PUSH3 0x3CE PUSH3 0x371 JUMP JUMPDEST JUMPDEST POP SWAP2 SWAP1 POP JUMP JUMPDEST PUSH1 0x0 DUP2 SWAP1 POP DUP2 PUSH1 0x0 MSTORE PUSH1 0x20 PUSH1 0x0 KECCAK256 SWAP1 POP SWAP2 SWAP1 POP JUMP JUMPDEST PUSH1 0x0 PUSH1 0x20 PUSH1 0x1F DUP4 ADD DIV SWAP1 POP SWAP2 SWAP1 POP JUMP JUMPDEST PUSH1 0x0 DUP3 DUP3 SHL SWAP1 POP SWAP3 SWAP2 POP POP JUMP JUMPDEST PUSH1 0x0 PUSH1 0x8 DUP4 MUL PUSH3 0x439 PUSH32 0xFFFFFFFFFFFFFFFFFFFFFFFFFFFFFFFFFFFFFFFFFFFFFFFFFFFFFFFFFFFFFFFF DUP3 PUSH3 0x3FA JUMP JUMPDEST PUSH3 0x445 DUP7 DUP4 PUSH3 0x3FA JUMP JUMPDEST SWAP6 POP DUP1 NOT DUP5 AND SWAP4 POP DUP1 DUP7 AND DUP5 OR SWAP3 POP POP POP SWAP4 SWAP3 POP POP POP JUMP JUMPDEST PUSH1 0x0 DUP2 SWAP1 POP SWAP2 SWAP1 POP JUMP JUMPDEST PUSH1 0x0 DUP2 SWAP1 POP SWAP2 SWAP1 POP JUMP JUMPDEST PUSH1 0x0 PUSH3 0x492 PUSH3 0x48C PUSH3 0x486 DUP5 PUSH3 0x45D JUMP JUMPDEST PUSH3 0x467 JUMP JUMPDEST PUSH3 0x45D JUMP JUMPDEST SWAP1 POP SWAP2 SWAP1 POP JUMP JUMPDEST PUSH1 0x0 DUP2 SWAP1 POP SWAP2 SWAP1 POP JUMP JUMPDEST PUSH3 0x4AE DUP4 PUSH3 0x471 JUMP JUMPDEST PUSH3 0x4C6 PUSH3 0x4BD DUP3 PUSH3 0x499 JUMP JUMPDEST DUP5 DUP5 SLOAD PUSH3 0x407 JUMP JUMPDEST DUP3 SSTORE POP POP POP POP JUMP JUMPDEST PUSH1 0x0 SWAP1 JUMP JUMPDEST PUSH3 0x4DD PUSH3 0x4CE JUMP JUMPDEST PUSH3 0x4EA DUP2 DUP5 DUP5 PUSH3 0x4A3 JUMP JUMPDEST POP POP POP JUMP JUMPDEST JUMPDEST DUP2 DUP2 LT ISZERO PUSH3 0x512 JUMPI PUSH3 0x506 PUSH1 0x0 DUP3 PUSH3 0x4D3 JUMP JUMPDEST PUSH1 0x1 DUP2 ADD SWAP1 POP PUSH3 0x4F0 JUMP JUMPDEST POP POP JUMP JUMPDEST PUSH1 0x1F DUP3 GT ISZERO PUSH3 0x561 JUMPI PUSH3 0x52B DUP2 PUSH3 0x3D5 JUMP JUMPDEST PUSH3 0x536 DUP5 PUSH3 0x3EA JUMP JUMPDEST DUP2 ADD PUSH1 0x20 DUP6 LT ISZERO PUSH3 0x546 JUMPI DUP2 SWAP1 POP JUMPDEST PUSH3 0x55E PUSH3 0x555 DUP6 PUSH3 0x3EA JUMP JUMPDEST DUP4 ADD DUP3 PUSH3 0x4EF JUMP JUMPDEST POP POP JUMPDEST POP POP POP JUMP JUMPDEST PUSH1 0x0 DUP3 DUP3 SHR SWAP1 POP SWAP3 SWAP2 POP POP JUMP JUMPDEST PUSH1 0x0 PUSH3 0x586 PUSH1 0x0 NOT DUP5 PUSH1 0x8 MUL PUSH3 0x566 JUMP JUMPDEST NOT DUP1 DUP4 AND SWAP2 POP POP SWAP3 SWAP2 POP POP JUMP JUMPDEST PUSH1 0x0 PUSH3 0x5A1 DUP4 DUP4 PUSH3 0x573 JUMP JUMPDEST SWAP2 POP DUP3 PUSH1 0x2 MUL DUP3 OR SWAP1 POP SWAP3 SWAP2 POP POP JUMP JUMPDEST PUSH3 0x5BC DUP3 PUSH3 0x337 JUMP JUMPDEST PUSH8 0xFFFFFFFFFFFFFFFF DUP2 GT ISZERO PUSH3 0x5D8 JUMPI PUSH3 0x5D7 PUSH3 0x342 JUMP JUMPDEST JUMPDEST PUSH3 0x5E4 DUP3 SLOAD PUSH3 0x3A0 JUMP JUMPDEST PUSH3 0x5F1 DUP3 DUP3 DUP6 PUSH3 0x516 JUMP JUMPDEST PUSH1 0x0 PUSH1 0x20 SWAP1 POP PUSH1 0x1F DUP4 GT PUSH1 0x1 DUP2 EQ PUSH3 0x629 JUMPI PUSH1 0x0 DUP5 ISZERO PUSH3 0x614 JUMPI DUP3 DUP8 ADD MLOAD SWAP1 POP JUMPDEST PUSH3 0x620 DUP6 DUP3 PUSH3 0x593 JUMP JUMPDEST DUP7 SSTORE POP PUSH3 0x690 JUMP JUMPDEST PUSH1 0x1F NOT DUP5 AND PUSH3 0x639 DUP7 PUSH3 0x3D5 JUMP JUMPDEST PUSH1 0x0 JUMPDEST DUP3 DUP2 LT ISZERO PUSH3 0x663 JUMPI DUP5 DUP10 ADD MLOAD DUP3 SSTORE PUSH1 0x1 DUP3 ADD SWAP2 POP PUSH1 0x20 DUP6 ADD SWAP5 POP PUSH1 0x20 DUP2 ADD SWAP1 POP PUSH3 0x63C JUMP JUMPDEST DUP7 DUP4 LT ISZERO PUSH3 0x683 JUMPI DUP5 DUP10 ADD MLOAD PUSH3 0x67F PUSH1 0x1F DUP10 AND DUP3 PUSH3 0x573 JUMP JUMPDEST DUP4 SSTORE POP JUMPDEST PUSH1 0x1 PUSH1 0x2 DUP9 MUL ADD DUP9 SSTORE POP POP POP JUMPDEST POP POP POP POP POP POP JUMP JUMPDEST PUSH1 0x0 DUP3 DUP3 MSTORE PUSH1 0x20 DUP3 ADD SWAP1 POP SWAP3 SWAP2 POP POP JUMP JUMPDEST PUSH32 0x436F6E747261746F20656E7472616761206372656164612073696E20456E7472 PUSH1 0x0 DUP3 ADD MSTORE PUSH32 0x6167617300000000000000000000000000000000000000000000000000000000 PUSH1 0x20 DUP3 ADD MSTORE POP JUMP JUMPDEST PUSH1 0x0 PUSH3 0x707 PUSH1 0x24 DUP4 PUSH3 0x698 JUMP JUMPDEST SWAP2 POP PUSH3 0x714 DUP3 PUSH3 0x6A9 JUMP JUMPDEST PUSH1 0x40 DUP3 ADD SWAP1 POP SWAP2 SWAP1 POP JUMP JUMPDEST PUSH1 0x0 PUSH1 0x20 DUP3 ADD SWAP1 POP DUP2 DUP2 SUB PUSH1 0x0 DUP4 ADD MSTORE PUSH3 0x73A DUP2 PUSH3 0x6F8 JUMP JUMPDEST SWAP1 POP SWAP2 SWAP1 POP JUMP JUMPDEST PUSH2 0x36C9 DUP1 PUSH3 0x751 PUSH1 0x0 CODECOPY PUSH1 0x0 RETURN INVALID PUSH1 0x80 PUSH1 0x40 MSTORE PUSH1 0x4 CALLDATASIZE LT PUSH2 0xC2 JUMPI PUSH1 0x0 CALLDATALOAD PUSH1 0xE0 SHR DUP1 PUSH4 0x8DA5CB5B GT PUSH2 0x7F JUMPI DUP1 PUSH4 0xDB7FBC86 GT PUSH2 0x59 JUMPI DUP1 PUSH4 0xDB7FBC86 EQ PUSH2 0x208 JUMPI DUP1 PUSH4 0xDBBD9752 EQ PUSH2 0x233 JUMPI DUP1 PUSH4 0xDD1A8D67 EQ PUSH2 0x25E JUMPI DUP1 PUSH4 0xF856E749 EQ PUSH2 0x289 JUMPI PUSH2 0xC2 JUMP JUMPDEST DUP1 PUSH4 0x8DA5CB5B EQ PUSH2 0x198 JUMPI DUP1 PUSH4 0xBDC0679F EQ PUSH2 0x1C3 JUMPI DUP1 PUSH4 0xD6223CCA EQ PUSH2 0x1EC JUMPI PUSH2 0xC2 JUMP JUMPDEST DUP1 PUSH4 0x19315ABC EQ PUSH2 0xC7 JUMPI DUP1 PUSH4 0x3ECD4392 EQ PUSH2 0xE3 JUMPI DUP1 PUSH4 0x77E93DBA EQ PUSH2 0xFF JUMPI DUP1 PUSH4 0x7B0553F2 EQ PUSH2 0x13C JUMPI DUP1 PUSH4 0x81E6830F EQ PUSH2 0x165 JUMPI DUP1 PUSH4 0x86255BA2 EQ PUSH2 0x17C JUMPI JUMPDEST PUSH1 0x0 DUP1 REVERT JUMPDEST PUSH2 0xE1 PUSH1 0x4 DUP1 CALLDATASIZE SUB DUP2 ADD SWAP1 PUSH2 0xDC SWAP2 SWAP1 PUSH2 0x243A JUMP JUMPDEST PUSH2 0x2B2 JUMP JUMPDEST STOP JUMPDEST PUSH2 0xFD PUSH1 0x4 DUP1 CALLDATASIZE SUB DUP2 ADD SWAP1 PUSH2 0xF8 SWAP2 SWAP1 PUSH2 0x24D4 JUMP JUMPDEST PUSH2 0x82F JUMP JUMPDEST STOP JUMPDEST CALLVALUE DUP1 ISZERO PUSH2 0x10B JUMPI PUSH1 0x0 DUP1 REVERT JUMPDEST POP PUSH2 0x126 PUSH1 0x4 DUP1 CALLDATASIZE SUB DUP2 ADD SWAP1 PUSH2 0x121 SWAP2 SWAP1 PUSH2 0x24D4 JUMP JUMPDEST PUSH2 0xC04 JUMP JUMPDEST PUSH1 0x40 MLOAD PUSH2 0x133 SWAP2 SWAP1 PUSH2 0x2591 JUMP JUMPDEST PUSH1 0x40 MLOAD DUP1 SWAP2 SUB SWAP1 RETURN JUMPDEST CALLVALUE DUP1 ISZERO PUSH2 0x148 JUMPI PUSH1 0x0 DUP1 REVERT JUMPDEST POP PUSH2 0x163 PUSH1 0x4 DUP1 CALLDATASIZE SUB DUP2 ADD SWAP1 PUSH2 0x15E SWAP2 SWAP1 PUSH2 0x24D4 JUMP JUMPDEST PUSH2 0x13B1 JUMP JUMPDEST STOP JUMPDEST CALLVALUE DUP1 ISZERO PUSH2 0x171 JUMPI PUSH1 0x0 DUP1 REVERT JUMPDEST POP PUSH2 0x17A PUSH2 0x1680 JUMP JUMPDEST STOP JUMPDEST PUSH2 0x196 PUSH1 0x4 DUP1 CALLDATASIZE SUB DUP2 ADD SWAP1 PUSH2 0x191 SWAP2 SWAP1 PUSH2 0x24D4 JUMP JUMPDEST PUSH2 0x17B0 JUMP JUMPDEST STOP JUMPDEST CALLVALUE DUP1 ISZERO PUSH2 0x1A4 JUMPI PUSH1 0x0 DUP1 REVERT JUMPDEST POP PUSH2 0x1AD PUSH2 0x1AC7 JUMP JUMPDEST PUSH1 0x40 MLOAD PUSH2 0x1BA SWAP2 SWAP1 PUSH2 0x25D4 JUMP JUMPDEST PUSH1 0x40 MLOAD DUP1 SWAP2 SUB SWAP1 RETURN JUMPDEST CALLVALUE DUP1 ISZERO PUSH2 0x1CF JUMPI PUSH1 0x0 DUP1 REVERT JUMPDEST POP PUSH2 0x1EA PUSH1 0x4 DUP1 CALLDATASIZE SUB DUP2 ADD SWAP1 PUSH2 0x1E5 SWAP2 SWAP1 PUSH2 0x24D4 JUMP JUMPDEST PUSH2 0x1AED JUMP JUMPDEST STOP JUMPDEST PUSH2 0x206 PUSH1 0x4 DUP1 CALLDATASIZE SUB DUP2 ADD SWAP1 PUSH2 0x201 SWAP2 SWAP1 PUSH2 0x24D4 JUMP JUMPDEST PUSH2 0x1D46 JUMP JUMPDEST STOP JUMPDEST CALLVALUE DUP1 ISZERO PUSH2 0x214 JUMPI PUSH1 0x0 DUP1 REVERT JUMPDEST POP PUSH2 0x21D PUSH2 0x200D JUMP JUMPDEST PUSH1 0x40 MLOAD PUSH2 0x22A SWAP2 SWAP1 PUSH2 0x25D4 JUMP JUMPDEST PUSH1 0x40 MLOAD DUP1 SWAP2 SUB SWAP1 RETURN JUMPDEST CALLVALUE DUP1 ISZERO PUSH2 0x23F JUMPI PUSH1 0x0 DUP1 REVERT JUMPDEST POP PUSH2 0x248 PUSH2 0x2033 JUMP JUMPDEST PUSH1 0x40 MLOAD PUSH2 0x255 SWAP2 SWAP1 PUSH2 0x260B JUMP JUMPDEST PUSH1 0x40 MLOAD DUP1 SWAP2 SUB SWAP1 RETURN JUMPDEST CALLVALUE DUP1 ISZERO PUSH2 0x26A JUMPI PUSH1 0x0 DUP1 REVERT JUMPDEST POP PUSH2 0x273 PUSH2 0x2046 JUMP JUMPDEST PUSH1 0x40 MLOAD PUSH2 0x280 SWAP2 SWAP1 PUSH2 0x2635 JUMP JUMPDEST PUSH1 0x40 MLOAD DUP1 SWAP2 SUB SWAP1 RETURN JUMPDEST CALLVALUE DUP1 ISZERO PUSH2 0x295 JUMPI PUSH1 0x0 DUP1 REVERT JUMPDEST POP PUSH2 0x2B0 PUSH1 0x4 DUP1 CALLDATASIZE SUB DUP2 ADD SWAP1 PUSH2 0x2AB SWAP2 SWAP1 PUSH2 0x24D4 JUMP JUMPDEST PUSH2 0x20DE JUMP JUMPDEST STOP JUMPDEST PUSH1 0x3 PUSH1 0x0 SWAP1 SLOAD SWAP1 PUSH2 0x100 EXP SWAP1 DIV PUSH20 0xFFFFFFFFFFFFFFFFFFFFFFFFFFFFFFFFFFFFFFFF AND PUSH20 0xFFFFFFFFFFFFFFFFFFFFFFFFFFFFFFFFFFFFFFFF AND CALLER PUSH20 0xFFFFFFFFFFFFFFFFFFFFFFFFFFFFFFFFFFFFFFFF AND EQ PUSH2 0x342 JUMPI PUSH1 0x40 MLOAD PUSH32 0x8C379A000000000000000000000000000000000000000000000000000000000 DUP2 MSTORE PUSH1 0x4 ADD PUSH2 0x339 SWAP1 PUSH2 0x269C JUMP JUMPDEST PUSH1 0x40 MLOAD DUP1 SWAP2 SUB SWAP1 REVERT JUMPDEST DUP6 PUSH1 0x0 PUSH20 0xFFFFFFFFFFFFFFFFFFFFFFFFFFFFFFFFFFFFFFFF AND DUP2 PUSH20 0xFFFFFFFFFFFFFFFFFFFFFFFFFFFFFFFFFFFFFFFF AND SUB PUSH2 0x3B2 JUMPI PUSH1 0x40 MLOAD PUSH32 0x8C379A000000000000000000000000000000000000000000000000000000000 DUP2 MSTORE PUSH1 0x4 ADD PUSH2 0x3A9 SWAP1 PUSH2 0x2708 JUMP JUMPDEST PUSH1 0x40 MLOAD DUP1 SWAP2 SUB SWAP1 REVERT JUMPDEST DUP6 PUSH1 0x0 PUSH20 0xFFFFFFFFFFFFFFFFFFFFFFFFFFFFFFFFFFFFFFFF AND DUP2 PUSH20 0xFFFFFFFFFFFFFFFFFFFFFFFFFFFFFFFFFFFFFFFF AND SUB PUSH2 0x422 JUMPI PUSH1 0x40 MLOAD PUSH32 0x8C379A000000000000000000000000000000000000000000000000000000000 DUP2 MSTORE PUSH1 0x4 ADD PUSH2 0x419 SWAP1 PUSH2 0x2708 JUMP JUMPDEST PUSH1 0x40 MLOAD DUP1 SWAP2 SUB SWAP1 REVERT JUMPDEST DUP6 PUSH1 0x0 PUSH20 0xFFFFFFFFFFFFFFFFFFFFFFFFFFFFFFFFFFFFFFFF AND DUP2 PUSH20 0xFFFFFFFFFFFFFFFFFFFFFFFFFFFFFFFFFFFFFFFF AND SUB PUSH2 0x492 JUMPI PUSH1 0x40 MLOAD PUSH32 0x8C379A000000000000000000000000000000000000000000000000000000000 DUP2 MSTORE PUSH1 0x4 ADD PUSH2 0x489 SWAP1 PUSH2 0x2708 JUMP JUMPDEST PUSH1 0x40 MLOAD DUP1 SWAP2 SUB SWAP1 REVERT JUMPDEST PUSH1 0x1 PUSH1 0x0 DUP2 DUP2 SWAP1 SLOAD SWAP1 PUSH2 0x100 EXP SWAP1 DIV PUSH1 0xFF AND DUP1 SWAP3 SWAP2 SWAP1 PUSH2 0x4B1 SWAP1 PUSH2 0x2757 JUMP JUMPDEST SWAP2 SWAP1 PUSH2 0x100 EXP DUP2 SLOAD DUP2 PUSH1 0xFF MUL NOT AND SWAP1 DUP4 PUSH1 0xFF AND MUL OR SWAP1 SSTORE POP POP PUSH1 0x1 PUSH1 0x0 SWAP1 SLOAD SWAP1 PUSH2 0x100 EXP SWAP1 DIV PUSH1 0xFF AND PUSH1 0x2 PUSH1 0x0 PUSH1 0x1 PUSH1 0x0 SWAP1 SLOAD SWAP1 PUSH2 0x100 EXP SWAP1 DIV PUSH1 0xFF AND PUSH1 0xFF AND DUP2 MSTORE PUSH1 0x20 ADD SWAP1 DUP2 MSTORE PUSH1 0x20 ADD PUSH1 0x0 KECCAK256 PUSH1 0x0 ADD PUSH1 0x0 PUSH2 0x100 EXP DUP2 SLOAD DUP2 PUSH1 0xFF MUL NOT AND SWAP1 DUP4 PUSH1 0xFF AND MUL OR SWAP1 SSTORE POP DUP5 DUP5 PUSH1 0x2 PUSH1 0x0 PUSH1 0x1 PUSH1 0x0 SWAP1 SLOAD SWAP1 PUSH2 0x100 EXP SWAP1 DIV PUSH1 0xFF AND PUSH1 0xFF AND DUP2 MSTORE PUSH1 0x20 ADD SWAP1 DUP2 MSTORE PUSH1 0x20 ADD PUSH1 0x0 KECCAK256 PUSH1 0x1 ADD SWAP2 DUP3 PUSH2 0x551 SWAP3 SWAP2 SWAP1 PUSH2 0x29C6 JUMP JUMPDEST POP PUSH8 0xDE0B6B3A7640000 DUP7 PUSH2 0x566 SWAP2 SWAP1 PUSH2 0x2A96 JUMP JUMPDEST PUSH1 0x2 PUSH1 0x0 PUSH1 0x1 PUSH1 0x0 SWAP1 SLOAD SWAP1 PUSH2 0x100 EXP SWAP1 DIV PUSH1 0xFF AND PUSH1 0xFF AND DUP2 MSTORE PUSH1 0x20 ADD SWAP1 DUP2 MSTORE PUSH1 0x20 ADD PUSH1 0x0 KECCAK256 PUSH1 0x2 ADD DUP2 SWAP1 SSTORE POP TIMESTAMP PUSH1 0x2 PUSH1 0x0 PUSH1 0x1 PUSH1 0x0 SWAP1 SLOAD SWAP1 PUSH2 0x100 EXP SWAP1 DIV PUSH1 0xFF AND PUSH1 0xFF AND DUP2 MSTORE PUSH1 0x20 ADD SWAP1 DUP2 MSTORE PUSH1 0x20 ADD PUSH1 0x0 KECCAK256 PUSH1 0x3 ADD DUP2 SWAP1 SSTORE POP PUSH1 0x0 PUSH1 0x2 PUSH1 0x0 PUSH1 0x1 PUSH1 0x0 SWAP1 SLOAD SWAP1 PUSH2 0x100 EXP SWAP1 DIV PUSH1 0xFF AND PUSH1 0xFF AND DUP2 MSTORE PUSH1 0x20 ADD SWAP1 DUP2 MSTORE PUSH1 0x20 ADD PUSH1 0x0 KECCAK256 PUSH1 0x4 ADD PUSH1 0x0 PUSH2 0x100 EXP DUP2 SLOAD DUP2 PUSH1 0xFF MUL NOT AND SWAP1 DUP4 PUSH1 0x7 DUP2 GT ISZERO PUSH2 0x60B JUMPI PUSH2 0x60A PUSH2 0x2AD8 JUMP JUMPDEST JUMPDEST MUL OR SWAP1 SSTORE POP DUP9 PUSH1 0x2 PUSH1 0x0 PUSH1 0x1 PUSH1 0x0 SWAP1 SLOAD SWAP1 PUSH2 0x100 EXP SWAP1 DIV PUSH1 0xFF AND PUSH1 0xFF AND DUP2 MSTORE PUSH1 0x20 ADD SWAP1 DUP2 MSTORE PUSH1 0x20 ADD PUSH1 0x0 KECCAK256 PUSH1 0x5 ADD PUSH1 0x0 PUSH1 0x1 PUSH1 0x2 DUP2 GT ISZERO PUSH2 0x64F JUMPI PUSH2 0x64E PUSH2 0x2AD8 JUMP JUMPDEST JUMPDEST PUSH1 0x2 DUP2 GT ISZERO PUSH2 0x661 JUMPI PUSH2 0x660 PUSH2 0x2AD8 JUMP JUMPDEST JUMPDEST DUP2 MSTORE PUSH1 0x20 ADD SWAP1 DUP2 MSTORE PUSH1 0x20 ADD PUSH1 0x0 KECCAK256 PUSH1 0x0 PUSH2 0x100 EXP DUP2 SLOAD DUP2 PUSH20 0xFFFFFFFFFFFFFFFFFFFFFFFFFFFFFFFFFFFFFFFF MUL NOT AND SWAP1 DUP4 PUSH20 0xFFFFFFFFFFFFFFFFFFFFFFFFFFFFFFFFFFFFFFFF AND MUL OR SWAP1 SSTORE POP DUP8 PUSH1 0x2 PUSH1 0x0 PUSH1 0x1 PUSH1 0x0 SWAP1 SLOAD SWAP1 PUSH2 0x100 EXP SWAP1 DIV PUSH1 0xFF AND PUSH1 0xFF AND DUP2 MSTORE PUSH1 0x20 ADD SWAP1 DUP2 MSTORE PUSH1 0x20 ADD PUSH1 0x0 KECCAK256 PUSH1 0x5 ADD PUSH1 0x0 DUP1 PUSH1 0x2 DUP2 GT ISZERO PUSH2 0x6EB JUMPI PUSH2 0x6EA PUSH2 0x2AD8 JUMP JUMPDEST JUMPDEST PUSH1 0x2 DUP2 GT ISZERO PUSH2 0x6FD JUMPI PUSH2 0x6FC PUSH2 0x2AD8 JUMP JUMPDEST JUMPDEST DUP2 MSTORE PUSH1 0x20 ADD SWAP1 DUP2 MSTORE PUSH1 0x20 ADD PUSH1 0x0 KECCAK256 PUSH1 0x0 PUSH2 0x100 EXP DUP2 SLOAD DUP2 PUSH20 0xFFFFFFFFFFFFFFFFFFFFFFFFFFFFFFFFFFFFFFFF MUL NOT AND SWAP1 DUP4 PUSH20 0xFFFFFFFFFFFFFFFFFFFFFFFFFFFFFFFFFFFFFFFF AND MUL OR SWAP1 SSTORE POP DUP7 PUSH1 0x2 PUSH1 0x0 PUSH1 0x1 PUSH1 0x0 SWAP1 SLOAD SWAP1 PUSH2 0x100 EXP SWAP1 DIV PUSH1 0xFF AND PUSH1 0xFF AND DUP2 MSTORE PUSH1 0x20 ADD SWAP1 DUP2 MSTORE PUSH1 0x20 ADD PUSH1 0x0 KECCAK256 PUSH1 0x5 ADD PUSH1 0x0 PUSH1 0x2 DUP1 DUP2 GT ISZERO PUSH2 0x787 JUMPI PUSH2 0x786 PUSH2 0x2AD8 JUMP JUMPDEST JUMPDEST PUSH1 0x2 DUP2 GT ISZERO PUSH2 0x799 JUMPI PUSH2 0x798 PUSH2 0x2AD8 JUMP JUMPDEST JUMPDEST DUP2 MSTORE PUSH1 0x20 ADD SWAP1 DUP2 MSTORE PUSH1 0x20 ADD PUSH1 0x0 KECCAK256 PUSH1 0x0 PUSH2 0x100 EXP DUP2 SLOAD DUP2 PUSH20 0xFFFFFFFFFFFFFFFFFFFFFFFFFFFFFFFFFFFFFFFF MUL NOT AND SWAP1 DUP4 PUSH20 0xFFFFFFFFFFFFFFFFFFFFFFFFFFFFFFFFFFFFFFFF AND MUL OR SWAP1 SSTORE POP PUSH32 0xE2CCA8DD1B934F26BC529408F1013DB8C61C3BC945D0507390B5A6B5B29D7284 DUP10 DUP10 CALLVALUE DUP9 DUP9 PUSH1 0x40 MLOAD PUSH2 0x81C SWAP6 SWAP5 SWAP4 SWAP3 SWAP2 SWAP1 PUSH2 0x2B9E JUMP JUMPDEST PUSH1 0x40 MLOAD DUP1 SWAP2 SUB SWAP1 LOG1 POP POP POP POP POP POP POP POP POP JUMP JUMPDEST DUP1 CALLER PUSH20 0xFFFFFFFFFFFFFFFFFFFFFFFFFFFFFFFFFFFFFFFF AND PUSH1 0x2 PUSH1 0x0 DUP4 DUP2 MSTORE PUSH1 0x20 ADD SWAP1 DUP2 MSTORE PUSH1 0x20 ADD PUSH1 0x0 KECCAK256 PUSH1 0x5 ADD PUSH1 0x0 PUSH1 0x2 DUP1 DUP2 GT ISZERO PUSH2 0x872 JUMPI PUSH2 0x871 PUSH2 0x2AD8 JUMP JUMPDEST JUMPDEST PUSH1 0x2 DUP2 GT ISZERO PUSH2 0x884 JUMPI PUSH2 0x883 PUSH2 0x2AD8 JUMP JUMPDEST JUMPDEST DUP2 MSTORE PUSH1 0x20 ADD SWAP1 DUP2 MSTORE PUSH1 0x20 ADD PUSH1 0x0 KECCAK256 PUSH1 0x0 SWAP1 SLOAD SWAP1 PUSH2 0x100 EXP SWAP1 DIV PUSH20 0xFFFFFFFFFFFFFFFFFFFFFFFFFFFFFFFFFFFFFFFF AND PUSH20 0xFFFFFFFFFFFFFFFFFFFFFFFFFFFFFFFFFFFFFFFF AND EQ PUSH2 0x909 JUMPI PUSH1 0x40 MLOAD PUSH32 0x8C379A000000000000000000000000000000000000000000000000000000000 DUP2 MSTORE PUSH1 0x4 ADD PUSH2 0x900 SWAP1 PUSH2 0x2C4B JUMP JUMPDEST PUSH1 0x40 MLOAD DUP1 SWAP2 SUB SWAP1 REVERT JUMPDEST PUSH1 0x0 DUP3 GT DUP1 ISZERO PUSH2 0x92B JUMPI POP PUSH1 0x1 PUSH1 0x0 SWAP1 SLOAD SWAP1 PUSH2 0x100 EXP SWAP1 DIV PUSH1 0xFF AND PUSH1 0xFF AND DUP3 GT ISZERO JUMPDEST PUSH2 0x96A JUMPI PUSH1 0x40 MLOAD PUSH32 0x8C379A000000000000000000000000000000000000000000000000000000000 DUP2 MSTORE PUSH1 0x4 ADD PUSH2 0x961 SWAP1 PUSH2 0x2CDD JUMP JUMPDEST PUSH1 0x40 MLOAD DUP1 SWAP2 SUB SWAP1 REVERT JUMPDEST PUSH1 0x2 PUSH1 0x7 DUP2 GT ISZERO PUSH2 0x97E JUMPI PUSH2 0x97D PUSH2 0x2AD8 JUMP JUMPDEST JUMPDEST PUSH1 0x2 PUSH1 0x0 DUP5 DUP2 MSTORE PUSH1 0x20 ADD SWAP1 DUP2 MSTORE PUSH1 0x20 ADD PUSH1 0x0 KECCAK256 PUSH1 0x4 ADD PUSH1 0x0 SWAP1 SLOAD SWAP1 PUSH2 0x100 EXP SWAP1 DIV PUSH1 0xFF AND PUSH1 0x7 DUP2 GT ISZERO PUSH2 0x9B4 JUMPI PUSH2 0x9B3 PUSH2 0x2AD8 JUMP JUMPDEST JUMPDEST EQ PUSH2 0x9F4 JUMPI PUSH1 0x40 MLOAD PUSH32 0x8C379A000000000000000000000000000000000000000000000000000000000 DUP2 MSTORE PUSH1 0x4 ADD PUSH2 0x9EB SWAP1 PUSH2 0x2D6F JUMP JUMPDEST PUSH1 0x40 MLOAD DUP1 SWAP2 SUB SWAP1 REVERT JUMPDEST PUSH1 0x7 PUSH1 0x2 PUSH1 0x0 DUP5 DUP2 MSTORE PUSH1 0x20 ADD SWAP1 DUP2 MSTORE PUSH1 0x20 ADD PUSH1 0x0 KECCAK256 PUSH1 0x4 ADD PUSH1 0x0 PUSH2 0x100 EXP DUP2 SLOAD DUP2 PUSH1 0xFF MUL NOT AND SWAP1 DUP4 PUSH1 0x7 DUP2 GT ISZERO PUSH2 0xA2E JUMPI PUSH2 0xA2D PUSH2 0x2AD8 JUMP JUMPDEST JUMPDEST MUL OR SWAP1 SSTORE POP TIMESTAMP PUSH1 0x2 PUSH1 0x0 DUP5 DUP2 MSTORE PUSH1 0x20 ADD SWAP1 DUP2 MSTORE PUSH1 0x20 ADD PUSH1 0x0 KECCAK256 PUSH1 0x3 ADD DUP2 SWAP1 SSTORE POP PUSH1 0x2 PUSH1 0x0 DUP4 DUP2 MSTORE PUSH1 0x20 ADD SWAP1 DUP2 MSTORE PUSH1 0x20 ADD PUSH1 0x0 KECCAK256 PUSH1 0x5 ADD PUSH1 0x0 PUSH1 0x1 PUSH1 0x2 DUP2 GT ISZERO PUSH2 0xA7A JUMPI PUSH2 0xA79 PUSH2 0x2AD8 JUMP JUMPDEST JUMPDEST PUSH1 0x2 DUP2 GT ISZERO PUSH2 0xA8C JUMPI PUSH2 0xA8B PUSH2 0x2AD8 JUMP JUMPDEST JUMPDEST DUP2 MSTORE PUSH1 0x20 ADD SWAP1 DUP2 MSTORE PUSH1 0x20 ADD PUSH1 0x0 KECCAK256 PUSH1 0x0 SWAP1 SLOAD SWAP1 PUSH2 0x100 EXP SWAP1 DIV PUSH20 0xFFFFFFFFFFFFFFFFFFFFFFFFFFFFFFFFFFFFFFFF AND PUSH20 0xFFFFFFFFFFFFFFFFFFFFFFFFFFFFFFFFFFFFFFFF AND PUSH2 0x8FC PUSH1 0x0 SLOAD SWAP1 DUP2 ISZERO MUL SWAP1 PUSH1 0x40 MLOAD PUSH1 0x0 PUSH1 0x40 MLOAD DUP1 DUP4 SUB DUP2 DUP6 DUP9 DUP9 CALL SWAP4 POP POP POP POP ISZERO DUP1 ISZERO PUSH2 0xB02 JUMPI RETURNDATASIZE PUSH1 0x0 DUP1 RETURNDATACOPY RETURNDATASIZE PUSH1 0x0 REVERT JUMPDEST POP PUSH1 0x2 PUSH1 0x0 DUP4 DUP2 MSTORE PUSH1 0x20 ADD SWAP1 DUP2 MSTORE PUSH1 0x20 ADD PUSH1 0x0 KECCAK256 PUSH1 0x5 ADD PUSH1 0x0 PUSH1 0x2 DUP1 DUP2 GT ISZERO PUSH2 0xB2E JUMPI PUSH2 0xB2D PUSH2 0x2AD8 JUMP JUMPDEST JUMPDEST PUSH1 0x2 DUP2 GT ISZERO PUSH2 0xB40 JUMPI PUSH2 0xB3F PUSH2 0x2AD8 JUMP JUMPDEST JUMPDEST DUP2 MSTORE PUSH1 0x20 ADD SWAP1 DUP2 MSTORE PUSH1 0x20 ADD PUSH1 0x0 KECCAK256 PUSH1 0x0 SWAP1 SLOAD SWAP1 PUSH2 0x100 EXP SWAP1 DIV PUSH20 0xFFFFFFFFFFFFFFFFFFFFFFFFFFFFFFFFFFFFFFFF AND PUSH20 0xFFFFFFFFFFFFFFFFFFFFFFFFFFFFFFFFFFFFFFFF AND PUSH2 0x8FC PUSH1 0x2 PUSH1 0x0 DUP6 DUP2 MSTORE PUSH1 0x20 ADD SWAP1 DUP2 MSTORE PUSH1 0x20 ADD PUSH1 0x0 KECCAK256 PUSH1 0x2 ADD SLOAD SWAP1 DUP2 ISZERO MUL SWAP1 PUSH1 0x40 MLOAD PUSH1 0x0 PUSH1 0x40 MLOAD DUP1 DUP4 SUB DUP2 DUP6 DUP9 DUP9 CALL SWAP4 POP POP POP POP ISZERO DUP1 ISZERO PUSH2 0xBCA JUMPI RETURNDATASIZE PUSH1 0x0 DUP1 RETURNDATACOPY RETURNDATASIZE PUSH1 0x0 REVERT JUMPDEST POP PUSH32 0xF24055CC366C1D53B75688E6BA6EB419D022FB5F4956C5D66A6EF54ADBF3270A PUSH1 0x40 MLOAD PUSH2 0xBF8 SWAP1 PUSH2 0x2E01 JUMP JUMPDEST PUSH1 0x40 MLOAD DUP1 SWAP2 SUB SWAP1 LOG1 POP POP JUMP JUMPDEST PUSH1 0x60 PUSH1 0x3 PUSH1 0x0 SWAP1 SLOAD SWAP1 PUSH2 0x100 EXP SWAP1 DIV PUSH20 0xFFFFFFFFFFFFFFFFFFFFFFFFFFFFFFFFFFFFFFFF AND PUSH20 0xFFFFFFFFFFFFFFFFFFFFFFFFFFFFFFFFFFFFFFFF AND CALLER PUSH20 0xFFFFFFFFFFFFFFFFFFFFFFFFFFFFFFFFFFFFFFFF AND EQ PUSH2 0xC96 JUMPI PUSH1 0x40 MLOAD PUSH32 0x8C379A000000000000000000000000000000000000000000000000000000000 DUP2 MSTORE PUSH1 0x4 ADD PUSH2 0xC8D SWAP1 PUSH2 0x269C JUMP JUMPDEST PUSH1 0x40 MLOAD DUP1 SWAP2 SUB SWAP1 REVERT JUMPDEST PUSH1 0x0 DUP3 GT DUP1 ISZERO PUSH2 0xCB8 JUMPI POP PUSH1 0x1 PUSH1 0x0 SWAP1 SLOAD SWAP1 PUSH2 0x100 EXP SWAP1 DIV PUSH1 0xFF AND PUSH1 0xFF AND DUP3 GT ISZERO JUMPDEST PUSH2 0xCF7 JUMPI PUSH1 0x40 MLOAD PUSH32 0x8C379A000000000000000000000000000000000000000000000000000000000 DUP2 MSTORE PUSH1 0x4 ADD PUSH2 0xCEE SWAP1 PUSH2 0x2CDD JUMP JUMPDEST PUSH1 0x40 MLOAD DUP1 SWAP2 SUB SWAP1 REVERT JUMPDEST PUSH1 0x0 PUSH1 0x7 DUP2 GT ISZERO PUSH2 0xD0B JUMPI PUSH2 0xD0A PUSH2 0x2AD8 JUMP JUMPDEST JUMPDEST PUSH1 0x2 PUSH1 0x0 DUP5 DUP2 MSTORE PUSH1 0x20 ADD SWAP1 DUP2 MSTORE PUSH1 0x20 ADD PUSH1 0x0 KECCAK256 PUSH1 0x4 ADD PUSH1 0x0 SWAP1 SLOAD SWAP1 PUSH2 0x100 EXP SWAP1 DIV PUSH1 0xFF AND PUSH1 0x7 DUP2 GT ISZERO PUSH2 0xD41 JUMPI PUSH2 0xD40 PUSH2 0x2AD8 JUMP JUMPDEST JUMPDEST SUB PUSH2 0xDD8 JUMPI PUSH1 0x6 DUP1 SLOAD PUSH2 0xD53 SWAP1 PUSH2 0x27E9 JUMP JUMPDEST DUP1 PUSH1 0x1F ADD PUSH1 0x20 DUP1 SWAP2 DIV MUL PUSH1 0x20 ADD PUSH1 0x40 MLOAD SWAP1 DUP2 ADD PUSH1 0x40 MSTORE DUP1 SWAP3 SWAP2 SWAP1 DUP2 DUP2 MSTORE PUSH1 0x20 ADD DUP3 DUP1 SLOAD PUSH2 0xD7F SWAP1 PUSH2 0x27E9 JUMP JUMPDEST DUP1 ISZERO PUSH2 0xDCC JUMPI DUP1 PUSH1 0x1F LT PUSH2 0xDA1 JUMPI PUSH2 0x100 DUP1 DUP4 SLOAD DIV MUL DUP4 MSTORE SWAP2 PUSH1 0x20 ADD SWAP2 PUSH2 0xDCC JUMP JUMPDEST DUP3 ADD SWAP2 SWAP1 PUSH1 0x0 MSTORE PUSH1 0x20 PUSH1 0x0 KECCAK256 SWAP1 JUMPDEST DUP2 SLOAD DUP2 MSTORE SWAP1 PUSH1 0x1 ADD SWAP1 PUSH1 0x20 ADD DUP1 DUP4 GT PUSH2 0xDAF JUMPI DUP3 SWAP1 SUB PUSH1 0x1F AND DUP3 ADD SWAP2 JUMPDEST POP POP POP POP POP SWAP1 POP PUSH2 0x13AC JUMP JUMPDEST PUSH1 0x1 PUSH1 0x7 DUP2 GT ISZERO PUSH2 0xDEC JUMPI PUSH2 0xDEB PUSH2 0x2AD8 JUMP JUMPDEST JUMPDEST PUSH1 0x2 PUSH1 0x0 DUP5 DUP2 MSTORE PUSH1 0x20 ADD SWAP1 DUP2 MSTORE PUSH1 0x20 ADD PUSH1 0x0 KECCAK256 PUSH1 0x4 ADD PUSH1 0x0 SWAP1 SLOAD SWAP1 PUSH2 0x100 EXP SWAP1 DIV PUSH1 0xFF AND PUSH1 0x7 DUP2 GT ISZERO PUSH2 0xE22 JUMPI PUSH2 0xE21 PUSH2 0x2AD8 JUMP JUMPDEST JUMPDEST SUB PUSH2 0xEB9 JUMPI PUSH1 0x7 DUP1 SLOAD PUSH2 0xE34 SWAP1 PUSH2 0x27E9 JUMP JUMPDEST DUP1 PUSH1 0x1F ADD PUSH1 0x20 DUP1 SWAP2 DIV MUL PUSH1 0x20 ADD PUSH1 0x40 MLOAD SWAP1 DUP2 ADD PUSH1 0x40 MSTORE DUP1 SWAP3 SWAP2 SWAP1 DUP2 DUP2 MSTORE PUSH1 0x20 ADD DUP3 DUP1 SLOAD PUSH2 0xE60 SWAP1 PUSH2 0x27E9 JUMP JUMPDEST DUP1 ISZERO PUSH2 0xEAD JUMPI DUP1 PUSH1 0x1F LT PUSH2 0xE82 JUMPI PUSH2 0x100 DUP1 DUP4 SLOAD DIV MUL DUP4 MSTORE SWAP2 PUSH1 0x20 ADD SWAP2 PUSH2 0xEAD JUMP JUMPDEST DUP3 ADD SWAP2 SWAP1 PUSH1 0x0 MSTORE PUSH1 0x20 PUSH1 0x0 KECCAK256 SWAP1 JUMPDEST DUP2 SLOAD DUP2 MSTORE SWAP1 PUSH1 0x1 ADD SWAP1 PUSH1 0x20 ADD DUP1 DUP4 GT PUSH2 0xE90 JUMPI DUP3 SWAP1 SUB PUSH1 0x1F AND DUP3 ADD SWAP2 JUMPDEST POP POP POP POP POP SWAP1 POP PUSH2 0x13AC JUMP JUMPDEST PUSH1 0x2 PUSH1 0x7 DUP2 GT ISZERO PUSH2 0xECD JUMPI PUSH2 0xECC PUSH2 0x2AD8 JUMP JUMPDEST JUMPDEST PUSH1 0x2 PUSH1 0x0 DUP5 DUP2 MSTORE PUSH1 0x20 ADD SWAP1 DUP2 MSTORE PUSH1 0x20 ADD PUSH1 0x0 KECCAK256 PUSH1 0x4 ADD PUSH1 0x0 SWAP1 SLOAD SWAP1 PUSH2 0x100 EXP SWAP1 DIV PUSH1 0xFF AND PUSH1 0x7 DUP2 GT ISZERO PUSH2 0xF03 JUMPI PUSH2 0xF02 PUSH2 0x2AD8 JUMP JUMPDEST JUMPDEST SUB PUSH2 0xF9A JUMPI PUSH1 0x8 DUP1 SLOAD PUSH2 0xF15 SWAP1 PUSH2 0x27E9 JUMP JUMPDEST DUP1 PUSH1 0x1F ADD PUSH1 0x20 DUP1 SWAP2 DIV MUL PUSH1 0x20 ADD PUSH1 0x40 MLOAD SWAP1 DUP2 ADD PUSH1 0x40 MSTORE DUP1 SWAP3 SWAP2 SWAP1 DUP2 DUP2 MSTORE PUSH1 0x20 ADD DUP3 DUP1 SLOAD PUSH2 0xF41 SWAP1 PUSH2 0x27E9 JUMP JUMPDEST DUP1 ISZERO PUSH2 0xF8E JUMPI DUP1 PUSH1 0x1F LT PUSH2 0xF63 JUMPI PUSH2 0x100 DUP1 DUP4 SLOAD DIV MUL DUP4 MSTORE SWAP2 PUSH1 0x20 ADD SWAP2 PUSH2 0xF8E JUMP JUMPDEST DUP3 ADD SWAP2 SWAP1 PUSH1 0x0 MSTORE PUSH1 0x20 PUSH1 0x0 KECCAK256 SWAP1 JUMPDEST DUP2 SLOAD DUP2 MSTORE SWAP1 PUSH1 0x1 ADD SWAP1 PUSH1 0x20 ADD DUP1 DUP4 GT PUSH2 0xF71 JUMPI DUP3 SWAP1 SUB PUSH1 0x1F AND DUP3 ADD SWAP2 JUMPDEST POP POP POP POP POP SWAP1 POP PUSH2 0x13AC JUMP JUMPDEST PUSH1 0x3 PUSH1 0x7 DUP2 GT ISZERO PUSH2 0xFAE JUMPI PUSH2 0xFAD PUSH2 0x2AD8 JUMP JUMPDEST JUMPDEST PUSH1 0x2 PUSH1 0x0 DUP5 DUP2 MSTORE PUSH1 0x20 ADD SWAP1 DUP2 MSTORE PUSH1 0x20 ADD PUSH1 0x0 KECCAK256 PUSH1 0x4 ADD PUSH1 0x0 SWAP1 SLOAD SWAP1 PUSH2 0x100 EXP SWAP1 DIV PUSH1 0xFF AND PUSH1 0x7 DUP2 GT ISZERO PUSH2 0xFE4 JUMPI PUSH2 0xFE3 PUSH2 0x2AD8 JUMP JUMPDEST JUMPDEST SUB PUSH2 0x107B JUMPI PUSH1 0x9 DUP1 SLOAD PUSH2 0xFF6 SWAP1 PUSH2 0x27E9 JUMP JUMPDEST DUP1 PUSH1 0x1F ADD PUSH1 0x20 DUP1 SWAP2 DIV MUL PUSH1 0x20 ADD PUSH1 0x40 MLOAD SWAP1 DUP2 ADD PUSH1 0x40 MSTORE DUP1 SWAP3 SWAP2 SWAP1 DUP2 DUP2 MSTORE PUSH1 0x20 ADD DUP3 DUP1 SLOAD PUSH2 0x1022 SWAP1 PUSH2 0x27E9 JUMP JUMPDEST DUP1 ISZERO PUSH2 0x106F JUMPI DUP1 PUSH1 0x1F LT PUSH2 0x1044 JUMPI PUSH2 0x100 DUP1 DUP4 SLOAD DIV MUL DUP4 MSTORE SWAP2 PUSH1 0x20 ADD SWAP2 PUSH2 0x106F JUMP JUMPDEST DUP3 ADD SWAP2 SWAP1 PUSH1 0x0 MSTORE PUSH1 0x20 PUSH1 0x0 KECCAK256 SWAP1 JUMPDEST DUP2 SLOAD DUP2 MSTORE SWAP1 PUSH1 0x1 ADD SWAP1 PUSH1 0x20 ADD DUP1 DUP4 GT PUSH2 0x1052 JUMPI DUP3 SWAP1 SUB PUSH1 0x1F AND DUP3 ADD SWAP2 JUMPDEST POP POP POP POP POP SWAP1 POP PUSH2 0x13AC JUMP JUMPDEST PUSH1 0x4 PUSH1 0x7 DUP2 GT ISZERO PUSH2 0x108F JUMPI PUSH2 0x108E PUSH2 0x2AD8 JUMP JUMPDEST JUMPDEST PUSH1 0x2 PUSH1 0x0 DUP5 DUP2 MSTORE PUSH1 0x20 ADD SWAP1 DUP2 MSTORE PUSH1 0x20 ADD PUSH1 0x0 KECCAK256 PUSH1 0x4 ADD PUSH1 0x0 SWAP1 SLOAD SWAP1 PUSH2 0x100 EXP SWAP1 DIV PUSH1 0xFF AND PUSH1 0x7 DUP2 GT ISZERO PUSH2 0x10C5 JUMPI PUSH2 0x10C4 PUSH2 0x2AD8 JUMP JUMPDEST JUMPDEST SUB PUSH2 0x115C JUMPI PUSH1 0xA DUP1 SLOAD PUSH2 0x10D7 SWAP1 PUSH2 0x27E9 JUMP JUMPDEST DUP1 PUSH1 0x1F ADD PUSH1 0x20 DUP1 SWAP2 DIV MUL PUSH1 0x20 ADD PUSH1 0x40 MLOAD SWAP1 DUP2 ADD PUSH1 0x40 MSTORE DUP1 SWAP3 SWAP2 SWAP1 DUP2 DUP2 MSTORE PUSH1 0x20 ADD DUP3 DUP1 SLOAD PUSH2 0x1103 SWAP1 PUSH2 0x27E9 JUMP JUMPDEST DUP1 ISZERO PUSH2 0x1150 JUMPI DUP1 PUSH1 0x1F LT PUSH2 0x1125 JUMPI PUSH2 0x100 DUP1 DUP4 SLOAD DIV MUL DUP4 MSTORE SWAP2 PUSH1 0x20 ADD SWAP2 PUSH2 0x1150 JUMP JUMPDEST DUP3 ADD SWAP2 SWAP1 PUSH1 0x0 MSTORE PUSH1 0x20 PUSH1 0x0 KECCAK256 SWAP1 JUMPDEST DUP2 SLOAD DUP2 MSTORE SWAP1 PUSH1 0x1 ADD SWAP1 PUSH1 0x20 ADD DUP1 DUP4 GT PUSH2 0x1133 JUMPI DUP3 SWAP1 SUB PUSH1 0x1F AND DUP3 ADD SWAP2 JUMPDEST POP POP POP POP POP SWAP1 POP PUSH2 0x13AC JUMP JUMPDEST PUSH1 0x5 PUSH1 0x7 DUP2 GT ISZERO PUSH2 0x1170 JUMPI PUSH2 0x116F PUSH2 0x2AD8 JUMP JUMPDEST JUMPDEST PUSH1 0x2 PUSH1 0x0 DUP5 DUP2 MSTORE PUSH1 0x20 ADD SWAP1 DUP2 MSTORE PUSH1 0x20 ADD PUSH1 0x0 KECCAK256 PUSH1 0x4 ADD PUSH1 0x0 SWAP1 SLOAD SWAP1 PUSH2 0x100 EXP SWAP1 DIV PUSH1 0xFF AND PUSH1 0x7 DUP2 GT ISZERO PUSH2 0x11A6 JUMPI PUSH2 0x11A5 PUSH2 0x2AD8 JUMP JUMPDEST JUMPDEST SUB PUSH2 0x123D JUMPI PUSH1 0xB DUP1 SLOAD PUSH2 0x11B8 SWAP1 PUSH2 0x27E9 JUMP JUMPDEST DUP1 PUSH1 0x1F ADD PUSH1 0x20 DUP1 SWAP2 DIV MUL PUSH1 0x20 ADD PUSH1 0x40 MLOAD SWAP1 DUP2 ADD PUSH1 0x40 MSTORE DUP1 SWAP3 SWAP2 SWAP1 DUP2 DUP2 MSTORE PUSH1 0x20 ADD DUP3 DUP1 SLOAD PUSH2 0x11E4 SWAP1 PUSH2 0x27E9 JUMP JUMPDEST DUP1 ISZERO PUSH2 0x1231 JUMPI DUP1 PUSH1 0x1F LT PUSH2 0x1206 JUMPI PUSH2 0x100 DUP1 DUP4 SLOAD DIV MUL DUP4 MSTORE SWAP2 PUSH1 0x20 ADD SWAP2 PUSH2 0x1231 JUMP JUMPDEST DUP3 ADD SWAP2 SWAP1 PUSH1 0x0 MSTORE PUSH1 0x20 PUSH1 0x0 KECCAK256 SWAP1 JUMPDEST DUP2 SLOAD DUP2 MSTORE SWAP1 PUSH1 0x1 ADD SWAP1 PUSH1 0x20 ADD DUP1 DUP4 GT PUSH2 0x1214 JUMPI DUP3 SWAP1 SUB PUSH1 0x1F AND DUP3 ADD SWAP2 JUMPDEST POP POP POP POP POP SWAP1 POP PUSH2 0x13AC JUMP JUMPDEST PUSH1 0x6 PUSH1 0x7 DUP2 GT ISZERO PUSH2 0x1251 JUMPI PUSH2 0x1250 PUSH2 0x2AD8 JUMP JUMPDEST JUMPDEST PUSH1 0x2 PUSH1 0x0 DUP5 DUP2 MSTORE PUSH1 0x20 ADD SWAP1 DUP2 MSTORE PUSH1 0x20 ADD PUSH1 0x0 KECCAK256 PUSH1 0x4 ADD PUSH1 0x0 SWAP1 SLOAD SWAP1 PUSH2 0x100 EXP SWAP1 DIV PUSH1 0xFF AND PUSH1 0x7 DUP2 GT ISZERO PUSH2 0x1287 JUMPI PUSH2 0x1286 PUSH2 0x2AD8 JUMP JUMPDEST JUMPDEST SUB PUSH2 0x131E JUMPI PUSH1 0xC DUP1 SLOAD PUSH2 0x1299 SWAP1 PUSH2 0x27E9 JUMP JUMPDEST DUP1 PUSH1 0x1F ADD PUSH1 0x20 DUP1 SWAP2 DIV MUL PUSH1 0x20 ADD PUSH1 0x40 MLOAD SWAP1 DUP2 ADD PUSH1 0x40 MSTORE DUP1 SWAP3 SWAP2 SWAP1 DUP2 DUP2 MSTORE PUSH1 0x20 ADD DUP3 DUP1 SLOAD PUSH2 0x12C5 SWAP1 PUSH2 0x27E9 JUMP JUMPDEST DUP1 ISZERO PUSH2 0x1312 JUMPI DUP1 PUSH1 0x1F LT PUSH2 0x12E7 JUMPI PUSH2 0x100 DUP1 DUP4 SLOAD DIV MUL DUP4 MSTORE SWAP2 PUSH1 0x20 ADD SWAP2 PUSH2 0x1312 JUMP JUMPDEST DUP3 ADD SWAP2 SWAP1 PUSH1 0x0 MSTORE PUSH1 0x20 PUSH1 0x0 KECCAK256 SWAP1 JUMPDEST DUP2 SLOAD DUP2 MSTORE SWAP1 PUSH1 0x1 ADD SWAP1 PUSH1 0x20 ADD DUP1 DUP4 GT PUSH2 0x12F5 JUMPI DUP3 SWAP1 SUB PUSH1 0x1F AND DUP3 ADD SWAP2 JUMPDEST POP POP POP POP POP SWAP1 POP PUSH2 0x13AC JUMP JUMPDEST PUSH1 0xD DUP1 SLOAD PUSH2 0x132B SWAP1 PUSH2 0x27E9 JUMP JUMPDEST DUP1 PUSH1 0x1F ADD PUSH1 0x20 DUP1 SWAP2 DIV MUL PUSH1 0x20 ADD PUSH1 0x40 MLOAD SWAP1 DUP2 ADD PUSH1 0x40 MSTORE DUP1 SWAP3 SWAP2 SWAP1 DUP2 DUP2 MSTORE PUSH1 0x20 ADD DUP3 DUP1 SLOAD PUSH2 0x1357 SWAP1 PUSH2 0x27E9 JUMP JUMPDEST DUP1 ISZERO PUSH2 0x13A4 JUMPI DUP1 PUSH1 0x1F LT PUSH2 0x1379 JUMPI PUSH2 0x100 DUP1 DUP4 SLOAD DIV MUL DUP4 MSTORE SWAP2 PUSH1 0x20 ADD SWAP2 PUSH2 0x13A4 JUMP JUMPDEST DUP3 ADD SWAP2 SWAP1 PUSH1 0x0 MSTORE PUSH1 0x20 PUSH1 0x0 KECCAK256 SWAP1 JUMPDEST DUP2 SLOAD DUP2 MSTORE SWAP1 PUSH1 0x1 ADD SWAP1 PUSH1 0x20 ADD DUP1 DUP4 GT PUSH2 0x1387 JUMPI DUP3 SWAP1 SUB PUSH1 0x1F AND DUP3 ADD SWAP2 JUMPDEST POP POP POP POP POP SWAP1 POP JUMPDEST SWAP2 SWAP1 POP JUMP JUMPDEST PUSH1 0x3 PUSH1 0x0 SWAP1 SLOAD SWAP1 PUSH2 0x100 EXP SWAP1 DIV PUSH20 0xFFFFFFFFFFFFFFFFFFFFFFFFFFFFFFFFFFFFFFFF AND PUSH20 0xFFFFFFFFFFFFFFFFFFFFFFFFFFFFFFFFFFFFFFFF AND CALLER PUSH20 0xFFFFFFFFFFFFFFFFFFFFFFFFFFFFFFFFFFFFFFFF AND EQ PUSH2 0x1441 JUMPI PUSH1 0x40 MLOAD PUSH32 0x8C379A000000000000000000000000000000000000000000000000000000000 DUP2 MSTORE PUSH1 0x4 ADD PUSH2 0x1438 SWAP1 PUSH2 0x269C JUMP JUMPDEST PUSH1 0x40 MLOAD DUP1 SWAP2 SUB SWAP1 REVERT JUMPDEST PUSH1 0x0 DUP2 GT DUP1 ISZERO PUSH2 0x1463 JUMPI POP PUSH1 0x1 PUSH1 0x0 SWAP1 SLOAD SWAP1 PUSH2 0x100 EXP SWAP1 DIV PUSH1 0xFF AND PUSH1 0xFF AND DUP2 GT ISZERO JUMPDEST PUSH2 0x14A2 JUMPI PUSH1 0x40 MLOAD PUSH32 0x8C379A000000000000000000000000000000000000000000000000000000000 DUP2 MSTORE PUSH1 0x4 ADD PUSH2 0x1499 SWAP1 PUSH2 0x2CDD JUMP JUMPDEST PUSH1 0x40 MLOAD DUP1 SWAP2 SUB SWAP1 REVERT JUMPDEST PUSH32 0x6DA4B27B55B238E744DA4718A971DC37927628F29A571EA47FC99133719050C6 PUSH1 0x2 PUSH1 0x0 DUP4 DUP2 MSTORE PUSH1 0x20 ADD SWAP1 DUP2 MSTORE PUSH1 0x20 ADD PUSH1 0x0 KECCAK256 PUSH1 0x0 ADD PUSH1 0x0 SWAP1 SLOAD SWAP1 PUSH2 0x100 EXP SWAP1 DIV PUSH1 0xFF AND PUSH1 0x2 PUSH1 0x0 DUP5 DUP2 MSTORE PUSH1 0x20 ADD SWAP1 DUP2 MSTORE PUSH1 0x20 ADD PUSH1 0x0 KECCAK256 PUSH1 0x1 ADD PUSH1 0x2 PUSH1 0x0 DUP6 DUP2 MSTORE PUSH1 0x20 ADD SWAP1 DUP2 MSTORE PUSH1 0x20 ADD PUSH1 0x0 KECCAK256 PUSH1 0x2 ADD SLOAD PUSH2 0x151D DUP6 PUSH2 0xC04 JUMP JUMPDEST PUSH1 0x2 PUSH1 0x0 DUP8 DUP2 MSTORE PUSH1 0x20 ADD SWAP1 DUP2 MSTORE PUSH1 0x20 ADD PUSH1 0x0 KECCAK256 PUSH1 0x5 ADD PUSH1 0x0 DUP1 PUSH1 0x2 DUP2 GT ISZERO PUSH2 0x1548 JUMPI PUSH2 0x1547 PUSH2 0x2AD8 JUMP JUMPDEST JUMPDEST PUSH1 0x2 DUP2 GT ISZERO PUSH2 0x155A JUMPI PUSH2 0x1559 PUSH2 0x2AD8 JUMP JUMPDEST JUMPDEST DUP2 MSTORE PUSH1 0x20 ADD SWAP1 DUP2 MSTORE PUSH1 0x20 ADD PUSH1 0x0 KECCAK256 PUSH1 0x0 SWAP1 SLOAD SWAP1 PUSH2 0x100 EXP SWAP1 DIV PUSH20 0xFFFFFFFFFFFFFFFFFFFFFFFFFFFFFFFFFFFFFFFF AND PUSH1 0x2 PUSH1 0x0 DUP9 DUP2 MSTORE PUSH1 0x20 ADD SWAP1 DUP2 MSTORE PUSH1 0x20 ADD PUSH1 0x0 KECCAK256 PUSH1 0x5 ADD PUSH1 0x0 PUSH1 0x1 PUSH1 0x2 DUP2 GT ISZERO PUSH2 0x15B5 JUMPI PUSH2 0x15B4 PUSH2 0x2AD8 JUMP JUMPDEST JUMPDEST PUSH1 0x2 DUP2 GT ISZERO PUSH2 0x15C7 JUMPI PUSH2 0x15C6 PUSH2 0x2AD8 JUMP JUMPDEST JUMPDEST DUP2 MSTORE PUSH1 0x20 ADD SWAP1 DUP2 MSTORE PUSH1 0x20 ADD PUSH1 0x0 KECCAK256 PUSH1 0x0 SWAP1 SLOAD SWAP1 PUSH2 0x100 EXP SWAP1 DIV PUSH20 0xFFFFFFFFFFFFFFFFFFFFFFFFFFFFFFFFFFFFFFFF AND PUSH1 0x2 PUSH1 0x0 DUP10 DUP2 MSTORE PUSH1 0x20 ADD SWAP1 DUP2 MSTORE PUSH1 0x20 ADD PUSH1 0x0 KECCAK256 PUSH1 0x5 ADD PUSH1 0x0 PUSH1 0x2 DUP1 DUP2 GT ISZERO PUSH2 0x1621 JUMPI PUSH2 0x1620 PUSH2 0x2AD8 JUMP JUMPDEST JUMPDEST PUSH1 0x2 DUP2 GT ISZERO PUSH2 0x1633 JUMPI PUSH2 0x1632 PUSH2 0x2AD8 JUMP JUMPDEST JUMPDEST DUP2 MSTORE PUSH1 0x20 ADD SWAP1 DUP2 MSTORE PUSH1 0x20 ADD PUSH1 0x0 KECCAK256 PUSH1 0x0 SWAP1 SLOAD SWAP1 PUSH2 0x100 EXP SWAP1 DIV PUSH20 0xFFFFFFFFFFFFFFFFFFFFFFFFFFFFFFFFFFFFFFFF AND PUSH1 0x40 MLOAD PUSH2 0x1675 SWAP8 SWAP7 SWAP6 SWAP5 SWAP4 SWAP3 SWAP2 SWAP1 PUSH2 0x2EA5 JUMP JUMPDEST PUSH1 0x40 MLOAD DUP1 SWAP2 SUB SWAP1 LOG1 POP JUMP JUMPDEST PUSH1 0x3 PUSH1 0x0 SWAP1 SLOAD SWAP1 PUSH2 0x100 EXP SWAP1 DIV PUSH20 0xFFFFFFFFFFFFFFFFFFFFFFFFFFFFFFFFFFFFFFFF AND PUSH20 0xFFFFFFFFFFFFFFFFFFFFFFFFFFFFFFFFFFFFFFFF AND CALLER PUSH20 0xFFFFFFFFFFFFFFFFFFFFFFFFFFFFFFFFFFFFFFFF AND EQ PUSH2 0x1710 JUMPI PUSH1 0x40 MLOAD PUSH32 0x8C379A000000000000000000000000000000000000000000000000000000000 DUP2 MSTORE PUSH1 0x4 ADD PUSH2 0x1707 SWAP1 PUSH2 0x269C JUMP JUMPDEST PUSH1 0x40 MLOAD DUP1 SWAP2 SUB SWAP1 REVERT JUMPDEST PUSH1 0x3 PUSH1 0x0 SWAP1 SLOAD SWAP1 PUSH2 0x100 EXP SWAP1 DIV PUSH20 0xFFFFFFFFFFFFFFFFFFFFFFFFFFFFFFFFFFFFFFFF AND PUSH20 0xFFFFFFFFFFFFFFFFFFFFFFFFFFFFFFFFFFFFFFFF AND PUSH2 0x8FC SELFBALANCE SWAP1 DUP2 ISZERO MUL SWAP1 PUSH1 0x40 MLOAD PUSH1 0x0 PUSH1 0x40 MLOAD DUP1 DUP4 SUB DUP2 DUP6 DUP9 DUP9 CALL SWAP4 POP POP POP POP ISZERO DUP1 ISZERO PUSH2 0x1778 JUMPI RETURNDATASIZE PUSH1 0x0 DUP1 RETURNDATACOPY RETURNDATASIZE PUSH1 0x0 REVERT JUMPDEST POP PUSH32 0xF24055CC366C1D53B75688E6BA6EB419D022FB5F4956C5D66A6EF54ADBF3270A PUSH1 0x40 MLOAD PUSH2 0x17A6 SWAP1 PUSH2 0x2FBA JUMP JUMPDEST PUSH1 0x40 MLOAD DUP1 SWAP2 SUB SWAP1 LOG1 JUMP JUMPDEST PUSH1 0x3 PUSH1 0x0 SWAP1 SLOAD SWAP1 PUSH2 0x100 EXP SWAP1 DIV PUSH20 0xFFFFFFFFFFFFFFFFFFFFFFFFFFFFFFFFFFFFFFFF AND PUSH20 0xFFFFFFFFFFFFFFFFFFFFFFFFFFFFFFFFFFFFFFFF AND CALLER PUSH20 0xFFFFFFFFFFFFFFFFFFFFFFFFFFFFFFFFFFFFFFFF AND EQ PUSH2 0x1840 JUMPI PUSH1 0x40 MLOAD PUSH32 0x8C379A000000000000000000000000000000000000000000000000000000000 DUP2 MSTORE PUSH1 0x4 ADD PUSH2 0x1837 SWAP1 PUSH2 0x269C JUMP JUMPDEST PUSH1 0x40 MLOAD DUP1 SWAP2 SUB SWAP1 REVERT JUMPDEST PUSH1 0x0 DUP2 GT DUP1 ISZERO PUSH2 0x1862 JUMPI POP PUSH1 0x1 PUSH1 0x0 SWAP1 SLOAD SWAP1 PUSH2 0x100 EXP SWAP1 DIV PUSH1 0xFF AND PUSH1 0xFF AND DUP2 GT ISZERO JUMPDEST PUSH2 0x18A1 JUMPI PUSH1 0x40 MLOAD PUSH32 0x8C379A000000000000000000000000000000000000000000000000000000000 DUP2 MSTORE PUSH1 0x4 ADD PUSH2 0x1898 SWAP1 PUSH2 0x2CDD JUMP JUMPDEST PUSH1 0x40 MLOAD DUP1 SWAP2 SUB SWAP1 REVERT JUMPDEST PUSH1 0x0 PUSH1 0x7 DUP2 GT ISZERO PUSH2 0x18B5 JUMPI PUSH2 0x18B4 PUSH2 0x2AD8 JUMP JUMPDEST JUMPDEST PUSH1 0x2 PUSH1 0x0 DUP4 DUP2 MSTORE PUSH1 0x20 ADD SWAP1 DUP2 MSTORE PUSH1 0x20 ADD PUSH1 0x0 KECCAK256 PUSH1 0x4 ADD PUSH1 0x0 SWAP1 SLOAD SWAP1 PUSH2 0x100 EXP SWAP1 DIV PUSH1 0xFF AND PUSH1 0x7 DUP2 GT ISZERO PUSH2 0x18EB JUMPI PUSH2 0x18EA PUSH2 0x2AD8 JUMP JUMPDEST JUMPDEST EQ PUSH2 0x192B JUMPI PUSH1 0x40 MLOAD PUSH32 0x8C379A000000000000000000000000000000000000000000000000000000000 DUP2 MSTORE PUSH1 0x4 ADD PUSH2 0x1922 SWAP1 PUSH2 0x304C JUMP JUMPDEST PUSH1 0x40 MLOAD DUP1 SWAP2 SUB SWAP1 REVERT JUMPDEST PUSH1 0x6 PUSH1 0x2 PUSH1 0x0 DUP4 DUP2 MSTORE PUSH1 0x20 ADD SWAP1 DUP2 MSTORE PUSH1 0x20 ADD PUSH1 0x0 KECCAK256 PUSH1 0x4 ADD PUSH1 0x0 PUSH2 0x100 EXP DUP2 SLOAD DUP2 PUSH1 0xFF MUL NOT AND SWAP1 DUP4 PUSH1 0x7 DUP2 GT ISZERO PUSH2 0x1965 JUMPI PUSH2 0x1964 PUSH2 0x2AD8 JUMP JUMPDEST JUMPDEST MUL OR SWAP1 SSTORE POP TIMESTAMP PUSH1 0x2 PUSH1 0x0 DUP4 DUP2 MSTORE PUSH1 0x20 ADD SWAP1 DUP2 MSTORE PUSH1 0x20 ADD PUSH1 0x0 KECCAK256 PUSH1 0x3 ADD DUP2 SWAP1 SSTORE POP PUSH32 0xE2CCA8DD1B934F26BC529408F1013DB8C61C3BC945D0507390B5A6B5B29D7284 PUSH1 0x2 PUSH1 0x0 DUP4 DUP2 MSTORE PUSH1 0x20 ADD SWAP1 DUP2 MSTORE PUSH1 0x20 ADD PUSH1 0x0 KECCAK256 PUSH1 0x5 ADD PUSH1 0x0 PUSH1 0x1 PUSH1 0x2 DUP2 GT ISZERO PUSH2 0x19D2 JUMPI PUSH2 0x19D1 PUSH2 0x2AD8 JUMP JUMPDEST JUMPDEST PUSH1 0x2 DUP2 GT ISZERO PUSH2 0x19E4 JUMPI PUSH2 0x19E3 PUSH2 0x2AD8 JUMP JUMPDEST JUMPDEST DUP2 MSTORE PUSH1 0x20 ADD SWAP1 DUP2 MSTORE PUSH1 0x20 ADD PUSH1 0x0 KECCAK256 PUSH1 0x0 SWAP1 SLOAD SWAP1 PUSH2 0x100 EXP SWAP1 DIV PUSH20 0xFFFFFFFFFFFFFFFFFFFFFFFFFFFFFFFFFFFFFFFF AND PUSH1 0x2 PUSH1 0x0 DUP5 DUP2 MSTORE PUSH1 0x20 ADD SWAP1 DUP2 MSTORE PUSH1 0x20 ADD PUSH1 0x0 KECCAK256 PUSH1 0x5 ADD PUSH1 0x0 DUP1 PUSH1 0x2 DUP2 GT ISZERO PUSH2 0x1A3E JUMPI PUSH2 0x1A3D PUSH2 0x2AD8 JUMP JUMPDEST JUMPDEST PUSH1 0x2 DUP2 GT ISZERO PUSH2 0x1A50 JUMPI PUSH2 0x1A4F PUSH2 0x2AD8 JUMP JUMPDEST JUMPDEST DUP2 MSTORE PUSH1 0x20 ADD SWAP1 DUP2 MSTORE PUSH1 0x20 ADD PUSH1 0x0 KECCAK256 PUSH1 0x0 SWAP1 SLOAD SWAP1 PUSH2 0x100 EXP SWAP1 DIV PUSH20 0xFFFFFFFFFFFFFFFFFFFFFFFFFFFFFFFFFFFFFFFF AND PUSH1 0x2 PUSH1 0x0 DUP6 DUP2 MSTORE PUSH1 0x20 ADD SWAP1 DUP2 MSTORE PUSH1 0x20 ADD PUSH1 0x0 KECCAK256 PUSH1 0x2 ADD SLOAD PUSH1 0x2 PUSH1 0x0 DUP7 DUP2 MSTORE PUSH1 0x20 ADD SWAP1 DUP2 MSTORE PUSH1 0x20 ADD PUSH1 0x0 KECCAK256 PUSH1 0x1 ADD PUSH1 0x40 MLOAD PUSH2 0x1ABC SWAP5 SWAP4 SWAP3 SWAP2 SWAP1 PUSH2 0x30B8 JUMP JUMPDEST PUSH1 0x40 MLOAD DUP1 SWAP2 SUB SWAP1 LOG1 POP JUMP JUMPDEST PUSH1 0x3 PUSH1 0x0 SWAP1 SLOAD SWAP1 PUSH2 0x100 EXP SWAP1 DIV PUSH20 0xFFFFFFFFFFFFFFFFFFFFFFFFFFFFFFFFFFFFFFFF AND DUP2 JUMP JUMPDEST DUP1 CALLER PUSH20 0xFFFFFFFFFFFFFFFFFFFFFFFFFFFFFFFFFFFFFFFF AND PUSH1 0x2 PUSH1 0x0 DUP4 DUP2 MSTORE PUSH1 0x20 ADD SWAP1 DUP2 MSTORE PUSH1 0x20 ADD PUSH1 0x0 KECCAK256 PUSH1 0x5 ADD PUSH1 0x0 PUSH1 0x1 PUSH1 0x2 DUP2 GT ISZERO PUSH2 0x1B31 JUMPI PUSH2 0x1B30 PUSH2 0x2AD8 JUMP JUMPDEST JUMPDEST PUSH1 0x2 DUP2 GT ISZERO PUSH2 0x1B43 JUMPI PUSH2 0x1B42 PUSH2 0x2AD8 JUMP JUMPDEST JUMPDEST DUP2 MSTORE PUSH1 0x20 ADD SWAP1 DUP2 MSTORE PUSH1 0x20 ADD PUSH1 0x0 KECCAK256 PUSH1 0x0 SWAP1 SLOAD SWAP1 PUSH2 0x100 EXP SWAP1 DIV PUSH20 0xFFFFFFFFFFFFFFFFFFFFFFFFFFFFFFFFFFFFFFFF AND PUSH20 0xFFFFFFFFFFFFFFFFFFFFFFFFFFFFFFFFFFFFFFFF AND EQ PUSH2 0x1BC8 JUMPI PUSH1 0x40 MLOAD PUSH32 0x8C379A000000000000000000000000000000000000000000000000000000000 DUP2 MSTORE PUSH1 0x4 ADD PUSH2 0x1BBF SWAP1 PUSH2 0x3189 JUMP JUMPDEST PUSH1 0x40 MLOAD DUP1 SWAP2 SUB SWAP1 REVERT JUMPDEST PUSH1 0x0 DUP3 GT DUP1 ISZERO PUSH2 0x1BEA JUMPI POP PUSH1 0x1 PUSH1 0x0 SWAP1 SLOAD SWAP1 PUSH2 0x100 EXP SWAP1 DIV PUSH1 0xFF AND PUSH1 0xFF AND DUP3 GT ISZERO JUMPDEST PUSH2 0x1C29 JUMPI PUSH1 0x40 MLOAD PUSH32 0x8C379A000000000000000000000000000000000000000000000000000000000 DUP2 MSTORE PUSH1 0x4 ADD PUSH2 0x1C20 SWAP1 PUSH2 0x2CDD JUMP JUMPDEST PUSH1 0x40 MLOAD DUP1 SWAP2 SUB SWAP1 REVERT JUMPDEST PUSH1 0x0 PUSH1 0x7 DUP2 GT ISZERO PUSH2 0x1C3D JUMPI PUSH2 0x1C3C PUSH2 0x2AD8 JUMP JUMPDEST JUMPDEST PUSH1 0x2 PUSH1 0x0 DUP5 DUP2 MSTORE PUSH1 0x20 ADD SWAP1 DUP2 MSTORE PUSH1 0x20 ADD PUSH1 0x0 KECCAK256 PUSH1 0x4 ADD PUSH1 0x0 SWAP1 SLOAD SWAP1 PUSH2 0x100 EXP SWAP1 DIV PUSH1 0xFF AND PUSH1 0x7 DUP2 GT ISZERO PUSH2 0x1C73 JUMPI PUSH2 0x1C72 PUSH2 0x2AD8 JUMP JUMPDEST JUMPDEST EQ PUSH2 0x1CB3 JUMPI PUSH1 0x40 MLOAD PUSH32 0x8C379A000000000000000000000000000000000000000000000000000000000 DUP2 MSTORE PUSH1 0x4 ADD PUSH2 0x1CAA SWAP1 PUSH2 0x321B JUMP JUMPDEST PUSH1 0x40 MLOAD DUP1 SWAP2 SUB SWAP1 REVERT JUMPDEST PUSH1 0x1 PUSH1 0x2 PUSH1 0x0 DUP5 DUP2 MSTORE PUSH1 0x20 ADD SWAP1 DUP2 MSTORE PUSH1 0x20 ADD PUSH1 0x0 KECCAK256 PUSH1 0x4 ADD PUSH1 0x0 PUSH2 0x100 EXP DUP2 SLOAD DUP2 PUSH1 0xFF MUL NOT AND SWAP1 DUP4 PUSH1 0x7 DUP2 GT ISZERO PUSH2 0x1CED JUMPI PUSH2 0x1CEC PUSH2 0x2AD8 JUMP JUMPDEST JUMPDEST MUL OR SWAP1 SSTORE POP TIMESTAMP PUSH1 0x2 PUSH1 0x0 DUP5 DUP2 MSTORE PUSH1 0x20 ADD SWAP1 DUP2 MSTORE PUSH1 0x20 ADD PUSH1 0x0 KECCAK256 PUSH1 0x3 ADD DUP2 SWAP1 SSTORE POP PUSH32 0xF24055CC366C1D53B75688E6BA6EB419D022FB5F4956C5D66A6EF54ADBF3270A PUSH1 0x40 MLOAD PUSH2 0x1D3A SWAP1 PUSH2 0x32AD JUMP JUMPDEST PUSH1 0x40 MLOAD DUP1 SWAP2 SUB SWAP1 LOG1 POP POP JUMP JUMPDEST DUP1 CALLER PUSH20 0xFFFFFFFFFFFFFFFFFFFFFFFFFFFFFFFFFFFFFFFF AND PUSH1 0x2 PUSH1 0x0 DUP4 DUP2 MSTORE PUSH1 0x20 ADD SWAP1 DUP2 MSTORE PUSH1 0x20 ADD PUSH1 0x0 KECCAK256 PUSH1 0x5 ADD PUSH1 0x0 DUP1 PUSH1 0x2 DUP2 GT ISZERO PUSH2 0x1D89 JUMPI PUSH2 0x1D88 PUSH2 0x2AD8 JUMP JUMPDEST JUMPDEST PUSH1 0x2 DUP2 GT ISZERO PUSH2 0x1D9B JUMPI PUSH2 0x1D9A PUSH2 0x2AD8 JUMP JUMPDEST JUMPDEST DUP2 MSTORE PUSH1 0x20 ADD SWAP1 DUP2 MSTORE PUSH1 0x20 ADD PUSH1 0x0 KECCAK256 PUSH1 0x0 SWAP1 SLOAD SWAP1 PUSH2 0x100 EXP SWAP1 DIV PUSH20 0xFFFFFFFFFFFFFFFFFFFFFFFFFFFFFFFFFFFFFFFF AND PUSH20 0xFFFFFFFFFFFFFFFFFFFFFFFFFFFFFFFFFFFFFFFF AND EQ PUSH2 0x1E20 JUMPI PUSH1 0x40 MLOAD PUSH32 0x8C379A000000000000000000000000000000000000000000000000000000000 DUP2 MSTORE PUSH1 0x4 ADD PUSH2 0x1E17 SWAP1 PUSH2 0x333F JUMP JUMPDEST PUSH1 0x40 MLOAD DUP1 SWAP2 SUB SWAP1 REVERT JUMPDEST PUSH1 0x0 DUP3 GT DUP1 ISZERO PUSH2 0x1E42 JUMPI POP PUSH1 0x1 PUSH1 0x0 SWAP1 SLOAD SWAP1 PUSH2 0x100 EXP SWAP1 DIV PUSH1 0xFF AND PUSH1 0xFF AND DUP3 GT ISZERO JUMPDEST PUSH2 0x1E81 JUMPI PUSH1 0x40 MLOAD PUSH32 0x8C379A000000000000000000000000000000000000000000000000000000000 DUP2 MSTORE PUSH1 0x4 ADD PUSH2 0x1E78 SWAP1 PUSH2 0x2CDD JUMP JUMPDEST PUSH1 0x40 MLOAD DUP1 SWAP2 SUB SWAP1 REVERT JUMPDEST PUSH1 0x2 PUSH1 0x0 DUP4 DUP2 MSTORE PUSH1 0x20 ADD SWAP1 DUP2 MSTORE PUSH1 0x20 ADD PUSH1 0x0 KECCAK256 PUSH1 0x2 ADD SLOAD CALLVALUE EQ PUSH2 0x1EF0 JUMPI PUSH32 0x1AE5BB67FA8E729E5064FBC2AA51ECD2F5002F6F627C47C1C75B4E74680F99C9 PUSH1 0x2 PUSH1 0x0 DUP5 DUP2 MSTORE PUSH1 0x20 ADD SWAP1 DUP2 MSTORE PUSH1 0x20 ADD PUSH1 0x0 KECCAK256 PUSH1 0x2 ADD SLOAD PUSH1 0x40 MLOAD PUSH2 0x1EE3 SWAP2 SWAP1 PUSH2 0x33F7 JUMP JUMPDEST PUSH1 0x40 MLOAD DUP1 SWAP2 SUB SWAP1 LOG1 PUSH2 0x2009 JUMP JUMPDEST PUSH1 0x3 PUSH1 0x7 DUP2 GT ISZERO PUSH2 0x1F04 JUMPI PUSH2 0x1F03 PUSH2 0x2AD8 JUMP JUMPDEST JUMPDEST PUSH1 0x2 PUSH1 0x0 DUP5 DUP2 MSTORE PUSH1 0x20 ADD SWAP1 DUP2 MSTORE PUSH1 0x20 ADD PUSH1 0x0 KECCAK256 PUSH1 0x4 ADD PUSH1 0x0 SWAP1 SLOAD SWAP1 PUSH2 0x100 EXP SWAP1 DIV PUSH1 0xFF AND PUSH1 0x7 DUP2 GT ISZERO PUSH2 0x1F3A JUMPI PUSH2 0x1F39 PUSH2 0x2AD8 JUMP JUMPDEST JUMPDEST EQ PUSH2 0x1F7A JUMPI PUSH1 0x40 MLOAD PUSH32 0x8C379A000000000000000000000000000000000000000000000000000000000 DUP2 MSTORE PUSH1 0x4 ADD PUSH2 0x1F71 SWAP1 PUSH2 0x34BD JUMP JUMPDEST PUSH1 0x40 MLOAD DUP1 SWAP2 SUB SWAP1 REVERT JUMPDEST PUSH1 0x2 DUP1 PUSH1 0x0 DUP5 DUP2 MSTORE PUSH1 0x20 ADD SWAP1 DUP2 MSTORE PUSH1 0x20 ADD PUSH1 0x0 KECCAK256 PUSH1 0x4 ADD PUSH1 0x0 PUSH2 0x100 EXP DUP2 SLOAD DUP2 PUSH1 0xFF MUL NOT AND SWAP1 DUP4 PUSH1 0x7 DUP2 GT ISZERO PUSH2 0x1FB3 JUMPI PUSH2 0x1FB2 PUSH2 0x2AD8 JUMP JUMPDEST JUMPDEST MUL OR SWAP1 SSTORE POP TIMESTAMP PUSH1 0x2 PUSH1 0x0 DUP5 DUP2 MSTORE PUSH1 0x20 ADD SWAP1 DUP2 MSTORE PUSH1 0x20 ADD PUSH1 0x0 KECCAK256 PUSH1 0x3 ADD DUP2 SWAP1 SSTORE POP PUSH32 0xF24055CC366C1D53B75688E6BA6EB419D022FB5F4956C5D66A6EF54ADBF3270A PUSH1 0x40 MLOAD PUSH2 0x2000 SWAP1 PUSH2 0x354F JUMP JUMPDEST PUSH1 0x40 MLOAD DUP1 SWAP2 SUB SWAP1 LOG1 JUMPDEST POP POP JUMP JUMPDEST PUSH1 0x4 PUSH1 0x0 SWAP1 SLOAD SWAP1 PUSH2 0x100 EXP SWAP1 DIV PUSH20 0xFFFFFFFFFFFFFFFFFFFFFFFFFFFFFFFFFFFFFFFF AND DUP2 JUMP JUMPDEST PUSH1 0x1 PUSH1 0x0 SWAP1 SLOAD SWAP1 PUSH2 0x100 EXP SWAP1 DIV PUSH1 0xFF AND DUP2 JUMP JUMPDEST PUSH1 0x0 PUSH1 0x3 PUSH1 0x0 SWAP1 SLOAD SWAP1 PUSH2 0x100 EXP SWAP1 DIV PUSH20 0xFFFFFFFFFFFFFFFFFFFFFFFFFFFFFFFFFFFFFFFF AND PUSH20 0xFFFFFFFFFFFFFFFFFFFFFFFFFFFFFFFFFFFFFFFF AND CALLER PUSH20 0xFFFFFFFFFFFFFFFFFFFFFFFFFFFFFFFFFFFFFFFF AND EQ PUSH2 0x20D8 JUMPI PUSH1 0x40 MLOAD PUSH32 0x8C379A000000000000000000000000000000000000000000000000000000000 DUP2 MSTORE PUSH1 0x4 ADD PUSH2 0x20CF SWAP1 PUSH2 0x269C JUMP JUMPDEST PUSH1 0x40 MLOAD DUP1 SWAP2 SUB SWAP1 REVERT JUMPDEST SELFBALANCE SWAP1 POP SWAP1 JUMP JUMPDEST DUP1 CALLER PUSH20 0xFFFFFFFFFFFFFFFFFFFFFFFFFFFFFFFFFFFFFFFF AND PUSH1 0x2 PUSH1 0x0 DUP4 DUP2 MSTORE PUSH1 0x20 ADD SWAP1 DUP2 MSTORE PUSH1 0x20 ADD PUSH1 0x0 KECCAK256 PUSH1 0x5 ADD PUSH1 0x0 PUSH1 0x1 PUSH1 0x2 DUP2 GT ISZERO PUSH2 0x2122 JUMPI PUSH2 0x2121 PUSH2 0x2AD8 JUMP JUMPDEST JUMPDEST PUSH1 0x2 DUP2 GT ISZERO PUSH2 0x2134 JUMPI PUSH2 0x2133 PUSH2 0x2AD8 JUMP JUMPDEST JUMPDEST DUP2 MSTORE PUSH1 0x20 ADD SWAP1 DUP2 MSTORE PUSH1 0x20 ADD PUSH1 0x0 KECCAK256 PUSH1 0x0 SWAP1 SLOAD SWAP1 PUSH2 0x100 EXP SWAP1 DIV PUSH20 0xFFFFFFFFFFFFFFFFFFFFFFFFFFFFFFFFFFFFFFFF AND PUSH20 0xFFFFFFFFFFFFFFFFFFFFFFFFFFFFFFFFFFFFFFFF AND EQ PUSH2 0x21B9 JUMPI PUSH1 0x40 MLOAD PUSH32 0x8C379A000000000000000000000000000000000000000000000000000000000 DUP2 MSTORE PUSH1 0x4 ADD PUSH2 0x21B0 SWAP1 PUSH2 0x3189 JUMP JUMPDEST PUSH1 0x40 MLOAD DUP1 SWAP2 SUB SWAP1 REVERT JUMPDEST PUSH1 0x0 DUP3 GT DUP1 ISZERO PUSH2 0x21DB JUMPI POP PUSH1 0x1 PUSH1 0x0 SWAP1 SLOAD SWAP1 PUSH2 0x100 EXP SWAP1 DIV PUSH1 0xFF AND PUSH1 0xFF AND DUP3 GT ISZERO JUMPDEST PUSH2 0x221A JUMPI PUSH1 0x40 MLOAD PUSH32 0x8C379A000000000000000000000000000000000000000000000000000000000 DUP2 MSTORE PUSH1 0x4 ADD PUSH2 0x2211 SWAP1 PUSH2 0x2CDD JUMP JUMPDEST PUSH1 0x40 MLOAD DUP1 SWAP2 SUB SWAP1 REVERT JUMPDEST PUSH1 0x1 PUSH1 0x7 DUP2 GT ISZERO PUSH2 0x222E JUMPI PUSH2 0x222D PUSH2 0x2AD8 JUMP JUMPDEST JUMPDEST PUSH1 0x2 PUSH1 0x0 DUP5 DUP2 MSTORE PUSH1 0x20 ADD SWAP1 DUP2 MSTORE PUSH1 0x20 ADD PUSH1 0x0 KECCAK256 PUSH1 0x4 ADD PUSH1 0x0 SWAP1 SLOAD SWAP1 PUSH2 0x100 EXP SWAP1 DIV PUSH1 0xFF AND PUSH1 0x7 DUP2 GT ISZERO PUSH2 0x2264 JUMPI PUSH2 0x2263 PUSH2 0x2AD8 JUMP JUMPDEST JUMPDEST EQ PUSH2 0x22A4 JUMPI PUSH1 0x40 MLOAD PUSH32 0x8C379A000000000000000000000000000000000000000000000000000000000 DUP2 MSTORE PUSH1 0x4 ADD PUSH2 0x229B SWAP1 PUSH2 0x35E1 JUMP JUMPDEST PUSH1 0x40 MLOAD DUP1 SWAP2 SUB SWAP1 REVERT JUMPDEST PUSH1 0x3 PUSH1 0x2 PUSH1 0x0 DUP5 DUP2 MSTORE PUSH1 0x20 ADD SWAP1 DUP2 MSTORE PUSH1 0x20 ADD PUSH1 0x0 KECCAK256 PUSH1 0x4 ADD PUSH1 0x0 PUSH2 0x100 EXP DUP2 SLOAD DUP2 PUSH1 0xFF MUL NOT AND SWAP1 DUP4 PUSH1 0x7 DUP2 GT ISZERO PUSH2 0x22DE JUMPI PUSH2 0x22DD PUSH2 0x2AD8 JUMP JUMPDEST JUMPDEST MUL OR SWAP1 SSTORE POP TIMESTAMP PUSH1 0x2 PUSH1 0x0 DUP5 DUP2 MSTORE PUSH1 0x20 ADD SWAP1 DUP2 MSTORE PUSH1 0x20 ADD PUSH1 0x0 KECCAK256 PUSH1 0x3 ADD DUP2 SWAP1 SSTORE POP PUSH32 0xF24055CC366C1D53B75688E6BA6EB419D022FB5F4956C5D66A6EF54ADBF3270A PUSH1 0x40 MLOAD PUSH2 0x232B SWAP1 PUSH2 0x3673 JUMP JUMPDEST PUSH1 0x40 MLOAD DUP1 SWAP2 SUB SWAP1 LOG1 POP POP JUMP JUMPDEST PUSH1 0x0 DUP1 REVERT JUMPDEST PUSH1 0x0 DUP1 REVERT JUMPDEST PUSH1 0x0 PUSH20 0xFFFFFFFFFFFFFFFFFFFFFFFFFFFFFFFFFFFFFFFF DUP3 AND SWAP1 POP SWAP2 SWAP1 POP JUMP JUMPDEST PUSH1 0x0 PUSH2 0x236C DUP3 PUSH2 0x2341 JUMP JUMPDEST SWAP1 POP SWAP2 SWAP1 POP JUMP JUMPDEST PUSH2 0x237C DUP2 PUSH2 0x2361 JUMP JUMPDEST DUP2 EQ PUSH2 0x2387 JUMPI PUSH1 0x0 DUP1 REVERT JUMPDEST POP JUMP JUMPDEST PUSH1 0x0 DUP2 CALLDATALOAD SWAP1 POP PUSH2 0x2399 DUP2 PUSH2 0x2373 JUMP JUMPDEST SWAP3 SWAP2 POP POP JUMP JUMPDEST PUSH1 0x0 DUP2 SWAP1 POP SWAP2 SWAP1 POP JUMP JUMPDEST PUSH2 0x23B2 DUP2 PUSH2 0x239F JUMP JUMPDEST DUP2 EQ PUSH2 0x23BD JUMPI PUSH1 0x0 DUP1 REVERT JUMPDEST POP JUMP JUMPDEST PUSH1 0x0 DUP2 CALLDATALOAD SWAP1 POP PUSH2 0x23CF DUP2 PUSH2 0x23A9 JUMP JUMPDEST SWAP3 SWAP2 POP POP JUMP JUMPDEST PUSH1 0x0 DUP1 REVERT JUMPDEST PUSH1 0x0 DUP1 REVERT JUMPDEST PUSH1 0x0 DUP1 REVERT JUMPDEST PUSH1 0x0 DUP1 DUP4 PUSH1 0x1F DUP5 ADD SLT PUSH2 0x23FA JUMPI PUSH2 0x23F9 PUSH2 0x23D5 JUMP JUMPDEST JUMPDEST DUP3 CALLDATALOAD SWAP1 POP PUSH8 0xFFFFFFFFFFFFFFFF DUP2 GT ISZERO PUSH2 0x2417 JUMPI PUSH2 0x2416 PUSH2 0x23DA JUMP JUMPDEST JUMPDEST PUSH1 0x20 DUP4 ADD SWAP2 POP DUP4 PUSH1 0x1 DUP3 MUL DUP4 ADD GT ISZERO PUSH2 0x2433 JUMPI PUSH2 0x2432 PUSH2 0x23DF JUMP JUMPDEST JUMPDEST SWAP3 POP SWAP3 SWAP1 POP JUMP JUMPDEST PUSH1 0x0 DUP1 PUSH1 0x0 DUP1 PUSH1 0x0 DUP1 PUSH1 0xA0 DUP8 DUP10 SUB SLT ISZERO PUSH2 0x2457 JUMPI PUSH2 0x2456 PUSH2 0x2337 JUMP JUMPDEST JUMPDEST PUSH1 0x0 PUSH2 0x2465 DUP10 DUP3 DUP11 ADD PUSH2 0x238A JUMP JUMPDEST SWAP7 POP POP PUSH1 0x20 PUSH2 0x2476 DUP10 DUP3 DUP11 ADD PUSH2 0x238A JUMP JUMPDEST SWAP6 POP POP PUSH1 0x40 PUSH2 0x2487 DUP10 DUP3 DUP11 ADD PUSH2 0x238A JUMP JUMPDEST SWAP5 POP POP PUSH1 0x60 PUSH2 0x2498 DUP10 DUP3 DUP11 ADD PUSH2 0x23C0 JUMP JUMPDEST SWAP4 POP POP PUSH1 0x80 DUP8 ADD CALLDATALOAD PUSH8 0xFFFFFFFFFFFFFFFF DUP2 GT ISZERO PUSH2 0x24B9 JUMPI PUSH2 0x24B8 PUSH2 0x233C JUMP JUMPDEST JUMPDEST PUSH2 0x24C5 DUP10 DUP3 DUP11 ADD PUSH2 0x23E4 JUMP JUMPDEST SWAP3 POP SWAP3 POP POP SWAP3 SWAP6 POP SWAP3 SWAP6 POP SWAP3 SWAP6 JUMP JUMPDEST PUSH1 0x0 PUSH1 0x20 DUP3 DUP5 SUB SLT ISZERO PUSH2 0x24EA JUMPI PUSH2 0x24E9 PUSH2 0x2337 JUMP JUMPDEST JUMPDEST PUSH1 0x0 PUSH2 0x24F8 DUP5 DUP3 DUP6 ADD PUSH2 0x23C0 JUMP JUMPDEST SWAP2 POP POP SWAP3 SWAP2 POP POP JUMP JUMPDEST PUSH1 0x0 DUP2 MLOAD SWAP1 POP SWAP2 SWAP1 POP JUMP JUMPDEST PUSH1 0x0 DUP3 DUP3 MSTORE PUSH1 0x20 DUP3 ADD SWAP1 POP SWAP3 SWAP2 POP POP JUMP JUMPDEST PUSH1 0x0 JUMPDEST DUP4 DUP2 LT ISZERO PUSH2 0x253B JUMPI DUP1 DUP3 ADD MLOAD DUP2 DUP5 ADD MSTORE PUSH1 0x20 DUP2 ADD SWAP1 POP PUSH2 0x2520 JUMP JUMPDEST PUSH1 0x0 DUP5 DUP5 ADD MSTORE POP POP POP POP JUMP JUMPDEST PUSH1 0x0 PUSH1 0x1F NOT PUSH1 0x1F DUP4 ADD AND SWAP1 POP SWAP2 SWAP1 POP JUMP JUMPDEST PUSH1 0x0 PUSH2 0x2563 DUP3 PUSH2 0x2501 JUMP JUMPDEST PUSH2 0x256D DUP2 DUP6 PUSH2 0x250C JUMP JUMPDEST SWAP4 POP PUSH2 0x257D DUP2 DUP6 PUSH1 0x20 DUP7 ADD PUSH2 0x251D JUMP JUMPDEST PUSH2 0x2586 DUP2 PUSH2 0x2547 JUMP JUMPDEST DUP5 ADD SWAP2 POP POP SWAP3 SWAP2 POP POP JUMP JUMPDEST PUSH1 0x0 PUSH1 0x20 DUP3 ADD SWAP1 POP DUP2 DUP2 SUB PUSH1 0x0 DUP4 ADD MSTORE PUSH2 0x25AB DUP2 DUP5 PUSH2 0x2558 JUMP JUMPDEST SWAP1 POP SWAP3 SWAP2 POP POP JUMP JUMPDEST PUSH1 0x0 PUSH2 0x25BE DUP3 PUSH2 0x2341 JUMP JUMPDEST SWAP1 POP SWAP2 SWAP1 POP JUMP JUMPDEST PUSH2 0x25CE DUP2 PUSH2 0x25B3 JUMP JUMPDEST DUP3 MSTORE POP POP JUMP JUMPDEST PUSH1 0x0 PUSH1 0x20 DUP3 ADD SWAP1 POP PUSH2 0x25E9 PUSH1 0x0 DUP4 ADD DUP5 PUSH2 0x25C5 JUMP JUMPDEST SWAP3 SWAP2 POP POP JUMP JUMPDEST PUSH1 0x0 PUSH1 0xFF DUP3 AND SWAP1 POP SWAP2 SWAP1 POP JUMP JUMPDEST PUSH2 0x2605 DUP2 PUSH2 0x25EF JUMP JUMPDEST DUP3 MSTORE POP POP JUMP JUMPDEST PUSH1 0x0 PUSH1 0x20 DUP3 ADD SWAP1 POP PUSH2 0x2620 PUSH1 0x0 DUP4 ADD DUP5 PUSH2 0x25FC JUMP JUMPDEST SWAP3 SWAP2 POP POP JUMP JUMPDEST PUSH2 0x262F DUP2 PUSH2 0x239F JUMP JUMPDEST DUP3 MSTORE POP POP JUMP JUMPDEST PUSH1 0x0 PUSH1 0x20 DUP3 ADD SWAP1 POP PUSH2 0x264A PUSH1 0x0 DUP4 ADD DUP5 PUSH2 0x2626 JUMP JUMPDEST SWAP3 SWAP2 POP POP JUMP JUMPDEST PUSH32 0x4E6F20657265732063726561646F722064656C20636F6E747261746F00000000 PUSH1 0x0 DUP3 ADD MSTORE POP JUMP JUMPDEST PUSH1 0x0 PUSH2 0x2686 PUSH1 0x1C DUP4 PUSH2 0x250C JUMP JUMPDEST SWAP2 POP PUSH2 0x2691 DUP3 PUSH2 0x2650 JUMP JUMPDEST PUSH1 0x20 DUP3 ADD SWAP1 POP SWAP2 SWAP1 POP JUMP JUMPDEST PUSH1 0x0 PUSH1 0x20 DUP3 ADD SWAP1 POP DUP2 DUP2 SUB PUSH1 0x0 DUP4 ADD MSTORE PUSH2 0x26B5 DUP2 PUSH2 0x2679 JUMP JUMPDEST SWAP1 POP SWAP2 SWAP1 POP JUMP JUMPDEST PUSH32 0x4E6F742076616C69642061646472657373000000000000000000000000000000 PUSH1 0x0 DUP3 ADD MSTORE POP JUMP JUMPDEST PUSH1 0x0 PUSH2 0x26F2 PUSH1 0x11 DUP4 PUSH2 0x250C JUMP JUMPDEST SWAP2 POP PUSH2 0x26FD DUP3 PUSH2 0x26BC JUMP JUMPDEST PUSH1 0x20 DUP3 ADD SWAP1 POP SWAP2 SWAP1 POP JUMP JUMPDEST PUSH1 0x0 PUSH1 0x20 DUP3 ADD SWAP1 POP DUP2 DUP2 SUB PUSH1 0x0 DUP4 ADD MSTORE PUSH2 0x2721 DUP2 PUSH2 0x26E5 JUMP JUMPDEST SWAP1 POP SWAP2 SWAP1 POP JUMP JUMPDEST PUSH32 0x4E487B7100000000000000000000000000000000000000000000000000000000 PUSH1 0x0 MSTORE PUSH1 0x11 PUSH1 0x4 MSTORE PUSH1 0x24 PUSH1 0x0 REVERT JUMPDEST PUSH1 0x0 PUSH2 0x2762 DUP3 PUSH2 0x25EF JUMP JUMPDEST SWAP2 POP PUSH1 0xFF DUP3 SUB PUSH2 0x2775 JUMPI PUSH2 0x2774 PUSH2 0x2728 JUMP JUMPDEST JUMPDEST PUSH1 0x1 DUP3 ADD SWAP1 POP SWAP2 SWAP1 POP JUMP JUMPDEST PUSH1 0x0 DUP3 SWAP1 POP SWAP3 SWAP2 POP POP JUMP JUMPDEST PUSH32 0x4E487B7100000000000000000000000000000000000000000000000000000000 PUSH1 0x0 MSTORE PUSH1 0x41 PUSH1 0x4 MSTORE PUSH1 0x24 PUSH1 0x0 REVERT JUMPDEST PUSH32 0x4E487B7100000000000000000000000000000000000000000000000000000000 PUSH1 0x0 MSTORE PUSH1 0x22 PUSH1 0x4 MSTORE PUSH1 0x24 PUSH1 0x0 REVERT JUMPDEST PUSH1 0x0 PUSH1 0x2 DUP3 DIV SWAP1 POP PUSH1 0x1 DUP3 AND DUP1 PUSH2 0x2801 JUMPI PUSH1 0x7F DUP3 AND SWAP2 POP JUMPDEST PUSH1 0x20 DUP3 LT DUP2 SUB PUSH2 0x2814 JUMPI PUSH2 0x2813 PUSH2 0x27BA JUMP JUMPDEST JUMPDEST POP SWAP2 SWAP1 POP JUMP JUMPDEST PUSH1 0x0 DUP2 SWAP1 POP DUP2 PUSH1 0x0 MSTORE PUSH1 0x20 PUSH1 0x0 KECCAK256 SWAP1 POP SWAP2 SWAP1 POP JUMP JUMPDEST PUSH1 0x0 PUSH1 0x20 PUSH1 0x1F DUP4 ADD DIV SWAP1 POP SWAP2 SWAP1 POP JUMP JUMPDEST PUSH1 0x0 DUP3 DUP3 SHL SWAP1 POP SWAP3 SWAP2 POP POP JUMP JUMPDEST PUSH1 0x0 PUSH1 0x8 DUP4 MUL PUSH2 0x287C PUSH32 0xFFFFFFFFFFFFFFFFFFFFFFFFFFFFFFFFFFFFFFFFFFFFFFFFFFFFFFFFFFFFFFFF DUP3 PUSH2 0x283F JUMP JUMPDEST PUSH2 0x2886 DUP7 DUP4 PUSH2 0x283F JUMP JUMPDEST SWAP6 POP DUP1 NOT DUP5 AND SWAP4 POP DUP1 DUP7 AND DUP5 OR SWAP3 POP POP POP SWAP4 SWAP3 POP POP POP JUMP JUMPDEST PUSH1 0x0 DUP2 SWAP1 POP SWAP2 SWAP1 POP JUMP JUMPDEST PUSH1 0x0 PUSH2 0x28C3 PUSH2 0x28BE PUSH2 0x28B9 DUP5 PUSH2 0x239F JUMP JUMPDEST PUSH2 0x289E JUMP JUMPDEST PUSH2 0x239F JUMP JUMPDEST SWAP1 POP SWAP2 SWAP1 POP JUMP JUMPDEST PUSH1 0x0 DUP2 SWAP1 POP SWAP2 SWAP1 POP JUMP JUMPDEST PUSH2 0x28DD DUP4 PUSH2 0x28A8 JUMP JUMPDEST PUSH2 0x28F1 PUSH2 0x28E9 DUP3 PUSH2 0x28CA JUMP JUMPDEST DUP5 DUP5 SLOAD PUSH2 0x284C JUMP JUMPDEST DUP3 SSTORE POP POP POP POP JUMP JUMPDEST PUSH1 0x0 SWAP1 JUMP JUMPDEST PUSH2 0x2906 PUSH2 0x28F9 JUMP JUMPDEST PUSH2 0x2911 DUP2 DUP5 DUP5 PUSH2 0x28D4 JUMP JUMPDEST POP POP POP JUMP JUMPDEST JUMPDEST DUP2 DUP2 LT ISZERO PUSH2 0x2935 JUMPI PUSH2 0x292A PUSH1 0x0 DUP3 PUSH2 0x28FE JUMP JUMPDEST PUSH1 0x1 DUP2 ADD SWAP1 POP PUSH2 0x2917 JUMP JUMPDEST POP POP JUMP JUMPDEST PUSH1 0x1F DUP3 GT ISZERO PUSH2 0x297A JUMPI PUSH2 0x294B DUP2 PUSH2 0x281A JUMP JUMPDEST PUSH2 0x2954 DUP5 PUSH2 0x282F JUMP JUMPDEST DUP2 ADD PUSH1 0x20 DUP6 LT ISZERO PUSH2 0x2963 JUMPI DUP2 SWAP1 POP JUMPDEST PUSH2 0x2977 PUSH2 0x296F DUP6 PUSH2 0x282F JUMP JUMPDEST DUP4 ADD DUP3 PUSH2 0x2916 JUMP JUMPDEST POP POP JUMPDEST POP POP POP JUMP JUMPDEST PUSH1 0x0 DUP3 DUP3 SHR SWAP1 POP SWAP3 SWAP2 POP POP JUMP JUMPDEST PUSH1 0x0 PUSH2 0x299D PUSH1 0x0 NOT DUP5 PUSH1 0x8 MUL PUSH2 0x297F JUMP JUMPDEST NOT DUP1 DUP4 AND SWAP2 POP POP SWAP3 SWAP2 POP POP JUMP JUMPDEST PUSH1 0x0 PUSH2 0x29B6 DUP4 DUP4 PUSH2 0x298C JUMP JUMPDEST SWAP2 POP DUP3 PUSH1 0x2 MUL DUP3 OR SWAP1 POP SWAP3 SWAP2 POP POP JUMP JUMPDEST PUSH2 0x29D0 DUP4 DUP4 PUSH2 0x2780 JUMP JUMPDEST PUSH8 0xFFFFFFFFFFFFFFFF DUP2 GT ISZERO PUSH2 0x29E9 JUMPI PUSH2 0x29E8 PUSH2 0x278B JUMP JUMPDEST JUMPDEST PUSH2 0x29F3 DUP3 SLOAD PUSH2 0x27E9 JUMP JUMPDEST PUSH2 0x29FE DUP3 DUP3 DUP6 PUSH2 0x2939 JUMP JUMPDEST PUSH1 0x0 PUSH1 0x1F DUP4 GT PUSH1 0x1 DUP2 EQ PUSH2 0x2A2D JUMPI PUSH1 0x0 DUP5 ISZERO PUSH2 0x2A1B JUMPI DUP3 DUP8 ADD CALLDATALOAD SWAP1 POP JUMPDEST PUSH2 0x2A25 DUP6 DUP3 PUSH2 0x29AA JUMP JUMPDEST DUP7 SSTORE POP PUSH2 0x2A8D JUMP JUMPDEST PUSH1 0x1F NOT DUP5 AND PUSH2 0x2A3B DUP7 PUSH2 0x281A JUMP JUMPDEST PUSH1 0x0 JUMPDEST DUP3 DUP2 LT ISZERO PUSH2 0x2A63 JUMPI DUP5 DUP10 ADD CALLDATALOAD DUP3 SSTORE PUSH1 0x1 DUP3 ADD SWAP2 POP PUSH1 0x20 DUP6 ADD SWAP5 POP PUSH1 0x20 DUP2 ADD SWAP1 POP PUSH2 0x2A3E JUMP JUMPDEST DUP7 DUP4 LT ISZERO PUSH2 0x2A80 JUMPI DUP5 DUP10 ADD CALLDATALOAD PUSH2 0x2A7C PUSH1 0x1F DUP10 AND DUP3 PUSH2 0x298C JUMP JUMPDEST DUP4 SSTORE POP JUMPDEST PUSH1 0x1 PUSH1 0x2 DUP9 MUL ADD DUP9 SSTORE POP POP POP JUMPDEST POP POP POP POP POP POP POP JUMP JUMPDEST PUSH1 0x0 PUSH2 0x2AA1 DUP3 PUSH2 0x239F JUMP JUMPDEST SWAP2 POP PUSH2 0x2AAC DUP4 PUSH2 0x239F JUMP JUMPDEST SWAP3 POP DUP3 DUP3 MUL PUSH2 0x2ABA DUP2 PUSH2 0x239F JUMP JUMPDEST SWAP2 POP DUP3 DUP3 DIV DUP5 EQ DUP4 ISZERO OR PUSH2 0x2AD1 JUMPI PUSH2 0x2AD0 PUSH2 0x2728 JUMP JUMPDEST JUMPDEST POP SWAP3 SWAP2 POP POP JUMP JUMPDEST PUSH32 0x4E487B7100000000000000000000000000000000000000000000000000000000 PUSH1 0x0 MSTORE PUSH1 0x21 PUSH1 0x4 MSTORE PUSH1 0x24 PUSH1 0x0 REVERT JUMPDEST PUSH32 0x456E7472656761206372656164613A2000000000000000000000000000000000 PUSH1 0x0 DUP3 ADD MSTORE POP JUMP JUMPDEST PUSH1 0x0 PUSH2 0x2B3D PUSH1 0x10 DUP4 PUSH2 0x250C JUMP JUMPDEST SWAP2 POP PUSH2 0x2B48 DUP3 PUSH2 0x2B07 JUMP JUMPDEST PUSH1 0x20 DUP3 ADD SWAP1 POP SWAP2 SWAP1 POP JUMP JUMPDEST PUSH2 0x2B5C DUP2 PUSH2 0x2361 JUMP JUMPDEST DUP3 MSTORE POP POP JUMP JUMPDEST DUP3 DUP2 DUP4 CALLDATACOPY PUSH1 0x0 DUP4 DUP4 ADD MSTORE POP POP POP JUMP JUMPDEST PUSH1 0x0 PUSH2 0x2B7D DUP4 DUP6 PUSH2 0x250C JUMP JUMPDEST SWAP4 POP PUSH2 0x2B8A DUP4 DUP6 DUP5 PUSH2 0x2B62 JUMP JUMPDEST PUSH2 0x2B93 DUP4 PUSH2 0x2547 JUMP JUMPDEST DUP5 ADD SWAP1 POP SWAP4 SWAP3 POP POP POP JUMP JUMPDEST PUSH1 0x0 PUSH1 0xA0 DUP3 ADD SWAP1 POP DUP2 DUP2 SUB PUSH1 0x0 DUP4 ADD MSTORE PUSH2 0x2BB7 DUP2 PUSH2 0x2B30 JUMP JUMPDEST SWAP1 POP PUSH2 0x2BC6 PUSH1 0x20 DUP4 ADD DUP9 PUSH2 0x2B53 JUMP JUMPDEST PUSH2 0x2BD3 PUSH1 0x40 DUP4 ADD DUP8 PUSH2 0x2B53 JUMP JUMPDEST PUSH2 0x2BE0 PUSH1 0x60 DUP4 ADD DUP7 PUSH2 0x2626 JUMP JUMPDEST DUP2 DUP2 SUB PUSH1 0x80 DUP4 ADD MSTORE PUSH2 0x2BF3 DUP2 DUP5 DUP7 PUSH2 0x2B71 JUMP JUMPDEST SWAP1 POP SWAP7 SWAP6 POP POP POP POP POP POP JUMP JUMPDEST PUSH32 0x4E6F206572657320656C2076656E6465646F722064656C20636F6E747261746F PUSH1 0x0 DUP3 ADD MSTORE POP JUMP JUMPDEST PUSH1 0x0 PUSH2 0x2C35 PUSH1 0x20 DUP4 PUSH2 0x250C JUMP JUMPDEST SWAP2 POP PUSH2 0x2C40 DUP3 PUSH2 0x2BFF JUMP JUMPDEST PUSH1 0x20 DUP3 ADD SWAP1 POP SWAP2 SWAP1 POP JUMP JUMPDEST PUSH1 0x0 PUSH1 0x20 DUP3 ADD SWAP1 POP DUP2 DUP2 SUB PUSH1 0x0 DUP4 ADD MSTORE PUSH2 0x2C64 DUP2 PUSH2 0x2C28 JUMP JUMPDEST SWAP1 POP SWAP2 SWAP1 POP JUMP JUMPDEST PUSH32 0x456C204E756D65726F20646520656E7472656761206E6F20657320636F727265 PUSH1 0x0 DUP3 ADD MSTORE PUSH32 0x63746F0000000000000000000000000000000000000000000000000000000000 PUSH1 0x20 DUP3 ADD MSTORE POP JUMP JUMPDEST PUSH1 0x0 PUSH2 0x2CC7 PUSH1 0x23 DUP4 PUSH2 0x250C JUMP JUMPDEST SWAP2 POP PUSH2 0x2CD2 DUP3 PUSH2 0x2C6B JUMP JUMPDEST PUSH1 0x40 DUP3 ADD SWAP1 POP SWAP2 SWAP1 POP JUMP JUMPDEST PUSH1 0x0 PUSH1 0x20 DUP3 ADD SWAP1 POP DUP2 DUP2 SUB PUSH1 0x0 DUP4 ADD MSTORE PUSH2 0x2CF6 DUP2 PUSH2 0x2CBA JUMP JUMPDEST SWAP1 POP SWAP2 SWAP1 POP JUMP JUMPDEST PUSH32 0x456C20436C69656E7465206E6F206861206669726D61646F206C612072656365 PUSH1 0x0 DUP3 ADD MSTORE PUSH32 0x7063696F6E000000000000000000000000000000000000000000000000000000 PUSH1 0x20 DUP3 ADD MSTORE POP JUMP JUMPDEST PUSH1 0x0 PUSH2 0x2D59 PUSH1 0x25 DUP4 PUSH2 0x250C JUMP JUMPDEST SWAP2 POP PUSH2 0x2D64 DUP3 PUSH2 0x2CFD JUMP JUMPDEST PUSH1 0x40 DUP3 ADD SWAP1 POP SWAP2 SWAP1 POP JUMP JUMPDEST PUSH1 0x0 PUSH1 0x20 DUP3 ADD SWAP1 POP DUP2 DUP2 SUB PUSH1 0x0 DUP4 ADD MSTORE PUSH2 0x2D88 DUP2 PUSH2 0x2D4C JUMP JUMPDEST SWAP1 POP SWAP2 SWAP1 POP JUMP JUMPDEST PUSH32 0x456C2076656E6465646F72207265636F6A6520656C207061676F207920736520 PUSH1 0x0 DUP3 ADD MSTORE PUSH32 0x7061676120656C2074726173706F727465000000000000000000000000000000 PUSH1 0x20 DUP3 ADD MSTORE POP JUMP JUMPDEST PUSH1 0x0 PUSH2 0x2DEB PUSH1 0x31 DUP4 PUSH2 0x250C JUMP JUMPDEST SWAP2 POP PUSH2 0x2DF6 DUP3 PUSH2 0x2D8F JUMP JUMPDEST PUSH1 0x40 DUP3 ADD SWAP1 POP SWAP2 SWAP1 POP JUMP JUMPDEST PUSH1 0x0 PUSH1 0x20 DUP3 ADD SWAP1 POP DUP2 DUP2 SUB PUSH1 0x0 DUP4 ADD MSTORE PUSH2 0x2E1A DUP2 PUSH2 0x2DDE JUMP JUMPDEST SWAP1 POP SWAP2 SWAP1 POP JUMP JUMPDEST PUSH1 0x0 DUP2 SLOAD PUSH2 0x2E2E DUP2 PUSH2 0x27E9 JUMP JUMPDEST PUSH2 0x2E38 DUP2 DUP7 PUSH2 0x250C JUMP JUMPDEST SWAP5 POP PUSH1 0x1 DUP3 AND PUSH1 0x0 DUP2 EQ PUSH2 0x2E53 JUMPI PUSH1 0x1 DUP2 EQ PUSH2 0x2E69 JUMPI PUSH2 0x2E9C JUMP JUMPDEST PUSH1 0xFF NOT DUP4 AND DUP7 MSTORE DUP2 ISZERO ISZERO PUSH1 0x20 MUL DUP7 ADD SWAP4 POP PUSH2 0x2E9C JUMP JUMPDEST PUSH2 0x2E72 DUP6 PUSH2 0x281A JUMP JUMPDEST PUSH1 0x0 JUMPDEST DUP4 DUP2 LT ISZERO PUSH2 0x2E94 JUMPI DUP2 SLOAD DUP2 DUP10 ADD MSTORE PUSH1 0x1 DUP3 ADD SWAP2 POP PUSH1 0x20 DUP2 ADD SWAP1 POP PUSH2 0x2E75 JUMP JUMPDEST DUP1 DUP9 ADD SWAP6 POP POP POP JUMPDEST POP POP POP SWAP3 SWAP2 POP POP JUMP JUMPDEST PUSH1 0x0 PUSH1 0xE0 DUP3 ADD SWAP1 POP PUSH2 0x2EBA PUSH1 0x0 DUP4 ADD DUP11 PUSH2 0x25FC JUMP JUMPDEST DUP2 DUP2 SUB PUSH1 0x20 DUP4 ADD MSTORE PUSH2 0x2ECC DUP2 DUP10 PUSH2 0x2E21 JUMP JUMPDEST SWAP1 POP PUSH2 0x2EDB PUSH1 0x40 DUP4 ADD DUP9 PUSH2 0x2626 JUMP JUMPDEST DUP2 DUP2 SUB PUSH1 0x60 DUP4 ADD MSTORE PUSH2 0x2EED DUP2 DUP8 PUSH2 0x2558 JUMP JUMPDEST SWAP1 POP PUSH2 0x2EFC PUSH1 0x80 DUP4 ADD DUP7 PUSH2 0x2B53 JUMP JUMPDEST PUSH2 0x2F09 PUSH1 0xA0 DUP4 ADD DUP6 PUSH2 0x2B53 JUMP JUMPDEST PUSH2 0x2F16 PUSH1 0xC0 DUP4 ADD DUP5 PUSH2 0x2B53 JUMP JUMPDEST SWAP9 SWAP8 POP POP POP POP POP POP POP POP JUMP JUMPDEST PUSH32 0x46756E63696F6E2064652070616E69636F205265616C697A6164612073652064 PUSH1 0x0 DUP3 ADD MSTORE PUSH32 0x657675656C76656E206C6F7320666F6E646F732064656C20436F6E747261746F PUSH1 0x20 DUP3 ADD MSTORE PUSH32 0x20616C206F776E65720000000000000000000000000000000000000000000000 PUSH1 0x40 DUP3 ADD MSTORE POP JUMP JUMPDEST PUSH1 0x0 PUSH2 0x2FA4 PUSH1 0x49 DUP4 PUSH2 0x250C JUMP JUMPDEST SWAP2 POP PUSH2 0x2FAF DUP3 PUSH2 0x2F22 JUMP JUMPDEST PUSH1 0x60 DUP3 ADD SWAP1 POP SWAP2 SWAP1 POP JUMP JUMPDEST PUSH1 0x0 PUSH1 0x20 DUP3 ADD SWAP1 POP DUP2 DUP2 SUB PUSH1 0x0 DUP4 ADD MSTORE PUSH2 0x2FD3 DUP2 PUSH2 0x2F97 JUMP JUMPDEST SWAP1 POP SWAP2 SWAP1 POP JUMP JUMPDEST PUSH32 0x456C2065737461646F206E6F20657320656C20616465637561646F2070617261 PUSH1 0x0 DUP3 ADD MSTORE PUSH32 0x20706F6465722043616E63656C6172206C6120656E7472656761000000000000 PUSH1 0x20 DUP3 ADD MSTORE POP JUMP JUMPDEST PUSH1 0x0 PUSH2 0x3036 PUSH1 0x3A DUP4 PUSH2 0x250C JUMP JUMPDEST SWAP2 POP PUSH2 0x3041 DUP3 PUSH2 0x2FDA JUMP JUMPDEST PUSH1 0x40 DUP3 ADD SWAP1 POP SWAP2 SWAP1 POP JUMP JUMPDEST PUSH1 0x0 PUSH1 0x20 DUP3 ADD SWAP1 POP DUP2 DUP2 SUB PUSH1 0x0 DUP4 ADD MSTORE PUSH2 0x3065 DUP2 PUSH2 0x3029 JUMP JUMPDEST SWAP1 POP SWAP2 SWAP1 POP JUMP JUMPDEST PUSH32 0x456E74726567612043616E63656C616461000000000000000000000000000000 PUSH1 0x0 DUP3 ADD MSTORE POP JUMP JUMPDEST PUSH1 0x0 PUSH2 0x30A2 PUSH1 0x11 DUP4 PUSH2 0x250C JUMP JUMPDEST SWAP2 POP PUSH2 0x30AD DUP3 PUSH2 0x306C JUMP JUMPDEST PUSH1 0x20 DUP3 ADD SWAP1 POP SWAP2 SWAP1 POP JUMP JUMPDEST PUSH1 0x0 PUSH1 0xA0 DUP3 ADD SWAP1 POP DUP2 DUP2 SUB PUSH1 0x0 DUP4 ADD MSTORE PUSH2 0x30D1 DUP2 PUSH2 0x3095 JUMP JUMPDEST SWAP1 POP PUSH2 0x30E0 PUSH1 0x20 DUP4 ADD DUP8 PUSH2 0x2B53 JUMP JUMPDEST PUSH2 0x30ED PUSH1 0x40 DUP4 ADD DUP7 PUSH2 0x2B53 JUMP JUMPDEST PUSH2 0x30FA PUSH1 0x60 DUP4 ADD DUP6 PUSH2 0x2626 JUMP JUMPDEST DUP2 DUP2 SUB PUSH1 0x80 DUP4 ADD MSTORE PUSH2 0x310C DUP2 DUP5 PUSH2 0x2E21 JUMP JUMPDEST SWAP1 POP SWAP6 SWAP5 POP POP POP POP POP JUMP JUMPDEST PUSH32 0x4E6F207469656E657320726F6C2064652072657061727469646F72206F206E6F PUSH1 0x0 DUP3 ADD MSTORE PUSH32 0x206573746173207369676E61646F20636F6D6F2074616C000000000000000000 PUSH1 0x20 DUP3 ADD MSTORE POP JUMP JUMPDEST PUSH1 0x0 PUSH2 0x3173 PUSH1 0x37 DUP4 PUSH2 0x250C JUMP JUMPDEST SWAP2 POP PUSH2 0x317E DUP3 PUSH2 0x3117 JUMP JUMPDEST PUSH1 0x40 DUP3 ADD SWAP1 POP SWAP2 SWAP1 POP JUMP JUMPDEST PUSH1 0x0 PUSH1 0x20 DUP3 ADD SWAP1 POP DUP2 DUP2 SUB PUSH1 0x0 DUP4 ADD MSTORE PUSH2 0x31A2 DUP2 PUSH2 0x3166 JUMP JUMPDEST SWAP1 POP SWAP2 SWAP1 POP JUMP JUMPDEST PUSH32 0x454C2065737461646F206465206C6120456E7472616761207469656E65207175 PUSH1 0x0 DUP3 ADD MSTORE PUSH32 0x6520657374617220612041434345505445440000000000000000000000000000 PUSH1 0x20 DUP3 ADD MSTORE POP JUMP JUMPDEST PUSH1 0x0 PUSH2 0x3205 PUSH1 0x32 DUP4 PUSH2 0x250C JUMP JUMPDEST SWAP2 POP PUSH2 0x3210 DUP3 PUSH2 0x31A9 JUMP JUMPDEST PUSH1 0x40 DUP3 ADD SWAP1 POP SWAP2 SWAP1 POP JUMP JUMPDEST PUSH1 0x0 PUSH1 0x20 DUP3 ADD SWAP1 POP DUP2 DUP2 SUB PUSH1 0x0 DUP4 ADD MSTORE PUSH2 0x3234 DUP2 PUSH2 0x31F8 JUMP JUMPDEST SWAP1 POP SWAP2 SWAP1 POP JUMP JUMPDEST PUSH32 0x4C6120656E747265676120612073616C69646F20686163696120737520646573 PUSH1 0x0 DUP3 ADD MSTORE PUSH32 0x74696E6F00000000000000000000000000000000000000000000000000000000 PUSH1 0x20 DUP3 ADD MSTORE POP JUMP JUMPDEST PUSH1 0x0 PUSH2 0x3297 PUSH1 0x24 DUP4 PUSH2 0x250C JUMP JUMPDEST SWAP2 POP PUSH2 0x32A2 DUP3 PUSH2 0x323B JUMP JUMPDEST PUSH1 0x40 DUP3 ADD SWAP1 POP SWAP2 SWAP1 POP JUMP JUMPDEST PUSH1 0x0 PUSH1 0x20 DUP3 ADD SWAP1 POP DUP2 DUP2 SUB PUSH1 0x0 DUP4 ADD MSTORE PUSH2 0x32C6 DUP2 PUSH2 0x328A JUMP JUMPDEST SWAP1 POP SWAP2 SWAP1 POP JUMP JUMPDEST PUSH32 0x4E6F206572657320636C69656E7465206465206C6120656E7472656761206F20 PUSH1 0x0 DUP3 ADD MSTORE PUSH32 0x6E6F20657374617320617369676E61646F20636F6D6F2074616C000000000000 PUSH1 0x20 DUP3 ADD MSTORE POP JUMP JUMPDEST PUSH1 0x0 PUSH2 0x3329 PUSH1 0x3A DUP4 PUSH2 0x250C JUMP JUMPDEST SWAP2 POP PUSH2 0x3334 DUP3 PUSH2 0x32CD JUMP JUMPDEST PUSH1 0x40 DUP3 ADD SWAP1 POP SWAP2 SWAP1 POP JUMP JUMPDEST PUSH1 0x0 PUSH1 0x20 DUP3 ADD SWAP1 POP DUP2 DUP2 SUB PUSH1 0x0 DUP4 ADD MSTORE PUSH2 0x3358 DUP2 PUSH2 0x331C JUMP JUMPDEST SWAP1 POP SWAP2 SWAP1 POP JUMP JUMPDEST PUSH32 0x4E6F207469656E657320737566696369656E74657320666F6E646F7320706172 PUSH1 0x0 DUP3 ADD MSTORE PUSH32 0x6120636F6D7072617220656C2070726F647563746F2C206F20656C2076616C6F PUSH1 0x20 DUP3 ADD MSTORE PUSH32 0x722065732064697374696E746F207469656E6520717565207365723A20000000 PUSH1 0x40 DUP3 ADD MSTORE POP JUMP JUMPDEST PUSH1 0x0 PUSH2 0x33E1 PUSH1 0x5D DUP4 PUSH2 0x250C JUMP JUMPDEST SWAP2 POP PUSH2 0x33EC DUP3 PUSH2 0x335F JUMP JUMPDEST PUSH1 0x60 DUP3 ADD SWAP1 POP SWAP2 SWAP1 POP JUMP JUMPDEST PUSH1 0x0 PUSH1 0x40 DUP3 ADD SWAP1 POP DUP2 DUP2 SUB PUSH1 0x0 DUP4 ADD MSTORE PUSH2 0x3410 DUP2 PUSH2 0x33D4 JUMP JUMPDEST SWAP1 POP PUSH2 0x341F PUSH1 0x20 DUP4 ADD DUP5 PUSH2 0x2626 JUMP JUMPDEST SWAP3 SWAP2 POP POP JUMP JUMPDEST PUSH32 0x456C2072657061727469646F72206E6F2061206C6C656761646F20616C206465 PUSH1 0x0 DUP3 ADD MSTORE PUSH32 0x7374696E6F206E6F20707565646573206669726D6172206C6120726563656F63 PUSH1 0x20 DUP3 ADD MSTORE PUSH32 0x696F6E2064656C2070726F647563746F00000000000000000000000000000000 PUSH1 0x40 DUP3 ADD MSTORE POP JUMP JUMPDEST PUSH1 0x0 PUSH2 0x34A7 PUSH1 0x50 DUP4 PUSH2 0x250C JUMP JUMPDEST SWAP2 POP PUSH2 0x34B2 DUP3 PUSH2 0x3425 JUMP JUMPDEST PUSH1 0x60 DUP3 ADD SWAP1 POP SWAP2 SWAP1 POP JUMP JUMPDEST PUSH1 0x0 PUSH1 0x20 DUP3 ADD SWAP1 POP DUP2 DUP2 SUB PUSH1 0x0 DUP4 ADD MSTORE PUSH2 0x34D6 DUP2 PUSH2 0x349A JUMP JUMPDEST SWAP1 POP SWAP2 SWAP1 POP JUMP JUMPDEST PUSH32 0x456C20436C69656E74652061206669726D61646F206C6120726563657063696F PUSH1 0x0 DUP3 ADD MSTORE PUSH32 0x6E2064652050726F647563746F00000000000000000000000000000000000000 PUSH1 0x20 DUP3 ADD MSTORE POP JUMP JUMPDEST PUSH1 0x0 PUSH2 0x3539 PUSH1 0x2D DUP4 PUSH2 0x250C JUMP JUMPDEST SWAP2 POP PUSH2 0x3544 DUP3 PUSH2 0x34DD JUMP JUMPDEST PUSH1 0x40 DUP3 ADD SWAP1 POP SWAP2 SWAP1 POP JUMP JUMPDEST PUSH1 0x0 PUSH1 0x20 DUP3 ADD SWAP1 POP DUP2 DUP2 SUB PUSH1 0x0 DUP4 ADD MSTORE PUSH2 0x3568 DUP2 PUSH2 0x352C JUMP JUMPDEST SWAP1 POP SWAP2 SWAP1 POP JUMP JUMPDEST PUSH32 0x454C2065737461646F206465206C6120456E7472616761207469656E65207175 PUSH1 0x0 DUP3 ADD MSTORE PUSH32 0x6520657374617220612052454144590000000000000000000000000000000000 PUSH1 0x20 DUP3 ADD MSTORE POP JUMP JUMPDEST PUSH1 0x0 PUSH2 0x35CB PUSH1 0x2F DUP4 PUSH2 0x250C JUMP JUMPDEST SWAP2 POP PUSH2 0x35D6 DUP3 PUSH2 0x356F JUMP JUMPDEST PUSH1 0x40 DUP3 ADD SWAP1 POP SWAP2 SWAP1 POP JUMP JUMPDEST PUSH1 0x0 PUSH1 0x20 DUP3 ADD SWAP1 POP DUP2 DUP2 SUB PUSH1 0x0 DUP4 ADD MSTORE PUSH2 0x35FA DUP2 PUSH2 0x35BE JUMP JUMPDEST SWAP1 POP SWAP2 SWAP1 POP JUMP JUMPDEST PUSH32 0x456C2072657061727469646F72206861206669726D61646F206C61206C6C6567 PUSH1 0x0 DUP3 ADD MSTORE PUSH32 0x6120616C2064657374696E6F0000000000000000000000000000000000000000 PUSH1 0x20 DUP3 ADD MSTORE POP JUMP JUMPDEST PUSH1 0x0 PUSH2 0x365D PUSH1 0x2C DUP4 PUSH2 0x250C JUMP JUMPDEST SWAP2 POP PUSH2 0x3668 DUP3 PUSH2 0x3601 JUMP JUMPDEST PUSH1 0x40 DUP3 ADD SWAP1 POP SWAP2 SWAP1 POP JUMP JUMPDEST PUSH1 0x0 PUSH1 0x20 DUP3 ADD SWAP1 POP DUP2 DUP2 SUB PUSH1 0x0 DUP4 ADD MSTORE PUSH2 0x368C DUP2 PUSH2 0x3650 JUMP JUMPDEST SWAP1 POP SWAP2 SWAP1 POP JUMP INVALID LOG2 PUSH5 0x6970667358 0x22 SLT KECCAK256 SWAP16 0xD3 0xF7 0xB8 PUSH31 0xF7F21F2F1D84A1C7014DAB20D06465DA329B47E228F78412AB8B4E64736F6C PUSH4 0x43000811 STOP CALLER "
				},
				"gasEstimates": {
					"creation": {
						"codeDepositCost": "2805000",
						"executionCost": "infinite",
						"totalCost": "infinite"
					},
					"external": {
						"canceladaEntrada(uint256)": "infinite",
						"clienteFirmaRecepcion(uint256)": "infinite",
						"contractaddress()": "2536",
						"crearEntrega(address,address,address,uint256,string)": "infinite",
						"fondoscontratos()": "2672",
						"numCalculado()": "2515",
						"owner()": "2537",
						"panico()": "infinite",
						"repartidorFirmaLlegada(uint256)": "56021",
						"repartidorFirmaSalida(uint256)": "55978",
						"vendedorRecicePago(uint256)": "infinite",
						"viewEntrega(uint256)": "infinite",
						"viewEntregaStatus(uint256)": "infinite"
					}
				},
				"methodIdentifiers": {
					"canceladaEntrada(uint256)": "86255ba2",
					"clienteFirmaRecepcion(uint256)": "d6223cca",
					"contractaddress()": "db7fbc86",
					"crearEntrega(address,address,address,uint256,string)": "19315abc",
					"fondoscontratos()": "dd1a8d67",
					"numCalculado()": "dbbd9752",
					"owner()": "8da5cb5b",
					"panico()": "81e6830f",
					"repartidorFirmaLlegada(uint256)": "f856e749",
					"repartidorFirmaSalida(uint256)": "bdc0679f",
					"vendedorRecicePago(uint256)": "3ecd4392",
					"viewEntrega(uint256)": "7b0553f2",
					"viewEntregaStatus(uint256)": "77e93dba"
				}
			},
			"storageLayout": {
				"storage": [
					{
						"astId": 33,
						"contract": "Trazabilidad.sol:Trazabilidad",
						"label": "priceTrasporte",
						"offset": 0,
						"slot": "0",
						"type": "t_uint256"
					},
					{
						"astId": 35,
						"contract": "Trazabilidad.sol:Trazabilidad",
						"label": "numCalculado",
						"offset": 0,
						"slot": "1",
						"type": "t_uint8"
					},
					{
						"astId": 40,
						"contract": "Trazabilidad.sol:Trazabilidad",
						"label": "mapEntrega",
						"offset": 0,
						"slot": "2",
						"type": "t_mapping(t_uint256,t_struct(Entrega)31_storage)"
					},
					{
						"astId": 42,
						"contract": "Trazabilidad.sol:Trazabilidad",
						"label": "owner",
						"offset": 0,
						"slot": "3",
						"type": "t_address_payable"
					},
					{
						"astId": 44,
						"contract": "Trazabilidad.sol:Trazabilidad",
						"label": "contractaddress",
						"offset": 0,
						"slot": "4",
						"type": "t_address_payable"
					},
					{
						"astId": 51,
						"contract": "Trazabilidad.sol:Trazabilidad",
						"label": "fondostotales",
						"offset": 0,
						"slot": "5",
						"type": "t_uint256"
					},
					{
						"astId": 54,
						"contract": "Trazabilidad.sol:Trazabilidad",
						"label": "ACCEPTED",
						"offset": 0,
						"slot": "6",
						"type": "t_string_storage"
					},
					{
						"astId": 57,
						"contract": "Trazabilidad.sol:Trazabilidad",
						"label": "READY",
						"offset": 0,
						"slot": "7",
						"type": "t_string_storage"
					},
					{
						"astId": 60,
						"contract": "Trazabilidad.sol:Trazabilidad",
						"label": "CLOK",
						"offset": 0,
						"slot": "8",
						"type": "t_string_storage"
					},
					{
						"astId": 63,
						"contract": "Trazabilidad.sol:Trazabilidad",
						"label": "RPOK",
						"offset": 0,
						"slot": "9",
						"type": "t_string_storage"
					},
					{
						"astId": 66,
						"contract": "Trazabilidad.sol:Trazabilidad",
						"label": "CLKO",
						"offset": 0,
						"slot": "10",
						"type": "t_string_storage"
					},
					{
						"astId": 69,
						"contract": "Trazabilidad.sol:Trazabilidad",
						"label": "RPKO",
						"offset": 0,
						"slot": "11",
						"type": "t_string_storage"
					},
					{
						"astId": 72,
						"contract": "Trazabilidad.sol:Trazabilidad",
						"label": "CANCEL",
						"offset": 0,
						"slot": "12",
						"type": "t_string_storage"
					},
					{
						"astId": 75,
						"contract": "Trazabilidad.sol:Trazabilidad",
						"label": "REALIZADA",
						"offset": 0,
						"slot": "13",
						"type": "t_string_storage"
					}
				],
				"types": {
					"t_address": {
						"encoding": "inplace",
						"label": "address",
						"numberOfBytes": "20"
					},
					"t_address_payable": {
						"encoding": "inplace",
						"label": "address payable",
						"numberOfBytes": "20"
					},
					"t_enum(Role)14": {
						"encoding": "inplace",
						"label": "enum Trazabilidad.Role",
						"numberOfBytes": "1"
					},
					"t_enum(Status)10": {
						"encoding": "inplace",
						"label": "enum Trazabilidad.Status",
						"numberOfBytes": "1"
					},
					"t_mapping(t_enum(Role)14,t_address)": {
						"encoding": "mapping",
						"key": "t_enum(Role)14",
						"label": "mapping(enum Trazabilidad.Role => address)",
						"numberOfBytes": "32",
						"value": "t_address"
					},
					"t_mapping(t_uint256,t_struct(Entrega)31_storage)": {
						"encoding": "mapping",
						"key": "t_uint256",
						"label": "mapping(uint256 => struct Trazabilidad.Entrega)",
						"numberOfBytes": "32",
						"value": "t_struct(Entrega)31_storage"
					},
					"t_string_storage": {
						"encoding": "bytes",
						"label": "string",
						"numberOfBytes": "32"
					},
					"t_struct(Entrega)31_storage": {
						"encoding": "inplace",
						"label": "struct Trazabilidad.Entrega",
						"members": [
							{
								"astId": 16,
								"contract": "Trazabilidad.sol:Trazabilidad",
								"label": "numEntrega",
								"offset": 0,
								"slot": "0",
								"type": "t_uint8"
							},
							{
								"astId": 18,
								"contract": "Trazabilidad.sol:Trazabilidad",
								"label": "description",
								"offset": 0,
								"slot": "1",
								"type": "t_string_storage"
							},
							{
								"astId": 20,
								"contract": "Trazabilidad.sol:Trazabilidad",
								"label": "price",
								"offset": 0,
								"slot": "2",
								"type": "t_uint256"
							},
							{
								"astId": 22,
								"contract": "Trazabilidad.sol:Trazabilidad",
								"label": "timestamp",
								"offset": 0,
								"slot": "3",
								"type": "t_uint256"
							},
							{
								"astId": 25,
								"contract": "Trazabilidad.sol:Trazabilidad",
								"label": "status",
								"offset": 0,
								"slot": "4",
								"type": "t_enum(Status)10"
							},
							{
								"astId": 30,
								"contract": "Trazabilidad.sol:Trazabilidad",
								"label": "mapRole",
								"offset": 0,
								"slot": "5",
								"type": "t_mapping(t_enum(Role)14,t_address)"
							}
						],
						"numberOfBytes": "192"
					},
					"t_uint256": {
						"encoding": "inplace",
						"label": "uint256",
						"numberOfBytes": "32"
					},
					"t_uint8": {
						"encoding": "inplace",
						"label": "uint8",
						"numberOfBytes": "1"
					}
				}
			},
			"userdoc": {
				"kind": "user",
				"methods": {},
				"version": 1
			}
		}
	}
}